:020000040800F2
:10000000D03A0020390B0008FD010008FF0100086C
:1000100003020008070200080B02000800000000AD
:100020000000000000000000000000000F020008B7
:100030001102000800000000130200081502000869
:100040004F0B00084F0B00084F0B00084F0B000828
:100050004F0B00084F0B00084F0B00084F0B000818
:100060004F0B00084F0B00084F0B00084F0B000808
:100070004F0B00084F0B00084F0B00084F0B0008F8
:100080004F0B00084F0B00084F0B00084F0B0008E8
:100090004F0B00084F0B00084F0B00084F0B0008D8
:1000A0004F0B00084F0B00084F0B00084F0B0008C8
:1000B0004F0B00084F0B00084F0B00084F0B0008B8
:1000C0004F0B00084F0B00084F0B00084F0B0008A8
:1000D0004F0B00084F0B00084F0B00084F0B000898
:1000E0004F0B00084F0B00084F0B000800F002F800
:1000F00000F05AF80AA090E8000C82448344AAF168
:100100000107DA4501D100F04FF8AFF2090EBAE865
:100110000F0013F0010F18BFFB1A43F0010318473B
:1001200070300000903000000A444FF0000C10F8CE
:10013000013B13F0070408BF10F8014B1D1108BF65
:1001400010F8015B641E05D010F8016B641E01F805
:10015000016BF9D113F0080F1EBF10F8014BAD1C55
:100160000C1B09D16D1E58BF01F801CBFAD505E073
:1001700014F8016B01F8016B6D1EF9D59142D6D3CD
:10018000704700000023002400250026103A28BFF5
:1001900078C1FBD8520728BF30C148BF0B607047F9
:1001A0001FB51FBD10B510BD01F0C0FA1146FFF715
:1001B000F7FF00F009F801F0DEFA03B4FFF7F2FFF1
:1001C00003BC01F0E1FA000000BF00F094F8482001
:1001D00001F040FA00F005FA074800F029FB4FF45F
:1001E0007A7001F051FA06E0202000F005F94FF492
:1001F0007A7001F049FAF7E780250020704700BFC8
:10020000FEE700BFFEE700BFFEE700BFFEE7704766
:1002100070477047704700000CB5002001900090B7
:100220006C48006840F480306A49086000BF694843
:10023000006800F4003000900198401C0190009884
:1002400018B90198B0F5A06FF1D16248006800F4C8
:10025000003010B10120009001E0002000900098D3
:10026000012843D15C48006840F010005A490860FA
:100270000846006820F0030008600846006840F067
:100280000200086053484068524948600846406888
:1002900048600846406840F480604860084640680E
:1002A00020F47C1048600846406840F4E81048603C
:1002B0000846006840F08070086000BF454800684C
:1002C00000F000700028F9D04248406820F0030098
:1002D000404948600846406840F00200486000BF5E
:1002E0003C48406800F00C000828F9D10CBD10B55E
:1002F000FFF792FF10BD10B53648006840F00100CE
:10030000344908600846406834490840314948602B
:1003100008460068324908402E49086008460068CF
:1003200020F4802008600846406820F4FE00486001
:100330004FF41F008860FFF7DAFF4FF00060294993
:10034000086010BD10B5002100200022214B5B6821
:1003500003F00C0121B1042906D0082928D107E0B7
:10036000214B224C236027E01F4B204C236023E0CD
:10037000184B5B6803F47010164B5B6803F4803213
:10038000022303EB904022B9194B4343174C2360DF
:100390000DE0104B5B6803F4003323B1144B43436F
:1003A000124C236003E0104B4343104C236003E0E6
:1003B0000D4B0E4C236000BF00BF064B5B68C3F3C0
:1003C00003130C4CE15C094B1B68CB40074C2360CA
:1003D00010BD000000100240002002400000FFF8A5
:1003E000FFFFF6FE08ED00E000127A004038002022
:1003F00000093D004438002010B504464FF4007059
:10040000FC49086000222146FB4800F01FFB4FF426
:100410000070F849091F086010BD10B504464FF47C
:100420000070F449086001222146F34800F00EFBF9
:100430004FF40070EF49091F086010BD10B52C2063
:10044000FFF7DAFF10BD08B50121082000F018FF02
:100450004FF47070ADF8000003208DF802001020FA
:100460008DF803006946E348143800F04DFC08BDE0
:1004700010B54FF48070DF490860642001F004F982
:100480004FF48070DB49091F0860322001F0FCF84E
:1004900010BD70B50446002504F0800008B1E025C9
:1004A00000E000256006040E04F0800010B105F1A4
:1004B0001C00C5B26006040E04F0800008B1E81C00
:1004C000C5B22846FFF7A9FF70BD10B50446204607
:1004D000FFF7DFFFE106080EFFF7DBFF10BD70B589
:1004E00004460D462046FFF7F0FFA10141EAA501B1
:1004F000C8B2FFF7CEFF70BD70B505460C46214669
:100500002846FFF7ECFF6106080EFFF7C2FF70BD3B
:1005100070B505460C4621462846FFF7EDFF21073A
:10052000080EFFF7B6FF70BD70B506460C461546BF
:1005300021463046FFF7ECFFE10141EA6501C8B210
:10054000FFF7A7FF70BD2DE9F04704460D4616469C
:100550001F46701E032190FBF1F020441FFA80F823
:10056000E819401E1FFA80F92A20FFF745FF200AEC
:10057000FFF753FFE0B2FFF750FF4FEA1820FFF7F5
:100580004CFF08F0FF00FFF748FF2B20FFF734FF78
:10059000280AFFF742FFE8B2FFF73FFF4FEA1920B2
:1005A000FFF73BFF09F0FF00FFF737FFBDE8F087DB
:1005B00070B5A023F02200210846FFF7C4FFFFF723
:1005C0003DFF00240AE0002505E000221146104608
:1005D000FFF7AAFF6D1C142DF7DB641CA02CF2DBC7
:1005E00070BD10B500F059FAFFF72DFFFFF740FF7F
:1005F0001120FFF701FFC020FFF7FEFEF120FFF7FB
:100600000CFF0020FFF709FFC320FFF7F5FE0220D3
:10061000FFF703FFC420FFF7EFFE0720FFF7FDFE03
:10062000D020FFF7E9FE1D20FFF7F7FEB520FFF70A
:10063000E3FE0020FFF7F1FE3820FFF7DDFE3A2051
:10064000FFF7DAFE0220FFF7E8FE3620FFF7D4FEC0
:100650000020FFF7E2FEB020FFF7CEFE9F20FFF75D
:10066000DCFE2120FFF7C8FEF120FFF7C5FE1520B4
:10067000FFF7D3FE1520FFF7D0FE1520FFF7CDFEC4
:100680001520FFF7CAFEB120FFF7B6FE0020FFF7E6
:10069000C4FE2920FFF7B0FE012058490860FFF78B
:1006A00087FF10BD10B504462046FFF7F2FEE106B5
:1006B000080EFFF7EEFEA107080EFFF7EAFE10BDD9
:1006C00070B505460C4621462846FFF721FFE10795
:1006D000080EFFF7DEFE70BD70B505460E461446E7
:1006E000224631462846FFF71FFFA106080EFFF7F6
:1006F000D0FE70BD70B505460E4614462246314602
:100700002846FFF7E9FF6107080EFFF7C2FE70BD3C
:100710002DE9F04105460E4617461C463A4631463D
:100720002846FFF7E7FF2046FFF7B3FEBDE8F0815C
:100730002DE9F04105460E4617461C463A4631461D
:100740002846FFF7D7FF2046FFF7BFFEBDE8F08140
:100750002DE9F04105460E4617461C463A463146FD
:100760002846FFF7C7FF2046FFF79CFFBDE8F08152
:100770002DE9F04105460E4617461C46DDF8188067
:100780003A4631462846FFF7B5FF41462046FFF777
:10079000A6FEBDE8F0812DE9F04705460E46174656
:1007A0001C46DDE908893A4631462846FFF7A2FF94
:1007B0004A4641462046FFF79DFFBDE8F08770B5E9
:1007C000044604F0C00504F0C000C02801D145F083
:1007D0002005182000EA6400054304F030003028AA
:1007E00001D145F00405C4F3810005432846FFF715
:1007F00014FE70BD140C014000300140988121426C
:1008000070B506460C4615463046FFF7D8FFB101D5
:1008100041EAA401C8B2FFF7D2FF210141EA251144
:10082000C8B2FFF7CCFFA906080EFFF7C8FF70BDDE
:100830002DE9F0470446A023F02200210846FFF7E7
:1008400082FEFFF7FBFD002514E000260EE027786E
:10085000641C94F80080641C94F80090641C4A4660
:1008600041463846FFF746FF701C86B20A2EEEDB83
:10087000681C85B2A02DE8DBBDE8F0872DE9F041CA
:1008800006460F469046A023F02200210846FFF7B7
:100890005AFEFFF7D3FD00240CE0002506E0424697
:1008A00039463046FFF726FF681C85B20A2DF6DB75
:1008B000601C84B2A02CF0DBBDE8F0812DE9F0478C
:1008C0000446A023F02200210846FFF73CFEFFF774
:1008D000B5FD002514E000260EE02778641C94F88E
:1008E0000080641C94F80090641C4A4641463846D7
:1008F000FFF786FF701CC6B2142EEEDB681CC5B273
:10090000A02DE8DBBDE8F0872DE9F0478046894659
:1009100014460027302C07DB392C05DCA4F130000D
:10092000484901EB00171FE0412C07DB5A2C05DC7E
:10093000A4F14100444901EB001715E0202C12D12D
:100940001023082249464046FFF7FDFDFFF776FDDC
:10095000002504E00020FFF7A5FE681CC5B2102D9D
:10096000F8DBBDE8F087FCE78FB110230822494689
:100970004046FFF7E8FDFFF761FD002505E07E5DDD
:100980003046FFF78FFE681CC5B2102DF7DB00BFA5
:10099000E7E770B505460E46144615E0E82D03DD81
:1009A000002506F1100086B2902E04DD00200546D9
:1009B0000646FFF7FDFD227831462846FFF7A4FFE3
:1009C00005F1080085B2641C20780028E6D170BDCE
:1009D0002DE9F0470646894690461D464FF0000A2D
:1009E00000242AE0281B411E0A2000F05DFFB8FB0E
:1009F000F0F00A21B0FBF1F201FB1207BAF1000F8F
:100A00000ED1681EA0420BDD47B9082101FB04612D
:100A100088B220224946FFF777FF0CE04FF0010A29
:100A200007F13001CAB2082101FB046188B24946CE
:100A3000FFF76AFF00BF601CC4B2AC42D2DBBDE866
:100A4000F0870000AC2E00085C2F0008034600BFB2
:100A5000188900F002000028FAD0D00340EAC11043
:100A6000988100BF188900F001000028FAD0988909
:100A7000C0B2704702884FF6C7731A40028001293E
:100A800002D10288028003E0028842F02002028044
:100A9000028842F040020280704700B587B0012111
:100AA000052000F0EDFBA020ADF8040003208DF838
:100AB000060018208DF8070001A91D4800F024F950
:100AC0004020ADF8040048208DF8070003208DF881
:100AD000060001A9164800F017F90121080300F0EB
:100AE000CFFB0020ADF808004FF48270ADF80A008B
:100AF0004FF40060ADF80C000220ADF80E000120AC
:100B0000ADF810004002ADF812000020ADF814005E
:100B1000ADF816000720ADF8180002A9054800F04E
:100B200039FC0121034800F0DAFC07B000BD0000E9
:100B3000000801400030014008480047FEE7FEE79A
:100B4000FEE7FEE7FEE7FEE7FEE7FEE7FEE7FEE77D
:100B500003480449024A044B70470000ED000008B6
:100B6000D0380020D03A0020D0380020314901434D
:100B7000314A1160704770B5002100230F22C478FC
:100B800004B32D4C246804F4E064C4F5E064210A45
:100B9000C1F10403CA40447804FA03F18478144094
:100BA00021430901254C0678A155047804F01F055E
:100BB0000124AC4005786D11AD0005F1E025C5F8C4
:100BC000004109E0047804F01F050124AC401C4DED
:100BD0000678761145F8264070BD1A4A0A4002434D
:100BE000154B1B1F1A60704739B1134A121D12684A
:100BF0000243114B1B1D1A6006E00F4A121D1268BA
:100C000082430D4B1B1D1A607047042808D14FF01A
:100C1000E021096941F004014FF0E022116107E091
:100C20004FF0E021096921F004014FF0E022116149
:100C3000704700000000FA050CED00E000E400E061
:100C400080E100E080FFFF1F10B50446CC488442DD
:100C500008D10121042000F02DFB0021042000F028
:100C600029FB46E0C748844208D10121082000F052
:100C700021FB0021082000F01DFB3AE0C24884421D
:100C800008D10121102000F015FB0021102000F0F8
:100C900011FB2EE0BD48844208D10121202000F044
:100CA00009FB0021202000F005FB22E0B848844227
:100CB00008D10121402000F0FDFA0021402000F081
:100CC000F9FA16E0B348844208D10121802000F0EF
:100CD000F1FA0021802000F0EDFA0AE0AE488442EB
:100CE00007D10121801500F0E5FA0021A01500F0E0
:100CF000E1FA10BD10B50121084600F0DBFA002131
:100D0000012000F0D7FA10BD2DE9F0410246002580
:100D10000026002000230024002791F803C00CF0D7
:100D20000F0591F803C00CF0100CBCF1000F03D0BC
:100D300091F802C04CEA050591F800C0BCF1000F23
:100D400031D0146800202BE04FF0010C0CFA00F3B6
:100D5000B1F800C00CEA03069E4220D183004FF098
:100D60000F0C0CFA03F7BC4305FA03FC4CEA04042D
:100D700091F803C0BCF1280F06D14FF0010C0CFA1A
:100D800000FCC2F814C00AE091F803C0BCF1480F9F
:100D900005D14FF0010C0CFA00FCC2F810C0401C49
:100DA0000828D1D31460B1F800C0BCF1FF0F34DDC6
:100DB000546800202EE000F1080C4FF0010808FAFA
:100DC0000CF3B1F800C00CEA03069E4221D1830067
:100DD0004FF00F0C0CFA03F7BC4305FA03FC4CEA86
:100DE000040491F803C0BCF1280F05D100F1080CF0
:100DF00008FA0CF8C2F8148091F803C0BCF1480F4F
:100E000007D100F1080C4FF0010808FA0CF8C2F8FD
:100E10001080401C0828CED35460BDE8F0814FF606
:100E2000FF710180022181700421C1707047024668
:100E3000002093680B400BB1012000E000207047B8
:100E40000146886880B2704702460020D3680B4094
:100E50000BB1012000E0002070470146C86880B255
:100E6000704701617047416170470AB1016100E05C
:100E700041617047C16070474FF480320A4382611C
:100E80008161826182698269704702460020434B1A
:100E900018684FF68073184040EA021008433F4B31
:100EA000186070473E49C8617047F0B50A46002394
:100EB00000240021002500F00046B6F1004F02D1C9
:100EC000364EF16901E0354E7168C0F3034583B2D7
:100ED00000F44016B6F5401F08D121F070612F4E86
:100EE000766826F070662D4F7E6012E000F4801662
:100EF000B6F5801F06D1032606FA05F4A14341F09A
:100F0000706106E0460D360103FA06F6B14341F082
:100F1000706122B1460D360103FA06F6314300F046
:100F20000046B6F1004F02D11C4EF16101E01B4EAC
:100F30007160F0BD30B500228B071C0F0F2303FA40
:100F400004F2164B08338C1053F824309343134C9F
:100F500008348D1044F8253023468C1053F8243083
:100F60008C07240F00FA04F423430C4C08348D1032
:100F700044F8253030BD0A49DC3108607047000074
:100F800000080140000C0140001001400014014025
:100F900000180140001C01400020014000000140F9
:100FA00000002042DF48006840F00100DD49086091
:100FB00008464068DC490840DA494860084600684D
:100FC000DA490840D74908600846006820F48020C4
:100FD00008600846406820F4FE0048604FF41F0097
:100FE00088607047CF49096821F48031CD4A11608B
:100FF0001146096821F480211160B0F5803F03D0CB
:10100000B0F5802F0ED106E0C649096841F4803161
:10101000C44A116007E0C349096841F4A021C14AEC
:10102000116000E000BF00BF704710B5014600220C
:10103000002300204A11012A02D1BA4C236806E09D
:10104000022A02D1B74C236A01E0B64C636A01F070
:101050001F02012494401C400CB1012000E000203C
:1010600010BD38B5002000900024002500BF3120BD
:10107000FFF7DBFF05460098401C00900098B0F594
:10108000A06F01D0002DF2D03120FFF7CEFF08B1C4
:10109000012400E00024204638BD01460020A14A7A
:1010A000106820F0F80040EAC10010607047A049C5
:1010B00008607047024600209A4B586820F47C1064
:1010C00042EA01031843974B5860704798490866F5
:1010D000704701460020934A506820F003000843FF
:1010E000506070478F48406800F00C007047014620
:1010F00000208C4A506820F0F00008435060704790
:1011000001460020874A506820F4E06008435060A0
:10111000704701460020834A506820F4605040EA3E
:10112000C1005060704729B17E4A527A02437D4B1C
:101130005A7204E07B4A527A82437A4B5A72704761
:101140007B49D8310860704701460020754A5068D5
:1011500020F440400843506070470021714A20321B
:101160001170704A82F82010012802D004280AD198
:1011700004E001216B4A2032117005E00521694A23
:101180002032117000E000BF00BF7047694908605D
:1011900070476449096A0143624A116270476549B0
:1011A00044390860704730B5002100220024002334
:1011B0005C4D6D6805F00C0121B1042905D00829AA
:1011C00023D105E05C4D056022E05B4D05601FE02A
:1011D000544D6D6805F47012524D6D6805F48034FD
:1011E000022505EB92421CB9544D554305600BE0B6
:1011F0004C4D6D6805F400351DB1504D55430560EB
:1012000002E04D4D5543056002E04B4D056000BFC7
:1012100000BF444D6D6805F0F0010909484D6B5C55
:101220000568DD4045603F4D6D6805F4E061090AE1
:10123000434D6B5C4568DD4085603A4D6D6805F453
:101240006051C90A3E4D6B5C4568DD40C560354D57
:101250006D6805F44041890B3A4D6B5CC568B5FB80
:10126000F3F5056130BD29B12E4A526902432D4B79
:101270005A6104E02B4A526982432A4B5A617047F3
:1012800029B1284A92690243264B9A6104E0254A13
:1012900092698243234B9A61704729B1214AD269EE
:1012A0000243204BDA6104E01E4AD26982431D4B9F
:1012B000DA61704729B11B4AD2680243194BDA60E0
:1012C00004E0184AD2688243164BDA60704729B1AD
:1012D000144A12690243134B1A6104E0114A12695D
:1012E0008243104B1A6170471249403908607047B9
:1012F0000F49C86470470B49C87170470948406A74
:1013000040F0807007494862704701460020054A56
:1013100092680A400AB1012000E0002070470149AC
:1013200088727047001002400000FFF8FFFFF6FED1
:10133000000042428004424200127A0000093D004F
:10134000543800206438002010B50446BE4884425A
:1013500008D101218014FFF7ADFF0021A014FFF791
:10136000A9FF16E0B948844208D101210014FFF713
:10137000AEFF00212014FFF7AAFF0AE0B448844220
:1013800007D10121C013FFF7A2FF0021E013FFF7EF
:101390009EFF10BD10B50022028802F441520B8856
:1013A0004C8823438C882343CC8823430C892343D4
:1013B0004C8923438C892343CC8923431A430280DD
:1013C000838B4FF2FF74234083830B8A038210BD0B
:1013D0002DE9F04F85B005460C464FF00009022775
:1013E0004FF000084FF0010B0026B246A88B4FF2D9
:1013F00040010840A88302202884B5F81C90A0680A
:10140000022801D100BF38E0A08810B94FF0010BCD
:1014100001E04FF0020B8D48854200D100E000BF93
:101420006846FFF7C0FEDDF800A0E088B0F5007F59
:101430000AD14FEA1A2000EB80004000A168B0FBFF
:10144000F1F0401D86B20BE04FEA4B10BAFBF0F012
:1014500000EB80004000A168B0FBF1F0401D86B2B7
:101460000A20B6FBF0F606F00108A6EB0800C0F370
:101470004F074FF6FF7000EA0828022F01DBFF2F0D
:1014800002DD02274FF00008E08840EA08003843F8
:101490002884A088A18908436188084321880843DB
:1014A00040F4006040EA0909A5F81C9005B0BDE8C9
:1014B000F08F0021018041808180C18001814181C4
:1014C0008181C18107210182704700210180418013
:1014D0008180C1800221816000218181704721B11A
:1014E000028842F04002028004E002884FF6BF7397
:1014F0001A400280704721B1828B42F4806282835D
:1015000004E0828B4FF6FF331A408283704730B578
:10151000002400230C110125A540ABB21AB1858827
:101520001D43858002E085889D43858030BD1AB1CA
:1015300083880B43838002E083888B4383807047DA
:10154000818170470146888970474FF6FF6291425A
:1015500004D0028842F48072028004E002884FF6D0
:10156000FF631A400280704721B1828842F0040272
:10157000828004E082884FF6FB731A4082807047B5
:1015800002884FF2FF731A40028002880A430280E9
:101590007047018841F480510180704721B1028871
:1015A00042F40052028004E002884DF6FF731A40B4
:1015B0000280704702460020012901D0108B00E014
:1015C000908A70470146088A7047B1F5804F04D170
:1015D000028842F48042028004E002884BF6FF73E6
:1015E0001A40028070470246002013890B400BB15D
:1015F000012000E000207047CA4302817047F0B527
:101600000246002000240023002501F00F070126D8
:10161000BE40B4B20B1101269E40B3B2968806EAD2
:1016200003051689264016B10DB1012000E0002007
:10163000F0BD10B5002201F00F040123A3409AB2BF
:10164000D343038110BD000000300140003800404A
:10165000003C004010B504466FF00400FFF7D5FAD7
:10166000E11704EB5171C1F3C701234A1170104611
:10167000007800EB4001C1EBC0104FF6FF7101EAAA
:10168000C0001E49088010BD01461C4A12884A430A
:101690004FF0E0235A6100229A6101221A6100BFD3
:1016A0004FF0E022106900F001021AB100F480321C
:1016B000002AF5D000224FF0E0231A619A617047AA
:1016C00001460D4A12784A434FF0E0235A61002246
:1016D0009A6101221A6100BF4FF0E022106900F008
:1016E00001021AB100F48032002AF5D000224FF036
:1016F000E0231A619A617047683800206A38002038
:1017000070477047704710B500F008F8006810BDCA
:1017100010B5044600F002F8046010BD00487047A0
:101720006C380020004870476C3800207546FFF781
:10173000F9FFAE4605006946534620F0070085468E
:1017400018B020B5FFF704FABDE820404FF00006BE
:101750004FF000074FF000084FF0000B21F0070199
:10176000AC46ACE8C009ACE8C009ACE8C009ACE8DC
:10177000C0098D46704710B50446AFF3008020467F
:10178000BDE81040FEF719BD01491820ABBEFEE7C9
:10179000260002007047490050EAC12018BF04200B
:1017A0004A0D18BF40F0010040F2FF72B2EB515FEA
:1017B00008BF40F00200012808BF052070472DE94E
:1017C000F0414F1E00EBC7010446D1E90001154668
:1017D0001E4637F006020DD02A46334600F0DEFFE3
:1017E0007F1E04EBC703D3E9002300F06FFD37F041
:1017F0000602F1D1022F25D0042F13D0062F18BFD7
:10180000BDE8F0812A46334600F0C8FFD4E90A2338
:1018100000F05CFD2A46334600F0C0FFD4E90823FF
:1018200000F054FD2A46334600F0B8FFD4E9062301
:1018300000F04CFD2A46334600F0B0FFD4E9042303
:1018400000F044FD2A46334600F0A8FFD4E9022305
:1018500000F03CFD2A46334600F0A0FFD4E9002307
:10186000BDE8F04100F032BD0022134610460149A8
:1018700000F0E8BD0000F03F00F028BD0022134654
:101880001046114600F0DEBD40F2013200204FF05C
:10189000E04101F0C5BA0000024A0020110701F042
:1018A000BFBA000001FDFFFF2DE9F04D1D460C46BB
:1018B00098B0174621F0004123F00043002814BFE0
:1018C0004FF0010C4FF0000C0CEB440CFE4A0CEBFB
:1018D00002064FEA620C66452BD33E0018BF012674
:1018E00006EB45061644F94A964222D3F84A53EAD3
:1018F000070C02D0944205D148B918B00020114617
:10190000BDE8F08D002808BF4FF0000C01D04FF06B
:10191000010C0CEB440212F5001F0AD8002F14BF73
:101920004FF0010C4FF0000C0CEB450212F5001FBC
:1019300007D918B03A462B462146BDE8F04DFFF7CF
:101940009BBF0022DFF88CA3002CB8BF534526DADA
:10195000DFF884C36345A8BF022220DADFF870C332
:101960009C451CDCDFF874C30CEB235CBCF1140F4A
:1019700008DDCCF1340627FA06FC0CFA06F6BE4266
:101980000DD108E05FB9CCF1140623FA06FC0CFA7D
:1019900006F69E4203D10CF00102C2F1020251EAA6
:1019A000000C19D1002D17DA002C18BF022A01D023
:1019B000012A07D00220FFF7ABFE18B0BDE8F04DBA
:1019C000FFF752BF0220FFF7A3FEFFF74DFF18B04D
:1019D00081F00041BDE8F08DB7F1000C6CD15345AA
:1019E00025D104F1804212F5801201BF00280020A9
:1019F000B74918B008BFBDE8F08DB548884207DC8C
:101A0000002DA1BF6046294618B0BDE8F08D07E063
:101A1000281E05DA80F0004118B06046BDE8F08D60
:101A2000AF497944D1E9000118B0BDE8F08DDFF885
:101A3000A0C2634525D1002D1FDA19B1514512D13D
:101A4000D8B909E0002840F0EC82A24A214618B03B
:101A500062F31E01BDE8F08D0020214618B060F34E
:101A60001E01BDE8F08D08DA18B02346BDE8F04D40
:101A700002460020614600F0E5BC18B02146BDE8F2
:101A8000F08D514518DAB5F1804F0DD0A5F1005C0D
:101A9000BCF1FF5C10D1B4F1000C0DDB18B0614655
:101AA000BDE8F04D00F0ECBB234618B00246BDE89F
:101AB000F04D194600F072BE060024F0004C3BD1F8
:101AC000D9B1514533D1002C06DD002DA1BF002036
:101AD000514618B0BDE8F08D002C01DD002D1BDB58
:101AE000002C13DA002D11DB012A4FF0000014BF87
:101AF00078497C4918B0BDE8F08D022A18BF002C47
:101B00000AD0012A08D1002C06DA0AE0002CB8BF5E
:101B1000002D11DA012A04D0002018B00146BDE8DA
:101B2000F08D18B000204FF00041BDE8F08DA1F11C
:101B30004050B0F17F601AD0012000EBE47050EA11
:101B4000020421D0624C521E4FF0000B104304BF20
:101B50004FF0000B644C654883427CDD644A654865
:101B600093421FDD884217DB002D25DB37E0002C78
:101B700000DA4AB1022A0CBF01204FF0FF3018B042
:101B8000BDE8F04D00F0B6BD0120FFF7C1FD18B073
:101B9000BDE8F04DFFF772BE4D4A8A4202DC002DCF
:101BA0000ADC1CE0814202DA002D18DA04E0484B1E
:101BB000994220DD002D12DD0220FFF7A9FDFFF77D
:101BC00063FE05460E46002253465846214600F065
:101BD000E5FD18B066F31E012846BDE8F08D022031
:101BE000FFF796FDFFF758FE0A46214618B062F34C
:101BF0001E01BDE8F08D00223046614600F0F4FF82
:101C000080460E466FF0010201F00AF94FF055329E
:101C1000394B00F0F7FE4246334600F0BFFD00228C
:101C2000364B00F0EFFE82464246334604911046A2
:101C3000194600F0B3FD5246049B00F0AFFD8A4602
:101C400000904FF0C0422E4B4046314600F0A6FDBA
:101C50002C4A2B4B00E027E0CDE9060151460098C5
:101C600000F09CFD82460191274A284B40463146B0
:101C700000F094FD5246019B00F0B6FF82460B46F1
:101C800002460591DDE9060100F020FBDDE90623AF
:101C900000268846304600F0A7FF5246059B00F01C
:101CA000B1FE024600F07EB90020B1F5801F07DAD0
:101CB00035223046614601F0B3F806466FF0340035
:101CC00000EB215024E00000FFFF1F00FFFF0F008A
:101CD0000000F03F0000F07F0000404301FCFFFFE8
:101CE000621700000000F0FF0000F0BF0000E041BC
:101CF0000000F043FFFFEF3F5555D53F0000E03FA8
:101D00004715F73FFE822B6544DF5DF80BAE543E6E
:101D1000A0F2FF300190C1F3130040F07F6141F069
:101D200040510291FE498842D8BF002004DDFD49A0
:101D30008142C8BF012001DD0D9008E000200D9018
:101D40000198401C01900298A0F580100290029921
:101D5000F54878440B910D9900EBC100D0E90023C0
:101D60000F9330460A920B9900F03EFFCDE9060131
:101D7000DDE90A2130460F9B00F0A8FA02460B4627
:101D80000020EA4900F05EFB059102460B460090F8
:101D9000DDE9060100F002FD1490E5488A464FF0A7
:101DA000000878440299006812904FF0005040EA11
:101DB00061010D980F9B01EB804000F50021099116
:101DC0000A9A129800F010FF32460B9B00F01AFEA0
:101DD0004246534600F0E2FC064602914046514618
:101DE000099B129A00F0DAFCDDE9062300F00AFEF6
:101DF0003246029B00F0F8FE059B009A00F0CEFCF4
:101E00000091149A049053461046194600F0C6FCFF
:101E100006460246C7480B46029106217844FFF762
:101E2000CEFCCDE90510029B32461046194600F063
:101E3000B5FCDDE9053200F0B1FC059106465346DC
:101E400040461946149A00F041FA009B049A00F0AB
:101E5000A5FC3246059B00F039FACDE90510424653
:101E600053461046194600F099FC0022B24B0291ED
:101E70000A9000F02BFADDE9053200F027FA0E4651
:101E80004246AD4B404600F0AFFE029B0A9A00F07E
:101E9000ABFEDDE9053200F0B5FD424602910A9045
:101EA00033461046514600F079FCCDE90601534611
:101EB000149A02990A9800F071FC8A4602903346FF
:101EC00042460099049800F069FC5346029A00F0DB
:101ED000FDF982460B4602460591DDE9060100F058
:101EE000F5F9DDE9062300208846064600F07CFE71
:101EF0005246059B00F086FD824609914FF06042F4
:101F00008E4B3046414600F049FC049006918C4AC5
:101F10008A4B5046099900F041FC82460291894A59
:101F2000894B3046414600F039FC5246029B00F096
:101F3000CDF9864B7B440D9A03EBC203D3E9002312
:101F400000F0C4F90E900791019800F0D3FB0591C1
:101F5000DDE9061382460E9A049800F0B7F97C4A30
:101F60007A440D9B02EBC303D3E900230093029252
:101F700000F0ACF95246059B00F0A8F9002688460F
:101F800052463046059B00F02FFE009B029A00F05F
:101F90002BFE069B049A00F027FE079B0E9A00F08A
:101FA00031FD024600200B4602903846294600F0DB
:101FB000F5FB824601912B4638461946029A00F0FD
:101FC00013FE3246434600F0E9FB5246019B00F007
:101FD0007DF907468A46324643462946029800F074
:101FE000DDFB05460E463A46534600F06FF9594A66
:101FF0008846914221DBA8EB020353EA000210D18C
:102000002A46334600F0F0FDCDE90401524A534B15
:102010003846514600F05AF9DDE9042300F0BCFCD3
:1020200021D20220FFF774FBFFF72EFC0A4621465F
:1020300018B062F31E01BDE8F08D494B28F0004254
:102040009A4210D3474A08EB020353EA00027FF496
:10205000C6AD2A46334600F0C7FD3A46534600F067
:102060009BFC7FF6BCAD0022019228F000403E4967
:102070003E4A01EB2051824223DA481C4FF4801182
:1020800021FA00F040443A4AC0F30A517A44394BED
:10209000A1F2FF31CB4020EA0303C0F3130040F468
:1020A0008010C1F11401C84012680190B8F1000F0E
:1020B000BCBF404201902846314600F095FD0546E0
:1020C0000E462A4633463846514600F0FFF84FF098
:1020D00000084246284B4046059100F05FFBCDE9E1
:1020E0000601264A264B4046059900F057FB009111
:1020F00002902A4633464046059900F075FD3A465F
:10210000534600F07FFC1F4A1F4B00F047FB009B2B
:10211000029A00F0DBF80746884602460B4635E097
:102120008E9803007AB60B00AA1300000000F03F5F
:10213000E2130000101300000000084009C7EE3F42
:10214000FD033ADCF5015B14E02F3EBEE811000010
:10215000AC11000000009040FE822B654715973CB3
:1021600000CC904000346F3F01FCFFFF0000E03FD7
:10217000F8100000FFFF0F00432EE63F396CA80C5B
:10218000615C20BEEF39FAFE422EE63FDDE9060132
:1021900000F09CF8DDE9062305460E4600F024FD1C
:1021A0003A46434600F02EFC0F462A46334600903E
:1021B0001046194600F0F2FA824602462E4888463A
:1021C0000B4605217844FFF7FAFA5246434600F0E1
:1021D000E5FA2A46334600F015FC80468A463B461F
:1021E00028463146009A00F0D9FA3B46009A00F0A2
:1021F0006DF80691009000224FF080434046514612
:1022000000F0F2FC0F460C904246534628463146F9
:1022100000F0C4FA3B460C9A00F014F9069B009AB1
:1022200000F0E2FC2A46334600F0DEFC0022134BAD
:1022300000F0E8FB054601980E4601EB0051081539
:10224000002810DC28463146019A00F0E9FDFFF72E
:10225000A2FA042808BFFFF71FFB28463146019A5F
:1022600000F0DEFD05460B4618B02A4658462146CA
:10227000BDE8F04D00F092BA980F00000000F03F6A
:102280002DE9F04106460F4600F0C8FB041E0D463E
:1022900018BF0120284320F00040C0F17F6000F10A
:1022A000E040C00F0ED0301C18BF0120384320F092
:1022B0000040C0F17F6000F1E040C00F04BF01208A
:1022C000FFF726FA20462946BDE8F08110B591EACD
:1022D000030F48BF83F0004300F18E84841A71EB32
:1022E000030C05D2121943EB0C03001B61EB0C012C
:1022F000DFF824E14FEA1154A4EB135C1EEA430F0C
:1023000018BF9EEA445F73D023EA0E03DCF1200E6F
:1023100021EA045143F4801332D322FA0CFE10EB6D
:102320000E0023FA0CFE41EB0E01CCF1200E03FA55
:102330000EFE10EB0E0051F10001B1F5801FCCF143
:10234000200E32D201EB045112FA0EF2BDE8104019
:1023500058BF7047401C38BF5FEA420218BF704741
:10236000002814BF20F0010041F100014FEA4103B1
:1023700013F5001F38BF7047A1F1C04100F006BB44
:10238000012A43EB0302ACF1200CDCF11F0E32BF3B
:102390004FF0000E23FA0CF310EB030041EB045155
:1023A000B4EB115FD0D0A1EB045101F580114908C5
:1023B0005FEA300001EB04510ED350F1000038BF4A
:1023C00012FA0EFE08D1BDE81040C9E7401C38BF24
:1023D0005FEA4202CAD1C3E7BDE810404FEA4103B9
:1023E00013F5001F38BF7047A1F1C04100F0CEBA0D
:1023F0009EEA445F08D011EA5E0FBDE8104004BFBA
:1024000001F0004100207047BDE8104070B500F0B9
:102410006FFA00BF64FBBE3E0000E0FF02494FF0D0
:10242000000000F0CBBC00BF0000F87F491058BF8F
:10243000C1F140415B1058BFC3F140438B42EFF301
:10244000008070472DE9C04130B4DFF8A0C23CEAFB
:10245000111418BF3CEA131400F0EC8081EA030564
:102460001CEA111444EAD57418BF1CEA131500F0D5
:10247000C780A4EB05044FF0004545EAC12145EAB9
:10248000C32341EA505143EA525304F17F74994205
:1024900004F500344FEAC0204FEAC22208BF904240
:1024A00000F09C804FEA13650FF24016765D4FEA0C
:1024B000134506FB05F7C7F1807706FB07F74FEAE0
:1024C000D737A7FB03687642C8F58038A7FB06CE4E
:1024D00038BFA8F1010807FB08E64FF0000EA6FB85
:1024E000028CE6FB03CEDCF1000CCEF1004E38BFCF
:1024F000AEF1010EA6FB0C584FF000074FF000059F
:10250000E6FB0E87A1FB08C6A0FB07CE16EB0E0666
:1025100045F10005E1FB076515F1E04E7EBFA4F52E
:1025200080345FEA46066D4116F1800745F10005EB
:102530004FEA17274FEA066647EA0567A6F1DE4627
:10254000B6F1805F4FEA15251FD9384624F0010CFB
:1025500005EBC471BCF1FE6F01EB0C1102D8F0BCAD
:10256000BDE8008124425CBF01F5801E9EEAC47F65
:1025700002D4F0BCBDE80081244238D4F0BCA1F103
:10258000C041BDE8004100F001BA4FEAD22242EA60
:1025900043524FEAD323A7FB02864FEAD02040EAFA
:1025A000415007FB03661EEA0E0F4FEAD12105FBDF
:1025B000026658BFA6EB0056B6EB00564FEA520E25
:1025C0004EEAC37E18EB0E0E56EB530EBDD518EB3C
:1025D00002085E417F1C55F10005B6E74FF48015F7
:1025E0004FF000074FF000064FF00008ADE7F0BCD9
:1025F0004FF0000001F1C04101F00041BDE8008151
:1026000011EA0C1F0CEA131500D00CE013EA0C1FA2
:1026100000F025804FF00000F0BC81EA030101F0DA
:102620000041BDE80081F0BCBDE8004181EA030142
:1026300000F0ACB9F0BCBDE8004170B500F058F94D
:10264000097EFC3E00F007B881EA03014FF000006C
:1026500001F00041704781EA030100F097B9F0BC36
:10266000BDE800414FF0000021497047FFFDFBF934
:10267000F7F5F4F2F0EEEDEBE9E8E6E4E3E1E0DEB5
:10268000DDDBDAD8D7D5D4D3D1D0CFCDCCCBCAC827
:10269000C7C6C5C4C2C1C0BFBEBDBCBBBAB9B8B74E
:1026A000B6B5B4B3B2B1B0AFAEADACABAAA9A8A841
:1026B000A7A6A5A4A3A3A2A1A09F9F9E9D9C9C9B0F
:1026C0009A999998979796959594939392919190BA
:1026D0008F8F8E8E8D8C8C8B8B8A8989888887874B
:1026E0008685858484838382828181800000FF07C0
:1026F0000000F87F10F0004248BF4042B0FA80F37B
:1027000010FA03F10AD0C3F11D0303F580634FEA09
:10271000415002EB035202EBD12170474FF0000011
:102720007047000051EA030C17D41CF5801F58BFF6
:10273000BCF5801F00F10680994218BF704708BFA2
:102740009042704707D711F5801F58BF13F5801FBF
:1027500019D499427047894270471CF5801F08D5EB
:10276000BCF5801FF7D58B4218BF704708BF824267
:1027700070474FF4001C1CEB410F38BF1CEB430F9C
:1027800001D28B42704770B500F0B2F89224490034
:102790004FF000514FF08053FFF748BEDFF848C1BB
:1027A00070B51CEA111E1EBF1CEA13159EEA0C0F21
:1027B00095EA0C0F00F06F8081EA030423EA4C13C2
:1027C0004EEAD47E21EA4C1141F4801143F4801387
:1027D000AE44A1FB024CA0FB0365AEF17F7E36192F
:1027E00055EB0C05A1FB034C4CF10003A0FB021CB4
:1027F00016EB0C06654153F10003094218BF46F081
:10280000010613F4007F0BD14FEA03314FEA053084
:10281000340341EA155140EA16506FF003020AE012
:102820004FEAC3214FEAC520F40241EA555140EA7C
:1028300056506FF0020202EB2E4201EB025585EA80
:10284000CE710AD05FEA440C18BF24F0004450F166
:10285000000041F1000120EAD47040F2FE7C6245A4
:1028600000D270BDA84214BF4FF080444FF04044E6
:10287000002E08BF0024BEF1806FA8BFA1F1C041A7
:10288000BDE8704080F282804FF0000001F1C0414D
:1028900001F0004170479EEA0C0F0CEA131518BFB7
:1028A00095EA0C0F06D04FF0000081EA030E0EF0FF
:1028B000004170BD00F01CF88900013E00F007B82F
:1028C00000F009B84FEA430C5FEA5C5C08D081EA8B
:1028D000030100F05BB84FEA410C5FEA5C5CF6D1A3
:1028E0004FF00000014970470000FF070000F87F2B
:1028F0000EF1020E2EF0030E5EF8046B364205D484
:10290000012A43EB030515F5001F12D8012841EBFE
:10291000010C1CF5001F0CD80ED14FEAD17C15F527
:10292000001F0CEB4C0C0CF1020C08BF4CEBD37CE1
:1029300004E04FF0080C01E04FEAD37C0CEB4C05AF
:1029400026FA05F606F00706B6F1040C06D20EEBE1
:10295000860CBDE870404CF0010C6047DFE80CF0DD
:10296000090B02024FF000414FF00000A1F50021D9
:1029700070BD19461046012851EB010418BFD4F56B
:10298000001484BF002001F0004170BD0808A0F5CC
:1029900000114FEA3101704753EA010C17D41CF5BE
:1029A000801F58BFBCF5801F00F106808B4218BF06
:1029B000704708BF8242704707D713F5801F58BF82
:1029C00011F5801F19D48B4270479B4270471CF54C
:1029D000801F08D5BCF5801FF7D5994218BF7047F6
:1029E00008BF904270474FF4001C1CEB430F38BFE8
:1029F0001CEB410F01D2994270470FB40CBC03BCD1
:102A0000FFF7C1BE91EA030F10B581F000413FF519
:102A100065AC83F0004300F0EFB800002DE9F04111
:102A200001F5801CBCF5001FC0F2C3804FEA115CA9
:102A300021EA0C510CF1FD0C41F480115FEA5C0CB1
:102A40000CF5C07C01D3400049413DA4890241EA14
:102A5000905187028E0E0A0CA45D04FB04F602FB63
:102A600006F6C6F14046A4FB0662F60D46EA42268B
:102A700006FB06F4A4FB01235242C3F1404338BFD6
:102A80005B1EA6FB02420024E6FB0324D20B42EAB3
:102A90004446A6FB0623A1FB02E2A3FB07E4A4181D
:102AA0004FF0000252F10002E3FB01426442C2F126
:102AB000404E38BFAEF1010EA6FB04234FF00002DA
:102AC000E6FB0E32A2FB03464FF00004B61954F1A8
:102AD0000004E2FB0264A1FB06E6A4FB07E816EB98
:102AE00008064FF0000858F10008E4FB0168764240
:102AF000C8F1405838BFA8F10108A2FB06E4A3FBC7
:102B000008E52D194FF0000454F10004E2FB0854CD
:102B1000A1FB05E6A7FB04E818EB06084FF000064A
:102B200056F10006E1FB048618F1200556F1000677
:102B3000A809A8F11B08B10908F03F08B8F10A0F6D
:102B400040EA86601CD901EB0C51BDE8F08100BF62
:102B5000FCF5EEE8E2DDD8D3CFCBC7C3C0BDB9B634
:102B6000B4B1AEACA9A7A5A3A19F9D9B9A98969539
:102B70009392908F8D8C8B898887868584838281C0
:102B8000A0FB006800FB01F208EB4208B8EB8728C5
:102B900007D5341858EB0104D5D5401C51F100017C
:102BA000D1E7341A78EB0104CDD4401E71F1000155
:102BB000C9E75FEA4C0C5FEA9C5C0DD105D34FF08E
:102BC000000001F00041BDE8F081BDE8F04170B5C2
:102BD000FFF78EFE6DDBFFBEBDE8F0414FF0000059
:102BE000004970470000F87F10B591EA030F48BF15
:102BF00083F000433FF572AB841A71EB030C07D2EC
:102C000012198CF0004C43EB0C03001B61EB0C0120
:102C1000DFF8A4E14FEA1154A4EB135C1EEA430F62
:102C200018BF9EEA445F00F0B08023EA6E03524270
:102C300021EA0451C3EB6E0338BF5B1EDCF1200EAA
:102C400025D322FA0CFE10EB0E0043FA0CFE41EBEA
:102C50000E01CCF1200E03FA0EFE10EB0E0051F126
:102C60000001CCF1200E29D412FA0EF201EB04512E
:102C7000BDE8104058BF7047401C1CBFB2F1004F68
:102C8000704700280CBF491C20F00100704712EB70
:102C9000020E43EB030218BF4FF0010E4EEA420250
:102CA000ACF1200CDCF11E0E54D943FA0CFE10EBF3
:102CB0000E0051F1FF31CCF11E0ED5D50EF1010EF3
:102CC00012FA0EFE404141EB010101EB445C5FEA68
:102CD0005C5C10D910EBDE7001EB045138BFBEF123
:102CE000004FBDE8104018BF704700280CBF491CBA
:102CF00020F00100704730D24FEAD42C11F50011BA
:102D000024F400641BD0B1FA81F20B3AA41AA41E79
:102D1000D2F12003914030FA03F31943904001EBC4
:102D2000CC71002C01EB0451BDE81040A8BF7047E6
:102D300001F1C0414FF0000001F000417047B0FACE
:102D400080F310FA03F100D110BDE41A173C4805D6
:102D5000C90AE4E701EB045110BD491001EB04512D
:102D6000BDE810404FEA300002E04FF0000170472C
:102D70004A0008BF0042F8D0B2F5001F28BF7047D4
:102D800001F000414FF0000070479EEA445F07D019
:102D900011EA5E0FBDE8104004BF0021002070471B
:102DA000BDE8104070B5FFF7A3FD00BF40DFF63E61
:102DB00083F00041104670470000E0FF0CF00F0365
:102DC000092B08BF082000F059800A2B0BD0082BD4
:102DD00018BF704708BF1CF0400F0AD04FF000002A
:102DE0004FF0000170471CF0400F18BF4FF000403B
:102DF00070471CF0100F08D020F0704300F07F42A5
:102E000042EAD3014FEA4370704700F0604021F07E
:102E10007F4242EA000201F07F4040EA7270704750
:102E20004FF0FF0C4CF4E06C1CEA11531CBF9CEA01
:102E3000030C9445C2BFDA4201EB02517047002BEC
:102E40000DD0BCF1000F0FD0002A01F00041A4BF4B
:102E500041F0E04141F07F614FF00000704701F028
:102E600000414FF00000704750EA01334FF09B0CD7
:102E700018BF4CF0806C7FF4D1AA70471CF4801FFF
:102E800011D01CF4E02F03D06FEACC314900704719
:102E90004FF04050EFF3008222F0704242EA00020D
:102EA00082F3008870474FF0000070470000003C3C
:102EB0006642425A4242663C000000000000001890
:102EC000684808080808087E000000000000003C70
:102ED000664206040810207E000000000000007C0E
:102EE000040818040646443C000000000000000CE2
:102EF00018102064447C0404000000000000007CE2
:102F000040407C040242643C0000000000000008D5
:102F100010303C664242663C000000000000007E2B
:102F20004204040C08081030000000000000003CBF
:102F3000664264384642463C000000000000003C07
:102F4000664242663C0808100000000000000000D5
:102F50000000000000001818000000000000001829
:102F600018382C24247C4242000000000000007C21
:102F7000464244784642467C000000000000003C87
:102F8000664240404042663C000000000000007C79
:102F9000444646464646447C000000000000007E51
:102FA0004040407C4040407E000000000000007E29
:102FB0004040407C40404040000000000000003C99
:102FC0006640404E4242663C000000000000004661
:102FD0004646467E46464646000000000000007C0D
:102FE000181818181818187C0000000000000004B9
:102FF00004040404044444380000000000000042BB
:103000004444487848444442000000000000002046
:10301000202020202020203E00000000000000662C
:10302000666A5A5A424242420000000000000066AE
:10303000665656564A4A4646000000000000003CCC
:10304000644646464646643C000000000000007CA2
:103050004242427C40404040000000000000003CF2
:10306000664242424242663C0C0600000000007C80
:103070004642467C48444442000000000000003CB8
:103080006442601C0642663C000000000000007EB6
:10309000101010101010101000000000000000466A
:1030A000464646464646643C00000000000000429A
:1030B0004264242424381818000000000000009BFB
:1030C000DA5A5A5A6A66666400000000000000423C
:1030D000242C18181824644200000000000000C2CC
:1030E00046242C1818101010000000000000007E6C
:1030F000040C08101020607E00000000000000009A
:10310000000000000000F03F000000000000F83F59
:1031100000000000000000000000004003B8E23F93
:10312000000000000000000006D0CF43EBFD4C3E45
:10313000033333333333E33FFFAB6FDBB66DDB3F3A
:103140004D268F515555D53F01411DA96074D13F82
:1031500065DBC9934A86CD3FEF4E454A287ECA3F7C
:103160003E5555555555C53F93BDBE166CC166BFFE
:103170002CDE25AF6A56113FF16BD2C541BDBBBEF7
:10318000D0A4BE726937663E000000000000000057
:10319000B0310008000000206C3800002801000851
:1031A000743C00086C3800206402000084010008B0
:1031B00001FF01FF01FF01F7C403FFC06A0E1611F2
:1031C0003B038008AAC11F6A1F1E4B800F1EAAC3A3
:1031D0001E4A3F0D191E2A1F0AB503FFCFE01E7FAE
:1031E000E07FFFFF572CFF807F17AD03FFDFF01E4E
:1031F0005AF01E2B81FF17B503FFFFF8EBFFF81EF7
:10320000A2FC2C01FFFE1E1B3FF31E2935191EAA2E
:10321000FE1E5AFF1E3A80351978AAFF5A39012935
:103220001E4A7F1E2BCFFFDA6996891E2953AC03F5
:10323000FFC71E7A3F1E2A3F53D91E7A1F1E4A1F00
:103240001EAAC3785E0FFF7FC0011E19359C03FFC5
:10325000C1B4116B07FE1E2C0FFFC01E2AC0D981FE
:103260008B03FC1E59019AE0F16AF81EFC07FFBFB0
:103270001E116AF01E4B03FEC0B91E4D607FCFF9D0
:103280001E0A11FC1E11691E0B1B01F01E0A1AC03A
:103290001E2109101E0A1B3C1E0A1B7E1E0A1AFF55
:1032A0001E5C01FF801E0B108FFFF08C01FFE01EE3
:1032B0004910B10C1903FFF01E0C1B07FFF81E0A82
:1032C0001BFC5A0A19FE1E0C1901FFFF1E11091CD6
:1032D0001E0A1A7F5A119A3F96CD1FFFFFFD1E6AE4
:1032E0001FD20A12871E5B0FF01E0B11801F1E0AD1
:1032F0001B071E0B1A03E01E0B1A01C01E19D4096E
:10330000461E0C28FCFFF01E1A071E5AF11EDD0F88
:10331000FFFFF81E6CE07FDF1E11131FFCD91E0A91
:103320001BFC1E0A1AFF1E0A3C0F1E0A29FF1EBAAA
:10333000F81E0A1AFE1E1A1F1E12E0491E1A0C1E43
:10334000BC7FF8781E116A7F1E3A3C1EDA7E1E5A38
:10335000E61E3A7E1E9B7FC01E196B5AEF1E4AFE68
:103360001E99B61A3F1E3BFF801E3AFF1ECAFC1E66
:103370000D1801FFFFC01E7D03FFFFE01EDA7F1E58
:103380001AF81E12F04A031E1DFFFF3FFCC391AF47
:103390007FF807FFFFF81EBAFF1E4D0FFF7FFC1ED0
:1033A0002901CB3FFE1E1A1F1209171E1CF03FFEFB
:1033B0001E6A071EBA1F1E1CFFF07F6F1A3FF459CA
:1033C0001E19C2A91EAEFFFC0FFF9F1E9AC01E1B36
:1033D000F3FFB61ADF1E1940E91E2C01FFE71E1984
:1033E0000111491EEA0F1E2BF0033C112A7F60E9F0
:1033F0001E3FE3FFE001FF8F3C19561984BBFF809D
:103400001E12C02932111A1FBC29DB991E1C03FF92
:10341000C11E193212FE1C1FF81F19191EA11C0310
:10342000FFC01315780FFFFC1C0FF00FEAAA031E54
:103430002501FFC07F15300FFFF81A071C2911B2B4
:10344000FE343FC03E1407FFF04A03AC1946A13CCE
:1034500007803C1E1954498ED37FF8E2183A1F6149
:1034600001FF01FF01FF01FF01FF01FF01FF01FF5C
:1034700001FF018D337F8092060A11031E227F9A7D
:10348000020FD91E22FF1E0707FFFFFE0A09111EA9
:1034900019053B0FC71E09123C19051B1FE71E3BF0
:1034A0001FFF2309111E1AF7191A3F1E1966B91EAC
:1034B00039142A0F37D91E394B2A7F140A1B871E4D
:1034C0000D1883F878011E0E1781F1F801FC1E2BF0
:1034D00080E31E19A30A127F1E0B158C031E111206
:1034E000FEFF1FE01E03FC031E15C07F80FE12FFBF
:1034F0002D3FC03F811ED978791E0E137FC1FC037A
:10350000F81E127F10087F807FE1FE07F8198319EB
:103510005DD91E0E16807F803FF01E080A143F8082
:10352000FF801FF8FF0FF01E13C0FF2B07F01E11C6
:103530009A0177691E13E1FF2603E07F9FE0FB07F6
:10354000FE1E141FE3FE3B01C01EAB1FF81E19C276
:1035500012FE240FF3FC1CC03FFF1E1A3F5EE91E43
:1035600013FFFC12031C3FFFC01E1904D91E1C07C9
:10357000FFF8781C1FFF80B3A9B5491E1403FFF0A4
:103580000B1A03F81E2D07F00FFFEF09101E1A018A
:10359000900C1007F0071E39D23A031E0B140FFED1
:1035A0001E29962A0F962A3F1E99B4391E2A1FD625
:1035B0000A10E0D2211A7F4919511D800FE0FF9CAB
:1035C00009111E1A014F0F12F01FC1FFFFFC1E3818
:1035D000080FFFF3FFFE1FC77309101E280A7FFFA5
:1035E000E1FFFF9FDFFF9F9709111E1009807FFFFA
:1035F0003FBFFE0FFF09111E1B3FFE031E3F9FFC36
:1036000003FFBE89EE591E1A1FEE2EFE7F9FF001AA
:10361000DCF91E130FE01C01FC7F061A7C1EE12959
:103620001E193015780F0780121CFB1FFE1E520456
:1036300002FF0201FF01B0827EC2032A1C1A1A0E89
:103640000412605206B33F80271F3FFFC07E3F1821
:10365000087FF003FEFFFFFC09A91E1B3FBF1E1AD7
:103660007F151BF8FF01291EB2C01E7FFFFFDF7E02
:10367000303B7FFC1E2A1F06993C291E133FC01AAF
:103680007E5809101E190F0C16DF7E1F1E1C0FFE20
:10369000071E12E0EF7E787FF8FE011E1B07BE1E9C
:1036A0002A0F140B1077F01E1B033E5A2A07146AC8
:1036B000071EB2FE391E199C591EA9D0212A181EB8
:1036C00029BA191E2996A5DFFFFFF87A3C1E49B4D6
:1036D000191EA2FC2A7E1E1AFF1409131E2BFFBE00
:1036E0001E12C0127F09131E0A1AFE1E9A7F1E3177
:1036F000D9963A3F1E1914112B0FF01E2CC1F81F3A
:1037000008712A1F783A7F1EA00AF1FFFFFE1FC32F
:10371000FE7FE02A07B42950114A1F1EA4FFFF8034
:103720008A021E2AF91E3AC07F91891E19B4191EF9
:103730009A7FB3116B0C3F1E3A3F1E29D8A12B0F65
:10374000BF1E14C1FC3F3D7FFF80FC41A91E7BFFD3
:10375000F71E0A18C01E1A80ADF91E9A1F1EECFF34
:10376000FFFC1E180CDFF01F7E1FDDFC3FBCFFFEC0
:103770001E1B3FBF9B991E1BC3FC1E1AFD172B7FF0
:10378000F01EAC8007F01EEB87FE1E99F12C3F87E0
:10379000FF1E5DFFFFBF771EAAF11E1D8FFF807EFB
:1037A0008C15DFFF77F012FC291E9AF81E3D9FDF73
:1037B000C0FE1E2A271E127FC91E4C3FDFFF1E1BA4
:1037C00007F7CD127FA40FF0104C7FFF8F1E3AFE3B
:1037D0001EB5FF07FFF01A7F100E14FC3FFFFFCF4E
:1037E0001E48097E03CFFC1F9FF80F1EB57E03FF06
:1037F000E010087E3C038FF80F1E3B07FC1EB53E11
:1038000003FFC01B1E1C882206000C1403F807F3DC
:10381000FFFFFE1C03FF802BE0077102FF0C01FF7E
:1038200001FF01AC0B3807F81E231FFE051663C00D
:103830007C7F08081538078001E7F07F1E00091615
:10384000F807C001E430036014E0C1C00B16643215
:103850001E29960D1A67F23F7C960A153C1E231E00
:103860000E0517643003030A1FC01E0A16321E1B02
:1038700001F0780B15C27C78293C01D20B187FFF30
:103880000112C009191D0C1AFFE0011E041AF003F1
:10389000F0051B01F803E0041BF803C0041B7803C8
:1038A000800AAA381E0A1A0E1E7B038E1E8303F09E
:1038B000821B7B06111E7C01CC531E6AA01E7A70EF
:1038C0005A5BDEAB5E5B1F29478C0611101E6AAA8D
:1038D0001E5B69501E8A511E6AD83C5B1B6D1E7CA4
:1038E000018E201E73CEAB5B1A391E21897811021E
:1038F000180209211E011909241E0A16601E30082B
:1039000001F07F03F891F04D3FDFE03FD22CC30F71
:103910008311F91ECB06061E14060CC02C0C660C77
:103920005F13186033C98C0E2207DF30661C1E112E
:10393000291E2950199B191E42B00A15C31E3BCFE0
:103940007078891E1370FE3AF81E3F7F01801F06B3
:10395000401E6C3266DCB412FF4AFC1EDEC1801FC2
:10396000C04C1E5B80C35A1461C1806BC1B65A2C17
:10397000F3CE40B411291E29B42361C66BC1B21E17
:103980004C9B2DB01E6A381E1203CBC6321E300867
:1039900007FC7E3BF801F03F3F06033F0C3E1E0C48
:1039A000130F83F01E2945391E2BF3CD1E01184A33
:1039B00083F009331E49F009FD1E09C41E8218CA8E
:1039C000012C09491E8306600B251FFE1E91791EDE
:1039D0004D01F007E01E320362C0730E785D07F000
:1039E00007F81E5C80FE031E6A18641A071B491E36
:1039F0007501E7FFE7791E5D1E3E071C1E0A1AEFE0
:103A00001E11746F01E66B6006EA5CFF87C71E1229
:103A10001C698D09121E1278EA1E1E0E1771FF9F77
:103A2000E3801E5D73FF9FF31E6B607C151AE0CA76
:103A3000F91E5AFE1E1C0180010F415CF3FFFF1EA0
:103A4000ED01C1FF031E4EC07FFFF0C01E7C83FF4F
:103A5000831E5AC01E4C1E1FE01E1AFD1EEA3E3C6D
:103A60000A10061E220E6A701EEB1C605A891E1474
:103A7000C1FE18591E6A8196A91E6A1E1E7B80FE11
:103A80001E5A061E5CC3FFFF1E115B607CF0B91E50
:103A900059D2111260F91E5DF3FE7FF31E12780AEF
:103AA000121E1E4A801E1A1802591E5A381E5D71B7
:103AB000F87FE31E1A1C3ED91E2579F87FE7391ED0
:103AC000646F01E61C0180010F414D78F87FC71E2D
:103AD0001C01E3FF0AC91E4D1E381F1C1E1A03F0ED
:103AE0005AC033599F09141E737FFE221F5A3C1E71
:103AF00031591E731FF81A071B599669D1B10D1958
:103B000001F007E01E0B19FFFF1E112A1F82093565
:103B10001E5109221E0118095A1E021BC0041B78DF
:103B200003E0041AF803F00D1901F801FF0112F087
:103B3000091A1E12E00A197F1E091AB20177031C26
:103B400001803B0ED824B1A310204339263A02420B
:103B5000527E3A6F30431FFE435FFF43044052E7FB
:103B60008BA0441E3A40552A084E120342C043809F
:103B7000048B3C191E3310104406086043FFFC43BD
:103B800020113B47F90C32088C0508A03C11391E66
:103B9000493C2A40123A0460114380343A1C1849C7
:103BA0003C2B600C1E4A381E8A641E493C395A3B25
:103BB000061878EB88C4782B27C83C11393C3A8D1D
:103BC0001E9A1CB48B24481E8B87841E493C391EC8
:103BD0001202395A3A83B4495A8A483C12038AC0BD
:103BE000D28B1FFE3C433FF852CBA91EA360034A71
:103BF0007F06392A3B0190240221FC0C1A0148A7B8
:103C00001E335DF43B072996432928531DCE2AE72E
:103C10001E2BD554D23A7DD2437DA84311643B106C
:103C2000AF1E2A571E4355E03B55E83C3AE4243A80
:103C3000AC5A393C3A555A3B5568183AC4062AAD35
:103C40001E4A493C395A3A5578595A92ED3C025528
:103C5000101E3A2E1E4214033F1C477CA24A04FB4E
:103C60006808020304060708090C691045020406E7
:043C70000800000048
:04000005080000ED02
:00000001FF
