:020000040800F2
:1000000050190020E1010008131C000859140008D1
:100010000F1C0008BF120008252200080000000085
:100020000000000000000000000000000D1F00089C
:10003000C312000800000000991C000821200008DD
:10004000FB010008FB010008FB010008FB010008A0
:10005000FB010008FB010008FB010008FB01000890
:10006000FB010008FB010008FB010008FB01000880
:10007000FB010008FB010008FB010008FB01000870
:10008000FB010008FB010008FB010008FB01000860
:10009000FB010008FB010008FB010008FB01000850
:1000A000FB010008FB010008FB010008FB01000840
:1000B00085200008FB010008FB010008FB01000887
:1000C000FB010008FB010008FB010008FB01000820
:1000D000FB010008FB010008FB010008FB01000810
:1000E000FB010008FB010008FB01000800F002F81A
:1000F00000F067F80AA090E8000C82448344AAF15B
:100100000107DA4501D100F05CF8AFF2090EBAE858
:100110000F0013F0010F18BFFB1A43F0010318473B
:10012000D4340000F43400000A444FF0000C10F8FE
:10013000013B13F0070408BF10F8014B1D1108BF65
:1001400010F8015B641E05D010F8016B641E01F805
:10015000016BF9D113F0080F1EBF10F8014BAD1C55
:100160000C1B09D16D1E58BF01F801CBFAD505E073
:1001700014F8016B01F8016B6D1EF9D59142D6D3CD
:10018000704700000023002400250026103A28BFF5
:1001900078C1FBD8520728BF30C148BF0B607047F9
:1001A000662902F08A83002070471FB500F04AFBE1
:1001B00004000020002102F0D5F9E0601FBD10B559
:1001C00010BD00F03FFC1146FFF7EFFF02F0FCF816
:1001D00000F05DFC03B4FFF7F2FF03BC00F0A0FCED
:1001E0000948804709480047FEE7FEE7FEE7FEE7CB
:1001F000FEE7FEE7FEE7FEE7FEE7FEE70448054907
:10020000054A064B7047000025200008ED00000855
:1002100050130020501900205015002050150020C8
:100220000FB41CB5074B06AA7B446946009005989D
:1002300000F0EFFA0020694600F0FEFA1CBC5DF801
:1002400014FB00000D06000070B5044685690068C7
:10025000C10601D5302600E02026C00707D070BDBA
:10026000D4E9012130469047206A401C20626D1E6F
:10027000F6D570BD70B5044685690078C00707D112
:1002800070BDD4E9012120209047206A401C2062E3
:100290006D1EF6D570BD2DE9F0474FF0000A894676
:1002A0000446C0F820A02046E1688847002876D0A0
:1002B000252806D0D4E901219047206A401C2062FD
:1002C000F1E7E168204600258847C4F81CA00646EF
:1002D0000027C4F818A02A2E09D0304601F0B8FF34
:1002E00038B304EB8708303EC8F8186019E059F8B5
:1002F000041B204604EB87029161E1688847012FC7
:10030000064618D1E069002820DA25F020051DE016
:10031000D8F8180000EB800006EB40003038C8F831
:1003200018002046E1688847064601F091FF002842
:10033000EED1012F0AD02E2E08D12046E168884741
:100340007F1C0646022F45F02005C4DBA06900286B
:1003500003DA404245F00105A061E80701D025F02D
:100360001005B6B1A6F14100192802D8203645F48F
:1003700000654A463146204625604D46FFF710FF8E
:1003800058B1012806D0ED1D25F0070000F108093D
:1003900089E704E005F1040985E730468AE7206A29
:1003A000BDE8F08710B5431C02E010F8011B71B1E5
:1003B0008107FAD14FF0013202C88C1A8C4314EA3B
:1003C000C211F9D0C01A0A0603D0C01E10BDC01A4F
:1003D00010BD0A0401D0801E10BD0902FCD0401ED1
:1003E00010BD70477047704770472DE9FF4F0C46AE
:1003F0001E464FF0FF378BB0D2E90001DDF8608078
:100400000A908A46C1F30A5505B93D4600210846BF
:100410004FF00000BAF1000F00F4400005DA00EBE5
:1004200080004FF4400101EA50004FEA9059B9F1C1
:10043000010F00DDB9460A9850EA4A000ED044F692
:100440001050A5F2FF3545432F14B8F1000F1ED010
:100450007542291E1EDDC9F100021CE0B8F1010F32
:100460004FF0000001D0302103E0F24305E02154B9
:10047000401CB042FBDB30460022002121540B9986
:10048000C1F80880C1E900200FB0BDE8F08FBD1BA6
:100490006D1CDEE74A4600DA694206A800F05CFA05
:1004A00006AB93E8070003AB83E8070050460A99C0
:1004B00000F03DFB8DE80700A0F500501F380090CC
:1004C0000398002D0ADD42F21F014A46084400232A
:1004D00003A90390684600F0A6FD09E0A0F50050CE
:1004E0004A461F38002303A90390684600F0B0FD78
:1004F0008DE807000004000C03D04FF0FF304108E6
:1005000000E01046B8F1000F03D00022009215461B
:100510001EE0751E05D400F099F9303262556D1E4B
:10052000F9D5B3460122084302D000227F1C04E023
:100530002078302801D100227F1E002A099784D01C
:100540001DE0112D07DA00F081F9303262556D1C83
:1005500050EA0102F5D1084302D00098C8B10EE07C
:100560000021681E05E0235C625C63542254401E37
:10057000491C8142F7DBAB46A81B401E09900020B6
:1005800004F80B000B98099AC0F80880C0E9002B0A
:100590007AE711264FF0000857E72DE9F04F88461B
:1005A0000446D21D22F0070191B0D1E90001CDE946
:1005B0000A0101F039FE02460B98C00F01D02D2030
:1005C00007E02068810701D52B2002E0202101EA05
:1005D000C000032A099001D0072A05DB03464146E3
:1005E000204600F079F90BE12078800601D5E0691A
:1005F00000E00620B8F1650F814606D0B8F1660F1D
:1006000018D0B8F1670F70D131E00020B9F1110FA7
:10061000009001DB112301E009F101030AAA01A9FD
:100620000CA8FFF7E2FEDDE90C70002609F10105D8
:10063000834647E001204B4600904FF000470AAA4E
:1006400001A90CA8FFF7D1FEDDE90DB00C995D46BC
:10065000002610B909F101000D18B9EB050003D40B
:10066000C0F1FF3609F10105A5EB09002BE0B9F156
:10067000010F01DA4FF001090020B9F1110F0090CC
:10068000484601DD112300E003460AAA01A90CA88F
:10069000FFF7ABFEDDE90C704D460026834620785F
:1006A00000070AD4AB4500DA5D4601A8012D04DD40
:1006B000411911F8011C302907D04F4502DA17F112
:1006C000040F04DA012082460FE06D1EEEE7002FD2
:1006D00002DCED1B3E4403E0781CA84200DD7D1CDB
:1006E000B81B00F1010A4FF000472078000703D43F
:1006F000AA4501DB4FF0FF3A0021B7F1004F0DF1A1
:1007000043088DF8431024D002202B23002F01DA58
:100710007F422D230A21021EA0F1010000DC5FB1FF
:1007200097FBF1FC97FBF1F201FB1C7C17460CF1E7
:10073000300C08F801CDEEE7A8F101000370218824
:10074000090501D5452100E06521A0F1010800F867
:10075000011C09980FA9A1EB0807FF1D00B101209A
:10076000411901EBEA70A1693844081A401EA061E2
:100770002078C00602D42046FFF766FD099828B10C
:10078000D4E901219047206A401C20622078C006ED
:1007900022D52046FFF758FD1EE0002E04DBB345AE
:1007A00002DD01A8805D00E03020D4E901219047FE
:1007B000206A401C2062761CAAF101005FEA000A50
:1007C0000AD100F03FF8C0680168405CD4E901211B
:1007D0009047206A401C2062281EA5F10105DCDC40
:1007E00007E0D4E9012118F8010B9047206A401C6A
:1007F0002062381EA7F10107F3DC2046FFF73AFD1F
:10080000032011B041E6000001694A1C026108782A
:10081000704700B58FB0CDE9013100210591054940
:100820007944CDE9031011466846FFF734FD0FB057
:1008300000BD0000E5FFFFFF0A6802F8010B0A6037
:1008400070470000004870471013002030B5B0F129
:100850000A024FEA900E71F100034EEA817EB0EB7E
:100860000E0061EB91014FEA101E4EEA017E10EB83
:100870000E0041EB11114FEA102E4EEA016E10EB03
:100880000E0041EB11214FEA104E4EEA014E10EBE3
:100890000E0041EB1141401841F100014FEAD00038
:1008A00040EA41704FEAD10110EB80054FEA810424
:1008B00044EA907444EB01046D1944EB0404521BA8
:1008C000A3414FF0000348BF0A3200D530BD401CA1
:1008D00041F1000130BD00002DE9F0411F46044602
:1008E00003260168072A01F4006004DB08B116A59D
:1008F00005E016A503E008B115A500E015A521F057
:1009000010002060A069C01EA0610FB1401EA06150
:100910002046FFF799FC4FB1D4E9012138469047B2
:10092000206A401C2062C01C206206E0206AFAE7B0
:10093000D4E9012115F8010B9047761EF8D2204624
:10094000FFF798FCBDE8F0814E414E006E616E00ED
:10095000494E4600696E66002DE9F047814616460D
:100960008AB0354878440DC88DE80D003248784487
:10097000801C03AC0DC884E80D0041F69B30084490
:10098000372190FBF1F290FBF1F5A5F1800501FB19
:1009900012041B3C02D56442012000E00020DFF875
:1009A00098A080460027FA44AAF1BE0A0EE0E007AC
:1009B0000AD03246684607EB470101230AEB810162
:1009C00000F046FB8DE8070064107F1C002CEED180
:1009D000194F7F44AE3F19E0E80715D007EB04102C
:1009E0000DF1180A90E80E008AE80E00C068F04287
:1009F00001D1981908903246012306A903A800F0F6
:100A000027FB03AB83E807006D10641C002DE3D1C6
:100A10004FF0010332466946B8F1000F03A802D037
:100A200000F001FB01E000F013FBC9E90001C9F887
:100A300008200AB0BDE8F087742C00000048704719
:100A4000F01200207546FFF7F9FFAE460500694633
:100A5000534620F00700854618B020B5FFF7CEFBBF
:100A6000BDE820404FF000064FF000074FF00008AF
:100A70004FF0000B21F00701AC46ACE8C009ACE830
:100A8000C009ACE8C009ACE8C0098D46704710B594
:100A90000446AFF300802046BDE81040FFF79ABB44
:100AA0004FF0013C50F8042B51F8043B9A4221D1FD
:100AB000A2EB0C03934313EACC1317D150F8042B89
:100AC00051F8043B9A4215D1A2EB0C03934313EA6D
:100AD000CC130BD150F8042B51F8043B9A4209D1A6
:100AE000A2EB0C03934313EACC13DBD04FF00000CE
:100AF000704700BFD01A01BAB1FA81F101F01801B4
:100B000022FA01F0CB40C1F12001DBB2C0B2C01A21
:100B10002CFA01F3D11A914311EAC311E6D17047BF
:100B200001491820ABBEFEE72600020070475FEACD
:100B3000400C08BF91F0000F4FEA8C234FEAC1220E
:100B400043EA51514FEA1C5018BF00F5F0404FEAFC
:100B5000300018BF41F000415FEA6C5C00F0298072
:100B6000BCF1FF3F08BF40F080407047130C06BF48
:100B700012044FF0100C4FF0000C130E04BF1202C1
:100B80000CF1080C130F04BF12010CF1040C930FAD
:100B900004BF92000CF1020CD30F04BF52000CF101
:100BA000010C11464FF00002A0F11F00A0EB0C0059
:100BB000704711F0004F08BF704731F000413FF41B
:100BC000D5AF0B0C06BF09044FF0100C4FF0000C12
:100BD0000B0E04BF09020CF1080C0B0F04BF090136
:100BE0000CF1040C8B0F04BF89000CF1020CCB0F2D
:100BF00004BF49000CF1010CCCF12003A0EB0C0068
:100C000022FA03F302FA0CF241EA030100F10100B7
:100C1000704720F07F4C80EA030023F07F47ACEB65
:100C2000070303F57C5300F0004003F1FF032DE9B7
:100C300080494FEA154B09B44FEA144325EA0B4E9D
:100C400024EA03480FF2042606EB132749083E78EE
:100C50005FEA320203FB0667C7F5000707FB06F6EB
:100C60004FEA54374FEAD64606F1020607FB066CF8
:100C7000CCF1005C4FEA1C472CEA074C07FB06F45A
:100C80000CFB06F504EB15464FEA961634BF002020
:100C90004FF000404FEAD13706FB07FC4FEA1C4CEF
:100CA0000CFB0BF7D21B03FB0CF761EB07010CFBF2
:100CB0000EF7B0EB074072EB17420CFB08F734BF9E
:100CC000A2EB0742B2EB074261EB17414FEA0C443B
:100CD0004FEA910706FB07FC4FEA1C4C0CFB0BF795
:100CE000B0EBC74072EB573203FB0CF734BFA2EBFB
:100CF000C742B2EBC74261EB57310CFB0EF7B0EBCA
:100D0000C70072EB57720CFB08F734BFA2EBC702A7
:100D1000B2EBC70261EB5771039F4FEA816141EA71
:100D2000921104EBCC044FEAD1374FEA826206FB02
:100D300007FC42EA90124FEA80604FEA1C4C0CFB21
:100D40000BF7D21B03FB0CF761EB07010CFB0EF753
:100D5000B0EB074072EB17420CFB08F734BFA2EB75
:100D60000742B2EB074261EB17414FEA8C554FEA5D
:100D7000910704EB9C2406FB07FC4FEA1C4C0CFB80
:100D80000BF7B0EBC74072EB573203FB0CF734BFE5
:100D9000A2EBC742B2EBC74261EB57310CFB0EF737
:100DA000B0EBC70072EB57720CFB08F734BFA2EB35
:100DB000C702B2EBC70261EB577115EB4C254FEA46
:100DC000816141EA92114FEA82624FEAD13742EAE9
:100DD000901206FB07FC44F100044FEA80604FEAE2
:100DE0001C4C0CFB0BF7D21B03FB0CF761EB070150
:100DF0000CFB0EF7B0EB074072EB17420CFB08F749
:100E000034BFA2EB0742B2EB074261EB174115EB8F
:100E10001C154FEA813141EA92414FEA823242EA9F
:100E200090424FEA80304FEA0C7644F1000448EAE1
:100E300003434EEA0B484FF0000EB2EB080C71EB87
:100E4000030724BF624639464EEB0E0E4FF0000BEF
:100E50000018524149414BEB0B0BB2EB080C71EB04
:100E600003077BF1000B24BF624639464EEB0E0EA2
:100E70004FF0000B0018524149414BEB0B0BB2EB0A
:100E8000080C71EB03077BF1000B24BF6246394667
:100E90004EEB0E0E51EA020718BF46F0010616EBA4
:100EA0000E7655F1000254F1000103D5BDE8890129
:100EB000BDE80088BDE88901BDE80048B619524187
:100EC00041EB0101A3F10103704780807F7E7D7CAF
:100ED0007B7A7978777676757473727171706F6ECC
:100EE0006E6D6C6C6B6A6A69686867666665646477
:100EF000636362616160605F5F5E5E5D5D5C5C5B01
:100F00005B5A5A595958585757565655555554546F
:100F1000535352525251515050504F4F4F4E4E4DCD
:100F20004D4D4C4C4C4B4B4B4A4A4A494949484819
:100F30004847474747464646454545444444444359
:100F400043434342424242414141002B9C4630D4FC
:100F500077002BD01CB54FEA370703B44FF01000D1
:100F60004FF01001BAF1000F06D0BCF1000FDCBF4A
:100F700040F0080040F008014FF000000FBCBDE851
:100F800010400BF1010BBBF1010F08BF5FEA17071F
:100F900022BF12F1010211F101014FF0004143F1B2
:100FA000000300F0004043EA00007047F9D35708FF
:100FB000D0E746EA064613F1400F4FEA16461FDD1A
:100FC00013F1200FDFBF16430A46002120335B4296
:100FD000BED0C3F1200746EA064602FA07F74FEAF9
:100FE000164646EA0706C3F1200722FA03F201FA81
:100FF00007F721FA03F14FF0000342EA0702A7E7DF
:1010000046EA020646EA06464FEA164646EA010660
:10101000BCBF46EA0646360C4FF000034FF0000214
:101020004FF0000194E72DE9804C9A46934670B446
:1010300091E8380007C831EA400C48BF34EA430C55
:1010400003D5FFF7E6FDFFF780FFF0BCBDE8008C9D
:101050002DE9804C9A46934670B491E8380007C851
:1010600010F0804F08BF13F0804F03D100F005F857
:10107000FFF76BFFF0BCBDE8008C20F07F4780EAF3
:10108000030023F07F4C07EB0C03A3F57C5300F027
:101090000040A3F1FE0392F0000F00F0B38095F042
:1010A000000F00F077802DE901494FEA11404FEA27
:1010B000144621EA004800FB06FC24EA064708FB28
:1010C00006F607FB08F800FB07F718EB06484CEBA1
:1010D000164C4FEA124B18EB07484FEA15464CEBFB
:1010E000174022EA0B4E0BFB06FC25EA06470EFBD7
:1010F00006F607FB0EFE0BFB07F71EEB064E4CEB4E
:10110000164C4FF000061EEB074E4CEB174B18EB3E
:101110000B0840F1000018EB0E0B58EB000840F1F3
:1011200000008F1A4FF000013CBFC943661B14BF7B
:10113000B5EB040C00213CBFC943F61B4FEA174432
:101140004EEA8E0E27EA04454FEA1C4704FB07626D
:101150002CEA074C05FB07F70CFB05F604FB0CFC1F
:1011600016EB074642EB174216EB0C4642EB1C42CD
:101170001BEB060658EB0202414146EA9E0601D5EA
:10118000BDE80189B619524141EB0101A3F1010308
:10119000BDE801894FEA14454FEA114724EA0546A4
:1011A00021EA074C05FB07F406FB07F70CFB06F1E9
:1011B00005FB0CFC11EB074144EB17444FEA1247C7
:1011C00011EB0C4144EB1C4422EA074C05FB07F2EF
:1011D00006FB07F70CFB06F605FB0CFC16EB0746B7
:1011E00042EB174216EB0C4642EB1C456A1854F1D1
:1011F000000148BF7047B619524141EB0101A3F10C
:101200000103704795F0000F37D04FEA11424FEAC3
:10121000144721EA024624EA074C02FB07F106FBC9
:1012200007F70CFB06F402FB0CFC14EB074441EB44
:1012300017414FEA154714EB0C4441EB1C4125EADA
:10124000074C02FB07F506FB07F70CFB06F602FB53
:101250000CFC16EB074645EB174516EB0C4645EB29
:101260001C42121951F1000148BF7047B619524192
:1012700041EB0101A3F1010370474FEA14454FEA26
:10128000114724EA054621EA074C05FB07F106FB56
:1012900007F70CFB06F24FF0000605FB0CFC12EB07
:1012A000074241EB174112EB0C4251EB1C4148BF86
:1012B0007047921841EB0101A3F10103704700BF91
:1012C000FEE7704700B5034603E04FF47A7000F084
:1012D00011F8181EA3F10103F7D100BD10B50446A3
:1012E00003E04FF47A70FFF7EDFF201EA4F1010434
:1012F000F7D110BD00EBC001C9004FF0E0225161F1
:10130000002191610521116100BF4FF0E0210969C1
:1013100001F480310029F8D004214FF0E02211615E
:1013200070472DE9F04102460025002600200023E9
:101330000024002791F803C00CF00F0591F803C0BA
:101340000CF0100CBCF1000F03D091F802C04CEA75
:10135000050591F800C0BCF1000F31D014680020E1
:101360002BE04FF0010C0CFA00F3B1F800C00CEACE
:1013700003069E4220D183004FF00F0C0CFA03F7B6
:10138000BC4305FA03FC4CEA040491F803C0BCF129
:10139000280F06D14FF0010C0CFA00FCC2F814C063
:1013A0000AE091F803C0BCF1480F05D14FF0010CE1
:1013B0000CFA00FCC2F810C0401C0828D1D31460FD
:1013C000B1F800C0BCF1FF0F34DD546800202EE0FE
:1013D00000F1080C4FF0010808FA0CF3B1F800C056
:1013E0000CEA03069E4221D183004FF00F0C0CFA49
:1013F00003F7BC4305FA03FC4CEA040491F803C06C
:10140000BCF1280F05D100F1080C08FA0CF8C2F85D
:10141000148091F803C0BCF1480F07D100F1080C0B
:101420004FF0010808FA0CF8C2F81080401C082898
:10143000CED35460BDE8F0810246002093680B4093
:101440000BB1012000E000207047016170470AB134
:10145000016100E04161704700BFFEE708B501216E
:10146000082000F02BFC14208DF803004FF440609E
:10147000ADF8000003208DF8020069460448FFF72C
:1014800050FF4FF440610248FFF7DFFF08BD000046
:10149000000C014070B504461F48006820F47040FD
:1014A0001D4908600846006840F44050086000226A
:1014B00009151948001FFFF7CAFF002529E0E009B8
:1014C00030B10122D1021448001FFFF7C0FF06E02F
:1014D00000224FF400611048001FFFF7B8FF6006BC
:1014E000040E0220FFF706FF012291020A48001FA6
:1014F000FFF7ADFF0220FFF7FDFE00224FF48061F1
:101500000548001FFFF7A3FF0220FFF7F3FE681C4A
:10151000C5B2082DD3DB70BD040C014010B51648D0
:10152000006820F47040144908600846006840F4E0
:10153000405008600122C9140F48001FFFF787FFC1
:10154000012291020C48001FFFF781FF0420FFF7E2
:10155000D1FE00224FF400610748001FFFF777FF1C
:101560000420FFF7C7FE00224FF480610248001FED
:10157000FFF76DFF10BD0000040C014010B51548C9
:10158000006820F47040134908600846006840F481
:1015900040500860002209150E48001FFFF757FF52
:1015A00000224FF400610B48001FFFF750FF04209A
:1015B000FFF7A0FE012291020648001FFFF747FF38
:1015C0000122D1020348001FFFF741FF0420FFF76B
:1015D00091FE10BD040C014010B500241B480068AA
:1015E00020F47040194908600846006840F4004043
:1015F00008600122C9141548001FFFF728FF0120C9
:10160000FFF778FE012291021048001FFFF71FFF2D
:101610000120FFF76FFE07E0601CC4B2FA2C03DD67
:10162000FFF7ACFF012010BD4FF400610748001F19
:10163000FFF702FF0028EFD100224FF4806103483A
:10164000001FFFF704FF0020EDE70000040C01403D
:1016500010B5044634B902210848FFF7EDFE012811
:1016600009D110BD012C06D1E1020448FFF7E4FEC8
:10167000012800D1F5E70020F3E70000000C01404D
:1016800010B50020A349087016E0A348A1490978C5
:1016900030F8110000280ADD9F489E49097830F88B
:1016A0001100401E9C499B4A127821F8120099486B
:1016B0000078401C97490870964800780428E4DBBD
:1016C00096480078401C9549087008460078142810
:1016D00071DB002008708F49087015E190488D4932
:1016E0000978415C8F488B4A127881548948007888
:1016F000FFF7AEFF8A49874A127888540846854921
:101700000978405C01280AD1874882490978405C01
:1017100040F0010084497F4A1278885409E08248E9
:101720007C490978405C20F001007F49794A1278B1
:1017300088547B4877490978405C01280ED1794864
:1017400074490978405C48B9774872490978405C27
:1017500040F0020174486F4A1278815470486D4914
:101760000978405C78B96F486A490978405C01287B
:1017700009D16D4867490978405C40F004016A4826
:10178000644A12788154694862490978405C98B982
:10179000634860490978405C01280BD14FF4FA6036
:1017A0005D495C4A127821F8120001205F49594ACC
:1017B00012788854A3E0ACE05C4856490978405C54
:1017C00001282DD1564853490978405C58B9C820A2
:1017D0005149504A127821F81200022053494D4ACB
:1017E000127888548BE04C484A49097830F8110047
:1017F000002814D164204849464A127821F8120082
:10180000494844490978405C40F020004649414A33
:1018100012788854042045493E4A127888546EE074
:1018200042483C490978405C02282BD13C48394960
:101830000978405C01280FD13B4836490978405C63
:1018400040F010003849334A127888540320374951
:10185000304A1278885452E02F482E49097830F8DF
:101860001100F8B930482B490978405C40F0080075
:101870002D49284A1278885400202C49254A12788C
:1018800088543CE0294823490978405C03280AD160
:10189000234820490978405C20B9002023491D4A8B
:1018A000127888542BE021481A490978405C0428B2
:1018B00025D11B4817490978405C28B900201B49ED
:1018C000144A127888541AE013481249097830F8FB
:1018D0001100A0B9642010490E4A127821F81200B4
:1018E00011480C490978405C40F040000E49094A13
:1018F0001278885404200D49064A12788854054805
:101900000078401C03490870024800780428FFF65C
:10191000E5AE10BD090000201600002008000020E0
:101920000A0000200E000020040000201200002009
:1019300070B5A023F0220021084600F00FFD00F052
:1019400061F900240AE0002505E000221146104656
:1019500000F09CFD6D1C142DF7DB641CA02CF2DB49
:1019600070BD70B504460D4601231A46294620462F
:1019700000F0F4FC00F046F9FF221146104600F09A
:1019800094FD70BD08B50121082000F097F94FF4CF
:101990007070ADF8000003208DF8020010208DF863
:1019A000030069460148FFF7BCFC08BD000C01407C
:1019B00010B500F01FFAFFF7E5FF00F05DF8112009
:1019C00000F00AF9C02000F007F9F12000F0EEF86D
:1019D000002000F0EBF8C32000F0FEF8022000F039
:1019E000E5F8C42000F0F8F8072000F0DFF8D02078
:1019F00000F0F2F81D2000F0D9F8B52000F0ECF866
:101A0000002000F0D3F8382000F0E6F83A2000F08B
:101A1000E3F8022000F0CAF8362000F0DDF80020DC
:101A200000F0C4F8B02000F0D7F89F2000F0BEF816
:101A3000202000F0D1F8F12000F0CEF8152000F0C1
:101A4000B5F8152000F0B2F8152000F0AFF8152019
:101A500000F0ACF8B12000F0BFF8002000F0A6F8CC
:101A6000292000F0B9F8012002490860FFF760FF63
:101A700010BD00009881214210B54FF480700749D5
:101A80000860642000F026FC4FF480700349091FB1
:101A90000860322000F01EFC10BD0000140C014054
:101AA0002DE9F0478046894614460027302C07DB95
:101AB000392C05DCA4F130001E4901EB001724E0AD
:101AC0002E2C02D11B4FA0371FE0412C07DB5A2CD4
:101AD00005DCA4F14100184901EB001715E0202CAA
:101AE00012D1102308224946404600F037FC00F08E
:101AF00089F8002504E0002000F019FD681CC5B23B
:101B0000102DF8DBBDE8F087FCE78FB11023082229
:101B10004946404600F022FC00F074F8002505E03C
:101B20007E5D304600F003FD681CC5B2102DF7DB6A
:101B300000BFE7E7BE2800086E2900082DE9FC4732
:101B400005468A461646304600F028FD8046424645
:101B50000B4614A16846FEF763FB6846FEF722FCBD
:101B60000746002408E004EB4401294488B22022FF
:101B70005146FFF795FF641C042CF4DB00240CE0B5
:101B80001DF80420C7F10401214401EB410129445F
:101B900088B25146FFF784FF641CBC42F0DBBDE80D
:101BA000FC87000025342E316600000010B5044685
:101BB0004FF400700649086001222146054800F0F4
:101BC00091F94FF400700249091F086010BD000030
:101BD000140C01400030014010B504464FF4007071
:101BE0000649086000222146054800F07BF94FF4C1
:101BF00000700249091F086010BD0000140C01406C
:101C00000030014010B52C20FFF7E6FF10BD00BFEB
:101C1000FEE7704770B5002100230F22C47804B39B
:101C2000154C246804F4E064C4F5E064210AC1F1B1
:101C30000403CA40447804FA03F184781440214331
:101C400009010E4C0678A155047804F01F05012403
:101C5000AC4005786D11AD0005F1E025C5F80041F7
:101C600009E0047804F01F050124AC40044D067817
:101C7000761145F8264070BD0CED00E000E400E070
:101C800080E100E002490143024A11607047000010
:101C90000000FA050CED00E07047000029B1064A8B
:101CA000D2690243044BDA6104E0034AD2698243F9
:101CB000014BDA61704700000010024029B1064A6A
:101CC00092690243044B9A6104E0034A9269824399
:101CD000014B9A61704700000010024010B50024CB
:101CE0000848007808B1012010BD40F2F5311020FD
:101CF00000F00AF8044614B10120024908700120DE
:101D0000F2E70000E8120020F8B505460C46002670
:101D100020128DF80000E0B28DF801000221684623
:101D200000F09DFA0746FFF7F9FBC220FFF7B2FB70
:101D30003220FFF7C7FAFFF74FFC2812FFF7AAFB84
:101D4000FFF74AFCE8B2FFF7A5FBFFF745FC2012BE
:101D5000FFF7A0FBFFF740FCE0B2FFF79BFBFFF7AC
:101D60003BFC3846FFF796FBFFF736FC0646FFF7CD
:101D700005FC0EB10020F8BD0120FCE770B504465B
:101D80000025FFF7CBFBC220FFF784FB3220FFF7D3
:101D900099FAFFF721FC2012FFF77CFBFFF71CFCF0
:101DA000E0B2FFF777FBFFF717FC0546FFF7E6FB0E
:101DB0000DB1002070BD0120FCE7000070B50446A5
:101DC0004FF48270FFF7DAFF05464DB10020084955
:101DD0000870002C02DD2046FFF774FA012070BD68
:101DE000002C02DD2046FFF779FA0020F7E700001B
:101DF000E812002000B587B001210520FFF75EFF43
:101E0000A020ADF8040003208DF8060018208DF8FE
:101E1000070001A91C48FFF784FA4020ADF8040030
:101E200048208DF8070003208DF8060001A9164808
:101E3000FFF777FA01210803FFF740FF0020ADF814
:101E400008004FF48270ADF80A004FF40060ADF85E
:101E50000C000220ADF80E000120ADF81000400289
:101E6000ADF812000020ADF81400ADF81600072000
:101E7000ADF8180002A9054800F016F80121034842
:101E800000F006F807B000BD000801400030014036
:101E900021B1028842F04002028004E002884FF63D
:101EA000BF731A400280704710B50022028802F406
:101EB00041520B884C8823438C882343CC8823438E
:101EC0000C8923434C8923438C892343CC892343A6
:101ED0001A430280838B4FF2FF74234083830B8A63
:101EE000038210BD034600BF188900F002000028DD
:101EF000FAD0D00340EAC110988100BF188900F0E1
:101F000001000028FAD09889C0B27047704710B518
:101F100000F002F810BD00000CB500200190009008
:101F20003348006840F480303149086000BF3048D1
:101F3000006800F4003000900198401C0190009867
:101F400018B90198B0F5A06FF1D12948006800F4E4
:101F5000003010B10120009001E0002000900098B6
:101F6000012843D12348006840F01000214908604F
:101F70000846006820F0030008600846006840F04A
:101F8000020008601A4840681949486008464068DD
:101F900048600846406840F48060486008464068F1
:101FA00020F47C1048600846406840F4E81048601F
:101FB0000846006840F08070086000BF0C48006868
:101FC00000F000700028F9D00948406820F00300B4
:101FD000074948600846406840F00200486000BF7A
:101FE0000348406800F00C000828F9D10CBD00003F
:101FF0000010024000200240042808D14FF0E021E8
:10200000096941F004014FF0E022116107E04FF04F
:10201000E021096921F004014FF0E02211617047CD
:102020007047000010B51348006840F001001149E6
:10203000086008464068104908400E494860084654
:1020400000680E4908400B4908600846006820F403
:10205000802008600846406820F4FE0048604FF485
:102060001F008860FFF753FF4FF0006004490860CD
:1020700010BD0000001002400000FFF8FFFFF6FE58
:1020800008ED00E010B50121880700F01BF80128D9
:1020900005D1FFF7F5FA0121880700F004F810BD1B
:1020A000CA4302827047CA430282704721B1028844
:1020B00042F00102028004E002884FF6FE731A40EB
:1020C0000280704730B50246002000230024158AA4
:1020D00005EA0103958905EA010413B10CB1012059
:1020E00000E0002030BD1AB183890B43838102E0F8
:1020F00083898B438381704701894FF6F8721140C1
:1021000001817047002202881D4B98420ED01D4B62
:1021100098420BD0B0F1804F08D01B4B984205D0AD
:102120001A4B984202D01A4B984204D14FF68F7343
:102130001A404B881A43174B984207D0164B9842C7
:1021400004D04FF6FF431A40CB881A4302808B8895
:1021500083850B8803850A4B98420BD0094B984224
:1021600008D00E4B984205D00D4B984202D00D4B33
:10217000984201D10B7A03860123838270470000C5
:10218000002C0140003401400004004000080040E1
:10219000000C0040001000400014004000400140CE
:1021A00000440140004801401FB501210846FFF7E7
:1021B00075FD4FF08040FFF79FFF0020ADF80A004B
:1021C000ADF8060040F2E730ADF808004720ADF862
:1021D000040000208DF80C0001A94FF08040FFF7AB
:1021E00091FF01218807FFF75BFF0122114690074D
:1021F000FFF779FF4FF4A060FFF744FD1C208DF836
:10220000000001208DF8030002208DF8010001205C
:102210008DF802006846FFF7FDFC01218807FFF7F3
:1022200045FF1FBD00BFFEE7490050EAC12018BFAF
:1022300004204A0D18BF40F0010040F2FF72B2EBDB
:10224000515F08BF40F00200012808BF0520704719
:1022500030380A2801D2012070470020704770B53D
:1022600002460B46FF203125002112E0545C6040FD
:1022700000240AE000F080061EB185EA4006F0B2B4
:1022800001E04606300E661CF4B2082CF2DB4C1C52
:10229000E1B29942EADB70BD10B504466FF004006C
:1022A000FFF7AAFEE11704EB5171C1F3C701074A1A
:1022B00011701046007800EB4001C1EBC0104FF6E2
:1022C000FF7101EAC0000249088010BD0000002033
:1022D0000200002001460D4A12884A434FF0E023D5
:1022E0005A6100229A6101221A6100BF4FF0E02278
:1022F000106900F001021AB100F48032002AF5D012
:1023000000224FF0E0231A619A617047020000201A
:102310002DE9F0470446A023F0220021084600F0F2
:102320001DF8FFF76FFC002514E000260EE027786B
:10233000641C94F80080641C94F80090641C4A4665
:102340004146384600F0BFF8701C86B20A2EEEDB1C
:10235000681C85B2A02DE8DBBDE8F0872DE9F047C9
:1023600004460D4616461F46701E032190FBF1F0F1
:1023700020441FFA80F8E819401E1FFA80F92A202D
:10238000FFF72AFC200AFFF711FCE0B2FFF70EFC72
:102390004FEA1820FFF70AFC08F0FF00FFF706FCE1
:1023A0002B20FFF719FC280AFFF700FCE8B2FFF723
:1023B000FDFB4FEA1920FFF7F9FB09F0FF00FFF7DB
:1023C000F5FBBDE8F0870000FFF72CFE4820FFF783
:1023D00063FFFFF7EDFAFFF7E7FE00BF00BF00BFA6
:1023E00000BF4FF4A060FFF74DFCFFF737F8194826
:1023F000FFF78EFF4FF47A70FFF76CFF002016494D
:10240000086010E01448002102680846FFF796FBB8
:102410000120FEF763FF4FF07E510F48006800F087
:10242000E9F80D4908604FF07E510B48006800F054
:102430004FF9E7D30120FFF7C1FCFFF74FFC9E21C6
:102440000520FFF78EFA9F210520FFF78AFA00BFCB
:10245000FEE70000280000202000002070B505469F
:102460000C462146284600F070F86106080E00F080
:1024700038F870BD70B505460C4621462846FFF772
:10248000EDFF2107080E00F02CF870BD70B5064670
:102490000C46154621463046FFF7ECFFE10141EAC4
:1024A0006501C8B200F01DF870BD70B505460E4656
:1024B0001446224631462846FFF7E8FFA106080EDB
:1024C00000F00FF870BD70B505460E461446224662
:1024D00031462846FFF7E9FF6107080E00F001F8D2
:1024E00070BD70B50446002504F0800008B1E025F9
:1024F00000E000256006040E04F0800010B105F134
:102500001C00C5B26006040E04F0800008B1E81C8F
:10251000C5B22846FFF74AFB70BD10B504462046F9
:10252000FFF7DFFFE106080EFFF7DBFF10BD10B578
:1025300004462046FFF7D5FFE106080EFFF7D1FF5E
:10254000A107080EFFF7CDFF10BD70B504460D467C
:102550002046FFF7E2FFA10141EAA501C8B2FFF75B
:10256000C0FF70BD10B500290AD00878002807D038
:1025700005487844FEF794FA002801D0002010BDE9
:102580000248784410BD0000A21000009A1000001C
:102590000808A0F500114FEA3101704743004FEAE7
:1025A000D30C4FEA3C0C43401FBF40070CF1605175
:1025B00013F0FE4F70471CF0006F03D100200CF0A9
:1025C000004170470CF0004343EA507010B540EAF8
:1025D000CC0000F0B1F800BF000000924FEA00010B
:1025E000FFF7D6BF4FF000414FF00000A1F50021EA
:1025F0007047000090EA010F48BF81F0004100F1F0
:10260000EE80421A3CBF801A89184FEAD0524FF030
:102610007F4C1CEA410FA2EBD15318BF9CEA026F1A
:1026200000F03B804FF0004C4CEA00204CEA0121C6
:1026300021FA03FC10EB0C0C1ED202F1FF325FEA10
:102640001C2040EBC25038BF70471CF07F0F4FEA90
:10265000400C18BFBCF17F4F38BF7047C3F1200357
:10266000994008BF20F00100BCF17F4F38BF704790
:10267000A0F1C04000F0A6B84FEA3C00000A40EBD1
:10268000C25028BF1CF0FF0F4FEA400CE6D018BF25
:10269000BCF17F4F38BF7047EAE79CEA026F05D074
:1026A00010EA5C0F08BF00F00040704710B500F062
:1026B00043F800BF64FBBE3E401058BFC0F140402D
:1026C000491058BFC1F140418142EFF3008070478B
:1026D00050EA010C00F113801CF5000F58BFBCF547
:1026E000000F01D48842704707D710F5000F58BF7C
:1026F00011F5000F15D488427047894270471CF5C8
:10270000000F04D5BCF5000FF7D5814270474FF09C
:10271000807C1CEB400F38BF1CEB410F01D2814283
:10272000704710B500F008F8922449004FF00050AF
:102730004FF08051FFF7C0BF0EF1020E2EF0030ED6
:102740005EF8044B244204D44FEA4102B2F17F4FB9
:1027500011D84FEA4003B3F17F4F0CD80ED14FEAA6
:10276000D07CB2F17F4F0CEB4C0C0CF1020C08BF8B
:102770004CEBD17C04E04FF0080C01E04FEAD17C37
:102780000CEB4C0324FA03F404F00704B4F1040C3A
:1027900006D20EEB840CBDE810404CF0010C6047F3
:1027A000DFE80CF0070802024FF00040A0F58000BF
:1027B00010BD0846420018BFD2F1807288BF00F0F9
:1027C000004010BDFF2141EAD050C0057047000015
:1027D00090EA010F48BF81F000413FF512AF421A65
:1027E00004D882F00042A0EB020011444FEAD0521C
:1027F0004FF07F4C1CEA410FA2EBD15318BF9CEA6B
:10280000026F4AD04FF0004C4CEA00204CEA012104
:1028100021FA03FCB0EB0C0C0FD412F0FE0F36D0F3
:102820005FEA4C001DD5001240EBC25038BF704724
:102830001CF03F0F18BF70470BE0A2F101025FEAE6
:102840001C2040EBC25038BF70471CF07F0F18BFF0
:102850007047C3F12003994014BF401E20F00100CF
:10286000704780084FEA122308BF7047B0FA80FC17
:10287000A2EB0C02CCF1280C60FA0CF093EA122FB8
:1028800004BF00EBC25070474FEAC3707047130A91
:102890005FEADC1008BF7047F6E79CEA026F04D0DD
:1028A00010EA5C0F08BF0020704710B5FFF744FF27
:1028B00040DFF63E81F000407047FDF76EBE00003D
:1028C000003C6642425A4242663C00000000000062
:1028D0000018684808080808087E0000000000008A
:1028E000003C664206040810207E00000000000044
:1028F000007C040818040646443C00000000000068
:10290000000C18102064447C040400000000000047
:10291000007C40407C040242643C00000000000057
:10292000000810303C664242663C00000000000097
:10293000007E4204040C0808103000000000000073
:10294000003C664264384642463C000000000000FD
:10295000003C664242663C0808100000000000008F
:102960000000000000000000181800000000000037
:10297000001818382C24247C42420000000000007B
:10298000007C464244784642467C0000000000003D
:10299000003C664240404042663C000000000000AF
:1029A000007C444646464646447C00000000000049
:1029B000007E4040407C4040407E0000000000001F
:1029C000007E4040407C404040400000000000004D
:1029D000003C6640404E4242663C00000000000061
:1029E00000464646467E4646464600000000000039
:1029F000007C181818181818187C00000000000037
:102A000000040404040404444438000000000000EE
:102A1000004244444878484444420000000000001A
:102A20000020202020202020203E00000000000068
:102A30000066666A5A5A42424242000000000000A4
:102A40000066665656564A4A464600000000000098
:102A5000003C644646464646643C000000000000D8
:102A6000007C4242427C40404040000000000000A8
:102A7000003C664242424242663C0C0600000000B6
:102A8000007C4642467C484444420000000000006E
:102A9000003C6442601C0642663C000000000000EE
:102AA000007E101010101010101000000000000028
:102AB0000046464646464646643C0000000000008C
:102AC000004242642424243818180000000000004A
:102AD000009BDA5A5A5A6A666664000000000000D9
:102AE0000042242C18181824644200000000000042
:102AF00000C246242C18181010100000000000001E
:102B0000007E040C08101020607E00000000000011
:102B100000000000000000000000000000000000B5
:102B200000000000000000000000000000000000A5
:102B30000000000000000000000000000000000095
:102B40000000001FE00000FFFC0001FFFE0003FF8B
:102B5000FF0007E01F8007C00F800F8007C00F80B5
:102B600007C00F0003C00F0003C00F0003C00F0019
:102B700003C00F0003C00F0003C00F0783C00F0F77
:102B8000C3C00F0FC3C00F0FC3C00F0783C00F0018
:102B900003C00F0003C00F0003C00F0003C00F00ED
:102BA00003C00F0003C00F8007C00F8007C007C01D
:102BB0000F8007E01F8003FFFF0001FFFE00007F82
:102BC000F800001FE000000000000000000000000E
:102BD00000000000000000000000000000000000F5
:102BE00000000000000000000000000000000000E5
:102BF00000000000000000000000000000000000D5
:102C000000000000000000000000000000000000C4
:102C100000000000000000000000000000000000B4
:102C200000000000000000000000000000000000A4
:102C30000000000FE000001FE000007FE00000FF48
:102C4000E00003FBE00007F3E0000FC3E0000F83A8
:102C5000E0000E03E0000C03E0000003E0000003CE
:102C6000E0000003E0000003E0000003E0000003D8
:102C7000E0000003E0000003E0000003E0000003C8
:102C8000E0000003E0000003E0000003E0000003B8
:102C9000E0000003E0000003E0000003E0000003A8
:102CA000E0000003E0000FFFFFE00FFFFFE00FFF79
:102CB000FFE00FFFFFE00000000000000000000048
:102CC0000000000000000000000000000000000004
:102CD00000000000000000000000000000000000F4
:102CE00000000000000000000000000000000000E4
:102CF00000000000000000000000000000000000D4
:102D000000000000000000000000000000000000C3
:102D100000000000000000000000000000000000B3
:102D20000000001FE000007FF80001FFFE0003FF2D
:102D3000FF0007E01F8007C00F800F8007C00F80D3
:102D400007C00F0007C00F0007C0000007C0000049
:102D500007C00000078000000F8000001F00000077
:102D60001F0000003E0000007C000000F800000191
:102D7000F0000003E0000007C000001F8000003FDB
:102D80000000007E000000FC000001F8000003F0DD
:102D9000000007E000000FFFFFC00FFFFFC00FFFA4
:102DA000FFC00FFFFFC00000000000000000000097
:102DB0000000000000000000000000000000000013
:102DC0000000000000000000000000000000000003
:102DD00000000000000000000000000000000000F3
:102DE00000000000000000000000000000000000E3
:102DF00000000000000000000000000000000000D3
:102E000000000000000000000000000000000000C2
:102E100000000FFFFF800FFFFF800FFFFF800FFFFD
:102E2000FF8000001F0000007E000000FC00000189
:102E3000F8000003F0000007C000000F8000001F32
:102E40000000001FE000001FF800001FFE00001F30
:102E5000FF0000003F0000000F8000000F80000016
:102E6000078000000780000007C0000007C01000B6
:102E700007C00F0007800F0007800F800F800F80B2
:102E80000F8007E03F0007FFFF0003FFFC0000FF8B
:102E9000F800003FE000000000000000000000001B
:102EA0000000000000000000000000000000000022
:102EB0000000000000000000000000000000000012
:102EC0000000000000000000000000000000000002
:102ED00000000000000000000000000000000000F2
:102EE00000000000000000000000000000000000E2
:102EF00000000000000000000000000000000000D2
:102F000000000000FC000000F8000001F0000003D9
:102F1000F0000003E0000007C000000FC000000F39
:102F20008000001F0000003E0000003E0000007C0A
:102F3000000000F8000000F8000001F00F8003E03E
:102F40000F8003E00F8007C00F800F800F800F807D
:102F50000F801F000F801F000F801FFFFF801FFFCB
:102F6000FF801FFFFF801FFFFF8000000F80000019
:102F70000F8000000F8000000F8000000F80000015
:102F80000F8000000F800000000000000000000023
:102F90000000000000000000000000000000000031
:102FA0000000000000000000000000000000000021
:102FB0000000000000000000000000000000000011
:102FC0000000000000000000000000000000000001
:102FD00000000000000000000000000000000000F1
:102FE00000000000000000000000000000000000E1
:102FF000000007FFFF0007FFFF0007FFFF0007FFBC
:10300000FF000780000007800000078000000780A5
:103010000000078000000780000007800000078094
:10302000000007FFE00007FFFC0007FFFE0007FFAE
:10303000FF0000001F8000000F80000007800000DC
:1030400007C0000007C0000007C0000007C0000064
:1030500007C00F0007C00F8007C00F80078007C0A0
:103060000F8007E01F0003FFFF0001FFFE0000FFCD
:10307000F800001FE0000000000000000000000059
:103080000000000000000000000000000000000040
:103090000000000000000000000000000000000030
:1030A0000000000000000000000000000000000020
:1030B0000000000000000000000000000000000010
:1030C0000000000000000000000000000000000000
:1030D00000000000000000000000000000000000F0
:1030E00000000001F0000003E0000007C00000073E
:1030F000C000000F8000000F0000001F0000003E15
:103100000000003E0000007C000000F8000000F815
:10311000000001F1C00001EFF80003FFFE0007FF0F
:10312000FF0007F03F800FC00FC00F8007C00F00E7
:1031300003C01F0003E01F0003E01F0003E01F00A7
:1031400003E01F0003E00F0003C00F8007C00FC0A3
:103150000FC007E01F8003FFFF0001FFFE00007F9C
:10316000F800001FE0000000000000000000000068
:10317000000000000000000000000000000000004F
:10318000000000000000000000000000000000003F
:10319000000000000000000000000000000000002F
:1031A000000000000000000000000000000000001F
:1031B000000000000000000000000000000000000F
:1031C00000000000000000000000000000000000FF
:1031D00000000FFFFFE00FFFFFE00FFFFFE00FFF1A
:1031E000FFE00F8003E00F8003C00F8007C00F8057
:1031F00007C00F800F8000000F8000001F0000003C
:103200001F0000001E0000003E0000003E00000005
:103210007C0000007C000000F8000000F8000001C5
:10322000F0000001F0000001E0000003E0000003F6
:10323000E0000007C0000007C000000F8000000F82
:103240008000001F0000001F0000001F0000003E63
:103250000000007E000000000000000000000000F0
:10326000000000000000000000000000000000005E
:10327000000000000000000000000000000000004E
:10328000000000000000000000000000000000003E
:10329000000000000000000000000000000000002E
:1032A000000000000000000000000000000000001E
:1032B000000000000000000000000000000000000E
:1032C0000000001FE00000FFFC0001FFFE0003FF04
:1032D000FF0007E01F8007C00F800F8007C00F802E
:1032E00007C00F8007C00F8007C00780078007C096
:1032F0000F8003E01F0001FFFE00007FF800007F49
:10330000F80001FFFE0003F03F0007C00F800F80B0
:1033100007C00F0003C01F0003E01F0003E01F00F1
:1033200003E01F0003E00F0003C00F8007C00FC0C1
:103330000FC007E01F8003FFFF0001FFFE0000FF3A
:10334000FC00001FE0000000000000000000000082
:10335000000000000000000000000000000000006D
:10336000000000000000000000000000000000005D
:10337000000000000000000000000000000000004D
:10338000000000000000000000000000000000003D
:10339000000000000000000000000000000000002D
:1033A000000000000000000000000000000000001D
:1033B0000000001FE000007FFC0001FFFE0003FF93
:1033C000FF0007E01F800FC00FC00F8007C00F0075
:1033D00003C01F0003E01F0003E01F0003E01F0005
:1033E00003E01F0003E00F0003C00F8007C00FC001
:1033F0000FC007F03F8003FFFF8001FFFF00007F49
:10340000FE00000E3E0000007C000000FC000000FA
:10341000F8000001F0000001F0000003E0000007E8
:10342000C0000007C000000F8000001F8000001FC8
:103430000000003E0000000000000000000000004E
:10344000000000000000000000000000000000007C
:10345000000000000000000000000000000000006C
:10346000000000000000000000000000000000005C
:10347000000000000000000000000000000000004C
:10348000000000000000000000000000000000003C
:10349000000000000000000000000000000000002C
:1034A000000000000000000000000000000000001C
:1034B000000000000000000000000000000000000C
:1034C00000000000000000000000000000000000FC
:1034D00000000000000000000000000000000000EC
:1034E00000000000000000000000000000000000DC
:1034F00000000000000000000000000000000000CC
:103500000000000000000000000000078000000F25
:10351000C000001FE000001FE000001FE000000FDF
:10352000C000000780000000000000000000000054
:10353000000000000000000000000000000000008B
:10354000000000000000000000000000000000007B
:10355000000000000000000000000000000000006B
:1035600002400000000000A0000000000540000034
:10357000000000C8000000000C4000000000409C5B
:1035800000000000194000000020BCBE0000000048
:1035900034400000BFC91B8E00000004B54000008D
:1035A000504BCFD06607E2CF010000006C41000015
:1035B0003E8251AADFEEA73401000000D94200008C
:1035C000DCB5A0E23A301F97FFFFFFFFB4450000D3
:1035D000FD25A0C8E9A3C14FFFFFFFFFFF3F00008B
:1035E0000000008000000000FF3F0000000000809D
:1035F000000000003036000800000020F01200003B
:1036000028010008703A0008F0120020600600004F
:10361000840100081C00000043000000F8FFFFFFC9
:103620000C0000000E0000000F0000002E00000043
:103630000122039720410B3807F81E231FFE0516B1
:1036400063C07C7F08081538078001E7F07F1E0003
:103650000916F807C001E430036014E0C1C00B167E
:1036600064321E29960D1A67F23F7C960A153C1E9D
:10367000231E0E0517643003030A1FC01E0A1632EC
:103680001E1B01F0780B15C27C78293C01D20B1867
:103690007FFF0112C009191D0C1AFFE0011E041A58
:1036A000F003F0051B01F803E0041BF803C0041B42
:1036B0007803800AAA381E0A1A0E1E7B038E1E8308
:1036C00003F0821B7B06111E7C01CC531E6AA01ED8
:1036D0007A705A5BDEAB5E5B1F29478C0611101EA9
:1036E0006AAA1E5B69501E8A511E6AD83C5B1B6D1C
:1036F0001E7C018E201E73CEAB5B1A391E21897889
:103700001102180209211E011909241E0A16601E41
:10371000300801F07F03F891F04D3FDFE03FD22CFD
:10372000C30F8311F91ECB06061E14060CC02C0C09
:10373000660C5F13186033C98C0E2207DF30661CDD
:103740001E11291E2950199B191E42B00A15C31EAD
:103750003BCF7078891E1370FE3AF81E3F7F0180C0
:103760001F06401E6C3266DCB412FF4AFC1EDEC12E
:10377000801FC04C1E5B80C35A1461C1806BC1B6F0
:103780005A2CF3CE40B411291E29B42361C66BC153
:10379000B21E4C9B2DB01E6A381E1203CBC6321EC1
:1037A000300807FC7E3BF801F03F3F06033F0C3E2C
:1037B0001E0C130F83F01E2945391E2BF3CD1E015D
:1037C000184A83F009331E49F009FD1E09C41E8200
:1037D00018CA012C09491E8306600B251FFE1E9185
:1037E000791E4D01F007E01E320362C0730E785D52
:1037F00007F007F81E5C80FE031E6A18641A071B98
:10380000491E7501E7FFE7791E5D1E3E071C1E0A73
:103810001AEF1E11746F01E66B6006EA5CFF87C742
:103820001E121C698D09121E1278EA1E1E0E1771D7
:10383000FF9FE3801E5D73FF9FF31E6B607C151A74
:10384000E0CAF91E5AFE1E1C0180010F415CF3FF05
:10385000FF1EED01C1FF031E4EC07FFFF0C01E7CA6
:1038600083FF831E5AC01E4C1E1FE01E1AFD1EEA57
:103870003E3C0A10061E220E6A701EEB1C605A891E
:103880001E14C1FE18591E6A8196A91E6A1E1E7B4F
:1038900080FE1E5A061E5CC3FFFF1E115B607CF09B
:1038A000B91E59D2111260F91E5DF3FE7FF31E128C
:1038B000780A121E1E4A801E1A1802591E5A381EF5
:1038C0005D71F87FE31E1A1C3ED91E2579F87FE74B
:1038D000391E646F01E61C0180010F414D78F87FAD
:1038E000C71E1C01E3FF0AC91E4D1E381F1C1E1AED
:1038F00003F05AC033599F09141E737FFE221F5ACA
:103900003C1E31591E731FF81A071B599669D1B115
:103910000D1901F007E01E0B19FFFF1E112A1F826F
:1039200009351E5109221E0118095A1E021BC00426
:103930001B7803E0041AF803F00D1901F801FF01E8
:1039400012F0091A1E12E00A197F1E091AB2017735
:10395000031C01803B0ED824B1A310204339263A22
:103960000242527E3A6F30431FFE435FFF430440E2
:1039700052E78BA0441E3A40552A084E120342C01B
:103980004380048B3C191E3310104406086043FF2B
:10399000FC4320113B47F90C32088C0508A03C1170
:1039A000391E493C2A40123A0460114380343A1CC3
:1039B00018493C2B600C1E4A381E8A641E493C394B
:1039C0005A3B061878EB88C4782B27C83C11393C41
:1039D0003A8D1E9A1CB48B24481E8B87841E493C4A
:1039E000391E1202395A3A83B4495A8A483C1203A2
:1039F0008AC0D28B1FFE3C433FF852CBA91EA36066
:103A0000034A7F06392A3B0190240221FC0C1A014B
:103A100048A71E335DF43B072996432928531DCE42
:103A20002AE71E2BD554D23A7DD2437DA843116498
:103A30003B10AF1E2A571E4355E03B55E83C3AE485
:103A4000243AAC5A393C3A555A3B5568183AC406A0
:103A50002AAD1E4A493C395A3A5578595A92ED3C9A
:103A60000255101E3A2E1E421403461C4700000049
:04000005080000ED02
:00000001FF
