:020000040800F2
:100000009849002005030008AB3900088B37000829
:10001000A9390008791D0008953E0008000000007D
:100020000000000000000000000000004502000881
:10003000891E000800000000A1020008553A0008CF
:100040001F0300081F0300081F0300081F03000808
:100050001F0300081F0300081F0300081F030008F8
:100060001F0300081F0300081F0300081F030008E8
:10007000F51D00081F0300081F0300081F030008E8
:100080001F0300081F0300081F030008891D000844
:100090007D1D00081F0300081F0300081F03000840
:1000A0001F0300081F0300081F0300081F030008A8
:1000B0001F0300081F0300081F0300081F03000898
:1000C0001F0300081F0300081F0300081F03000888
:1000D0001F0300081F0300081F0300087D3D0008E0
:1000E0001F0300081F0300081F0300081F03000868
:1000F0001F0300081F0300081F0300081F03000858
:100100001F0300081F0300081F0300081F03000847
:100110001F0300081F030008253B00081F030008F9
:100120001F0300081F0300081F0300081F03000827
:100130001F0300081F0300081F030008A11D00087B
:10014000951D00081F0300081F0300081F03000877
:100150001F030008011E00081F030008313E0008AD
:100160001F0300081F0300081F0300081F030008E7
:100170001F0300081F0300081F0300080000000001
:100180001F0300081F03000800F002F800F04AF8FF
:100190000AA090E8000C82448344AAF10107DA45E2
:1001A00001D100F03FF8AFF2090EBAE80F0013F0EA
:1001B000010F18BFFB1A43F00103184768560000EF
:1001C00088560000103A24BF78C878C1FAD8520780
:1001D00024BF30C830C144BF04680C6070470000C1
:1001E0000023002400250026103A28BF78C1FBD840
:1001F000520728BF30C148BF0B6070471FB505F0DC
:10020000EFF900F01FFD04000020002104F0E0FFE2
:10021000401C60600020002104F0C4FFE0601FBDAE
:1002200010B510BD00F050FF1146FFF7E7FF04F0D6
:100230003BF801F0ADF903B4FFF7F2FF03BC01F0A6
:10024000D1F900002C4B19680868B0E8F04F80F332
:100250000988BFF36F8F4FF0000080F3118870475B
:100260000000000008480068006880F308884FF02C
:10027000000080F3148862B661B6BFF34F8FBFF3FE
:100280006F8F00DF00BF00BF08ED00E0DFF80C005B
:10029000016841F470010160704700BF88ED00E023
:1002A000EFF30980BFF36F8F134B1A681EF0100F26
:1002B00008BF20ED108A20E9F04F106009B44FF01C
:1002C000500080F31188BFF34F8FBFF36F8F04F09E
:1002D000A1FD4FF0000080F3118809BC196808687F
:1002E000B0E8F04F1EF0100F08BFB0EC108A80F39A
:1002F0000988BFF36F8F704744000020EFF305803B
:10030000704700000948804709480047FEE7FEE7BC
:10031000FEE7FEE7FEE7FEE7FEE7FEE7FEE7FEE7B5
:1003200004480549054A064B70470000153B000884
:100330008901000898430020984900209845002032
:100340009845002053EA020C00F069802DE9F04B3B
:100350004FF00006002B1FBFB3FA83F503FA05F434
:1003600024FA05F65E4012BF1643B2FA82F502FA8D
:1003700005F4C5F120051EBF22FA05FC44EA0C0471
:10038000203556EA044C4FEA144418BF641C4FF061
:1003900000084FF00009904271EB030C39D300299B
:1003A00019BFB1FA81F701FA07F6B0FA80F700FA3F
:1003B00007F6C7F120071EBF20FA07FC46EA0C0625
:1003C0002037B6FBF4FCA7EB0507103F07F01F0B27
:1003D000CBF120060CFA0BFB2CFA06F644BFB34611
:1003E0000026202FA4BF5E464FF0000B5BEA060CF0
:1003F00008BF4FF0010B19EB0B09ABFB027C48EB7C
:100400000608C01B06FB02CC0BFB03CC71EB0C01F6
:10041000C1E70B46024641464846BDE8F08B13B59E
:100420004FF000004FF00001AFF30080BDE81C402A
:10043000704700000FB400B58DB010A9099000916D
:100440000B904FF0FF300A9000200C900648784443
:100450000690064878446A4607900F9909A800F06C
:10046000C1FB0DB05DF814FBB3070000CB07000023
:100470002DE9FF5F4FF00008994614464646916902
:10048000D2E901A7DDF838B001988847054659EA56
:100490000B0005D009E0A1690198761C8847054644
:1004A000216A284688470028F5D1681C03D05FEAF6
:1004B000CA7005D015E04FF0FF3004B0BDE8F09FE2
:1004C0002068011D2160D0F800800AE05FEACA7050
:1004D00001D108F8015BA169761C01987F1E88474D
:1004E0000546002F1ADD681C18D0B9F1000F0DD099
:1004F000E81705EBD060421120F01F0059F82210D8
:100500002A1A012090400142E0D107E0BBF1000F20
:10051000DCD12846216A88470028D7D0E1690198B4
:100520008847BBF1000F07D1002E05DD5FEACA70D6
:1005300002D1002188F80010A068B84203DDBBF1A9
:10054000000F03D017B16FF00100B6E73046B4E7F3
:1005500010B5203AC0F00B80B1E81850203AA0E85E
:100560001850B1E81850A0E81850BFF4F5AF5FEA92
:10057000027C24BFB1E81850A0E8185044BF18C945
:1005800018C0BDE810405FEA827C24BF51F8043BEC
:1005900040F8043B08BF7047D20728BF31F8023B40
:1005A00048BF11F8012B28BF20F8023B48BF00F8D4
:1005B000012B704702F0FF0343EA032242EA0242A2
:1005C00000F002B84FF000020429C0F0128010F0D1
:1005D000030C00F01B80CCF1040CBCF1020F18BF1F
:1005E00000F8012BA8BF20F8022BA1EB0C0100F0B2
:1005F0000DB85FEAC17C24BF00F8012B00F8012B85
:1006000048BF00F8012B70474FF0000200B51346B9
:1006100094469646203922BFA0E80C50A0E80C5022
:10062000B1F12001BFF4F7AF090728BFA0E80C50D3
:1006300048BF0CC05DF804EB890028BF40F8042BCC
:1006400008BF704748BF20F8022B11F0804F18BF39
:1006500000F8012B704700004FF0013C50F8042BCC
:1006600051F8043B9A4221D1A2EB0C03934313EAC5
:10067000CC1317D150F8042B51F8043B9A4215D1F2
:10068000A2EB0C03934313EACC130BD150F8042BC9
:1006900051F8043B9A4209D1A2EB0C03934313EAAD
:1006A000CC13DBD04FF00000704700BFD01A01BA66
:1006B000B1FA81F101F0180122FA01F0CB40C1F149
:1006C0002001DBB2C0B2C01A2CFA01F3D11A914357
:1006D00011EAC311E6D170477047704770470000B8
:1006E0002DE9FF4F06468BB00878FF2806D0491C3D
:1006F0002D2805D000244FF0000908E000200CE070
:100700000124F8E709EB8903491C00EB4309087849
:10071000FF28F7D114B1C9F10000814610780025F7
:100720002C46AA4629462D2801D02B2804D1521C3C
:100730002D2813D0002082468B461078FF280FD03A
:100740004FF0000C0A21521CA5FB017804FB01812B
:1007500005FB0C11C5194BEB0104EEE70120EAE79C
:10076000002108464FF00000BAF1000F02D000EB64
:1007700080004008C0F38157012F01DD4FF0FF37A3
:100780000E9955EA040009EB01080BD04FF002095D
:1007900018F5FA7F16DA4FEACA70002F706008DD8C
:1007A000012007E04FEACA70C6E900B00FB0BDE80B
:1007B000F08F0020306000F049FAC0F80090182156
:1007C000084616E0B8F5FA7F18DD002F02DAF74880
:1007D000784401E0F6487844D0E90010C6E90010FA
:1007E00040EACA70706000F031FAC0F8009014213D
:1007F00008460FB0BDE8F04F04F0FCBE00210846EB
:100800004FF00000B8F10001099002DAC7F10002D0
:1008100000E03A4601DAC8F1000106A800F0DEFB6C
:1008200006AB93E8070003AB83E8070044F23E0001
:100830005BEA04010090584604D144F21E012C46A4
:100840005D460091210C0904014306D1009924045E
:1008500044EA15442D041039009104F07F4101430E
:1008600006D10099240244EA15642D02083900914A
:1008700004F07041014306D10099240144EA157443
:100880002D01091F009104F04041014306D1009958
:10089000A40044EA9574AD00891E009104F0004163
:1008A000084304D100986D196441401E00904FF038
:1008B00001033A466846B8F1000FCDE9014503A9A6
:1008C00002DD01F022F901E001F0F5F8BAF1000FC4
:1008D00004460D4601D084F00044002108464FF044
:1008E0000000099940F2FF77484010F00C0F07D143
:1008F00024F00040284303D0C4F30A50B84212D178
:1009000000F0A4F9C0F80090C4F30A50B8420AD12C
:10091000A8487844D0E90010C6E9001004F000416E
:100920000843706042E7C6E900543FE72DE9FF4FF6
:100930001F464FF0000A4FF0FF38454691B0D7E907
:100940000146CDF83CA000F07DF9C0680168405C2C
:100950001090B96912986D1C8847396A814688479A
:100960000028F6D1B9F1FF3F0AD0002E24F4D0645C
:1009700011DDB9F12B0F08D0B9F12D0F0BD102E029
:10098000404615B013E744F48064B96912986D1CB1
:100990008847761E8146600504A901D52D2000E018
:1009A0002B20002E01F1010B0DF130088DF8100005
:1009B0003FDDB9F1690F08D0B9F1490F05D0B9F1A0
:1009C0006E0F02D0B9F14E0F1CD13B4601A8009525
:1009D00080E85002DDE912126FF0020004F071FEAF
:1009E000C11CCED10EE0B96912986D1C88478146B2
:1009F0001398761E44F4007405600F98401C002E76
:100A00000F9016DDB9F1300FEDD0B9F1780F02D0AB
:100A1000B9F1580F0DD10F9801280AD13B46CDE905
:100A20000054DDE91212001F029604F048FEC11CBA
:100A3000A7D1109989453ED144F0800406E013996E
:100A4000681CAAF1010A44F400740860B9696D1CBD
:100A50001298761E884730288146F0D02BE01099F6
:100A6000894505D1200603D4761E44F0800418E0A1
:100A7000484603F038FB08B3761E0DF123018B4581
:100A800044F4007408D2A9F130000BF8010B2006E1
:100A900007D5AAF1010003E0200602D40AF1010003
:100AA0008246A00502D51399681C0860B96912989E
:100AB0006D1C88478146002ED1DC53E0002E51DDAD
:100AC000B9F1650F02D0B9F1450F4BD1A00549D559
:100AD000B9696D1C1298761E24F440748847002E64
:100AE00081460CDD2B2804D0B9F12D0F07D144F439
:100AF0008074B96912986D1C8847761E8146E0059E
:100B000001D52D2100E02B2108F8011BCDF8008034
:100B100021E0761E0DF13901884544F400740CD2B1
:100B2000A9F1300010F0FF0088F8000002D1009910
:100B3000884509D908F1010806E0E00501D51E48FD
:100B400001E042F20F708246B96912986D1C884725
:100B5000814613980560002E04DD484603F0C3FA71
:100B60000028D6D1F96912988847FF2053468BF8A0
:100B7000000088F8000000200A900B9004AA0CA93D
:100B80000AA8FFF7ADFDA00502D46FF00100F8E65A
:100B900014F0240F12D0E0071CD13868DDE90A12E6
:100BA000031D3B600068C0E9001213E078500000AC
:100BB0006A5000002E4F0000F1D8FFFF0AA96846D6
:100BC00003F07EFAE00705D13868009A011D39600C
:100BD000006802602846D4E6026811441378016078
:100BE00018467047D16005497944516104497944F8
:100BF000116200211161114600F036B8EDFFFFFFD0
:100C000063000000426842B1016811F8013B23B162
:100C1000521EC0E90012184670470121C160881EAB
:100C2000704742685AB1C368016843B983688B4210
:100C300005D0491E521CC0E90012002070474FF039
:100C4000FF30704700487047544300200048704709
:100C50003443002010B5044600F05CFA0068005DE3
:100C600000F0010010BD00002DE9F34F4FF0000A25
:100C70000C4656468DB001200C9001F10C000B90F3
:100C800062690B9801219047051E2DD0252D2CD08F
:100C9000216A8847C0B162690B9801219047216A97
:100CA00088470028F7D16269411E0B98904700E001
:100CB000761CA1690D988847216A88470028F7D1DA
:100CC000E1690D988847DBE7A1690D988847A8423C
:100CD000074601D1761CD3E7E1690D9888477F1C50
:100CE00002D1BAF1000F6FD06BE162690B98002757
:100CF0003D46394690472A2804D162690B98012164
:100D000090470125DFF8D08262690B980121904756
:100D1000A0F130010A290AD24745E5DC07EB87013B
:100D200000EB4107303FDFD445F01005ECE7E90662
:100D300001D46FF000476C280AD04C2814D06828E2
:100D400015D06A280DD074281CD07A281AD01DE03E
:100D500062690B98012190476C2802D045F0040588
:100D600014E045F002050DE045F020050AE0626957
:100D70000B9801219047682802D045F0080505E04E
:100D800045F4006562690B9801219047C4E9015759
:100D900065283DD019DC58287AD00CDC452837D09E
:100DA00004DC252826D041289ED131E046282FD0CA
:100DB000472899D12CE05B2877D0612828D0632878
:100DC0007CD0642823D15AE0F6E06F2848D008DCB4
:100DD00066281DD067281BD0692821D06E2816D11F
:100DE00027E0702845D0732868D0752847D0782828
:100DF0000DD14DE0A1690D988847252805463FF49F
:100E000069AFE1690D9888476D1C3FF46AAFD8E07F
:100E10000D9923466A466FF0010004F04EFCC5E0D0
:100E200045F0400023464FF000026060A80736D42A
:100E30003EE0E8077FF447AF2068011D21600068AD
:100E4000290501D506701BE7290701D5068017E79C
:100E5000A90703D5F117C0E9006111E706600FE7A4
:100E600045F0400023464FF008026060A80716D402
:100E70001EE040F60E0125EA0100606016E045F034
:100E8000400023464FF00A026060A80707D40FE035
:100E900045F040006060A80708D5234610220D9950
:100EA0006FF00100AFF3008080E007E010222346DE
:100EB0000D996FF00100AFF3008077E04FF000096B
:100EC00063284F46C8464B46CB4602D05B2806D027
:100ED00038E0E80601D40120A060012732E0626911
:100EE000D4F80CB00B98012190475E2807D14FF041
:100EF000010949466269D4F80CB00B989047216902
:100F000039B900210A4603AB43F82120491C0829BE
:100F1000FADBD8B3216949B308F1010862690B987B
:100F2000012190475D28F4D1B9F1000F09D00020CC
:100F300003A951F82020D24341F82020401C082862
:100F4000F7DB03AB2069002820794FEA40701ED000
:100F50005B462246CDF80080CDE901970D99002827
:100F60006FF0010020DAAFF300801FE0C11703AA81
:100F700000EBD1614B1121F01F0102EB8302411AFA
:100F800013680120884003431360C7E719E00D99F7
:100F9000224600286FF00100009702DAAFF30080CC
:100FA00004E0FFF765FA01E0AFF3008000280ADAF9
:100FB000401C06D10C9820B14FF0FF300FB0BDE8B7
:100FC000F08F5046FAE7E90701D10AF1010A064419
:100FD00000200C9054E60000CCCCCC0C2DE9F0475E
:100FE000814616468AB0354878440DC88DE80D0014
:100FF00032487844801C03AC0DC884E80D0041F6EB
:101000009B300844372190FBF1F290FBF1F5A5F1FC
:10101000800501FB12041B3C02D56442012000E064
:101020000020DFF898A080460027FA44AAF1BE0A03
:101030000EE0E0070AD03246684607EB470101237D
:101040000AEB810100F04CFD8DE8070064107F1C65
:10105000002CEED1194F7F44AE3F19E0E80715D0C0
:1010600007EB04100DF1180A90E80E008AE80E0054
:10107000C068F04201D1981908903246012306A9B0
:1010800003A800F02DFD03AB83E807006D10641C7E
:10109000002DE3D14FF0010332466946B8F1000F4D
:1010A00003A802D000F0F2FC01E000F019FDC9E94C
:1010B0000001C9F808200AB0BDE8F087FC4700002D
:1010C00000487047344300207546FFF7F9FFAE46ED
:1010D00005006946534620F00700854618B020B544
:1010E000FFF71EF9BDE820404FF000064FF0000763
:1010F0004FF000084FF0000B21F00701AC46ACE8C0
:10110000C009ACE8C009ACE8C009ACE8C0098D462C
:101110007047000010B5FFF795FD001D10BD00BF22
:10112000B140000010B5FFF791FD006810BD10B58B
:101130000446FFF78BFD046010BD00002DE9FF4F52
:101140001F464FF03C0987B04FF00042DDE9141014
:1011500001F10108DDF858A002EA40500390002098
:1011600005908346054604460490B969461E0898D2
:101170008847AAF1010A0290BAF1000F3BDD0298FC
:101180002E2815D0102100F01FFA00282EDB4FF07A
:10119000010B0599014317D0B9F1000F0BDB4A464B
:1011A000C11700F0FEF905430C43A9F1040905E05D
:1011B000012004900BE008B145F0010501200590E5
:1011C000049820B9361D02E0049800B1361FB969B1
:1011D000089808F101088847BBF1000FAAF1010A3D
:1011E0000290C9D00999C1F80080C5E7029870281B
:1011F00008D0502806D0F96908988847BBF1000F3D
:1012000014D04FE0002002900120BBF1000F0490A9
:1012100009D0B969089808F101088847AAF10109BD
:10122000B9F1000F07DCF969089888476FF00100F1
:101230000BB0BDE8F08F2B2804D02D280CD14FF037
:10124000FF300490B969089808F101088847A9F1AE
:101250000109B9F1000FE6DD411CE4D00A2100F0DC
:10126000B3F90028DFDB029908F1010801EB8101E5
:1012700000EB41000290B969089888470A2100F004
:10128000A3F9099AA9F10109B9F1000FC2F8008088
:1012900001DD0028E7DAF96908988847049902987F
:1012A00000FB016655EA040004D004F04041090047
:1012B00002D006E0039898E0A40044EA9574AD00DB
:1012C000B61E04F00041080002D16D196441761E7B
:1012D000159810F0240F03D04FF00B095C4803E081
:1012E0004FF028096FF07D008246564507DAAAEBD9
:1012F00006018944B9F1410F01DD4FF04109012098
:101300000021A9F1010200F04CF9024628400B46E9
:101310002140084301D0012100E00021501E02912C
:1013200043F1FF3128402140084301D0012000E073
:1013300000200299834651EA0B014FD00021084654
:101340004FF00000039900F4400039B100EB800039
:101350004FF4400100EBD07001EA600080150128D5
:1013600002DD4FF0FF3000E013D0401C36D0029871
:1013700060B3BBF1000F0CD14A460120002100F000
:1013800010F928402140084301D0012000E000204E
:10139000E0B101204A46002100F003F9034640195C
:1013A0000A4661412D1A8C4111D3B9F1400F09DD74
:1013B000159810F0240F02D0AAF1340603E0AAF128
:1013C000170600E0761C00254FF0004406E05B1E87
:1013D00042F1FF3220EA030521EA0204CAF10100CA
:1013E000B04206DA1B4903980843019000200090A0
:1013F0000EE0039AC4F3D321E80A0A43164940EAEF
:1014000044500A433146CDE90002684602F061FECD
:10141000159810F0240F0BD01598C00715D1386817
:10142000DDE90012031D3B600068C0E900120CE01A
:1014300002A8694602F044FE1598C00705D1386835
:10144000029A011D3960006802604046F0E6000023
:1014500002FCFFFF0000F07F0000F03F2DE9FF4F8E
:1014600092461D4685B04FF00041DDE9124BDDE9A3
:1014700014727F1E01EA4B50414940F0FF4940EA97
:101480000108002122F020004928049102D04E28B2
:1014900028D04CE03BA0012607C88DE80700A969C9
:1014A0000698641C88477F1E014606D41DF8060076
:1014B00018B121F0200181420BD0E96906988847D4
:1014C000032E34D0082E32D06FF0010009B0BDE8F1
:1014D000F08F761C032E01D0082EE0D1601CCAF8D4
:1014E0000000DCE7A9690698641C88477F1E2AD49F
:1014F00020F02000412826D1A9690698641C88475D
:101500007F1E20D420F020004E281CD1A969069807
:10151000641C88477F1E48F4002849F48009CAF8F3
:10152000004001D4282806D0E969069888475FEA78
:10153000CB7012D022E0A9690698641C88477F1EF0
:1015400001D4002803DAE96906988847BCE729280E
:10155000F1D1641CCAF80040E9E71BF0240F07D062
:1015600028680499031D2B600068C0E9001805E095
:101570002868021D2A600068C0F800902046A5E790
:101580000000F07F494E46494E4954590000000082
:1015900010B50446AFF300802046BDE81040FEF7CA
:1015A0004ABEB2F120030AD5C2F1200301FA02F1CA
:1015B00020FA03F300FA02F041EA0301704700FA4F
:1015C00003F14FF0000070473A2800D2303820F085
:1015D0002002412A01D3A2F13700884201D34FF003
:1015E000FF30704701491820ABBEFEE7260002001D
:1015F000704720F07F4C80EA030023F07F47ACEB7C
:10160000070303F57C5300F0004003F1FF032DE9CD
:1016100080494FEA154B09B44FEA144325EA0B4EB3
:1016200024EA03480FF2042606EB132749083E7804
:101630005FEA320203FB0667C7F5000707FB06F601
:101640004FEA54374FEAD64606F1020607FB066C0E
:10165000CCF1005C4FEA1C472CEA074C07FB06F470
:101660000CFB06F504EB15464FEA961634BF002036
:101670004FF000404FEAD13706FB07FC4FEA1C4C05
:101680000CFB0BF7D21B03FB0CF761EB07010CFB08
:101690000EF7B0EB074072EB17420CFB08F734BFB4
:1016A000A2EB0742B2EB074261EB17414FEA0C4451
:1016B0004FEA910706FB07FC4FEA1C4C0CFB0BF7AB
:1016C000B0EBC74072EB573203FB0CF734BFA2EB11
:1016D000C742B2EBC74261EB57310CFB0EF7B0EBE0
:1016E000C70072EB57720CFB08F734BFA2EBC702BE
:1016F000B2EBC70261EB5771039F4FEA816141EA88
:10170000921104EBCC044FEAD1374FEA826206FB18
:1017100007FC42EA90124FEA80604FEA1C4C0CFB37
:101720000BF7D21B03FB0CF761EB07010CFB0EF769
:10173000B0EB074072EB17420CFB08F734BFA2EB8B
:101740000742B2EB074261EB17414FEA8C554FEA73
:10175000910704EB9C2406FB07FC4FEA1C4C0CFB96
:101760000BF7B0EBC74072EB573203FB0CF734BFFB
:10177000A2EBC742B2EBC74261EB57310CFB0EF74D
:10178000B0EBC70072EB57720CFB08F734BFA2EB4B
:10179000C702B2EBC70261EB577115EB4C254FEA5C
:1017A000816141EA92114FEA82624FEAD13742EAFF
:1017B000901206FB07FC44F100044FEA80604FEAF8
:1017C0001C4C0CFB0BF7D21B03FB0CF761EB070166
:1017D0000CFB0EF7B0EB074072EB17420CFB08F75F
:1017E00034BFA2EB0742B2EB074261EB174115EBA6
:1017F0001C154FEA813141EA92414FEA823242EAB6
:1018000090424FEA80304FEA0C7644F1000448EAF7
:1018100003434EEA0B484FF0000EB2EB080C71EB9D
:10182000030724BF624639464EEB0E0E4FF0000B05
:101830000018524149414BEB0B0BB2EB080C71EB1A
:1018400003077BF1000B24BF624639464EEB0E0EB8
:101850004FF0000B0018524149414BEB0B0BB2EB20
:10186000080C71EB03077BF1000B24BF624639467D
:101870004EEB0E0E51EA020718BF46F0010616EBBA
:101880000E7655F1000254F1000103D5BDE889013F
:10189000BDE80088BDE88901BDE80048B61952419D
:1018A00041EB0101A3F10103704780807F7E7D7CC5
:1018B0007B7A7978777676757473727171706F6EE2
:1018C0006E6D6C6C6B6A6A6968686766666564648D
:1018D000636362616160605F5F5E5E5D5D5C5C5B17
:1018E0005B5A5A5959585857575656555555545486
:1018F000535352525251515050504F4F4F4E4E4DE4
:101900004D4D4C4C4C4B4B4B4A4A4A49494948482F
:10191000484747474746464645454544444444436F
:1019200043434342424242414141000046EA0646A7
:10193000A3F570534FEA164646EA42564FEAD222C2
:1019400042EA415210B54FEAD121A3F1010300F060
:101950002FF820F0004000F1020C00F0004701EBEE
:1019600000501146BCF5006F40EA070000D210BDE0
:10197000BAF1000F0AD01CB503B44FF004004FF0C9
:1019800004014FF000000FBCBDE810404FF0000113
:10199000BBF1010FB9BF04484FF0FF3103480021EC
:1019A00040EA070010BD00BFFFFFEF7F0000F07F9F
:1019B000002B9C4630D477002BD01CB54FEA37075C
:1019C00003B44FF010004FF01001BAF1000F06D031
:1019D000BCF1000FDCBF40F0080040F008014FF000
:1019E00000000FBCBDE810400BF1010BBBF1010F73
:1019F00008BF5FEA170722BF12F1010211F10101CE
:101A00004FF0004143F1000300F0004043EA0000C2
:101A10007047F9D35708D0E746EA064613F1400F5E
:101A20004FEA16461FDD13F1200FDFBF16430A46AB
:101A3000002120335B42BED0C3F1200746EA0646B0
:101A400002FA07F74FEA164646EA0706C3F12007EF
:101A500022FA03F201FA07F721FA03F14FF000032B
:101A600042EA0702A7E746EA020646EA06464FEAC6
:101A7000164646EA0106BCBF46EA0646360C4FF05B
:101A800000034FF000024FF0000194E72DE9804C75
:101A90009A46934670B491E8380007C831EA400C82
:101AA00048BF34EA430C03D5FFF7A3FDFFF780FFDF
:101AB000F0BCBDE8008C2DE9804C9A46934670B48A
:101AC00091E8380007C831EA400C48BF34EA430CBB
:101AD00003D5FFF78EFDFFF729FFF0BCBDE8008CB2
:101AE0002DE9804C9A46934670B491E8380007C8B7
:101AF00010F0804F08BF13F0804F03D100F01AF8A8
:101B0000FFF756FFF0BCBDE8008C2DE9804C9A46EB
:101B1000934670B491E8380007C810F0804F08BFB2
:101B200013F0804F03D100F005F8FFF7FFFEF0BC83
:101B3000BDE8008C20F07F4780EA030023F07F4C53
:101B400007EB0C03A3F57C5300F00040A3F1FE0368
:101B500092F0000F00F0B38095F0000F00F0778056
:101B60002DE901494FEA11404FEA144621EA0048A5
:101B700000FB06FC24EA064708FB06F607FB08F80C
:101B800000FB07F718EB06484CEB164C4FEA124BDC
:101B900018EB07484FEA15464CEB174022EA0B4E6C
:101BA0000BFB06FC25EA06470EFB06F607FB0EFEBE
:101BB0000BFB07F71EEB064E4CEB164C4FF00006E6
:101BC0001EEB074E4CEB174B18EB0B0840F10000D7
:101BD00018EB0E0B58EB000840F100008F1A4FF085
:101BE00000013CBFC943661B14BFB5EB040C0021C8
:101BF0003CBFC943F61B4FEA17444EEA8E0E27EA54
:101C000004454FEA1C4704FB07622CEA074C05FB1E
:101C100007F70CFB05F604FB0CFC16EB074642EB42
:101C2000174216EB0C4642EB1C421BEB060658EB28
:101C30000202414146EA9E0601D5BDE80189B61976
:101C4000524141EB0101A3F10103BDE801894FEAD3
:101C500014454FEA114724EA054621EA074C05FBE3
:101C600007F406FB07F70CFB06F105FB0CFC11EB78
:101C7000074144EB17444FEA124711EB0C4144EB88
:101C80001C4422EA074C05FB07F206FB07F70CFB96
:101C900006F605FB0CFC16EB074642EB174216EB6B
:101CA0000C4642EB1C456A1854F1000148BF7047CE
:101CB000B619524141EB0101A3F10103704795F0C0
:101CC000000F37D04FEA11424FEA144721EA02468B
:101CD00024EA074C02FB07F106FB07F70CFB06F4AE
:101CE00002FB0CFC14EB074441EB17414FEA15478C
:101CF00014EB0C4441EB1C4125EA074C02FB07F5B1
:101D000006FB07F70CFB06F602FB0CFC16EB07467E
:101D100045EB174516EB0C4645EB1C42121951F1E9
:101D2000000148BF7047B619524141EB0101A3F1D0
:101D3000010370474FEA14454FEA114724EA05466C
:101D400021EA074C05FB07F106FB07F70CFB06F23F
:101D50004FF0000605FB0CFC12EB074241EB17416C
:101D600012EB0C4251EB1C4148BF7047921841EBFB
:101D70000101A3F101037047FEE70000014800F0F4
:101D8000F8B9000070030020014800F0F2B900002B
:101D900070030020014800F0ECB900009803002017
:101DA000014800F0E6B900009803002038B50E4C59
:101DB0004FF4007525600025A560E56008252561C4
:101DC0000A4C050A25706070080AA070E170100ABC
:101DD00020716271180AA071E3716B4622460249B4
:101DE000034800F066F838BDA0420020B50000208E
:101DF00070030020014800F03DBC000048040020B2
:101E0000014800F037BC0000A80400200168182336
:101E1000CAB2103AB2FBF3F2054B6FF30901032A81
:101E20009B5CC36500D9091D8165084670470000A9
:101E30004C57000810B5014600208B698A6A4FF0A4
:101E4000C07453B1B3F5005F15D072B1012A0CD044
:101E5000022A0AD0032A09D104E01AB1012A06D0C5
:101E6000022A03D1C96AC90100D5012010BDC96A7F
:101E7000A142FAD010BD002AF7D0012AF2D0022ADE
:101E8000F3D0032AF3D010BD704772B6FEE790F886
:101E90002020012A07D0022A05D0416A41F480217E
:101EA000416201207047006842690A434261002094
:101EB0007047F0B590F820500468A468012D05D053
:101EC000022D03D0416A41F4802153E014F0406FA9
:101ED00001D1E5004BD5C4F30164022C03D9416A5A
:101EE00041F4000146E00125A5401D608D684FF4D6
:101EF000C0739DB1CE6835434E6845EAC605066895
:101F000003EB0417F5514FF4C275076805EB041590
:101F10000E697E51097D012905D009E00E88CD6842
:101F200045EA4655EBE701684E5946F480764E5136
:101F30001179D2F805504FF4C67641EA05250168BB
:101F400006EB04168D511178D2F801204FF4C475B8
:101F500041EA0221026805EB04155151006803EBC8
:101F60000411425842F0010242500020F0BD416A83
:101F700041F4001141620120F0BD000010B590F85D
:101F80002020012A07D0022A05D0416A41F480218D
:101F90004162012010BD3B48D0F8002242F001020E
:101FA000C0F80022D0F8002222F47C52C0F80022AF
:101FB000D0F800224B6A42EA0322C0F800220A7DD0
:101FC00002F01F0301229A40D0F81C329343C0F85C
:101FD0001C32CB69B3B9D0F80C329343C0F80C3241
:101FE0008C894B6864F31F434C6900EBC404C4F84C
:101FF00040320C890B6864F31F434C6900EBC40446
:10200000C4F84432CB69012B16D1D0F80C321343FB
:10201000C0F80C320C884B6864F31F434C6900EB2A
:10202000C404C4F840320C89CB6864F31F434C6984
:1020300000EBC404C4F844328B69002BD0F804329E
:102040000ED01343C0F804320B69002BD0F81432C1
:1020500008D01343C0F81432096A012904D008E0FB
:102060009343EFE79343F5E7D0F81C121143C0F810
:102070001C12D0F8001221F00101C0F8001200205B
:1020800010BD000000640040704730B590F820405B
:10209000012C05D0022C03D0416A41F480215DE07F
:1020A0000468002955D02469A40754D04FF4D8748B
:1020B000056804EB01142D5915F0040595600568B9
:1020C0002D594ED0ED08556005682C5904F00204D6
:1020D000D4604FF4DA74056804EB01142D5905F04F
:1020E0000F05156105682D59C5F30725956105682C
:1020F0002C59240C54614FF4DC72046802EB011279
:10210000A4581C700468A458240A5C700468A4587D
:10211000240C9C700468A258120EDA704FF4DE7220
:10212000046802EB0112A4581C710468A458240A24
:102130005C710468A458240C9C710468A258120EA7
:10214000DA71006881B1016941F02001016100206C
:1021500030BDE468A8E7416A41F400114162012002
:1021600030BD6D0D1560AFE7C16841F02001C16061
:10217000EDE72DE9F05F0546006800244669D0F8D8
:1021800004908768D0F80CB0D0F810A0D0F8188070
:10219000F10748D0F90714D001218160B80703D5B1
:1021A000284600F060FA0CE0780702D54FF400648E
:1021B00007E0380702D54FF4805402E0284600F0CB
:1021C00051FAF80516D529684FF480708860B80573
:1021D00003D5284600F049FA0CE0780502D544F40E
:1021E000005407E0380502D544F4804402E0284654
:1021F00000F03AFAF80316D529684FF48030886069
:10220000B80303D5284600F032FA0CE0780302D573
:1022100044F4004407E0380302D544F4803402E07B
:10222000284600F023FA300707D55FEACB6004D5D3
:102230002968102044F40074C86070074FF0080744
:1022400007D55FEA0B7004D52868C760284600F000
:10225000A9F9B00706D52868C068800702D02846CB
:1022600000F0A2F9700607D55FEACA6004D52968B4
:10227000102044F480640861B00607D55FEA0A7054
:1022800004D528680761284600F0BCF9F00606D599
:1022900028680069800702D0284600F0B4F9B0032E
:1022A00008D55FEAC96005D529681020486028462E
:1022B00000F0AAF9F00307D55FEA097004D5286891
:1022C0004760284600F0D4F9300446D55FEA4970EB
:1022D00040D5F00504D55FEAC87001D044F0010490
:1022E000B00504D55FEA887001D544F0020470059A
:1022F00004D55FEA487001D544F00404300529D5BF
:1023000018F0700F26D008F07000402815D006DCB9
:10231000102809D020280AD0302816D10AE05028E9
:102320000ED0602811D10EE044F008040DE044F016
:1023300010040AE044F0200407E044F0400404E004
:1023400044F0800401E044F480742868816921F03D
:1023500070018161296804204860002C05D0686AFA
:10236000204368622846FFF78FFEBDE8F09F70B5F6
:10237000040003D094F8200010B104E0012070BDE7
:10238000204600F081F82068016841F001010160F9
:1023900000F0A8FB0546052604E000F0A3FB401B67
:1023A0000A2811D820684068C007F6D02068016864
:1023B00021F00201016000F095FB05460BE000F002
:1023C00091FB401B0A2806D9606A40F40030606225
:1023D00084F82060D2E7206840688007EFD4207E30
:1023E0000128206801683DD021F080010160607EF5
:1023F00001282068016838D021F040010160A07EEA
:1024000001282068016833D021F020010160E07EBE
:102410000128206801682ED041F010010160207F62
:1024200001282068016829D021F008010160607F3F
:1024300001282068016824D021F004010160D4E95A
:1024400002010843D4E90412114308436168491E9C
:1024500008432168C86100206062012084F82000E0
:10246000002070BD41F08001C0E741F04001C5E7A8
:1024700041F02001CAE721F01001CFE741F0080147
:10248000D4E741F00401D9E7F0B587B00446142140
:102490006846FEF7B9F83E4B3E48DFF8F0E01968B1
:1024A000D4F800C03B4A0325022609271030002437
:1024B000491CF4452AD11960012907D1016841F06E
:1024C00000710160006800F000700590106840F035
:1024D000080010601068CDE9005600F00800CDE952
:1024E000047069462C48CDE9024500F0FDF9002250
:1024F0000521132000F094FB132000F083FB002241
:102500000521142000F08CFB14203AE0DFF88CE069
:10251000F44538D1D0F800C04CF0806CC0F800C051
:10252000D0F800C001290CF0806CCDF814C01960FF
:1025300007D1016841F000710160006800F000708F
:102540000590106840F002001060106802AB00F0C7
:10255000020005906020CDE9000683E8B0006946DE
:102560000F4800F0C1F9002205213F2000F058FB80
:102570003F2000F047FB00220521402000F050FBE7
:10258000402000F03FFB07B0F0BD000000640040B9
:102590002800002030380240000C02400068004053
:1025A000000402407047000000B58BB001AB03AAE5
:1025B0000021FFF76AFD0398A0F2012006281AD82F
:1025C0000E49C0B200EB800208700D4901EB4200D9
:1025D00031F812300381BDF804305BBA21F81230B3
:1025E000BDF8061049BA4180BDF8081049BA81808B
:1025F0009DF80A1081710BB000BD0000AC000020F6
:1026000040420020704770477047000070B5044694
:1026100090F82000012804D0606A40F40020606235
:1026200018E0022084F820002068016821F00101F0
:10263000016000F057FA05460EE000BF00F052FAC4
:10264000401B0A2808D9606A40F400306062052007
:1026500084F82000012070BD20684068C007EDD1DB
:10266000606270BD70477047704770477047704731
:10267000704700002DE9F84304464FF00009CDF8FB
:10268000009063484FF41651A56D0068B0FBF1F758
:102690002E6894F85C10082000FA01F131420FD046
:1026A00021680A6852070BD50A6822F004020A6002
:1026B00094F85C108840A860606D40F0010060658F
:1026C00094F85C104FF0010808FA01F0304208D08D
:1026D00021684969090604D5A860606D40F00200D0
:1026E000606594F85C1004208840304208D021686E
:1026F0000968890704D5A860606D40F00400606532
:1027000094F85C1010208840304218D02168096885
:10271000090714D5A86020680168490304D500683A
:10272000000308D5A16C07E00168C90503D401685E
:1027300021F008010160216C09B12046884794F816
:102740005C1020208840304231D021680968C906D9
:102750002DD5A86094F8350005282068016806D0BA
:10276000490347D5006800031DD4616C1CE021F0CB
:10277000160101602068416921F080014161206CEF
:1027800008B9A06C20B12068016821F0080101603F
:1027900094F85C103F208840A86084F8358084F865
:1027A0003490216D1FE0E16B09B120468847606DD0
:1027B00000282BD0606DC00714D0052084F83500A8
:1027C0002068016821F0010101600098401C009020
:1027D000B84203D820680068C007F6D184F8358075
:1027E00084F83490E16C002910D001B02046BDE897
:1027F000F04308470168C905D5D4016821F01001EC
:10280000016084F8358084F83490CCE7BDE8F88323
:10281000400000202DE9F041044600F063F906462F
:102820005CB1022084F83500002584F8345020681B
:10283000016821F0010101600DE00120BDE8F08197
:1028400000F050F9801B052805D920206065032081
:1028500084F83500F2E720680068C007F0D12268EC
:10286000116820480140D4E901031843D4E9033634
:102870003343184363691843A3691843E369184352
:10288000236A18430843616A042903D1D4E90B136E
:1028900019430843106020684069666A20F0070108
:1028A00030460E43012704280CD1A06A0643E06A93
:1028B00040B12046FFF7BEFA20B14020606584F8A1
:1028C0003570BAE7206846612046FFF79FFA94F812
:1028D0005C203F2191408160656584F8357000205F
:1028E000ACE700003F8010F02DE9F84FDFF8BCA105
:1028F0000022012503264FF00F090AF1040BAAF16B
:10290000040E00BF0B6805FA02F42340A34270D105
:102910000F7907F00307012F01D0022F16D1876826
:102920004FEA420806FA08FC27EA0C07D1F80CC067
:102930000CFA08FC4CEA070CC0F808C04768A7432B
:102940000C79C4F3001494403C4344600C79E44394
:10295000A4070AD0C4684FEA420C06FA0CF7BC433D
:102960008F6807FA0CF72743C7600C7904F003045B
:10297000022C12D1D40800EB840CDCF8204057075D
:10298000FF0E09FA07F824EA0804D1F8108008FAC3
:1029900007F848EA0408CCF8208004684FEA420CA3
:1029A00006FA0CF7BC430F7907F0030707FA0CF798
:1029B000274307604C6814F4403F70D03C4C2768B4
:1029C00047F480472760246822F0030704F480441A
:1029D0000094384C07EB040CDCF8084897074FEAE2
:1029E000177809FA08F7BC43334FB84202D10027E1
:1029F00024E054E0314FB84201D101271EE0304FAE
:102A0000B84201D1022719E02E4FB84201D1032765
:102A100014E02D4FB84201D104270FE02B4FB842EC
:102A200001D105270AE02A4FB84201D1062705E067
:102A3000284FB84201D1072700E0082707FA08F716
:102A40002743CCF80878DAF800405746D1F804C09C
:102A50009C435FEACC2C00D51C433C60DBF8004073
:102A60005F46D1F804C09C435FEA8C2C00D51C4320
:102A70003C60DEF800407746D1F804C09C435FEA32
:102A80008C3C00D51C433C60084F083F3C68D1F8A3
:102A900004C09C435FEACC3C00D51C433C60521C04
:102AA000102AFFF42FAFBDE8F88F0000083C01406A
:102AB000443802400030014000000240000402405F
:102AC00000080240000C02400010024000140240C6
:102AD00000180240001C02400AB1816170470904DD
:102AE000FBE70000014880687047000034000020C8
:102AF00002488168027811448160704734000020E8
:102B00000B4810B5016841F400710160016841F49F
:102B100080610160016841F480710160032000F070
:102B20009FF80F2000F006F800F050F8002010BDCC
:102B3000003C024030B505461F4887B000240168BC
:102B400041F010010160006806A900F0100000903B
:102B500001A800F031F90498A8B100F04DF9400047
:102B60001649174AB0FBF1F11648491E026040F2BF
:102B7000E732C0E90324C0E90114846100F046FB98
:102B8000040003D015E000F037F9E9E70D4800F044
:102B90006BFB04000DD1362000F034F8102D07D265
:102BA00000222946362000F03BF80748056000E087
:102BB000012407B0204630BD4038024040420F009B
:102BC0000010004008050020380000200C4882B0AA
:102BD000016841F480410160006800F48040009089
:102BE0000748001F016841F0805101600068002221
:102BF00000F0805000900F21901E02B000F010B83D
:102C000044380240002809DB00F01F0201219140F6
:102C10004009800000F1E020C0F80011704700007A
:102C2000F0B40E4B1B680C46C3F30223C3F1070537
:102C3000042D00D90425191D072901D2002300E025
:102C4000DB1E012606FA05F1491E214099409E40EF
:102C5000761E16403143F0BC01F01DB90CED00E0CA
:102C6000064900F0070208684FF6FF03184040EAE3
:102C70000220034A10430860704700000CED00E09A
:102C80000000FA052DE9F0470E46050065D0DFF893
:102C90001481D8F80000F7B200F00700B04207D264
:102CA00088F80070D8F8000000F00700B04254D156
:102CB00028683D4C810712D5400703D5206840F4B1
:102CC000E05020602878000703D5206840F4604079
:102CD00020602068A96820F0F00008432060287870
:102CE000C0072DD0304968680839012812D0022861
:102CF00013D0032811D00968890700292DDA21682B
:102D000021F0030101432160FFF7ECFE814641F20F
:102D1000883A0EE009688903EFE709688901ECE762
:102D2000FFF7E0FEA0EB0901514502D90320BDE801
:102D3000F0872068696800F00C00B0EB810FEFD1DC
:102D4000D8F80010404601F00701B14207D90770DA
:102D5000006800F00700B04201D00120E7E72878C2
:102D6000400705D52068E96820F4E050084320605A
:102D70002878000706D52068296920F4604040EAD9
:102D8000C100206000F058F82168084AC1F303111F
:102D9000515CC8400649086006480068FFF7CAFE53
:102DA0000020C4E7003C02400838024054570008A5
:102DB00040000020380000200F2202600C4A1368F7
:102DC00003F003034360136803F0F00383601368A8
:102DD00003F4E053C36012684FF4E05303EAD202F5
:102DE00002610448006800F00700086070470000B6
:102DF00008380240003C0240044805490068096860
:102E0000044AC1F38221515CC84070474000002051
:102E100008380240645700080448054900680968FA
:102E2000044AC1F34231515CC84070474000002061
:102E30000838024064570008154810B5006810F0C3
:102E40000C02144813D01449042A0FD0082A0ED1BA
:102E50000F4C241F2268236802F03F025B0207D553
:102E60002068C0F38810A0FB010106E0084610BDF1
:102E70002168C1F38811A1FB00010023FDF762FA6C
:102E80002168C1F30141491C4900B0FBF1F010BDBC
:102E9000083802400024F400001BB7002DE9F84F69
:102EA00004006ED02078DFF84C93C007A9F1040528
:102EB0004AD009F104000168C1F38101012908D059
:102EC0000068C0F3810002280AD1D9F8000040024E
:102ED00006D52868800337D560680028E1D033E044
:102EE0006068B0F5803F10D0B0F5A02F286810D0F2
:102EF00020F480302860286820F4802028606068F2
:102F0000A8B1FFF7EFFD06460DE0286840F48030D9
:102F1000F4E740F480202860F7E700BFFFF7E2FD08
:102F2000801B642873D828688003F7D50CE0FFF76E
:102F3000D9FD064605E000BFFFF7D4FD801B6428DD
:102F4000F0D828688003F7D42078DFF8AC828007B7
:102F50004FF0000A3ED5A748001D016811F00C0F84
:102F600008D00068C0F3810002280BD1D9F8000016
:102F7000400207D42868800716D5E068012800D1F0
:102F800012E033E1E068B8B10120C8F80000FFF7B3
:102F9000A9FD064605E000BFFFF7A4FD801B02283F
:102FA000C0D828688007F7D52868216920F0F80084
:102FB00040EAC10028600DE0C8F800A0FFF792FDCC
:102FC000064604E0FFF78EFD801B02281FD8286804
:102FD0008007F7D42078000722D5864F874861699B
:102FE000703771B101210160FFF77CFD064604E0F6
:102FF000FFF778FD801B022809D838688007F7D5CD
:103000000EE0C0F800A0FFF76DFD064605E082E087
:10301000FFF768FD801B02287DD838688007F7D449
:103020002078400768D5DFF8CCB100270BF13C0BC6
:10303000DBF80000C0000BD4DBF8001041F0805139
:10304000CBF80010DBF80000012700F08050009062
:103050006B4E3068C00510D4306840F4807030602A
:10306000FFF740FD009005E0FFF73CFD0099401A96
:10307000022850D83068C005F6D55E4EA0686C3680
:1030800001280FD00528306810D020F001003060F2
:10309000306820F004003060A068B8B1FFF722FD6E
:1030A00000900FE0306840F00100F4E740F00400C9
:1030B0003060F7E7FFF716FD0099411A41F28830BA
:1030C000814266D830688007F4D50EE0FFF70AFD2C
:1030D000009007E0FFF706FD0099411A41F28830A1
:1030E000814256D830688007F4D42FB1DBF8001045
:1030F00021F08051CBF80010A069C8B33D49091DEB
:103100000968C1F3810102294AD00228504607D03C
:10311000C8F8600000E03CE0FFF7E4FC04463BE058
:103120004746C8F86000FFF7DDFC064605E000BF33
:10313000FFF7D8FC801B02282BD828688001F7D421
:10314000D4E907010843A16A2E4A490802EB01416C
:10315000626A41EA8211084394F82C1040EA016146
:10316000C9F8001001203866FFF7BCFC044606E0F1
:103170003EE000BFFFF7B6FC001B022809D8286814
:103180008001F7D534E000BFFFF7ACFC001B02283C
:1031900002D90320BDE8F88F28688001F4D427E025
:1031A0000128F7D0D9F80000E26900F480019142CB
:1031B0001CD1226A00F03F01914217D147F6C0713D
:1031C000626A0140B1EB821F10D1A26A4FF0FF3357
:1031D00000F4403103EB5202B1EB024F06D194F8F8
:1031E0002C1000F07060B0EB016F01D00120D1E72E
:1031F0000020CFE70438024000004742800E4742DB
:10320000007000400000FFFF7047704710B50400D9
:1032100003D094F83D0010B107E0012010BD00205C
:1032200084F83C00204600F01EF8022084F83D009F
:10323000211D206800F07CFC012084F8460084F801
:103240003E0084F83F0084F8400084F8410084F890
:10325000420084F8430084F8440084F8450084F870
:103260003D00002010BD704790F83D10012901D0AD
:1032700001207047022180F83D100168CA6842F0C1
:103280000102CA6000681149884214D0B0F1804F31
:1032900011D00F4988420ED00E4988420BD00E49FA
:1032A000884208D00D49884205D00D49884202D095
:1032B0000C49884204D1816801F00701062903D036
:1032C000016841F0010101600020704700000140E9
:1032D0000004004000080040000C004000040140D1
:1032E0000040014000180040704770B50446006877
:1032F00001694FF00005C943890715D4C168C94366
:10330000890711D4E91E01610120207720688069B6
:103310008007204602D0FFF7E7FF04E000F098F8AE
:10332000204600F096F8257720680169C9434907CF
:1033300017D4C168C943490713D46FF00401016170
:10334000022020772068806910F4407F204602D058
:10335000FFF7CAFF04E000F07BF8204600F079F8A0
:10336000257720680169C943090716D4C168C94394
:10337000090712D46FF0080101610420207720684A
:10338000C0698007204602D0FFF7AEFF04E000F0DE
:103390005FF8204600F05DF8257720680169C94391
:1033A000C90617D4C168C943C90613D46FF0100108
:1033B0000161082020772068C06910F4407F204612
:1033C00002D0FFF791FF04E000F042F8204600F041
:1033D00040F8257720680169C943C90708D1C16849
:1033E000C943C90704D1891E0161204600F032F8A3
:1033F00020680169C943090609D4C168C94309069F
:1034000005D46FF0800101612046FFF7FDFE2068C2
:103410000169C943490609D4C168C943490605D4AD
:103420006FF040010161204600F01EF8206801693C
:10343000C94389060BD4C168C943890607D46FF014
:10344000200101612046BDE87040FFF7DEBE70BD7F
:103450007047704700680349884201D1FFF748BBB5
:103460007047000000100040704770B5040004D0A1
:1034700094F83D00002510B106E0012070BD84F8ED
:103480003C50204600F022F8242084F83D002068BB
:10349000C16821F40051C160204600F0ADFB2068F6
:1034A000016921F4904101612068416921F02A01FC
:1034B00041612068C16841F40051C1602564202049
:1034C00084F83D0084F83E00002070BD2DE9F041F5
:1034D00086B0064614216846FDF796F84748DFF89F
:1034E00018C13168002502220123032407154FF477
:1034F0004038614539D141491031D1F800C04CF410
:10350000802CC1F800C0096801F480210591016890
:1035100041F0040101600068694600F00400059074
:10352000A0028DE81D00072004903548FFF7DCF964
:10353000354C344820607804C4E90105C4E90357D8
:10354000C0146561C4E90650C4E908852046FFF748
:1035500061F908B1FEF799FCB46300220521272028
:10356000A663FFF75DFB272040E0DFF8A0C06145C0
:103570003ED122491431D1F800C04CF0200CC1F8E2
:1035800000C0096801F020010591016841F0400187
:1035900001600068694600F0400005904FF48440E7
:1035A0008DE81D00082004901948FFF79DF9164C7E
:1035B0001848603404F1080120604FF0206060601A
:1035C000402081E8A1006561A561C4E90758204653
:1035D0006562FFF71FF908B1FEF757FC746300221C
:1035E00005214720A663FFF71BFB4720FFF70AFBD7
:1035F00006B0BDE8F08100000048004030380240CD
:1036000000080240286002404804002000140140E5
:1036100000180240A06402402DE9F84F044690F8DB
:103620003E009A4616460D46202853D1FDB1F6B10C
:1036300094F83C0001284DD0012084F83C0000277C
:103640002764222084F83E002763FFF74BFAA68503
:103650008146E685A0684FF48058404501D1206935
:1036600040B12E465FF0000584F83C7027E0012051
:10367000BDE8F88F0026F7E74B46002220212046C0
:10368000CDF800A000F03EFB08B10320F0E726B122
:10369000A06840451BD038B108E020684068C0F3FE
:1036A000080025F8020B07E0206980B12068406817
:1036B00000F07F0006F8010BE08D401EE085E08DF4
:1036C0000028D9D1202084F83E000020D0E72068CF
:1036D0004068EFE70220CBE72DE9F843044690F875
:1036E0003D001F4616460D4620284CD1C5B1BEB13F
:1036F00094F83C00012846D0012084F83C004FF0AB
:103700000008C4F84080212084F83D00FFF7EAF962
:10371000A6848146E684A068B0F5805F03D004E00B
:103720000120BDE8F883206928B12E465FF000052E
:1037300084F83C800EE00026FAE78021204600F065
:10374000E1FAA0B9AEB116F8010B21684860E08C2F
:10375000401EE084E08C4B464FF0000200970028AA
:10376000EBD14FF04001204600F0CCFA30B10320FD
:10377000D7E735F8020BC0F30800E6E7202084F80D
:103780003D000020CDE70220CBE7FEE7104810B552
:103790000E4901600321416000214FF41022816035
:1037A000C0E903124FF40012426101760122427611
:1037B0008276C27601774277FEF7D9FD002803D0E2
:1037C000BDE81040FEF761BB10BD00000064004082
:1037D00070030020104810B50E49016003214160BC
:1037E00000214FF410228160C0E903124FF400124F
:1037F00042610176012242768276C2760177427773
:10380000FEF7B5FD002803D0BDE81040FEF73DBB34
:1038100010BD00000068004098030020114808B562
:10382000016841F400110160016801F40011009188
:10383000016841F4800101600068002200F480000A
:10384000009005210C20FFF7EBF90C20FFF7DAF9C7
:10385000002205214520FFF7E3F9BDE80840452097
:10386000FFF7D0B93038024000B587B01C220649B6
:103870006846FCF76DFE0021684600F0DFFD034955
:10388000086007B000BD0000F856000824000020C2
:1038900070B586B014216846FCF7B6FE22480025B4
:1038A000016841F002010160016801F00201059127
:1038B000016841F040010160016801F0400105919B
:1038C000016841F001010160016801F00101059109
:1038D000016841F008010160016801F008010591EB
:1038E000016841F004010160016801F004010591E3
:1038F000016841F08001016000680C4E00F080001A
:103900004FF4E0540590012221463046FFF7E4F8D9
:103910000121CDE90041CDE9021569463046FEF7A7
:10392000E3FF06B070BD000030380240001C0240CA
:103930000D4810B50B4901600C49416000214FF45E
:1039400080628160C0E903120C22C0E90521C161D7
:10395000FFF78BFD002803D0BDE81040FEF795BAB5
:1039600010BD000000480040C0030020A0860100F8
:103970000C4810B50A4901604FF4E1314160002163
:1039800081600C22C160C0E904128161C161FFF74E
:103990006CFD002803D0BDE81040FEF776BA10BDDC
:1039A0000014014004040020FEE7FEE730B5144B8C
:1039B0001C68656945F0400565611B68DC6844F07A
:1039C0001004DC600F4B1C68256825F0010525609C
:1039D0001C682568ED07F7D11D680B4CAC601C68AE
:1039E000E06018680161186842601868016841F475
:1039F000802101601868016841F00101016030BD5B
:103A0000C003002048040020044800408EB000F0AD
:103A100071FB00F073FF1C220C496846FCF798FD0F
:103A20000021684600F00AFD094C08491C2220606C
:103A30001C3107A8FCF78CFD002107A800F0FEFC54
:103A40006060642000F0EEFCFBE700001457000803
:103A50002C00002010B5502080F31188BFF34F8F49
:103A6000BFF36F8F01F0D6FA18B104494FF08050C0
:103A70000860002080F3118810BD000004ED00E014
:103A800030B593B030216846FCF7BEFD14210CA878
:103A9000FCF7BAFD1D480025016841F08051016026
:103AA000006800F0805011901948016841F480418D
:103AB00001600068022400F4804011900120009011
:103AC000000401908001CDE9064006200890A8205E
:103AD000CDE9090404200B906846FFF7DFF908B12F
:103AE00072B6FEE70CA90F2081E831004FF4A05018
:103AF0000F904FF48050109005210CA8FFF7C2F8EA
:103B0000002801D072B6FEE713B030BD4038024045
:103B1000007000400248016841F470010160704784
:103B200088ED00E00148FFF7E0BB00000805002039
:103B3000F0B50268254C264D264E274F274B4FF0F7
:103B4000804CA04209D0604507D0A84205D0B042C1
:103B500003D0B84201D0984204D122F0700E4A68D6
:103B600042EA0E02A0421BD0604519D0A84217D0ED
:103B7000B04215D0B84213D0984211D0184DA84287
:103B80000ED0184DA8420BD0174DA84208D0174DA3
:103B9000A84205D0164DA84202D0164DA84203D126
:103BA00022F44075CA682A434D6922F080022A43F4
:103BB00002608A68C2620A688262A04201D09842AA
:103BC00001D10969016301214161F0BD000001409B
:103BD0000004004000080040000C004000040140C8
:103BE00000400140004401400048014000180040EE
:103BF000001C00400020004070B5044600680169C8
:103C0000E26821F44051114301612169A068E26931
:103C100008436169114308432168CA6849F20C638B
:103C20009A430243CA6020684169A26921F4407145
:103C30001143416131492068884202D030498842AD
:103C400002D1FFF7E9F801E0FFF7D6F8E2690023B7
:103C5000192164253226B2F5004F626828D0A0FBF6
:103C60000101930F9200FCF76DFB0146B0FBF5F0EC
:103C70006FF01802504301EB800006EB0010B0FB20
:103C8000F5F000F0F002B1FBF5F002EB0012B1FB31
:103C9000F5F06FF01803584301EB800006EB0010BD
:103CA000B0FBF5F000F00F0021681044886070BD93
:103CB000A0FB010192185B41FCF744FB0146B0FBFD
:103CC000F5F00201B1FBF5F06FF01803584301EB7A
:103CD000800006EBC000B0FBF5F000F0F80002EB4E
:103CE0004002B1FBF5F0584301EB800006EBC00049
:103CF000B0FBF5F000F00700D6E70000001001402F
:103D0000001401402DE9F041984617460E4604463E
:103D1000069D27E0681C25D02DB1FEF7E3FEA0EB41
:103D20000800A8421ED920680C3050E8001F21F47A
:103D3000D07140E80012002AF5D12068143050E814
:103D4000001F21F0010140E80012002AF5D12020D7
:103D500084F83D0084F83E00002084F83C000320F5
:103D6000BDE8F0812068006836EA000004D0002039
:103D7000B842CFD00020F3E70120F9E7264818B475
:103D800000680168890604D501684068009018BC85
:103D9000704722490968C906F9D501684068204A78
:103DA0000090106801684FF024030C031D4904685B
:103DB00024F00104046016D410684468C4F124049B
:103DC000A4B20C8043601068016841F400210160D6
:103DD0001068016841F001010160122CD7D112492D
:103DE00001F1160015E014686068C0F1240080B28B
:103DF000088063600D498B6A23F400238B6211688D
:103E00000A6842F001020A601228C0D1064901F195
:103E10003A0018BC00F07ABDC00300200048004002
:103E200048040020BE000020B8420020006002408C
:103E300038B514480068C068800619D54FF0FF33C4
:103E4000012269460F48FFF7E7FB00230E4C0F4A9B
:103E50000F498DF8000023280BD01278002A07D1D3
:103E60000A78A054521CD0B208701E2800D30B70E0
:103E700038BD10780028FBD10D7823206055012033
:103E80001070F4E70404002016430020C000002056
:103E900018000020FEE70907090E002804DB00F1E6
:103EA000E02080F80014704700F00F0000F1E020DF
:103EB00080F8141D7047000030B52DED048B81B0E3
:103EC000B0EE408AF0EE608A6A4651EC180B00F0C2
:103ED0003FF900989FED329B7E300090002821DC56
:103EE00053EC192B51EC180B01F0CEF91AD000212C
:103EF00040F608004FF00000044651EC180B01F0AA
:103F00007DF908EE100A40F6080004EA00014FF0BF
:103F10000000B5EEC08AF1EE10FA04BF0220FDF7F2
:103F200006F92DE00098FF2830DB002108464FF00D
:103F3000000000F4400553EC192B51EC180B01F074
:103F400019FB8CBF002401240220FDF7F0F89FED3F
:103F5000168A4DB1002C0CBF4FF400004FF48000C6
:103F6000A84218BF9FED118A042108464FF00000B7
:103F7000002C01BFB1EE480A01B0BDEC048B30BD8E
:103F8000B0EE480A01B0BDEC048B30BD51EC180B0B
:103F900001F034F901B000EE100ABDEC048B30BD25
:103FA00000000000000000000000807FFFFF7F7F16
:103FB00030B540F2FF742DED048BF0EE608A18EE00
:103FC000901A85B0B0EE408A9FED2B9B05468DED93
:103FD000008B34EA115147D053EC192B51EC180BDC
:103FE00001F052F940D02A4651EC180B01F037FB92
:103FF00041EC180B18EE900A8DED008B34EA10504E
:104000001CD053EC192B51EC180B01F03DF92BD1BE
:104010000220FDF78CF800F043F810EE901A18EE2D
:10402000900A8DED020B8DED008B61F31E00039065
:104030009DED020B05B0BDEC048B30BD0220FDF7F9
:1040400076F800F01DF810EE901A18EE900A8DED3B
:10405000020B8DED008B61F31E0003909DED020BB2
:1040600005B0BDEC048B30BD05B0B0EE480AF0EEF3
:10407000680ABDEC048B30BD0000000000000000A9
:104080009FED050B10B553EC102B51EC100B01F00C
:1040900073F941EC100B10BD00000000000000702F
:1040A0009FED050B10B553EC102B51EC100B01F0EC
:1040B00063F941EC100B10BD00000000000000107F
:1040C00010B5044691ED000BFFF7F6FE84ED000AF3
:1040D00010BD10B5044690ED000B0846FFF768FFD1
:1040E00084ED000B10BD30380A2801D20120704742
:1040F0000020704700B58BB000200121CDE90601FA
:1041000008910090019002900390059004906946F8
:104110000C48FDF733FF0B48FEF778FA02210948F7
:10412000FDF7B5FE0E200990059069460648FDF79B
:1041300025FF0548FEF76AFA02210348FDF7A7FEAE
:104140000BB000BD700300209803002000000000A9
:1041500010B582B01446CDE900010023009A236017
:10416000194B21F0004098422ADA024328D0B0F5DA
:10417000801FA8BF226810DA9FED150B53EC102B9F
:104180009DED000B51EC100B01F0F6F8CDE90001AC
:104190006FF0350221F0004022600F4B6FF31E518B
:1041A00003EB20501044206041F0FF5040F00050DD
:1041B00001909DED000B00BF02B051EC100B10BD43
:1041C0009DED000BF8E700000000F07F000000000C
:1041D000000000000000504302FCFFFF00F003005D
:1041E000024900EB800001EB400070474042002094
:1041F00000B587B005AB04AA03A9684600F0B8FC77
:10420000002814D00BA16846FCF726FA00280ED12E
:1042100009489DED030A80ED000A08489DED040A57
:1042200080ED000A06489DED050A80ED000A07B002
:1042300000BD0000504944000C0000201000002088
:104240001400002000487047B84200209FED0C1A6F
:1042500080ED001A80ED011A80ED021A80ED061A39
:1042600080ED071A80ED081A80ED031A80ED041A1C
:1042700080ED051AC0ED0A0A80ED090A70470000BA
:1042800000000000B4EEE00AF1EE10FA01DDB0EE3D
:10429000600AF1EE600AB4EEE00AF1EE10FA01D223
:1042A000B0EE600A70470000FEF72AFCFFF7E8FB5B
:1042B000FFF7EEFAFFF7B2FAFFF768FAFFF78AFAAC
:1042C000FFF736FBFFF754FBFFF714FF00F016FB78
:1042D00000F044FCFFF7B6FF0E4988600E490868FD
:1042E000C26842F02002C2600868C16841F0100153
:1042F000C1600A480168CA6842F02002CA600068CA
:10430000C16841F01001C160FFF7AEFA00F091F80A
:10431000FEE7000018000020C00300200404002075
:1043200001460020842900D0C81C70472DED068B63
:104330009FED329A324CDFED338ADFED339A334F03
:104340009FED338A334D9FED34AADFF8D080344E91
:1043500084ED009AF0EE680AB0EE690A2B48FFF788
:1043600075FFB0EE481AF0EE480AB6EE000A27488C
:1043700000F0B8FB94ED000A244800F0B6FB0020E2
:10438000FFF72CFF008800EE100A2048B8EE400A24
:1043900085ED000A00F0ACFBF0EE680AB0EE4A0AC8
:1043A0001E48FFF753FF97ED050A1C4800F09DFBE0
:1043B000B0EE481AF6EE000AB1EE040A174800F013
:1043C00091FB0020FFF70AFFB0F90200306000EE19
:1043D000100A1248B8EEC00A00F08AFB98ED050AF0
:1043E00000231A46BDEEC00A194610EE100A00B2AC
:1043F000FDF7DCFC022000F015F8A9E700007A4583
:104400000800002000409C4500009643F00000207A
:10441000000000000400002000606A46C400002084
:104420000000002010B500B9012000F08FFC002032
:1044300010BD10B500F0B0FC002010BD7FB50D46DA
:1044400004464169B0F9080081B1A16971B1FFF773
:1044500067FFD4E905128DE80700D4E900102B4668
:10446000226900F0ACFD039004B070BDFFF758FF67
:1044700003A9CDE90001208A2B4682B2D4E90010BD
:1044800000F070FD012801D00020EDE70398EBE774
:104490002DE9F041184C0F460546E6682068001DDE
:1044A00000F08CFB38B9206890F82C10012088406F
:1044B000216981432161681C07D137B12168BDE8BA
:1044C000F0410E48091D00F0BDBB20683544B542DF
:1044D0004560216805D2A06BBDE8F041091D00F0E0
:1044E00099BB606B091D00F095FBA06A854200D264
:1044F000A562BDE8F0810000440000202C060020E9
:104500002DE9F041054600F0A9FB2E4CA068401CA7
:10451000A06020682C4F10B1606940B32DE0256089
:10452000A068012829D1002606EB860007EB800051
:1045300000F062FB761C072EF6D323488C3000F087
:104540005BFB2148A03000F057FB1F48B43000F05F
:1045500053FB1D48C83000F04FFB1B48DC3000F017
:104560004BFB19488C3060631430A06305E0206871
:10457000E96AC06A884200D82560606A401C6062AF
:10458000E96A0120226988401043206101EB810023
:1045900007EB8000291D00F055FB00F07FFB6069F0
:1045A00000280CD02068E96AC06A884207D207490F
:1045B0004FF080500860BFF34F8FBFF36F8FBDE89F
:1045C000F0810000440000205005002004ED00E0D0
:1045D00010B5044690F8510058B101280CD00228BB
:1045E0000FD0502080F31188BFF34F8FBFF36F8F30
:1045F000FEE7206B00F066FB2046BDE8104000F0AF
:1046000061BB10BD10484FF47051420706D0C01D69
:104610000D4920F00700411AC1F570510B4A0023E3
:104620000144C2E900030839183A21F0070111607A
:104630004B600B600B1AC0E9001393604FF0004011
:104640005360506170470000400600209800002031
:10465000144E154CA6F1C8074FF08058DFF84C9067
:1046600012E000BF00F0FAFAF068C568281D00F0FB
:10467000A5FAA068401EA0606068401E606000F05F
:104680000DFB2846FFF7A4FF60680028EAD13868D0
:104690000128F9D9C9F80080BFF34F8FBFF36F8F9E
:1046A000F2E70000180600204400002004ED00E0BE
:1046B0002DE9F05F8846DDE90B94154683469100AD
:1046C0009A460A9EA522206BFBF774FF6FF0030148
:1046D000206B01EB8501084420F00707780707D01D
:1046E000502080F31188BFF34F8FBFF36F8FFEE729
:1046F0000025B8F1000F0FD05FF00000221818F865
:10470000001082F8341018F8001011B1401C102865
:10471000F4D384F8435001E084F83450072E00D3DA
:104720000626E662C4E91165201D00F070FA04F166
:10473000180000F06CFA2461C6F107006462A06101
:10474000E56484F8505052465946384600F0C0F8A7
:104750002060B9F1000F01D0C9F80040BDE8F09F1A
:1047600030B5114900E011460A688242FBD34B681C
:104770005C18844203D14068184448600846436886
:104780001C18944209D1084C183C2468A24209D054
:1047900052681A4442600A6812680260814200D07E
:1047A000086030BD0460F9E7980000200648416BBE
:1047B000096829B1416BC968C96849688162704755
:1047C0004FF0FF31FAE7000044000020084840683D
:1047D000401C4FF0500080F3118804D0BFF34F8F7E
:1047E000BFF36F8FFEE7BFF34F8FBFF36F8FFEE70F
:1047F000A00000202DE9F0410546002700F002FB53
:10480000324E306808B9FFF7FDFE706905424ED19F
:10481000C5B3083568070ED005F00700C0F10800E1
:104820000544680707D0502080F31188BFF34F8FED
:10483000BFF36F8FFEE72DB37068854237D82348EA
:10484000183001460C6801E020460C466168A94218
:1048500002D221680029F7D131688C4227D007683D
:104860002168016060680837411B10290FD9601961
:10487000420708D0502080F31188BFF34F8FBFF359
:104880006F8FFEE713E041606560FFF769FF6168C5
:104890007068401A7060B268904200D2B06070696F
:1048A00001430020C4E90001F068401CF06000F002
:1048B00017FC780707D0502080F31188BFF34F8F83
:1048C000BFF36F8FFEE73846BDE8F081800000201F
:1048D00010B5031F4FF080741C601B1F21F00101F5
:1048E0001960191F044B0B6014390A60091F6FF01F
:1048F000020244380A6010BDCD4700080249242254
:10490000A1F12400FFF752B8F2420020F0B50028D0
:1049100055D0002953D00278437842EA0322C2F3EB
:104920000A020A8043788478DB0843EA4413C3F31D
:104930000A034B808478C578A40944EA8504057984
:1049400044EA8524C4F30A048C80057946796D080D
:1049500045EAC615C5F30A05CD804679C6F30116AA
:104960008E724679B609CE728679C77946EA0726ED
:104970008E81067A477A46EA0726CE81867AC77AFA
:1049800046EA07260E82067B8E74467BCE74867BB3
:10499000C77B46EA07268E82067C407CA2F58062B1
:1049A0000A80A3F580634B80A4F5806446EA00206A
:1049B0008C80A5F58065CD80A0F580600881F0BD74
:1049C00040F2651000F0C2F9FFF712FC00F004F8A5
:1049D0000120FFF727FDF7E710B52DA094B0D0E92F
:1049E0000010CDE90C102CA01C22D0E90010CDE95C
:1049F0000E102BA0D0E90010CDE910102AA0D0E9AC
:104A00000010CDE912102AA16846FBF7A1FD2F483E
:104A10004FF0FF34234690ED000A2D488DED070A34
:104A2000062290ED000A2B488DED080A0CA990EDA6
:104A3000000A29488DED090A90ED000A27488DEDFE
:104A40000A0A90ED000A26488DED0B0AFEF744FE97
:104A50002346182269462248FEF73EFE23460622D8
:104A60000EA91F48FEF738FE2346062210A91C484F
:104A7000FEF732FE2346142207A91948FEF72CFE42
:104A80002346062212A91648FEF726FE14B010BDD2
:104A900041414242434300004343424241410000FE
:104AA00044444545464600004646454544440000CA
:104AB0007461726765745F706F732C6563645F7097
:104AC0006F732C502C492C4400000000080000207B
:104AD000040000200C000020100000201400002022
:104AE0000404002080EC030A704780ED030A70473D
:104AF00000B580ED040AD0ED030A30EEC00A80ED67
:104B0000060AD0ED080A30EE800A80ED080AD0EDE2
:104B10000A0AFFF7B7FBF0EE400AC0ED080A90ED75
:104B2000000A90ED061AD0ED011A20EE010A01EEFE
:104B3000A00AD0ED070A71EE600A90ED021A01EEAC
:104B4000200A80ED050AD0ED090AFFF79BFB80EDF6
:104B5000050A90ED060A80ED070A00BD03480068CB
:104B6000416941F080014161704700000404002068
:104B70007CB50C4D00242E78012E10D1CDE90023F8
:104B80000B46024608A10C48FBF754FC042800D150
:104B900001241E210848FBF715FD0020287020463F
:104BA0007CBD0000C00000202533733D25662C2508
:104BB000662C25662300000016430020D0E9013250
:104BC00001699A60D0E901235A604A68824201D1A2
:104BD00082684A60002202610868401E0860086816
:104BE00070470000034B036003F15400086080200D
:104BF000106070471C01002000F108014FF0FF32E7
:104C0000C0E90112C160016100210160704700210B
:104C10000161704730B50B685A1C02D000F10802E0
:104C200002E0026904E02246546825689D42FAD9F0
:104C300053684B6099608A60516008610168491C43
:104C4000016030BD42684A6093688B609368596028
:104C5000916008610168491C01607047502080F331
:104C60001188BFF34F8FBFF36F8F0A494868401C0C
:104C7000486001280CD10848006810F0FF0F07D0E9
:104C8000502080F31188BFF34F8FBFF36F8FFEE783
:104C900070470000A000002004ED00E008494868CB
:104CA00028B1401E486001D180F311887047502020
:104CB00080F31188BFF34F8FBFF36F8FFEE70000C3
:104CC000A000002070B500282AD0164DA0F10804DD
:104CD00060686969084207D1502080F31188BFF3EA
:104CE0004F8FBFF36F8FFEE722683AB1502080F3F9
:104CF0001188BFF34F8FBFF36F8FFEE7884360606B
:104D000000F080F860686968084468602046FFF732
:104D100027FD2869401C2861BDE8704000F0E0B91B
:104D200070BD0000800000204FF0E02000210161F4
:104D3000816105494FF47A720968B1FBF2F1491EAD
:104D400041610721016170474000002010B5020059
:104D500014D00F48006B38B1502080F31188BFF396
:104D60004F8FBFF36F8FFEE700F04CF80021104625
:104D7000FFF78EFB00F0B4F9002807D105494FF08A
:104D800080500860BFF34F8FBFF36F8F10BD0000DE
:104D90004400002004ED00E010B586B00024039428
:104DA00005AA04A903A80494FFF71CFFDDE9030189
:104DB0000094CDE9011000230EA11048059A00F0DF
:104DC000FEF80F490028C86211D0502080F31188E6
:104DD000BFF34F8FBFF36F8F4FF0FF30886201201A
:104DE0004861CC6006B0BDE8104000F041B806B0A4
:104DF00010BD000049444C45000000005146000829
:104E0000440000200248016B491C01637047000008
:104E1000440000201448016B11B10121C1617047A9
:104E20000021C1610169B1FA81F1C1F11F0101EBFA
:104E300081020E4951F822306BB101EB820101F180
:104E400008034A6852684A609A4201D152684A602F
:104E5000D16801607047502080F31188BFF34F8FF5
:104E6000BFF36F8FFEE700004400002050050020D4
:104E70001CB537480168374A914207D1502080F36A
:104E80001188BFF34F8FBFF36F8FFEE70068314982
:104E9000491E884207D1502080F31188BFF34F8FFD
:104EA000BFF36F8FFEE72C4908780190FF20087050
:104EB00008788DF800009DF800009DF8002000F0B3
:104EC000F000904207D0502080F31188BFF34F8F3D
:104ED000BFF36F8FFEE79DF80000204C00F05000FC
:104EE00020700720A06005E09DF8002052008DF89A
:104EF0000020401E9DF800201206F5D4A060032873
:104F000007D0502080F31188BFF34F8FBFF36F8F0E
:104F1000FEE74FF44070A060019808700C48203004
:104F2000016841F470010160016841F07041016065
:104F3000FFF7FAFE00206060FBF7A8F90848016857
:104F400041F040410160FBF78DF900201CBD0000DD
:104F500000ED00E071C20F4100E400E0A00000207D
:104F600034EF00E02DE9FF5F8346DDE90E879946C7
:104F700016468A469000FFF73DFC05001CD05420E1
:104F8000FFF738FC040014D00020256384F851009A
:104F9000CDE90240CDE900874B463246514658469E
:104FA000FFF786FB2046FFF7ABFA012004B0BDE80F
:104FB000F09F2846FFF786FE4FF0FF30F6E7F0B58A
:104FC00085B0DDE90B640A9DA6B1DCB154270097DA
:104FD0002663022684F85160002604AFCDE902461C
:104FE000CDE90057FFF764FB2046FFF789FA0498E4
:104FF00005B0F0BD502080F31188BFF34F8FBFF391
:105000006F8FFEE7502080F31188BFF34F8FBFF3FF
:105010006F8FFEE72DE9F0412F4C0026206B28B161
:10502000A069401CA0613046BDE8F081E5686D1CB8
:10503000E56013D1606B006838B1502080F31188AF
:10504000BFF34F8FBFF36F8FFEE7606BA16B6163A0
:10505000A063206A401C2062FFF7A8FBA06ADFF86B
:105060007C80854209D3606B0068A0B1606BC0682A
:10507000C7687868854211D2A0622068C06A00EBD8
:10508000800158F82100012800D90126E069002894
:10509000C9D00126C7E74FF0FF30EDE7381DFFF715
:1050A0008DFDB86A18B107F11800FFF787FDF96A9E
:1050B0000120226988401043206101EB810108EB47
:1050C0008100391DFFF7BEFDF86A2168C96A884270
:1050D000C9D30126C7E70000440000205005002086
:1050E0002DE9F0472C4D00242746286B38B1FFF7F7
:1050F000B5FD286B401E2863286B40B146E0502068
:1051000080F31188BFF34F8FBFF36F8FFEE7A9685D
:10511000224E0120D1B3A6F1B40980463068E8B12F
:10512000F068C46804F11800FFF748FD201DFFF780
:1051300045FDE06A2A6908FA00F11143296100EB94
:10514000800109EB8100211DFFF77CFDE06A2968E1
:10515000C96A8842E2D3C5F81C80DFE70CB1FFF7CB
:1051600025FBAC6944B14646FFF754FF00B1EE6140
:10517000641EF9D10020A861E86938B10849012707
:1051800038070860BFF34F8FBFF36F8FFFF786FDBF
:105190003846BDE8F08700004400002004060020E7
:1051A00004ED00E010B500290AD00878002807D0E7
:1051B00005487844FBF750FA002801D0002010BDC4
:1051C0000248784410BD0000A20600009A060000C4
:1051D00010B500290AD00878002807D0054878447F
:1051E000FBF73AFA002801D0002010BD02487844AD
:1051F00010BD0000920600008A06000021F0004267
:10520000A2F16052B2F5801F01F0004328BFD2F135
:105210007F6C0BD95FEA001C43EAC20242EB50707C
:1052200018BF704728BF20F001007047B2F5801FFB
:10523000BCBF184670474FEA410C1CF5001F02D254
:10524000084600F0D2B970B500F040F900000089BE
:10525000FFF7F6BF4FF00040A0F580007047000058
:1052600002494FF0000000F0C8B900BF0000F87F0D
:10527000491058BFC1F140415B1058BFC3F14043D2
:105280008B42EFF30080704751EA030C17D41CF5F2
:10529000801F58BFBCF5801F00F10680994218BFDF
:1052A000704708BF9042704707D711F5801F58BF5D
:1052B00013F5801F19D499427047894270471CF535
:1052C000801F08D5BCF5801FF7D58B4218BF7047EB
:1052D00008BF824270474FF4001C1CEB410F38BFDF
:1052E0001CEB430F01D28B42704770B500F0EEF813
:1052F000922449004FF000514FF08053FFF7B8BFA0
:1053000051EA030C17D41CF5801F58BFBCF5801F51
:1053100000F10680994218BF704708BF904270475D
:1053200007D711F5801F58BF13F5801F19D4994274
:105330007047894270471CF5801F08D5BCF5801F57
:10534000F7D58B4218BF704708BF824270474FF4B1
:10535000001C1CEB410F38BF1CEB430F01D28B42EA
:10536000704770B500F0B2F8922449004FF0005138
:105370004FF08053FFF77CBFDFF848C170B51CEADF
:10538000111E1EBF1CEA13159EEA0C0F95EA0C0FA6
:1053900000F06F8081EA030423EA4C134EEAD47EC6
:1053A00021EA4C1141F4801143F48013AE44A1FB77
:1053B000024CA0FB0365AEF17F7E361955EB0C0560
:1053C000A1FB034C4CF10003A0FB021C16EB0C06E6
:1053D000654153F10003094218BF46F0010613F47A
:1053E000007F0BD14FEA03314FEA0530340341EA25
:1053F000155140EA16506FF003020AE04FEAC3214C
:105400004FEAC520F40241EA555140EA56506FF088
:10541000020202EB2E4201EB025585EACE710AD060
:105420005FEA440C18BF24F0004450F1000041F141
:10543000000120EAD47040F2FE7C624500D270BDCB
:10544000A84214BF4FF080444FF04044002E08BFE4
:105450000024BEF1806FA8BFA1F1C041BDE870403B
:1054600080F282804FF0000001F1C04101F0004164
:1054700070479EEA0C0F0CEA131518BF95EA0C0F43
:1054800006D04FF0000081EA030E0EF0004170BD1F
:1054900000F01CF88900013E00F007B800F009B8E0
:1054A0004FEA430C5FEA5C5C08D081EA030100F03C
:1054B0005BB84FEA410C5FEA5C5CF6D14FF000004C
:1054C000014970470000FF070000F87F0EF1020E4F
:1054D0002EF0030E5EF8046B364205D4012A43EB2E
:1054E000030515F5001F12D8012841EB010C1CF52E
:1054F000001F0CD80ED14FEAD17C15F5001F0CEB24
:105500004C0C0CF1020C08BF4CEBD37C04E04FF0C8
:10551000080C01E04FEAD37C0CEB4C0526FA05F6AB
:1055200006F00706B6F1040C06D20EEB860CBDE8B9
:1055300070404CF0010C6047DFE80CF0090B0202F0
:105540004FF000414FF00000A1F5002170BD194659
:105550001046012851EB010418BFD4F5001484BF94
:10556000002001F0004170BD0808A0F500114FEACD
:105570003101704753EA010C17D41CF5801F58BF46
:10558000BCF5801F00F106808B4218BF704708BF32
:105590008242704707D713F5801F58BF11F5801F4F
:1055A00019D48B4270479B4270471CF5801F08D569
:1055B000BCF5801FF7D5994218BF704708BF9042CD
:1055C00070474FF4001C1CEB430F38BF1CEB410F1E
:1055D00001D2994270470FB40CBC03BCFFF7C1BEA7
:1055E0004FF04070E1EE100A7047FF2141EAD050C1
:1055F000C00570474FF0000070470CF00F03092BF7
:1056000008BF082000F05F800A2B0BD0082B18BFC2
:10561000704708BF1CF0400F0AD04FF000004FF059
:10562000000170471CF0400F18BF4FF0004070475A
:105630001CF0100F08D020F0704300F07F4242EAC7
:10564000D3014FEA4370704700F0604021F07F4281
:1056500042EA000201F07F4040EA727070474FF06A
:10566000FF0C4CF4E06C1CEA11531CBF9CEA030CC9
:105670009445C2BFDA4201EB02517047002B0DD0B6
:10568000BCF1000F0FD0002A01F00041A4BF41F08F
:10569000E04141F07F614FF00000704701F00041B0
:1056A0004FF00000704750EA01334FF09B0C18BFD9
:1056B0004CF0806C7FF4D4AD7047FBF737B9FBF743
:1056C0003DBDFBF7CBBE1CF4801F11D01CF4E02FB6
:1056D00003D06FEACC31490070474FF04050EFF3F0
:1056E000008222F0704242EA000282F30088704792
:1056F0004FF0000070470000005800080D3A000805
:10570000FEFF00000000000000010000000000009B
:10571000000000000C580008C1490008010000000A
:105720000000000000020000000000000000000077
:10573000185800082D430008010000000000000078
:10574000000200000000000000000000000610162B
:105750000006101600000000000000000102030413
:1057600006070809000000000102030402400000CF
:10577000000000A00000000005400000000000C87C
:10578000000000000C4000000000409C00000000F1
:10579000194000000020BCBE0000000034400000A2
:1057A000BFC91B8E00000004B5400000504BCFD095
:1057B0006607E2CF010000006C4100003E8251AA62
:1057C000DFEEA73401000000D9420000DCB5A0E202
:1057D0003A301F97FFFFFFFFB4450000FD25A0C82A
:1057E000E9A3C14FFFFFFFFFFF3F00000000008063
:1057F00000000000FF3F00000000008000000000EB
:1058000073746172745461736B00000053656E644D
:105810005461736B000000004D6F746F72546173BC
:105820006B0000008059000800000020C400000048
:10583000C4010008445A0008C4000020D4480000F5
:10584000E0010008000000000000F07FFFFFFFFF04
:10585000FFFFEF7F1C00000043000000F8FFFFFF88
:105860000C0000000E0000000F0000002E000000E1
:105870001001000043000000F8FFFFFF004040401F
:105880004040404040404141414141404040404013
:1058900040404040404040404040404040050202BF
:1058A000020202020202020202020202022020207E
:1058B00020202020202020020202020202029090DA
:1058C00090909090101010101010101010101010D8
:1058D000101010101010101002020202020288882C
:1058E0008888888808080808080808080808080838
:1058F0000808080808080808020202024000000020
:105900000000000000000000000000000000000097
:105910000000000000000000000000000000000087
:105920000000000000000000000000000000000077
:105930000000000000000000000000000000000067
:105940000000000000000000000000000000000057
:105950000000000000000000000000000000000047
:105960000000000000000000000000000000000037
:105970000000000000000000000000000000000027
:105980000000000000000000000000000000000017
:105990000000000000000000000000000000000007
:1059A00000000000000000000000000000000000F7
:1059B00000000000010000001000000000000000D6
:1059C0000024F400000000000000000000000000BF
:1059D00000000000000000000000000000000000C7
:1059E00000000000000000000000000000000000B7
:1059F00000000000000000000000000000000000A7
:105A00000000000000000000000000000000000096
:105A10000000000000000000000000000000000086
:105A200000000000AAAAAAAA0000000000000000CE
:105A30000000000000000000000000000000000066
:045A40000000000062
:040000050800018965
:00000001FF
