:020000040800F2
:10000000380A002029020008CD2600086D240008C7
:10001000C92600081F0400089D2D000800000000EC
:100020000000000000000000000000007127000830
:100030009305000800000000D1260008732700087F
:10004000430200084302000843020008430200087C
:10005000430200084302000843020008430200086C
:10006000430200084302000843020008430200085C
:1000700095040008430200084302000843020008F8
:10008000430200084302000843020008430200083C
:100090002504000843020008430200084302000848
:1000A000430200084302000843020008430200081C
:1000B000430200084302000843020008430200080C
:1000C00043020008430200084302000843020008FC
:1000D000430200084302000843020008692C00089C
:1000E00043020008430200084302000843020008DC
:1000F00043020008430200084302000843020008CC
:1001000043020008430200084302000843020008BB
:1001100043020008430200084302000843020008AB
:10012000430200084302000843020008430200089B
:10013000430200084302000843020008430200088B
:100140003504000843020008430200084302000887
:1001500043020008A5040008430200088D2D000892
:10016000430200084302000843020008430200085B
:100170004302000843020008430200080000000098
:10018000430200084302000800F002F800F03CF8C7
:100190000AA090E8000C82448344AAF10107DA45E2
:1001A00001D100F031F8AFF2090EBAE80F0013F0F8
:1001B000010F18BFFB1A43F0010318475835000020
:1001C00078350000103A24BF78C878C1FAD85207B1
:1001D00024BF30C830C144BF04680C6070470000C1
:1001E0000023002400250026103A28BF78C1FBD840
:1001F000520728BF30C148BF0B6070471FB503F0DE
:100200006FFA1FBD10B510BD00F0CFF81146FFF713
:10021000F5FF02F067FE00F0EDF803B4FFF7F2FF20
:1002200003BC00F0F5F80000094880470948004782
:10023000FEE7FEE7FEE7FEE7FEE7FEE7FEE7FEE796
:10024000FEE7FEE704480549054A064B70470000F3
:10025000312800088901000838040020380A0020ED
:10026000380600203806002053EA020C00F06980AE
:100270002DE9F04B4FF00006002B1FBFB3FA83F5BA
:1002800003FA05F424FA05F65E4012BF1643B2FAEB
:1002900082F502FA05F4C5F120051EBF22FA05FC1D
:1002A00044EA0C04203556EA044C4FEA144418BFC3
:1002B000641C4FF000084FF00009904271EB030CF2
:1002C00039D3002919BFB1FA81F701FA07F6B0FA5C
:1002D00080F700FA07F6C7F120071EBF20FA07FCD7
:1002E00046EA0C062037B6FBF4FCA7EB0507103FE7
:1002F00007F01F0BCBF120060CFA0BFB2CFA06F6CD
:1003000044BFB3460026202FA4BF5E464FF0000B2B
:100310005BEA060C08BF4FF0010B19EB0B09ABFBB6
:10032000027C48EB0608C01B06FB02CC0BFB03CC8F
:1003300071EB0C01C1E70B46024641464846BDE859
:10034000F08B13B54FF000004FF00001AFF30080C9
:10035000BDE81C4070474FF0000200B513469446BC
:100360009646203922BFA0E80C50A0E80C50B1F10D
:100370002001BFF4F7AF090728BFA0E80C5048BF21
:100380000CC05DF804EB890028BF40F8042B08BFBF
:10039000704748BF20F8022B11F0804F18BF00F8BB
:1003A000012B7047704770477047754600F02CF876
:1003B000AE4605006946534620F00700854618B052
:1003C00020B5FFF73FFFBDE820404FF000064FF09B
:1003D00000074FF000084FF0000B21F00701AC467A
:1003E000ACE8C009ACE8C009ACE8C009ACE8C00999
:1003F0008D46704710B50446AFF300802046BDE837
:100400001040FFF70ABF000000487047D8030020E3
:1004100001491820ABBEFEE726000200704700BF6E
:10042000FEE7000010B5024800F0C8FA10BD000059
:100430006801002010B5024800F0C0FA10BD0000AD
:1004400090010020F8B507460C4615461E464FF4AD
:1004500000700D49086000208860C86008200861AD
:10046000380A0A4908704F70200A8870CC70280A30
:1004700008714D71300A8871CE716B460A46024987
:10048000034800F09FF8F8BD600300202000002022
:100490006801002010B5024800F030FE10BD0000D9
:1004A0004002002010B5024800F028FE10BD0000F8
:1004B000A00200200146087810381823B0FBF3F2A0
:1004C0000848805CC865032A05D908686FF30900ED
:1004D000001D886503E008686FF309008865886D72
:1004E00070470000F4360008014600208A6A8B69D4
:1004F000CBB932B1012A0DD0022A03D0032A10D180
:100500000EE000BFCB6A03F08073B3F1807F00D1AF
:10051000012007E0CB6AB3F1C07F00D1012001E0E8
:1005200000E000BF34E08B69B3F5005F1AD132B14F
:10053000012A07D0022A03D0032A11D10AE000BF02
:1005400001200EE0CB6A03F08073B3F1807F00D10D
:10055000012006E0CB6AB3F1C07F00D1012000E0AA
:1005600000BF15E032B1012A05D0022A04D0032AC7
:100570000CD103E000BF00BF012008E0CB6A03F00C
:100580008073B3F1807F00D1012000E000BF00BF85
:100590007047704772B600BFFEE710B5024692F88A
:1005A0002030012B01D0022B06D11068406908438E
:1005B00014686061002010BD506A40F480205062D1
:1005C0000120F8E7F0B504460D461E4694F8207069
:1005D00020688368A86800B900E000BF012F01D03F
:1005E000022F7CD103F0806030B903F0006018B9AD
:1005F00003F08050002873D0C3F30161022905D9AC
:10060000606A40F4000060620120F0BD0120884073
:100610003060A86860B9B5F800C0E86840EA4C5C92
:10062000206800F5C07000EB0110C0F800C00FE0BA
:10063000D5E901C040EACC00D5F80CC040EA0C0076
:10064000D4F800C00CF5C07C0CEB011CCCF8000009
:10065000D5F810C0206800F5C07000EB0110C0F89C
:1006600004C0287D01280ED1206800F5C07000EB81
:100670000110406840F4807C206800F5C07000EBF9
:100680000110C0F804C0D079000692F806C040EA14
:100690000C4092F805C040EA0C2C10794CEA000C92
:1006A000206800F5C07000EB0110C0F80CC0D078D5
:1006B000000692F802C040EA0C4092F801C040EAFD
:1006C0000C2092F800C040EA0C00D4F800C00CF5F1
:1006D000C07C0CEB011CCCF80800206801E016E09F
:1006E0000FE000F5C07000EB0110006840F0010C55
:1006F000206800F5C07000EB0110C0F800C00020B9
:1007000083E7606A40F40010606201207DE7606A60
:1007100040F480206062012077E70000F0B50446D5
:100720000A46216894F82050012D01D0022D7ED177
:10073000424901F50071086840F00100086008684E
:1007400020F47C5008600868566A40EA0620086079
:10075000107D00F01F06012000FA06F3C8699843D7
:10076000C861A1F50071D069C8B9D1F80C029843ED
:10077000C1F80C02908880B2968940EA064601F5DD
:100780001070576940F83760108880B2168940EAC7
:10079000064601F51070576900EBC7004660D06946
:1007A000012819D1D1F80C021843C1F80C02908825
:1007B00080B2168840EA064601F51070576940F885
:1007C0003760908980B2168940EA064601F51070BC
:1007D000576900EBC7004660906928B9D1F8040258
:1007E0009843C1F8040204E0D1F804021843C1F8A8
:1007F0000402106928B9D1F814029843C1F8140210
:1008000004E0D1F814021843C1F81402106A012858
:1008100004D1D1F81C021843C1F81C02D1F800021F
:1008200020F00100C1F800020020F0BDFFE7606A7F
:1008300040F4802060620120F7E70000006400407F
:10084000704770B5044694F82050012D01D0022D58
:100850007DD151B92068C06800F0030080B9606A9A
:1008600040F400106062012070BD2068006900F053
:10087000030028B9606A40F4001060620120F3E7C9
:10088000206800F5D87000EB0110006800F004004B
:100890009060906840B9206800F5D87000EB0110B6
:1008A0000068400D106007E0206800F5D87000EB8C
:1008B00001100068C0085060206800F5D87000EB97
:1008C0000110006800F00200D060206800F5D870C8
:1008D00000EB0110406800F00F001061206800F587
:1008E000D87000EB0110406800F47F40000A90616E
:1008F000206800F5D87000EB01104068000C5061D2
:10090000206800F5D87000EB01108068187020682E
:1009100000F5D87000EB0110806800F47F40000AF9
:100920005870206800F5D87000EB0110806800F462
:100930007F00000C9870206800F5D87000EB011063
:100940008068000ED870206800F5D87000E02FE0B5
:1009500000EB0110C0681871206800F5D87000EB3A
:100960000110C06800F47F40000A5871206800F54B
:10097000D87000EB0110C06800F47F00000C987183
:10098000206800F5D87000EB0110C068000ED87127
:1009900031B92068C06840F020002668F06005E0AA
:1009A0002068006940F020002668306100205BE785
:1009B000606A40F480206062012055E72DE9F05F15
:1009C00004460025206846692068D0F80490206815
:1009D00087682068D0F80CA02068D0F810B0206894
:1009E000D0F8188006F00100002855D007F001006B
:1009F000C0B101202168886007F0020018B12046CC
:100A000000F00BFB0EE007F0040010B145F40065A8
:100A100008E007F0080010B145F4805502E02046D8
:100A200000F0FAFA07F48070C8B14FF480702168C2
:100A3000886007F4007018B1204600F0F0FA0EE06C
:100A400007F4806010B145F4005508E007F4006039
:100A500010B145F4804502E0204600F0DFFA07F4CB
:100A60008030C8B14FF480302168886007F40030CE
:100A700018B1204600F0D5FA0EE007F4802010B13E
:100A800045F4004508E007F4002010B145F4803536
:100A900002E0204600F0C4FA06F0080038B10AF07F
:100AA000100020B145F4007510202168C86006F0E0
:100AB000040040B10AF0080028B108202168C8608D
:100AC000204600F00DFA06F0020038B12068C06838
:100AD00000F0030010B1204600F004FA06F04000D8
:100AE00038B10BF0100020B145F48065102021686A
:100AF000086106F0200040B10BF0080028B1082082
:100B000021680861204600F055FA06F0100038B15F
:100B10002068006900F0030010B1204600F04BFA95
:100B200006F4003040B109F0100028B1102021680F
:100B30004860204600F040FA06F4803040B109F0E9
:100B4000080028B1082021684860204600F06AFAB1
:100B500006F4004088B309F0040078B306F480700E
:100B600020B108F0010008B145F0010506F400705D
:100B700020B108F0020008B145F0020506F48060DB
:100B800020B108F0040008B145F0040506F4006047
:100B9000A0B108F0700088B108F07000402817D0AC
:100BA00006DC10280BD020280CD0302819D10CE0FE
:100BB000502810D0602814D110E01DE019E045F055
:100BC00008050FE045F010050CE045F0200509E0B0
:100BD00045F0400506E045F0800503E045F48075EA
:100BE00000E000BF00BF2068806920F0700021682D
:100BF00088610420216848602DB1606A28436062E2
:100C00002046FFF71DFEBDE8F09F70B504460CB905
:100C1000012070BD94F8200010B9204600F0B0F813
:100C20002068006840F001002168086000F010FDB5
:100C300005460DE000F00CFD401B0A2808D9606A4B
:100C400040F400306062052084F820000120E0E7D5
:100C50002068406800F001000028EBD020680068A0
:100C600020F002002168086000F0F2FC05460DE06B
:100C700000F0EEFC401B0A2808D9606A40F40030FE
:100C80006062052084F820000120C2E720684068E7
:100C900000F002000028EBD1207E012806D1206858
:100CA000006840F080002168086005E02068006866
:100CB00020F0800021680860607E012806D120684D
:100CC000006840F040002168086005E02068006886
:100CD00020F0400021680860A07E012806D120682D
:100CE000006840F020002168086005E02068006886
:100CF00020F0200021680860E07E012806D12068ED
:100D0000006820F010002168086005E02068006895
:100D100040F0100021680860207F012806D120687B
:100D2000006840F008002168086005E0206800685D
:100D300020F0080021680860607F012806D1206843
:100D4000006840F004002168086005E02068006841
:100D500020F0040021680860D4E9020108432169F9
:100D60000843616908436168491E08432168C861F6
:100D700000206062012084F82000002049E7000084
:100D800010B586B00446142101A8FFF7E4FA4E49D5
:100D90002068884241D14D480068401C4B4908609A
:100DA0000846006801280FD100BF00200090484885
:100DB000006840F00070464908600846006800F08E
:100DC0000070009000BF00BF00BF002000904048AE
:100DD0001038006840F008003D49103908600846A6
:100DE000006800F00800009000BF00BF03200190E1
:100DF0000220029000200390032004900920059017
:100E000001A9344800F024FB00221146142000F010
:100E1000A9FC142000F096FC54E02F492068884279
:100E200050D100BF002000902948006840F0806049
:100E3000274908600846006800F08060009000BF05
:100E400000BF22480068401C20490860084600682E
:100E500001280FD100BF002000901D48006840F01D
:100E600000701B4908600846006800F000700090A0
:100E700000BF00BF00BF0020009015481038006878
:100E800040F002001249103908600846006800F07E
:100E90000200009000BF00BF60200190022002907D
:100EA00000200390032004900920059001A90B481D
:100EB00000F0CEFA00221146402000F053FC402002
:100EC00000F040FC06B010BD00640040140000209B
:100ED00040380240000C024000680040000402401C
:100EE0007047000010B58AB0044601AB03AA002188
:100EF0002046FFF7A6FC0398A0F20120072851D254
:100F0000DFE800F00405060708090A0000BF00BF7B
:100F100000BF00BF00BF00BF0398401E23490870F8
:100F20000846007800EB8000214931F8100000B23B
:100F30001E49097801EB81011D4A02EB410108813C
:100F40009DF805009DF8041040EA01201749097832
:100F500001EB810122F811009DF807009DF80610B1
:100F600040EA012000B21149097801EB810102EB4E
:100F7000410148809DF809009DF8081040EA0120D1
:100F800000B20A49097801EB810102EB4101888036
:100F90009DF80A000549097801EB810102EB410146
:100FA000887100E000BF00BF0AB010BD280000201B
:100FB0000003002070477047704770B5044694F8EE
:100FC0002000012822D1022084F820002068006837
:100FD00020F001002168086000F03AFB05460DE0B2
:100FE00000F036FB401B0A2808D9606A40F4003044
:100FF0006062052084F82000012070BD20684068F0
:1010000000F001000028EBD16062F6E7606A40F46E
:10101000002060620120F0E770477047704770471A
:1010200070477047704770B50446A56D00F010FB1F
:10103000064694F83500022808D08020606500BF7D
:10104000002084F8340000BF012070BD20680068D3
:1010500020F01600216808602068406920F08000B8
:1010600021684861206C08B9A06C28B1206800682C
:1010700020F00800216808602068006820F0010066
:101080002168086010E000F0E3FA801B05280BD906
:1010900020206065032084F8350000BF002084F81C
:1010A000340000BF0320D0E72068006800F0010092
:1010B0000028E8D194F85C103F208840A860012007
:1010C00084F8350000BF002084F8340000BF00BF62
:1010D000BBE7014691F83500022803D0802048651F
:1010E00001207047052081F835000868006820F06D
:1010F00001000A6810600020F3E70000F8B504461C
:10110000002000908C4800684FF41651B0FBF1F7B6
:10111000A56D2E6894F85C1008208840304098B186
:101120002068006800F0040070B12068006820F0BA
:1011300004002168086094F85C1008208840A860CA
:10114000606D40F00100606594F85C1001208840FB
:10115000304068B12068406900F0800040B194F8E8
:101160005C1001208840A860606D40F0020060655E
:1011700094F85C1004208840304068B12068006812
:1011800000F0020040B194F85C1004208840A86090
:10119000606D40F00400606594F85C101020884099
:1011A000304078B32068006800F0080050B394F82D
:1011B0005C1010208840A8602068006800F480203F
:1011C00080B12068006800F4002028B9206CC8B104
:1011D0002046216C884715E0A06C98B12046A16C90
:1011E00088470FE02068006800F4807028B9206804
:1011F000006820F0080021680860206C10B12046CB
:10120000216C884794F85C102020884030400028EA
:1012100065D02068006800F0100000285FD094F8C6
:101220005C1020208840A86094F83500052828D15B
:101230002068006820F01600216808602068406976
:1012400020F0800021684861206C08B9A06C28B1AA
:101250002068006820F008002168086094F85C109D
:101260003F208840A860012084F8350000BF00209E
:1012700084F8340000BF206D10B12046216D8847EE
:10128000F8BD2068006800F4802080B12068006804
:1012900000F4002028B9606C10B12046616C8847CA
:1012A0001DE0E06BD8B12046E16B884717E020686D
:1012B000006800F4807068B92068006820F01000B1
:1012C00021680860012084F8350000BF002084F800
:1012D000340000BFE06B10B12046E16B8847606DC1
:1012E00038B3606D00F00100F0B1052084F83500DE
:1012F0002068006820F001002168086000BF0098A5
:10130000401C0090B84200D905E02068006800F059
:1013100001000028F3D100BF012084F8350000BF90
:10132000002084F8340000BFE06C10B12046E16C6E
:10133000884700BFA4E70000380000202DE9F041F5
:101340000446002500F084F9074614B90120BDE8E1
:10135000F081606A00B100BF022084F8350000BF50
:10136000002084F8340000BF2068006820F00100ED
:10137000216808600AE000F06BF9C01B052805D958
:1013800020206065032084F83500E0E720680068CD
:1013900000F001000028EED12068056821480540D2
:1013A000D4E901010843E168084321690843616900
:1013B0000843A1690843E1690843216A08430543DA
:1013C000606A042803D1D4E90B010843054320686F
:1013D00005602068456925F00705606A0543606A75
:1013E00004280DD1A06A0543E06A48B12046FFF702
:1013F0007BF828B140206065012084F83500A6E71D
:10140000206845612046FFF755F8064694F85C10C1
:101410003F208840B06000206065012084F83500DE
:10142000002094E73F8010F070B5044600F010F9FA
:1014300006462546681C10B104480078054400BFE4
:1014400000F006F9801BA842FAD370BD34000020DA
:10145000F8B502460B460025002400200021D6E006
:10146000012606FA01F51E6806EA0504AC4274D1AD
:101470001E7906F00306012E04D01E7906F003063D
:10148000022E13D190684F000326BE40B0434F0098
:10149000DE68BE4030439060506801268E40B04305
:1014A0001E79C6F300168E40304350601E7906F058
:1014B0000306032E09D0D0684F000326BE40B04378
:1014C0004F009E68BE403043D0601E7906F0030690
:1014D000022E13D1CF0802F1200656F827004E073E
:1014E000F70E0F26BE40B0434F07FF0E1E69BE40E9
:1014F0003043CF0802F1200646F8270010684F005D
:101500000326BE40B0431E7906F003064F00BE40DE
:10151000304310605E6806F44036002E76D000BF7F
:10152000002600963C4E366846F480463A4F3E60B0
:101530003E46366806F48046009600BF00BF374E30
:101540008F0856F827008E07370F0F26BE40B0438E
:10155000334EB24202D1002624E057E0314EB2426F
:1015600001D101261EE0304EB24201D1022619E01F
:101570002E4EB24201D1032614E02D4EB24201D1CB
:1015800004260FE02B4EB24201D105260AE02A4E76
:10159000B24201D1062605E0284EB24201D107260B
:1015A00000E008268F073F0FBE4030431B4E8F08D8
:1015B00046F82700224E3068A0435E6806F4801685
:1015C00006B120431E4E3060361D3068A0435E6871
:1015D00006F4001606B12043194E361D3060184E31
:1015E000361F3068A0435E6806F4003606B120431B
:1015F000134E361F3060361F3068A0435E6806F415
:10160000803606B120430E4E083E3060491C10293A
:10161000FFF426AFF8BD000044380240083801400E
:10162000000002400004024000080240000C02409A
:10163000001002400014024000180240001C02404A
:10164000083C01400AB1816101E00B0483617047ED
:1016500001480068704700002C0000200348006823
:101660000349097808440149086070472C000020AC
:101670003400002010B50D48006840F400700B499C
:1016800008600846006840F480600860084600680A
:1016900040F480700860032000F0A2F8002000F001
:1016A00007F800F02BF8002010BD0000003C0240BD
:1016B00070B504460E4800784FF47A71B1FBF0F033
:1016C0000C490968B1FBF0F5284600F02BFC08B185
:1016D000012070BD102C07D200222146501E00F0C0
:1016E00041F80548046001E00120F2E70020F0E73E
:1016F00034000020380000203000002008B500BF72
:10170000002000900E48006840F480400C490860BA
:101710000846006800F48040009000BF00BF00BF92
:1017200000200090081F006840F08050091F0860EA
:101730000846006800F08050009000BF00BF08BD60
:101740004438024001460846002809DB00F01F0328
:1017500001229A4043099B0003F1E023C3F80021D2
:1017600000BF70472DE9F05F80460D461646002702
:1017700001F016FB074639462A46334601F00700BA
:10178000C0F1070ABAF1040F02D94FF0040A01E0D0
:10179000C0F1070AD14600F1040ABAF1070F02D2DC
:1017A0004FF0000A01E0A0F1030AD4464FF0010A0D
:1017B0000AFA09FAAAF1010A0AEA020A0AFA0CFA72
:1017C0004FF0010B0BFA0CFBABF1010B0BEA030B17
:1017D0004AEA0B042146404601F0EAFABDE8F09FD0
:1017E00000BF00F00702064B19684FF6FF031940CF
:1017F000044B0B4343EA0221014B196000BF7047C1
:101800000CED00E00000FA0570B504460D460CB979
:10181000012070BD5848006800F00700A84209D2B6
:1018200055490D700846006800F00700A84201D035
:101830000120EEE7207800F0020002281DD1207878
:1018400000F00400042805D14C48006840F4E05042
:101850004A490860207800F00800082805D1474868
:10186000006840F46040454908604448006820F042
:10187000F000A168084341490860207800F00100A9
:10188000A8B36068012807D13C4808380068C0F355
:101890004040B8B90120BCE76068022802D0606807
:1018A000032807D1354808380068C0F3406048B9BC
:1018B0000120AEE7314808380068C0F3400008B99D
:1018C0000120A6E72D48006820F003006168084366
:1018D0002A490860FFF7BCFE064609E0FFF7B8FE9C
:1018E000801B41F28831884202D9032091E707E04A
:1018F0002248006800F00C006168B0EB810FEDD168
:101900001D48006800F00700A84209D91A490D7067
:101910000846006800F00700A84201D0012078E7DF
:10192000207800F00400042807D11448006820F44F
:10193000E050E168084311490860207800F0080091
:10194000082808D10D48006820F46040216940EA69
:10195000C1000A49086000F03FF808490968C1F36E
:101960000311074A515CC8400649086006480068F0
:10197000FFF79EFE00204CE7003C02400838024082
:10198000FC360008380000203000002001480068C4
:10199000704700003800002000B5FFF7F7FF04494A
:1019A0000968C1F38221034A515CC84000BD0000B0
:1019B000083802400C37000800B5FFF7E7FF04497C
:1019C0000968C1F34231034A515CC84000BD0000C0
:1019D000083802400C3700082DE9F04700240025A4
:1019E0000026A1462548006800F00C0020B104281C
:1019F00005D008283AD105E0DFF8849039E0DFF817
:101A0000849036E01D48001F006800F03F041B482A
:101A1000001F006800F4800078B11A481749091FB8
:101A20000968C1F38811A0FB01700146224600231A
:101A30003846FEF719FC05460EE011480F49091F0C
:101A40000968C1F38811A0FB0170014622460023FA
:101A50003846FEF709FC05460848001F0068C0F339
:101A60000140401C4600B5FBF6F902E0DFF810909B
:101A700000BF00BF4846BDE8F087000008380240BC
:101A80000024F400001BB700F8B504460CB901208F
:101A9000F8BD207800F00100002874D0F9480068F3
:101AA00000F00C0004280DD0F648006800F00C008F
:101AB000082813D1F348001F006800F48000B0F537
:101AC000800F0BD1EF4808380068C0F34040002871
:101AD00059D06068002856D10120D9E700BF60685E
:101AE000B0F5803F08D1E7480838006840F48030FE
:101AF000E449083908601EE06068B0F5A02F0DD1F8
:101B0000E0480838006840F48020DE490839086061
:101B10000846006840F4803008600CE0D948083876
:101B2000006820F48030D74908390860084600680A
:101B300020F48020086000BF606890B1FFF788FD46
:101B4000054606E0FFF784FD401B642801D9032009
:101B50009EE7CC4808380068C0F340400028F1D028
:101B600011E0FFF775FD054606E0FFF771FD401B2C
:101B7000642801D903208BE7C24808380068C0F305
:101B800040400028F1D1207800F0020002285FD107
:101B9000BC48006800F00C0058B1BA48006800F07A
:101BA0000C0008281CD1B748001F006800F4800012
:101BB000B0B9B44808380068C0F3400020B1E0680C
:101BC000012801D0012063E7AE480838006820F002
:101BD000F800216940EAC100AA490839086037E0E5
:101BE000E06800B30120A8490860FFF731FD054611
:101BF00006E0FFF72DFD401B022801D9032047E72F
:101C0000A04808380068C0F340000028F1D09D4883
:101C10000838006820F0F800216940EAC1009949BD
:101C20000839086014E0002097490860FFF710FDAC
:101C3000054606E0FFF70CFD401B022801D90320F2
:101C400026E7904808380068C0F340000028F1D12A
:101C5000207800F0080008282CD16069A8B1012084
:101C60008A490860FFF7F4FC054606E0FFF7F0FC40
:101C7000401B022801D903200AE782486C30006823
:101C8000C0F340000028F1D014E000207F49086034
:101C9000FFF7DEFC054606E0FFF7DAFC401B0228F2
:101CA00001D90320F4E677486C300068C0F34000A7
:101CB0000028F1D1207800F00400042870D100271A
:101CC00070483830006800F0805090B900BF0020A4
:101CD00000906C483830006840F0805069493831D5
:101CE00008600846006800F08050009000BF00BF08
:101CF00001276748006800F48070B0B96448006844
:101D000040F4807062490860FFF7A2FC054606E0D7
:101D1000FFF79EFC401B022801D90320B8E65C486F
:101D2000006800F480700028F2D000BFA06801288D
:101D300008D154486830006840F0010051496831CA
:101D400008601DE0A06805280DD14E486830006885
:101D500040F004004B49683108600846006840F0D4
:101D6000010008600CE047486830006820F001007E
:101D70004449683108600846006820F004000860A3
:101D800000BFA068A8B1FFF763FC054609E0FFF7B4
:101D90005FFC401B41F28831884202D9032077E67C
:101DA00026E0384868300068C0F340000028EED0D4
:101DB00013E0FFF74DFC054608E0FFF749FC401B28
:101DC00041F28831884201D9032061E62D4868300C
:101DD0000068C0F340000028EFD1012F07D1294847
:101DE0003830006820F0805026493831086000BF44
:101DF000A069002845D02348006800F00C0008289E
:101E00005DD0A069022845D100201F490866FFF770
:101E10001FFC054606E0FFF71BFC401B022801D90A
:101E2000032035E6174808380068C0F340600028F2
:101E3000F1D1D4E907010843616A40EA8111012226
:101E4000A06AC2EB500041EA00412C20005D41EA4B
:101E500000600C49091F086001200B490866FFF764
:101E6000F7FB054606E0FFF7F3FB401B022801D90C
:101E700003200DE6034808380068C0F340600028DE
:101E8000F1D049E00838024000004742800E474246
:101E900000700040002021490866FFF7D9FB054685
:101EA00006E0FFF7D5FB401B022801D90320EFE530
:101EB0001B480068C0F340600028F2D12CE0A06904
:101EC000012800D1E4E51648001D0668A069012834
:101ED00020D006F48001E06981421BD106F03F0169
:101EE000206A814216D147F6C0703040616AB0EB7B
:101EF000811F0FD106F440310122A06AC2EB5000CD
:101F0000B1EB004F06D106F070612C20005DB1EB03
:101F1000006F01D00120BBE50020B9E50000474279
:101F20000038024070B504462546681EB0F1807F37
:101F300001D301200FE0681E4FF0E02148610F211E
:101F40004FF0FF3000F034FF00204FF0E0218861B7
:101F500007200861002070BD704770472DE9F84FD9
:101F60000446206805682068C668206847694FF005
:101F70000009CA4605F00F09B9F1000F0AD105F0B2
:101F8000200038B106F0200020B1204600F0AAFC65
:101F9000BDE8F88FB9F1000F7CD007F0010018B947
:101FA00006F49070002875D005F0010030B106F4F9
:101FB000807018B1206C40F00100206405F004002E
:101FC00030B107F0010018B1206C40F0020020642D
:101FD00005F0020030B107F0010018B1206C40F0AC
:101FE0000400206405F0080048B106F0200010B994
:101FF00007F0010018B1206C40F008002064206C4C
:10200000002846D005F0200028B106F0200010B1CD
:10201000204600F067FC20684069C0F3801A206CFD
:1020200000F0080010B9BAF1000F2DD0204600F0E2
:1020300013FC2068406900F04000402820D100BF18
:1020400000BF2168143151E8001F21F040002168D1
:10205000143141E80002002AF3D100BFA06B50B157
:102060007548A16B0865A06BFFF733F888B1A06BCA
:10207000016D88470DE02046FFF76FFF09E009E09A
:102080002046FFF76AFF04E02046FFF766FF0020C6
:1020900020647DE7206B012876D105F01000002830
:1020A00072D006F010000028FAD000BF0020009087
:1020B00020680068009020684068009000BF00BF62
:1020C0002068406900F0400040285ED1A06B0068A5
:1020D00040681FFA80F8B8F1000F54D0A08D404539
:1020E00051DDA4F82E80A06BC069B0F5807F43D08D
:1020F00000BF00BF21680C3151E8001F21F480703F
:1021000021680C3141E80002002AF3D100BF00BF72
:1021100000BF2168143151E8001F21F0010021683F
:10212000143141E80002002AF3D100BF00BF00BF14
:102130002168143151E8001F21F04000216814315A
:1021400041E80002002AF3D100BF202084F83E00BD
:102150000020206300BF00BF21680C3151E8001F40
:1021600021F0100021680C3141E80002002AF3D16F
:1021700000BFA06BFEF757FFA08DE28D801A81B2E1
:102180002046FFF7E9FE03E740E0A08DE18D401A0D
:102190001FFA80F8E08DC0B3B8F1000F35D000BF52
:1021A00000BF21680C3151E8001F21F490702168B4
:1021B0000C3141E80002002AF3D100BF00BF00BF8C
:1021C0002168143151E8001F21F001002168143109
:1021D00041E80002002AF3D100BF202084F83E002D
:1021E0000020206300BF00BF21680C3151E8001FB0
:1021F00021F0100021680C3141E80002002AF3D1DF
:1022000000BF41462046FFF7A7FEC1E605F080006B
:1022100030B106F0800018B1204600F0F5FCB7E6BA
:1022200005F0400030B106F0400018B1204600F043
:1022300049FBADE600BFABE64528000810B50446F3
:102240000CB9012010BDA06900B100E000BF94F8F6
:102250003D0028B9002084F83C00204600F028F812
:10226000242084F83D002068C06820F400502168D4
:10227000C860204600F0B2FB2068006920F490405E
:10228000216808612068406920F02A0021684861BF
:102290002068C06840F400502168C86000202064B5
:1022A000202084F83D0084F83E000020CAE70000AA
:1022B00010B586B00446142101A8FEF74CF8614918
:1022C000206888425BD100BF002000905E48006813
:1022D00040F480205C4908600846006800F48020D3
:1022E000009000BF00BF00BF00200090564810388B
:1022F000006840F00400544910390860084600683E
:1023000000F00400009000BF00BF4FF44060019057
:1023100002200290012003900320049007200590E2
:1023200001A94A48FFF794F849484A4908604FF024
:1023300000604860002147488160C1604FF48061BF
:1023400001610021416181614FF48071C1614FF4ED
:102350004031016200214162FEF7F0FF08B1FEF753
:1023600019F900BF3B48A063846300BF00221146F7
:102370002720FFF7F7F92720FFF7E4F95FE0364958
:10238000206888425BD100BF002000902E48001DCD
:10239000006840F020002C49091D086008460068CC
:1023A00000F02000009000BF00BF00BF00200090A0
:1023B00025481038006840F0400023491039086073
:1023C0000846006800F04000009000BF00BF4FF4D6
:1023D0008440019002200290012003900320049089
:1023E0000820059001A91D48FFF732F81C481D4937
:1023F00008604FF02060486040211A488160002149
:10240000C1604FF480610161002141618161C1615E
:102410004FF44031016200214162FEF78FFF08B1A5
:10242000FEF7B8F800BF0F486063846300BF002266
:1024300011464720FFF796F94720FFF783F906B0CA
:1024400010BD000000480040403802400008024033
:1024500028600240400200200014014000180240A1
:10246000A0640240A00200207047704700BFFEE752
:1024700010B50E480E4908600320486000210C4842
:102480008160C1604FF4102101614FF4001141617E
:102490000021017641768176C17601774177FEF79A
:1024A000B4FB08B1FEF776F810BD000000640040F0
:1024B0006801002010B50E480E49086003204860EE
:1024C00000210C488160C1604FF4102101614FF47C
:1024D000001141610021017641768176C176017754
:1024E0004177FEF792FB08B1FEF754F810BD0000EB
:1024F000006800409001002008B500BF0020009057
:102500001648006840F40010144908600846006846
:1025100000F40010009000BF00BF00BF002000903A
:102520000846006840F4800008600846006800F42F
:102530008000009000BF00BF002211460C20FFF772
:1025400011F90C20FFF7FEF8002211464520FFF795
:1025500009F94520FFF7F6F808BD000030380240C1
:1025600000B587B0142102A8FDF7F5FE00BF0020DA
:1025700001903648006840F002003449086008467F
:10258000006800F00200019000BF00BF00BF002003
:1025900001900846006840F0400008600846006866
:1025A00000F04000019000BF00BF00BF002001907C
:1025B0000846006840F0010008600846006800F026
:1025C0000100019000BF00BF00BF0020019008463D
:1025D000006840F0080008600846006800F0080045
:1025E000019000BF00BF00BF0020019008460068B6
:1025F00040F0040008600846006800F00400019004
:1026000000BF00BF00BF002001900846006840F0F6
:10261000800008600846006800F08000019000BF5C
:1026200000BF01224FF4E0510948FFF70BF84FF4C7
:10263000E05002900120039004900020059002A930
:102640000348FEF705FF07B000BD00003038024028
:10265000001C024010B50B480B4908600B4848604D
:10266000002109488160C1604FF4806101610C2143
:10267000416100218161C161FFF7E0FD08B1FDF713
:1026800089FF10BD00480040B8010020A08601006D
:1026900010B50B480B4908604FF4E1304860002149
:1026A00008488160C16001610C21416100218161A4
:1026B000C161FFF7C3FD08B1FDF76CFF10BD00005D
:1026C00000140140FC01002000BFFEE700BFFEE750
:1026D0007047000010B5234B1B685B6943F0400353
:1026E000204C246863611F4B1B68DB6843F01003B8
:1026F0001C4C2468E3601C4B1B681B6823F001031F
:10270000194C2468236007E0174B1B681B6823F0F3
:102710000103154C24682360134B1B681B6803F0EE
:102720000103002BF0D1114B0F4C2468A3600E4B1A
:102730001B68D8600C4B1B6819610B4B1B685A60F7
:10274000094B1B681B6843F48023074C24682360F3
:10275000054B1B681B6843F00103034C246823608E
:1027600010BD0000B80100204002002004480040D5
:10277000704710B5FEF772FF10BD000000B593B0B2
:10278000302107A8FDF7E7FD142102A8FDF7E3FDBE
:1027900000BF002001902448006840F0805022498A
:1027A00008600846006800F08050019000BF00BF3C
:1027B00000BF002001901D48006840F480401B4984
:1027C00008600846006800F48040019000BF00BF28
:1027D000012007900004089002200D9041050E9101
:1027E00006210F91A821109102211191042112912B
:1027F00007A8FFF749F908B1FDF7CCFE0F200290BA
:1028000002200390002004904FF4A05005904FF454
:1028100080500690052102A8FEF7F6FF08B1FDF7EB
:10282000B9FE13B000BD0000403802400070004007
:102830000348006840F470000149086070470000D8
:1028400088ED00E070B50546AC6B0020E085E084C3
:102850002046FFF782FB70BD00BF00BF02680C324C
:1028600052E8002F22F4907102680C3242E8001303
:10287000002BF3D100BF00BF00BF0268143252E842
:10288000002F22F001010268143242E80013002BED
:10289000F3D100BF016B01290ED100BF00BF026858
:1028A0000C3252E8002F22F0100102680C3242E88C
:1028B0000013002BF3D100BF202180F83E1000212F
:1028C0000163704710B504462068C06820F04000DE
:1028D0002168C860202084F83D002046FFF7C5FD30
:1028E000002010BDF8B5044694F83E00222873D1AC
:1028F000A068B0F5805F0CD1206950B90025A66AA8
:1029000020684068C0F308003080A06A801CA06284
:1029100015E0A56A0026A068B0F5805F03D0A06826
:1029200028B9206918B920684068287004E0206838
:10293000406800F07F002870A06A401CA062E08D13
:10294000401E80B2E085002844D12068C06820F095
:1029500020002168C8602068C06820F48070216869
:10296000C8602068406920F001002168486120208B
:1029700084F83E00206B012826D10020206300BF90
:1029800000BF21680C3151E8001F21F010002168C0
:102990000C3141E80002002AF3D100BF2068006832
:1029A00000F0100010280AD100BF0020009020681D
:1029B0000068009020684068009000BF00BFA18DB3
:1029C0002046FFF7C9FA02E02046FFF74DFD002040
:1029D000F8BD01E00020FBE70220F9E72DE9F84F00
:1029E00004462068006920F44050E16808432168EB
:1029F00008612169A068084361690843E1690843E7
:102A000000902068C06849F20C618843009908432F
:102A10002168C8602068406920F44070A1690843BB
:102A20002168486176492068884203D0754920684A
:102A3000884203D1FEF7C0FF814602E0FEF7ACFFFB
:102A40008146E069B0F5004F6CD102206168A0FBBF
:102A5000015003461920A9FB007001462A4638465A
:102A6000FDF702FC6421B0FBF1F04FEA001A0220EE
:102A70006168A0FB01510B461920A9FB00712A4691
:102A80003846FDF7F1FB834602206168A0FB015048
:102A900003461920A9FB00712A463846FDF7E4FBDE
:102AA0006421B0FBF1F000EBC00101EB0010ABEBD7
:102AB0008000322101EBC0006421B0FBF1F000F096
:102AC000F8000AEB400A02206168A0FB01500346AF
:102AD0001920A9FB007001462A463846FDF7C4FBC1
:102AE000834602206168A0FB015003461920A9FB20
:102AF00000712A463846FDF7B7FB6421B0FBF1F0C0
:102B000000EBC00101EB0010ABEB8000322101EBC8
:102B1000C0006421B0FBF1F000F0070050442168D0
:102B200088606AE004206168A0FB01500346192018
:102B3000A9FB007001462A463846FDF795FB824600
:102B400004206168A0FB015003461920A9FB007016
:102B500001462A463846FDF787FB6421B0FBF1F0B9
:102B600000EBC00101EB0010AAEB8000322101EB69
:102B700000106421B0FBF1F000F0F00A042061685D
:102B8000A0FB017003461920A9FB00513A462846D4
:102B9000FDF76AFB6421B0FBF1F00AEB001A042098
:102BA0006168A0FB01510B461920A9FB00712A4660
:102BB0003846FDF759FB834604206168A0FB0150AD
:102BC00003461920A9FB007001462A463846FDF746
:102BD0004BFB6421B0FBF1F000EBC00101EB0010F6
:102BE000ABEB8000322101EB00106421B0FBF1F06F
:102BF00000F00F00504421688860BDE8F88F0000A5
:102C00000010014000140140014691F83D002128C8
:102C100028D18868B0F5805F0BD1086948B90A6A85
:102C20001088C0F308000B685860086A801C0862AE
:102C300005E00B6A581C086218780B685860C88C4D
:102C4000401E80B2C88458B90868C06820F080006F
:102C50000B68D8600868C06840F040000B68D86016
:102C6000002070470220FCE708B541480068006872
:102C700000F0200060B100BF002000903C480068D8
:102C8000006800903A4800684068009000BF6EE01D
:102C90003848006800F01000002868D000BF00200D
:102CA0000090334800680068009031480068406830
:102CB000009000BF00BF30480068006800F40020AA
:102CC00058BB2D480068006820F001002A490968B7
:102CD0000860294800684068C0F12400274908803E
:102CE000242025490968486023480068006840F4AA
:102CF00000202149096808601F480068006840F00A
:102D000001001D49096808601C48008812282ED15E
:102D10001B491C4800F076F929E017480068006854
:102D200020F00100144909680860134800684068F1
:102D3000C0F124001149088024200F490968486027
:102D40001148806A20F400200F4988620A48006810
:102D5000006840F0010008490968086007480088D9
:102D6000122804D106490748243000F04BF908BD69
:102D7000B801002000480040400200202A00002046
:102D8000780300208E0300200060024010B5024846
:102D9000FFF7E4F810BD0000FC01002000BFFEE7D3
:102DA00002480068C0F30220704700000CED00E00C
:102DB00010B5002804DB0A07130E054A135406E079
:102DC0000A07140E034A00F00F031B1FD45410BD52
:102DD00000E400E018ED00E000B58BB001200990A0
:102DE000002007900120089000200190029003909D
:102DF00004900690059001A90C48FDF78FFC0B4844
:102E0000FEF7DBF802210948FDF7C7FB0E200A9008
:102E1000069001A90648FDF781FC0548FEF7CDF8AC
:102E200002210348FDF7B9FB0BB000BD680100208B
:102E300090010020014601F0030000EB8000024AEF
:102E400002EB40007047000000030020004870477C
:102E5000780300209FED141A80ED001A9FED121ADE
:102E600080ED011A9FED101A80ED021A9FED0E1AE7
:102E700080ED061A9FED0C1A80ED071A9FED0A1AD5
:102E800080ED081A9FED081A80ED031A9FED061ACF
:102E900080ED041A9FED041A80ED051AC0ED0A0AB0
:102EA00080ED090A7047000000000000B4EEE00A5F
:102EB000F1EE10FA02DDB0EE601A01E0B0EE401A59
:102EC000B0EE410AB1EE601AB4EEC10AF1EE10FAAA
:102ED00002D2B1EE601A01E0B0EE401AB0EE410A43
:102EE000704700002DED068BFEF7C4FBFFF746FC94
:102EF000FFF736FBFFF700FBFFF7BAFAFFF7DAFA46
:102F0000FFF7A8FBFFF7C4FBFFF766FF00F070F8C0
:102F100000F03AF9FFF79AFF2A49086050E0DFED28
:102F20002A0A9FED2A0A2A48FFF794FF9FED291AE3
:102F3000F6EE000AB2EE040A254800F0D0F8214966
:102F40000968B1F9000000F0B5FA41EC1A0B9FEDE9
:102F5000220B53EC102B00F055F941EC190B9FEDAF
:102F6000200B53EC102B00F0BDFA41EC180B00F0D5
:102F700017F91D490860084690ED000A144800F052
:102F8000B5F80020FFF756FFB0F9020017490860B6
:102F9000084690ED000AB8EEC00A0D4800F0A9F806
:102FA0000B4991ED050ABDEEC00A10EE101A08B2E9
:102FB00000231A461946FDF745FA0220FEF734FAB7
:102FC000ADE700000000002000409C450000804666
:102FD0003C000020000000000000000000A0844031
:102FE0000000000000207E400800002004000020B7
:102FF00010B524220249A1F12400FFF76BFB10BD9C
:10300000B203002000B101B970470278437842EA68
:103010000322C2F30A020A804278D210837842EA7D
:103020004312C2F30A024A8082789211C37842EABC
:103030008302037942EA8322C2F30A028A80027978
:103040005210437942EAC312C2F30A02CA8042799B
:10305000C2F301128A72427912119308CB728279FB
:10306000C37942EA032212B28A81027A437A42EA9F
:10307000032213B201F10C02CB81827AC37A42EAB5
:10308000032213B201F10C020B82037B8B74437B8E
:10309000CB74827BC37B42EA03228A82027C437C1C
:1030A00042EA032212B20A810A88A2F5806212B2B1
:1030B0000A804A88A2F5806212B24A808A88A2F504
:1030C000806212B28A80CA88A2F5806212B2CA8077
:1030D0000A89A2F5806212B20A8100BF94E780EDEE
:1030E000000AC0ED010A80ED021A704780ED030A64
:1030F000704700B5F0EE401AC0ED041A90ED030AD7
:10310000D0ED040A30EE600A80ED060A90ED080A60
:10311000D0ED060A30EE200A80ED080A90ED0A1A7A
:10312000F0EE410A90ED081AB0EE410AFFF7BEFE3C
:1031300080ED080A90ED000AD0ED060A20EE200A84
:10314000D0ED010A90ED081A00EE810AD0ED060AD2
:1031500090ED071A70EEC10A90ED021A01EE200AF6
:1031600080ED050A90ED091AF0EE410A90ED051A7E
:10317000B0EE410AFFF79AFE80ED050A90ED060ACF
:1031800080ED070A00BD000004480068406940F077
:10319000800002490968486170470000FC01002076
:1031A00021F00042A2F16052B2F5801F01F000430D
:1031B00028BFD2F17F6C0BD95FEA001C43EAC20240
:1031C00042EB507018BF704728BF20F001007047D5
:1031D000B2F5801FBCBF184670474FEA410C1CF582
:1031E000001F02D2084600F080BA70B500F024FA41
:1031F00000000089FFF7F6BF4FF00040A0F5800007
:10320000704700002DE9C04130B4DFF8A0C23CEAAD
:10321000111418BF3CEA131400F0EC8081EA030596
:103220001CEA111444EAD57418BF1CEA131500F007
:10323000C780A4EB05044FF0004545EAC12145EAEB
:10324000C32341EA505143EA525304F17F74994237
:1032500004F500344FEAC0204FEAC22208BF904272
:1032600000F09C804FEA13650FF24016765D4FEA3E
:10327000134506FB05F7C7F1807706FB07F74FEA12
:10328000D737A7FB03687642C8F58038A7FB06CE80
:1032900038BFA8F1010807FB08E64FF0000EA6FBB7
:1032A000028CE6FB03CEDCF1000CCEF1004E38BF01
:1032B000AEF1010EA6FB0C584FF000074FF00005D1
:1032C000E6FB0E87A1FB08C6A0FB07CE16EB0E0699
:1032D00045F10005E1FB076515F1E04E7EBFA4F561
:1032E00080345FEA46066D4116F1800745F100051E
:1032F0004FEA17274FEA066647EA0567A6F1DE465A
:10330000B6F1805F4FEA15251FD9384624F0010C2D
:1033100005EBC471BCF1FE6F01EB0C1102D8F0BCDF
:10332000BDE8008124425CBF01F5801E9EEAC47F97
:1033300002D4F0BCBDE80081244238D4F0BCA1F135
:10334000C041BDE8004100F0C5B94FEAD22242EACF
:1033500043524FEAD323A7FB02864FEAD02040EA2C
:10336000415007FB03661EEA0E0F4FEAD12105FB11
:10337000026658BFA6EB0056B6EB00564FEA520E57
:103380004EEAC37E18EB0E0E56EB530EBDD518EB6E
:1033900002085E417F1C55F10005B6E74FF4801529
:1033A0004FF000074FF000064FF00008ADE7F0BC0B
:1033B0004FF0000001F1C04101F00041BDE8008183
:1033C00011EA0C1F0CEA131500D00CE013EA0C1FD5
:1033D00000F025804FF00000F0BC81EA030101F00D
:1033E0000041BDE80081F0BCBDE8004181EA030175
:1033F00000F070B9F0BCBDE8004170B500F01CF9F8
:10340000097EFC3E00F007B881EA03014FF000009E
:1034100001F00041704781EA030100F05BB9F0BCA4
:10342000BDE800414FF0000021497047FFFDFBF966
:10343000F7F5F4F2F0EEEDEBE9E8E6E4E3E1E0DEE7
:10344000DDDBDAD8D7D5D4D3D1D0CFCDCCCBCAC859
:10345000C7C6C5C4C2C1C0BFBEBDBCBBBAB9B8B780
:10346000B6B5B4B3B2B1B0AFAEADACABAAA9A8A873
:10347000A7A6A5A4A3A3A2A1A09F9F9E9D9C9C9B41
:103480009A999998979796959594939392919190EC
:103490008F8F8E8E8D8C8C8B8B8A8989888887877D
:1034A0008685858484838382828181800000FF07F2
:1034B0000000F87F10F0004248BF4042B0FA80F3AD
:1034C00010FA03F10AD0C3F11D0303F580634FEA3C
:1034D000415002EB035202EBD12170474FF0000044
:1034E00070470000DFF848C170B51CEA111E1EBF0E
:1034F0001CEA13159EEA0C0F95EA0C0F00F06F8082
:1035000081EA030423EA4C134EEAD47E21EA4C11EB
:1035100041F4801143F48013AE44A1FB024CA0FBA4
:103520000365AEF17F7E361955EB0C05A1FB034C0C
:103530004CF10003A0FB021C16EB0C06654153F195
:103540000003094218BF46F0010613F4007F0BD1B7
:103550004FEA03314FEA0530340341EA155140EA9E
:1035600016506FF003020AE04FEAC3214FEAC5206C
:10357000F40241EA555140EA56506FF0020202EB64
:103580002E4201EB025585EACE710AD05FEA440C67
:1035900018BF24F0004450F1000041F1000120EA7E
:1035A000D47040F2FE7C624500D270BDA84214BFC8
:1035B0004FF080444FF04044002E08BF0024BEF17D
:1035C000806FA8BFA1F1C041BDE8704080F2828049
:1035D0004FF0000001F1C04101F0004170479EEA48
:1035E0000C0F0CEA131518BF95EA0C0F06D04FF01C
:1035F000000081EA030E0EF0004170BD00F01CF8DF
:103600008900013E00F007B800F009B84FEA430C0A
:103610005FEA5C5C08D081EA030100F05BB84FEA26
:10362000410C5FEA5C5CF6D14FF000000149704745
:103630000000FF070000F87F0EF1020E2EF0030ECF
:103640005EF8046B364205D4012A43EB030515F5F9
:10365000001F12D8012841EB010C1CF5001F0CD8EB
:103660000ED14FEAD17C15F5001F0CEB4C0C0CF180
:10367000020C08BF4CEBD37C04E04FF0080C01E0D7
:103680004FEAD37C0CEB4C0526FA05F606F007064C
:10369000B6F1040C06D20EEB860CBDE870404CF07F
:1036A000010C6047DFE80CF0090B02024FF000410B
:1036B0004FF00000A1F5002170BD19461046012809
:1036C00051EB010418BFD4F5001484BF002001F0B1
:1036D000004170BD0808A0F500114FEA31017047A4
:1036E0004FF04070E1EE100A7047FF2141EAD050E0
:1036F000C0057047000610160006101600000000F6
:103700000000000001020304060708090000000091
:103710000102030434370008000000203C000000D0
:10372000C4010008703700083C000020FC090000BC
:10373000E0010008000000000000000000000000A0
:103740000000000000000000000000000000000079
:103750000000000000000000000000000000000069
:103760000000000010000000010000000024F40030
:040000050800018965
:00000001FF
