:020000040800F2
:1000000020080020290200080F12000855110008DE
:100010000D1200081F040008E11400080000000091
:100020000000000000000000000000007512000841
:10003000B504000800000000111200087712000843
:10004000430200084302000843020008430200087C
:10005000430200084302000843020008430200086C
:10006000430200084302000843020008430200085C
:10007000210400084302000843020008430200086C
:10008000430200084302000843020008430200083C
:10009000430200084302000843020008430200082C
:1000A000430200084302000843020008430200081C
:1000B000430200084302000843020008430200080C
:1000C00043020008430200084302000843020008FC
:1000D0004302000843020008430200082D140008F0
:1000E00043020008430200084302000843020008DC
:1000F00043020008430200084302000843020008CC
:1001000043020008430200084302000843020008BB
:1001100043020008430200084302000843020008AB
:10012000430200084302000843020008430200089B
:10013000430200084302000843020008430200088B
:10014000430200084302000843020008430200087B
:1001500043020008430200082D040008430200087F
:10016000430200084302000843020008430200085B
:100170004302000843020008430200080000000098
:10018000430200084302000800F002F800F03CF8C7
:100190000AA090E8000C82448344AAF10107DA45E2
:1001A00001D100F031F8AFF2090EBAE80F0013F0F8
:1001B000010F18BFFB1A43F0010318475014000049
:1001C00070140000103A24BF78C878C1FAD85207DA
:1001D00024BF30C830C144BF04680C6070470000C1
:1001E0000023002400250026103A28BF78C1FBD840
:1001F000520728BF30C148BF0B6070471FB501F0E0
:10020000EFF91FBD10B510BD00F0CFF81146FFF794
:10021000F5FF01F076F900F0EDF803B4FFF7F2FF17
:1002200003BC00F0F5F80000094880470948004782
:10023000FEE7FEE7FEE7FEE7FEE7FEE7FEE7FEE796
:10024000FEE7FEE704480549054A064B70470000F3
:100250001113000889010008200200202008002056
:10026000200400202004002053EA020C00F06980E2
:100270002DE9F04B4FF00006002B1FBFB3FA83F5BA
:1002800003FA05F424FA05F65E4012BF1643B2FAEB
:1002900082F502FA05F4C5F120051EBF22FA05FC1D
:1002A00044EA0C04203556EA044C4FEA144418BFC3
:1002B000641C4FF000084FF00009904271EB030CF2
:1002C00039D3002919BFB1FA81F701FA07F6B0FA5C
:1002D00080F700FA07F6C7F120071EBF20FA07FCD7
:1002E00046EA0C062037B6FBF4FCA7EB0507103FE7
:1002F00007F01F0BCBF120060CFA0BFB2CFA06F6CD
:1003000044BFB3460026202FA4BF5E464FF0000B2B
:100310005BEA060C08BF4FF0010B19EB0B09ABFBB6
:10032000027C48EB0608C01B06FB02CC0BFB03CC8F
:1003300071EB0C01C1E70B46024641464846BDE859
:10034000F08B13B54FF000004FF00001AFF30080C9
:10035000BDE81C4070474FF0000200B513469446BC
:100360009646203922BFA0E80C50A0E80C50B1F10D
:100370002001BFF4F7AF090728BFA0E80C5048BF21
:100380000CC05DF804EB890028BF40F8042B08BFBF
:10039000704748BF20F8022B11F0804F18BF00F8BB
:1003A000012B7047704770477047754600F02CF876
:1003B000AE4605006946534620F00700854618B052
:1003C00020B5FFF73FFFBDE820404FF000064FF09B
:1003D00000074FF000084FF0000B21F00701AC467A
:1003E000ACE8C009ACE8C009ACE8C009ACE8C00999
:1003F0008D46704710B50446AFF300802046BDE837
:100400001040FFF70ABF000000487047BC01002001
:1004100001491820ABBEFEE7260002007047FEE748
:10042000014800F04BB80000FC000020014800F03B
:1004300045B800009C00002001681823CAB2103A99
:10044000B2FBF3F2054B6FF30901032A9B5CC36512
:1004500000D9091D8165084670470000EA150008AB
:1004600010B5014600208B698A6A4FF0C07453B101
:10047000B3F5005F15D072B1012A0CD0022A0AD060
:10048000032A09D104E01AB1012A06D0022A03D1B5
:10049000C96AC90100D5012010BDC96AA142FAD0BC
:1004A00010BD002AF7D0012AF2D0022AF3D0032A85
:1004B000F3D010BD704772B6FEE700002DE9F84397
:1004C00004464FF00009CDF8009063484FF41651F0
:1004D000A56D0068B0FBF1F72E6894F85C10082059
:1004E00000FA01F131420FD021680A6852070BD59A
:1004F0000A6822F004020A6094F85C108840A86040
:10050000606D40F00100606594F85C104FF00108E8
:1005100008FA01F0304208D021684969090604D57B
:10052000A860606D40F00200606594F85C100420E3
:100530008840304208D021680968890704D5A8603E
:10054000606D40F00400606594F85C1010208840F5
:10055000304218D021680968090714D5A8602068BE
:100560000168490304D50068000308D5A16C07E0C1
:100570000168C90503D4016821F008010160216CFC
:1005800009B12046884794F85C102020884030420A
:1005900031D021680968C9062DD5A86094F83500C6
:1005A00005282068016806D0490347D50068000384
:1005B0001DD4616C1CE021F01601016020684169C6
:1005C00021F080014161206C08B9A06C20B1206845
:1005D000016821F00801016094F85C103F20884018
:1005E000A86084F8358084F83490216D1FE0E16BB9
:1005F00009B120468847606D00282BD0606DC00788
:1006000014D0052084F835002068016821F001012C
:1006100001600098401C0090B84203D82068006830
:10062000C007F6D184F8358084F83490E16C002955
:1006300010D001B02046BDE8F04308470168C90565
:10064000D5D4016821F01001016084F8358084F868
:100650003490CCE7BDE8F883100000202DE9F0418C
:10066000044600F05DF906465CB1022084F83500CE
:10067000002584F834502068016821F001010160F0
:100680000DE00120BDE8F08100F04AF9801B05284B
:1006900005D920206065032084F83500F2E7206842
:1006A0000068C007F0D12268116820480140D4E9F1
:1006B00001031843D4E903363343184363691843ED
:1006C000A3691843E3691843236A18430843616A1E
:1006D000042903D1D4E90B1319430843106020689F
:1006E0004069666A20F0070130460E43012704285E
:1006F0000CD1A06A0643E06A40B12046FFF7B0FE85
:1007000020B14020606584F83570BAE72068466102
:100710002046FFF791FE94F85C203F2191408160D4
:10072000656584F835700020ACE700003F8010F06C
:100730002DE9F84FDFF8BCA10022012503264FF078
:100740000F090AF1040BAAF1040E00BF0B6805FAA9
:1007500002F42340A34270D10F7907F00307012F61
:1007600001D0022F16D187684FEA420806FA08FC2A
:1007700027EA0C07D1F80CC00CFA08FC4CEA070C6D
:10078000C0F808C04768A7430C79C4F3001494402C
:100790003C4344600C79E443A4070AD0C4684FEAA0
:1007A000420C06FA0CF7BC438F6807FA0CF7274394
:1007B000C7600C7904F00304022C12D1D40800EBBA
:1007C000840CDCF820405707FF0E09FA07F824EAEA
:1007D0000804D1F8108008FA07F848EA0408CCF8B1
:1007E000208004684FEA420C06FA0CF7BC430F79EC
:1007F00007F0030707FA0CF7274307604C6814F467
:10080000403F70D03C4C276847F4804727602468FD
:1008100022F0030704F480440094384C07EB040CE6
:10082000DCF8084897074FEA177809FA08F7BC433D
:10083000334FB84202D1002724E054E0314FB84290
:1008400001D101271EE0304FB84201D1022719E043
:100850002E4FB84201D1032714E02D4FB84201D1E9
:1008600004270FE02B4FB84201D105270AE02A4F99
:10087000B84201D1062705E0284FB84201D1072729
:1008800000E0082707FA08F72743CCF80878DAF8D9
:1008900000405746D1F804C09C435FEACC2C00D5F9
:1008A0001C433C60DBF800405F46D1F804C09C4329
:1008B0005FEA8C2C00D51C433C60DEF80040774694
:1008C000D1F804C09C435FEA8C3C00D51C433C60DB
:1008D000084F083F3C68D1F804C09C435FEACC3C19
:1008E00000D51C433C60521C102AFFF42FAFBDE81A
:1008F000F88F0000083C01404438024000300140BD
:10090000000002400004024000080240000C0240C7
:10091000001002400014024000180240001C024077
:100920000148806870470000040000200248816888
:100930000278114481607047040000200B4810B514
:10094000016841F400710160016841F48061016057
:10095000016841F480710160032000F06FF800200D
:1009600000F006F800F024F8002010BD003C024022
:1009700070B50D4D04464FF47A712878B1FBF0F054
:100980000A490968B1FBF0F000F00CFB48B9102CE3
:1009900007D200222146501E00F030F800206C6083
:1009A00070BD012070BD0000040000201000002078
:1009B0000A4808B5016841F480410160006800F40C
:1009C000804000900548001F016841F0805101609F
:1009D000006800F08050009008BD000044380240DC
:1009E000002809DB00F01F0201219140400980002E
:1009F00000F1E020C0F8001170470000F0B40E4B89
:100A00001B680C46C3F30223C3F10705042D00D96C
:100A10000425191D072901D2002300E0DB1E012651
:100A200006FA05F1491E214099409E40761E164067
:100A30003143F0BC00F055BD0CED00E0064900F07C
:100A4000070208684FF6FF03184040EA0220034AF5
:100A500010430860704700000CED00E00000FA054C
:100A60002DE9F0470E46050065D0DFF81481D8F86F
:100A70000000F7B200F00700B04207D288F800701B
:100A8000D8F8000000F00700B04254D128683D4C6F
:100A9000810712D5400703D5206840F4E05020605C
:100AA0002878000703D5206840F460402060206863
:100AB000A96820F0F000084320602878C0072DD0F6
:100AC000304968680839012812D0022813D0032859
:100AD00011D00968890700292DDA216821F0030166
:100AE00001432160FFF71CFF814641F2883A0EE086
:100AF00009688903EFE709688901ECE7FFF710FF50
:100B0000A0EB0901514502D90320BDE8F087206818
:100B1000696800F00C00B0EB810FEFD1D8F800103D
:100B2000404601F00701B14207D90770006800F0A4
:100B30000700B04201D00120E7E72878400705D53B
:100B40002068E96820F4E050084320602878000716
:100B500006D52068296920F4604040EAC100206081
:100B600000F038F82168084AC1F30311515CC8400D
:100B70000649086006480068FFF7FAFE0020C4E74F
:100B8000003C024008380240F21500081000002026
:100B9000080000200448054900680968044AC1F3B8
:100BA0008221515CC8407047100000200838024084
:100BB000021600080448054900680968044AC1F3A0
:100BC0004231515CC8407047100000200838024094
:100BD00002160008154810B5006810F00C02144801
:100BE00013D01449042A0FD0082A0ED10F4C241F09
:100BF0002268236802F03F025B0207D52068C0F339
:100C00008810A0FB010106E0084610BD2168C1F371
:100C10008811A1FB00010023FFF726FB2168C1F327
:100C20000141491C4900B0FBF1F010BD08380240F9
:100C30000024F400001BB7002DE9F84F04006ED02B
:100C40002078DFF84C93C007A9F104054AD009F1D8
:100C500004000168C1F38101012908D00068C0F3D4
:100C6000810002280AD1D9F80000400206D5286880
:100C7000800337D560680028E1D033E06068B0F5C4
:100C8000803F10D0B0F5A02F286810D020F480301D
:100C90002860286820F4802028606068A8B1FFF7E9
:100CA0003FFE06460DE0286840F48030F4E740F44B
:100CB00080202860F7E700BFFFF732FE801B642822
:100CC00073D828688003F7D50CE0FFF729FE0646A5
:100CD00005E000BFFFF724FE801B6428F0D82868D9
:100CE0008003F7D42078DFF8AC8280074FF0000A49
:100CF0003ED5A748001D016811F00C0F08D0006810
:100D0000C0F3810002280BD1D9F80000400207D4BB
:100D10002868800716D5E068012800D112E033E189
:100D2000E068B8B10120C8F80000FFF7F9FD0646F9
:100D300005E000BFFFF7F4FD801B0228C0D828683B
:100D40008007F7D52868216920F0F80040EAC10043
:100D500028600DE0C8F800A0FFF7E2FD064604E0B9
:100D6000FFF7DEFD801B02281FD828688007F7D414
:100D70002078000722D5864F87486169703771B1A6
:100D800001210160FFF7CCFD064604E0FFF7C8FD36
:100D9000801B022809D838688007F7D50EE0C0F814
:100DA00000A0FFF7BDFD064605E082E0FFF7B8FDB5
:100DB000801B02287DD838688007F7D42078400748
:100DC00068D5DFF8CCB100270BF13C0BDBF8000055
:100DD000C0000BD4DBF8001041F08051CBF80010BC
:100DE000DBF80000012700F0805000906B4E306867
:100DF000C00510D4306840F480703060FFF790FD7B
:100E0000009005E0FFF78CFD0099401A022850D8A9
:100E10003068C005F6D55E4EA0686C3601280FD04C
:100E20000528306810D020F001003060306820F0D4
:100E300004003060A068B8B1FFF772FD00900FE0C9
:100E4000306840F00100F4E740F004003060F7E75C
:100E5000FFF766FD0099411A41F28830814266D859
:100E600030688007F4D50EE0FFF75AFD009007E0E8
:100E7000FFF756FD0099411A41F28830814256D859
:100E800030688007F4D42FB1DBF8001021F08051D6
:100E9000CBF80010A069C8B33D49091D0968C1F32A
:100EA000810102294AD00228504607D0C8F86000C4
:100EB00000E03CE0FFF734FD04463BE04746C8F85D
:100EC0006000FFF72DFD064605E000BFFFF728FD97
:100ED000801B02282BD828688001F7D4D4E90701A9
:100EE0000843A16A2E4A490802EB0141626A41EABD
:100EF0008211084394F82C1040EA0161C9F80010EF
:100F000001203866FFF70CFD044606E03EE000BF16
:100F1000FFF706FD001B022809D828688001F7D5D5
:100F200034E000BFFFF7FCFC001B022802D90320BD
:100F3000BDE8F88F28688001F4D427E00128F7D0B5
:100F4000D9F80000E26900F4800191421CD1226AC4
:100F500000F03F01914217D147F6C071626A01402B
:100F6000B1EB821F10D1A26A4FF0FF3300F4403181
:100F700003EB5202B1EB024F06D194F82C1000F0B3
:100F80007060B0EB016F01D00120D1E70020CFE706
:100F90000438024000004742800E47420070004083
:100FA0000000FFFF10B5401EB0F1807F01D301208B
:100FB00010BD4FF0E02460610F21601700F091FA3E
:100FC0000020A06107202061002010BD70B5040042
:100FD00004D094F83D00002510B106E0012070BD5A
:100FE00084F83C50204600F023F8242084F83D008B
:100FF0002068C16821F40051C160204600F090F9DA
:101000002068016921F4904101612068416921F063
:101010002A0141612068C16841F40051C160256422
:10102000202084F83D0084F83E00002070BD0000C0
:101030002DE9F04786B0064614216846FFF78BF984
:10104000DFF8F0800222316800253B4801230324A9
:1010500097064FF0070C4FF480694FF4403A414532
:101060002FD135491431D1F8008048F01008C1F86B
:101070000080096801F010010591016841F002014A
:1010800001600068694600F002000590C0208DE80C
:101090001D102A48FFF74CFB2A4C2948E4E80207B8
:1010A0004020A4E82102274844F81459A561C4E966
:1010B000075A6562FFF7D2FA08B1FFF7FCF97463CB
:1010C00033E0DFF88480414530D11B491031D1F83D
:1010D000008048F48028C1F80080096801F480216C
:1010E0000591016841F0040101600068694600F063
:1010F000040005904FF440608DE81D101348FFF781
:1011000017FB104C124860342060C4E90175C4E933
:1011100003596561A561C4E9075A20466562FFF776
:101120009DFA08B1FFF7C7F9B463A66306B0BDE83E
:10113000F0870000001001403038024000040240F7
:10114000B86402409C0000200048004000080240B3
:1011500028600240FEE70000094808B5016841F434
:10116000001101600068002200F400100090114698
:101170000C20FFF743FCBDE808400C20FFF730BC13
:1011800030380240114808B5016841F001010160A2
:10119000016801F001010091016841F00201016064
:1011A000016801F002010091016841F00401016051
:1011B000016801F004010091016841F080010160C3
:1011C000006800F08000009008BD00003038024048
:1011D0000C4810B50A4901600B494160002181604B
:1011E0000C22C160C0E904128161C161FFF7EEFE0B
:1011F000002803D0BDE81040FFF75DB910BD000026
:101200000048004058000020A0860100FEE7FEE7ED
:101210007047000030B5144B1C68656945F0400507
:1012200065611B68DC6844F01004DC600F4B1C68CF
:10123000256825F0010525601C682568ED07F7D1B4
:101240001D680B4CAC601C68E06018680161186890
:1012500042601868016841F48021016018680168E3
:1012600041F00101016030BD58000020FC00002069
:10127000044800407047FFF759BB000030B593B0F9
:1012800030216846FFF767F814210CA8FFF763F8D0
:101290001D480025016841F080510160006800F0A0
:1012A000805011901948016841F480410160006844
:1012B000022400F48040119001200090000401906D
:1012C0008001CDE9064006200890A820CDE9090458
:1012D00004200B906846FFF7AFFC08B172B6FEE73A
:1012E0000CA90F2081E831004FF4A0500F904FF46B
:1012F0008050109005210CA8FFF7B2FB002801D008
:1013000072B6FEE713B030BD4038024000700040B6
:101310000248016841F470010160704788ED00E007
:1013200070B5044600680169E26821F44051114338
:1013300001612169A068E2690843616911430843BA
:101340002168CA6849F20C639A430243CA60206864
:101350004169A26921F4407111434161314920681A
:10136000884202D03049884202D1FFF723FC01E0D5
:10137000FFF710FCE2690023192164253226B2F53B
:10138000004F626828D0A0FB0101930F9200FEF786
:101390006BFF0146B0FBF5F06FF01802504301EB14
:1013A000800006EB0010B0FBF5F000F0F002B1FB9E
:1013B000F5F002EB0012B1FBF5F06FF018035843A3
:1013C00001EB800006EB0010B0FBF5F000F00F0021
:1013D00021681044886070BDA0FB010192185B4138
:1013E000FEF742FF0146B0FBF5F00201B1FBF5F05C
:1013F0006FF01803584301EB800006EBC000B0FB10
:10140000F5F000F0F80002EB4002B1FBF5F05843B4
:1014100001EB800006EBC000B0FBF5F000F0070028
:10142000D6E700000010014000140140264818B41F
:1014300000680168890604D501684068009018BCFE
:10144000704722490968C906F9D501684068204AF1
:101450000090106801684FF024030C031D490468D4
:1014600024F00104046016D410684468C4F1240414
:10147000A4B20C8043601068016841F4002101604F
:101480001068016841F001010160122CD7D11249A6
:1014900001F1160015E014686068C0F1240080B204
:1014A000088063600D498B6A23F400238B62116806
:1014B0000A6842F001020A601228C0D1064901F10F
:1014C0003A0018BC00F032B8580000200048004034
:1014D000FC000020000000205C01002000600240B1
:1014E000FEE70907090E002804DB00F1E02080F880
:1014F0000014704700F00F0000F1E02080F8141D88
:101500007047FFF71BFAFFF7B9FEFFF73BFEFFF747
:1015100023FEFFF75DFE00F001F8FEE702492422FA
:10152000A1F12400FFF776BE96010020F0B5002857
:1015300055D0002953D00278437842EA0322C2F3FF
:101540000A020A8043788478DB0843EA4413C3F331
:101550000A034B808478C578A40944EA8504057998
:1015600044EA8524C4F30A048C80057946796D0821
:1015700045EAC615C5F30A05CD804679C6F30116BE
:101580008E724679B609CE728679C77946EA072601
:101590008E81067A477A46EA0726CE81867AC77A0E
:1015A00046EA07260E82067B8E74467BCE74867BC7
:1015B000C77B46EA07268E82067C407CA2F58062C5
:1015C0000A80A3F580634B80A4F5806446EA00207E
:1015D0008C80A5F58065CD80A0F580600881F0BD88
:1015E0004FF04070E1EE100A70470006101600063A
:1015F00010160000000000000000010203040607AE
:101600000809000000000102030400002C16000875
:101610000000002014000000C4010008401600086B
:10162000140000200C080000E00100080000000089
:101630000100000010000000000000000024F40081
:040000050800018965
:00000001FF
