:020000040800F2
:10000000B820002049010008614800086348000842
:10001000674800086B4800086F48000800000000AF
:10002000000000000000000000000000734800080D
:10003000754800080000000077480008794800086B
:100040006301000863010008630100086301000800
:1000500063010008630100086301000863010008F0
:1000600063010008630100086301000863010008E0
:1000700063010008630100086301000863010008D0
:1000800063010008630100086301000863010008C0
:1000900063010008630100086301000863010008B0
:1000A00063010008630100086301000863010008A0
:1000B0002546000863010008630100086301000889
:1000C0006301000863010008630100086301000880
:1000D00063010008D55B00086301000863010008A4
:1000E0006301000863010008630100086301000860
:1000F0006301000863010008630100086301000850
:10010000630100086301000863010008630100083F
:10011000630100086301000863010008630100082F
:10012000630100086301000863010008630100081F
:10013000DFF810D007F0DCF9004800473B44000826
:10014000AFF30080B82000200648804706480047EB
:10015000FEE7FEE7FEE7FEE7FEE7FEE7FEE7FEE777
:10016000FEE7FEE74B020008310100080CB5002055
:10017000019000906C48006840F480306A49086043
:1001800000BF6948006800F4003000900198401CEE
:100190000190009818B90198B0F5A06FF1D16248AC
:1001A000006800F4003010B10120009001E0002050
:1001B00000900098012843D15C48006840F010008E
:1001C0005A4908600846006820F0030008600846A5
:1001D000006840F002000860534840685249486097
:1001E0000846406848600846406840F480604860BF
:1001F0000846406820F47C1048600846406840F497
:10020000E81048600846006840F08070086000BF51
:100210004548006800F000700028F9D04248406866
:1002200020F00300404948600846406840F0020062
:10023000486000BF3C48406800F00C000828F9D135
:100240000CBD10B5FFF792FF10BD10B53648006821
:1002500040F00100344908600846406834490840CD
:100260003149486008460068324908402E49086014
:100270000846006820F4802008600846406820F4A2
:10028000FE0048604FF41F008860FFF7DAFF4FF070
:1002900000602949086010BD10B50021002000222F
:1002A000214B5B6803F00C0121B1042906D0082919
:1002B00028D107E0214B224C236027E01F4B204C24
:1002C000236023E0184B5B6803F47010164B5B68E7
:1002D00003F48032022303EB904022B9194B4343CD
:1002E000174C23600DE0104B5B6803F4003323B11F
:1002F000144B4343124C236003E0104B4343104C18
:10030000236003E00D4B0E4C236000BF00BF064B83
:100310005B68C3F303130C4CE15C094B1B68CB40D7
:10032000074C236010BD0000001002400020024076
:100330000000FFF8FFFFF6FE08ED00E000127A0073
:100340000000002000093D00040000204B4901434B
:100350004B4A1160704770B5002100230F22C4780A
:1003600004B3474C246804F4E064C4F5E064210A53
:10037000C1F10403CA40447804FA03F184781440BC
:10038000214309013F4C0678A155047804F01F056C
:100390000124AC4005786D11AD0005F1E025C5F8EC
:1003A000004109E0047804F01F050124AC40364DFB
:1003B0000678761145F8264070BD344A0A4002435B
:1003C0002F4B1B1F1A60704739B12D4A121D12683E
:1003D00002432B4B1B1D1A6006E0294A121D1268AE
:1003E0008243274B1B1D1A60704710B5044601203D
:1003F00027490883042C08D14FF0E020006940F021
:1004000004004FF0E021086107E04FF0E0200069B0
:1004100020F004004FF0E02108611E4800681C49EC
:1004200008601C48001D006848601A4808300068D1
:10043000886006220C31184800F019FB1448C08966
:100440001349898940EA014011490968884214D159
:100450000F48418A008A41EA00400D4949688842B4
:100460000BD10B48C18A808A41EA0040084989685B
:10047000884202D100200649088310BD0000FA0519
:100480000CED00E000E400E080E100E080FFFF1FF1
:1004900040090020E8F7FF1F00B0000801460020D7
:1004A000FE4A106800F03800084310607047FB49AE
:1004B000096821F00801F94A1160114609680143F1
:1004C00011607047F549096821F01001F34A116085
:1004D00011460968014311607047F148EF494860CF
:1004E000F04848607047EE48EC494860ED48486085
:1004F0007047EA48006940F08000E84908617047A9
:10050000E648006940F08000E44908617047042033
:10051000E249C96801F0010109B101200EE0DF499B
:10052000C96801F0040109B1022007E0DB49C9688C
:1005300001F0100109B1032000E00420704700B56C
:1005400002460423FFF7E3FF034603E0FFF7DFFF64
:100550000346521E012B01D1002AF7D102B905230F
:10056000184600BD30B5044604254FF43020FFF78F
:10057000E6FF0546042D17D1C848006940F0020087
:10058000C649086108464461006940F040000861BE
:100590004FF43020FFF7D3FF0546C048006941F60D
:1005A000FD710840BD490861284630BD10B50424DE
:1005B0004FF43020FFF7C3FF0446042C16D1B74890
:1005C000006940F00400B54908610846006940F040
:1005D000400008614FF43020FFF7B1FF0446AF48F8
:1005E000006941F6FB710840AC490861204610BD26
:1005F00000B502460423FFF78AFF034603E0FFF736
:1006000086FF0346521E012B01D1002AF7D102B901
:100610000523184600BD10B504244FF43020FFF721
:10062000E7FF0446042C16D19C48006940F0040002
:100630009A4908610846006940F0400008614FF49B
:100640003020FFF7D5FF04469448006941F6FB715E
:10065000084092490861204610BD00208F49C969B1
:1006600001F0020109B1012000E00020704730B51F
:10067000A5250424FFF7F1FF00B100254FF4302039
:10068000FFF75DFF0446042C3AD185488349886012
:10069000844888600846006940F0200008610846E8
:1006A000006940F0400008614FF43020FFF747FF39
:1006B0000446042C1BD17948006941F6DF710840DB
:1006C000764908610846006940F0100008617648E4
:1006D0000580E002FFF733FF0446052C10D06F4879
:1006E000006941F6EF7108406C49086108E0052C8B
:1006F00006D06A48006941F6EF7108406749086111
:10070000204630BD78B506460C46042500200090F2
:10071000E802FFF714FF0546042D24D15F48006965
:1007200040F001005D4908613480E802FFF707FFEF
:100730000546042D10D1B01C0090200C00990880B3
:10074000E802FFF7FCFE05465448006941F6FE71D9
:1007500008405249086106E05048006941F6FE71C0
:1007600008404E490861284678BD70B504460D46DC
:100770000426F002FFF7E3FE0646042E11D1474897
:10078000006940F00100454908612580F002FFF74B
:10079000D6FE06464148006941F6FE7108403F49D1
:1007A0000861304670BD70B505460E460424E0026F
:1007B000FFF7C5FE0446042C17D139483749886035
:1007C000384888600846006940F0100008612E80B3
:1007D000E002FFF7B4FE0446052C06D02F4800695E
:1007E00041F6EF7108402D490861204670BD2DE9A2
:1007F000F04304464FF6FF763746B046B14604252F
:10080000E443E6B2C4F30727C4F307484FEA146988
:10081000E802FFF794FE0546042D49D120481F4900
:100820008860204888600846006940F01000086130
:10083000FF2E06D01C4808300680E802FFF77FFE36
:100840000546042D08D1FF2F06D017480A3007802F
:10085000E802FFF774FE0546042D0AD1B8F1FF0F38
:1008600007D011480C30A0F80080E802FFF767FEBF
:100870000546042D0AD1B9F1FF0F07D00A480E3002
:10088000A0F80090E802FFF75AFE0546052D0FD0AC
:100890000248006941F6EF71084007E0002002407D
:1008A00023016745AB89EFCD00F8FF1FB44908610C
:1008B0002846BDE8F08330B5054604244FF43020C7
:1008C000FFF73DFE0446042C41D1AE48AC49886098
:1008D000AD4888600846006940F02000086108467D
:1008E000006940F0400008614FF43020FFF727FE18
:1008F0000446042C22D1A248006941F6DF71084069
:100900009F4908610846006940F0100008611DB168
:1009100000209E49088002E0A5209C4908804FF4F1
:100920003020FFF70CFE0446052C10D094480069D7
:1009300041F6EF7108409249086108E0052C06D0A5
:100940008F48006941F6DF7108408D4908612046F3
:1009500030BDF0B505460E4617460424894888493F
:10096000886089488860E002FFF7E9FD0446042CAE
:1009700019D18348006940F010008149086147F0AF
:10098000F800304328438149891C0880E002FFF7C2
:10099000D6FD0446052C06D07948006941F6EF7172
:1009A0000840774908612046F0BD7548C069800855
:1009B00070477348006A704700207149096801F068
:1009C000200109B1012000E00020704729B16C4AE4
:1009D000126902436A4B1A6104E0694A1269824350
:1009E000674B1A61704701460020012908D1644A0B
:1009F000D26902F001020AB1012008E0002006E0FD
:100A00005F4AD2680A400AB1012000E00020704726
:100A10005B49C860704704205949C96801F0010169
:100A200009B101200EE05649C96801F0040109B17D
:100A3000022007E05249C96801F0100109B1032002
:100A400000E004207047014608887047F0B505466D
:100A50000E461746002407E036F814102846FFF724
:100A600084FEAD1C601C84B2BC42F5DBF0BD30B529
:100A700003460C461546002207E01846FFF7E3FF41
:100A800024F812009B1C501C82B2AA42F5DB30BD38
:100A90002DE9F04F80468A461746B8F1006F02D321
:100AA0003B48804501D3BDE8F08FFFF716FDA8F164
:100AB000006B4FEA9B25CBF34809C9F50074A742A8
:100AC00000DC3C464DE04FF0006101EB85208A14CC
:100AD0003049FFF7CCFF00260BE009EB06002D495B
:100AE00031F810004FF6FF71884200D003E0701C0F
:100AF00086B2A642F1DB00BFA6421BDA4FF00061CE
:100B000001EB8520FFF72EFD002608E03AF81600DD
:100B100006EB09011F4A22F81100701C86B2A6429A
:100B2000F4DB4FF0006101EB85208A141949FFF7CF
:100B30008DFF04E0224651464046FFF787FFA7425B
:100B400000D10FE06D1C4FF000090AEB440AA044ED
:100B5000381B87B2B7F5007F02DD4FF4007400E068
:100B60003C46B0E700BFFFF7C4FC00BF9BE713B5EE
:100B70000446012201A92046FFF78AFF1CBD0000A0
:100B80000020024023016745AB89EFCD00F8FF1F2D
:100B9000000001085C09002010B50446CC488442DE
:100BA00008D10121042000F02FFD0021042000F0D5
:100BB0002BFD46E0C748844208D10121082000F0FF
:100BC00023FD0021082000F01FFD3AE0C2488442C6
:100BD00008D10121102000F017FD0021102000F0A5
:100BE00013FD2EE0BD48844208D10121202000F0F1
:100BF0000BFD0021202000F007FD22E0B8488442D0
:100C000008D10121402000F0FFFC0021402000F02D
:100C1000FBFC16E0B348844208D10121802000F09B
:100C2000F3FC0021802000F0EFFC0AE0AE48844293
:100C300007D10121801500F0E7FC0021A01500F08C
:100C4000E3FC10BD10B50121084600F0DDFC0021D9
:100C5000012000F0D9FC10BD2DE9F041024600252D
:100C60000026002000230024002791F803C00CF088
:100C70000F0591F803C00CF0100CBCF1000F03D06D
:100C800091F802C04CEA050591F800C0BCF1000FD4
:100C900031D0146800202BE04FF0010C0CFA00F367
:100CA000B1F800C00CEA03069E4220D183004FF049
:100CB0000F0C0CFA03F7BC4305FA03FC4CEA0404DE
:100CC00091F803C0BCF1280F06D14FF0010C0CFACB
:100CD00000FCC2F814C00AE091F803C0BCF1480F50
:100CE00005D14FF0010C0CFA00FCC2F810C0401CFA
:100CF0000828D1D31460B1F800C0BCF1FF0F34DD77
:100D0000546800202EE000F1080C4FF0010808FAAA
:100D10000CF3B1F800C00CEA03069E4221D1830017
:100D20004FF00F0C0CFA03F7BC4305FA03FC4CEA36
:100D3000040491F803C0BCF1280F05D100F1080CA0
:100D400008FA0CF8C2F8148091F803C0BCF1480FFF
:100D500007D100F1080C4FF0010808FA0CF8C2F8AE
:100D60001080401C0828CED35460BDE8F0814FF6B7
:100D7000FF710180022181700421C1707047024619
:100D8000002093680B400BB1012000E00020704769
:100D90000146886880B2704702460020D3680B4045
:100DA0000BB1012000E0002070470146C86880B206
:100DB000704701617047416170470AB1016100E00D
:100DC00041617047C16070474FF480320A438261CD
:100DD0008161826182698269704702460020434BCB
:100DE00018684FF68073184040EA021008433F4BE2
:100DF000186070473E49C8617047F0B50A46002345
:100E000000240021002500F00046B6F1004F02D179
:100E1000364EF16901E0354E7168C0F3034583B287
:100E200000F44016B6F5401F08D121F070612F4E36
:100E3000766826F070662D4F7E6012E000F4801612
:100E4000B6F5801F06D1032606FA05F4A14341F04A
:100E5000706106E0460D360103FA06F6B14341F033
:100E6000706122B1460D360103FA06F6314300F0F7
:100E70000046B6F1004F02D11C4EF16101E01B4E5D
:100E80007160F0BD30B500228B071C0F0F2303FAF1
:100E900004F2164B08338C1053F824309343134C50
:100EA00008348D1044F8253023468C1053F8243034
:100EB0008C07240F00FA04F423430C4C08348D10E3
:100EC00044F8253030BD0A49DC3108607047000025
:100ED00000080140000C01400010014000140140D6
:100EE00000180140001C01400020014000000140AA
:100EF0000000204210B50446F748844209D1012180
:100F0000480500F08EFB00214FF4001000F089FB33
:100F100008E00121880500F084FB00214FF48000E7
:100F200000F07FFB10BD2DE9F04385B004460D466F
:100F30000026B1460427DFF8A483A6884FF6C070C8
:100F40000640684600F0D9FADDF80880E448B8FBAE
:100F5000F0F01FFA80F946EA0906A68020884FF6CD
:100F6000FE71084020800026DE49286888420CD89F
:100F700028684000B8FBF0F087B2042F00DA04279D
:100F80003E4309F10100208427E0E8884BF6FF7119
:100F9000884206D1286800EB4000B8FBF0F087B229
:100FA00009E0286800EBC00101EB0010B8FBF0F08D
:100FB00087B247F48047C7F30B0008B947F0010731
:100FC00047F4004006434FF4967009FB00F04FF4DD
:100FD0007A7190FBF1F0401C2084A683208840F0B9
:100FE0000100208026884FF6F5300640A8886989E0
:100FF000084306432680A88929890843208105B033
:10100000BDE8F08341F288310160002181804BF618
:10101000FF71C1800021018141814FF480418181B4
:10102000704721B1028842F00102028004E0028888
:101030004FF6FE731A400280704721B1828842F455
:101040000062828004E082884FF2FF731A4082803F
:10105000704721B1828842F48052828004E0828805
:101060004EF6FF731A408280704721B1028842F425
:101070008072028004E002884FF6FF631A4002800B
:10108000704721B1028842F40072028004E00288B5
:101090004FF6FF531A400280704721B1028842F494
:1010A0008062028004E002884FF6FF331A4002801B
:1010B00070470A46002181894FF60173194002F0FA
:1010C000FE0319438181704721B1828942F00102F8
:1010D000828104E082894FF6FE731A408281704754
:1010E00021B1028842F04002028004E002884FF6FB
:1010F000BF731A40028070471AB183880B43838004
:1011000002E083888B4383807047018270470146E9
:10111000088AC0B2704712B141F0010102E04FF6F7
:10112000FE7319400182704708B502460020009006
:1011300000920098084400900098008808BD21B1F2
:10114000028842F40042028003E00288C2F30E02E9
:1011500002807047B1F5006F04D1028842F400624A
:10116000028004E002884FF2FF731A400280704749
:10117000B1F5005F04D1028842F40052028004E01D
:1011800002884DF6FF731A400280704721B1028831
:1011900042F48052028004E002884EF6FF731A4047
:1011A00002807047B1F5006F04D1028842F40062FA
:1011B000028004E002884FF2FF731A4002807047F9
:1011C00021B1028842F02002028004E002884FF63A
:1011D000DF731A40028070470146088B0012704787
:1011E00021B1028842F01002028004E002884FF62A
:1011F000EF731A400280704721B9028842F08002E2
:10120000028004E002884FF67F731A400280704724
:10121000B1F5804F05D0828B4BF6FF731A40828365
:1012200003E0828B42F480428283704770B50246AD
:101230000024002500230020958A138B1B0445EA17
:10124000030626F07F4404EA01068E4201D1012004
:1012500000E0002070BD10B50146002000230022F0
:101260008B8A0A8B120443EA020424F07F4010BDEB
:101270000CB50246002000230193009300920B0F4F
:10128000019321F07F41019B1BB1009B143300931C
:1012900003E0090C009B18330093009B1B680B4074
:1012A0000BB1012000E000200CBD002221F07F42A4
:1012B000D3438382704730B50246002000239488D0
:1012C00001F0E06504EA154321F07F41948A0C4067
:1012D00054B14BB1012008E00054004000127A00E4
:1012E00040420F00A0860100002030BD002221F006
:1012F0007F42D34383827047DF48006840F001009B
:10130000DD49086008464068DC490840DA49486021
:1013100008460068DA490840D7490860084600686E
:1013200020F4802008600846406820F4FE004860F1
:101330004FF41F0088607047CF49096821F480315D
:10134000CD4A11601146096821F480211160B0F581
:10135000803F03D0B0F5802F0ED106E0C649096862
:1013600041F48031C44A116007E0C349096841F47F
:10137000A021C14A116000E000BF00BF704710B556
:1013800001460022002300204A11012A02D1BA4C52
:10139000236806E0022A02D1B74C236A01E0B64C6A
:1013A000636A01F01F02012494401C400CB101202B
:1013B00000E0002010BD38B500200090002400257A
:1013C00000BF3120FFF7DBFF05460098401C00906E
:1013D0000098B0F5A06F01D0002DF2D03120FFF7BA
:1013E000CEFF08B1012400E00024204638BD0146AC
:1013F0000020A14A106820F0F80040EAC100106007
:101400007047A04908607047024600209A4B586810
:1014100020F47C1042EA01031843974B5860704750
:1014200098490866704701460020934A506820F0AA
:1014300003000843506070478F48406800F00C007C
:101440007047014600208C4A506820F0F0000843A5
:101450005060704701460020874A506820F4E060E1
:1014600008435060704701460020834A506820F4CA
:10147000605040EAC1005060704729B17E4A527AFC
:1014800002437D4B5A7204E07B4A527A82437A4B84
:101490005A7270477B49D831086070470146002076
:1014A000754A506820F4404008435060704700215E
:1014B000714A20321170704A82F82010012802D03F
:1014C00004280AD104E001216B4A2032117005E0A2
:1014D0000521694A2032117000E000BF00BF70474B
:1014E0006949086070476449096A0143624A1162A8
:1014F0007047654944390860704730B500210022C3
:10150000002400235C4D6D6805F00C0121B1042915
:1015100005D0082923D105E05C4D056022E05B4D34
:1015200005601FE0544D6D6805F47012524D6D68F2
:1015300005F48034022505EB92421CB9544D554305
:1015400005600BE04C4D6D6805F400351DB1504D44
:101550005543056002E04D4D5543056002E04B4D9B
:10156000056000BF00BF444D6D6805F0F00109093A
:10157000484D6B5C0568DD4045603F4D6D6805F486
:10158000E061090A434D6B5C4568DD4085603A4D7A
:101590006D6805F46051C90A3E4D6B5C4568DD40DD
:1015A000C560354D6D6805F44041890B3A4D6B5C63
:1015B000C568B5FBF3F5056130BD29B12E4A526906
:1015C00002432D4B5A6104E02B4A526982432A4B55
:1015D0005A61704729B1284A92690243264B9A61A1
:1015E00004E0254A92698243234B9A61704729B1EE
:1015F000214AD2690243204BDA6104E01E4AD269D3
:1016000082431D4BDA61704729B11B4AD2680243FD
:10161000194BDA6004E0184AD2688243164BDA604C
:10162000704729B1144A12690243134B1A6104E04E
:10163000114A12698243104B1A61704712494039AE
:10164000086070470F49C86470470B49C8717047FC
:101650000948406A40F08070074948627047014677
:101660000020054A92680A400AB1012000E00020EB
:101670007047014988727047001002400000FFF86F
:10168000FFFFF6FE000042428004424200127A0050
:1016900000093D00140000202400002010B504467D
:1016A000FE48844208D10121C014FFF7ADFF00219C
:1016B000E014FFF7A9FFC4E0B4F1804F08D1012185
:1016C0000846FFF7AEFF00210120FFF7AAFFB8E0B0
:1016D000F348844208D101210220FFF7A2FF002134
:1016E0000220FFF79EFFACE0EE48844208D10121C2
:1016F0000420FFF796FF00210420FFF792FFA0E0EF
:10170000E948844208D101210820FFF78AFF00211F
:101710000820FFF786FF94E0E448844208D10121C5
:101720001020FFF77EFF00211020FFF77AFF88E0EE
:10173000DF48844208D101212020FFF772FF0021F9
:101740002020FFF76EFF7CE0DA48844208D10121B7
:101750004014FFF759FF00216014FFF755FF70E0B8
:10176000D548844209D10121C804FFF74DFF00216B
:101770004FF40020FFF748FF63E0D048844209D1CE
:1017800001210805FFF740FF00214FF48010FFF70B
:101790003BFF56E0CA48844209D101214805FFF7C2
:1017A00033FF00214FF40010FFF72EFF49E0C5483A
:1017B000844208D101214020FFF733FF002140205F
:1017C000FFF72FFF3DE0C048844208D1012180206F
:1017D000FFF727FF00218020FFF723FF31E0BB4800
:1017E000844208D101218015FFF71BFF0021A015BD
:1017F000FFF717FF25E0B648844209D1012108040C
:10180000FFF702FF00214FF48030FFF7FDFE18E0E4
:10181000B048844209D101214804FFF7F5FE0021B8
:101820004FF40030FFF7F0FE0BE0AB48844208D1E4
:1018300001218804FFF7E8FE00214FF48020FFF724
:10184000E3FE10BD00220288944B98420ED0994BC3
:1018500098420BD0B0F1804F08D0914B984205D000
:10186000904B984202D0904B984204D14FF68F7320
:101870001A404B881A438D4B984207D08C4B9842A4
:1018800004D04FF6FF431A40CB881A4302808B885E
:1018900083850B880385814B98420BD0854B9842FA
:1018A00008D08B4B984205D08A4B984202D08A4B85
:1018B000984201D10B7A038601238382704770B569
:1018C000002400220023058C4FF6FE763540058467
:1018D000028C8388048B4FF68F752C40B51E2C40EC
:1018E0000D882C43751E2A400D892A434D882A43B2
:1018F0006A4DA8420BD06F4DA84208D0744DA84243
:1019000005D0744DA84202D0734DA84213D14FF6B2
:10191000F7752A404D892A434FF6FB752A408D887A
:101920002A434FF6FF652B404FF6FF552B408D891C
:101930002B43CD892B4383800483CD888586028405
:1019400070BD70B5002400220023058C4FF6EF76A1
:1019500035400584028C8388048B48F6FF752C4043
:101960004FF6FF452C400D884FF6FF7606EA052519
:101970002C434FF6DF752A400D8906EA05152A43E8
:101980004D8806EA05152A43444DA84202D0494D28
:10199000A8421DD14FF67F752A404D894FF6FF763C
:1019A00006EA05152A434FF6BF752A408D8806EAD8
:1019B00005152A434FF6FF352B404FF2FF752B409C
:1019C0008D8906EA85052B43CD8906EA85052B43DB
:1019D00083800483CD880587028470BD70B50024A0
:1019E00000220023058C4FF6FF6635400584028CEB
:1019F0008388848B4FF68F752C404FF6FC752C40F6
:101A00000D882C434FF6FF552A400D894FF6FF767F
:101A100006EA05252A434D8806EA05252A431F4D77
:101A2000A84202D0234DA8421DD14FF2FF752A4093
:101A30004D894FF6FF7606EA05252A434FF6FF3516
:101A40002A408D8806EA05252A434EF6FF752B406D
:101A50004DF6FF752B408D8906EA05152B43CD8980
:101A600006EA05152B4383808483CD88858702840D
:101A700070BD70B5002200230024058C4EF6FF7661
:101A800035400584038C8488828B48F6FF752A4094
:101A90004FF6FF452A400D8820E00000002C014051
:101AA0000004004000080040000C0040001000400E
:101AB0000014004000340140004C0140005001403F
:101AC0000054014000180040001C0040002000406D
:101AD0000040014000440140004801404FF6FF76BD
:101AE00006EA05252A434DF6FF752B400D8906EAC7
:101AF00005352B434D8806EA05352B43FA4DA842A0
:101B000002D0FA4DA84208D14BF6FF752C408D89C2
:101B10004FF6FF7606EA85152C4384808283CD88B4
:101B2000A0F84050038470BD828B4FF2FF331A40FF
:101B30008283828B4FF6FF7303EA01231A43828369
:101B40007047F0B50C461546002200210026078C90
:101B50004EF6FF7C07EA0C070784828B018C4FF658
:101B6000FF7707EA043640F6FF473A404FF6FF7723
:101B700007EA05273A434FF6FF7707EA03373A4368
:101B8000D94FB8420ED0D94FB8420BD0B0F1804FE8
:101B900008D0D74FB84205D0D64FB84202D0D64F62
:101BA000B84206D14DF6FF77394046F480573943A5
:101BB00005E047F6FF57394044F4805739438283A4
:101BC0000184F0BD828B4FF6F3731A408283828BBF
:101BD0000A4382837047F0B50C4615460022002167
:101BE0000026078C4FF6FF6C07EA0C070784828BF0
:101BF000018C4FF6FF7707EA04264FF60C773A4040
:101C00004FF6FF7707EA03172F433A43B64FB84220
:101C10000ED0B64FB8420BD0B0F1804F08D0B44FC1
:101C2000B84205D0B34FB84202D0B34FB84206D144
:101C30004FF6FF57394046F48077394305E04FF2BD
:101C4000FF57394044F48077394382830184F0BDE3
:101C5000028B4FF2FF331A400283028B4FF6FF7361
:101C600003EA01231A4302837047F0B50C46154678
:101C7000002200210026078C4FF6EF7C07EA0C07B4
:101C80000784028B018C4FF6FF7707EA041640F6B3
:101C9000FF473A404FF6FF7707EA03373A434FF6DC
:101CA000FF7707EA05273A438F4FB8420ED08F4F90
:101CB000B8420BD0B0F1804F08D08D4FB84205D05C
:101CC0008C4FB84202D08C4FB84206D14FF6DF7726
:101CD000394046F01007394305E04FF65F77394049
:101CE00044F01007394302830184F0BD028B4FF6A4
:101CF000F3731A400283028B0A4302837047F0B5E4
:101D00000C46154600220021068C4FF6FE773E4019
:101D10000684028B018C4FF60C7632407E1C06EA5C
:101D200003162E433243704EB0420ED06F4EB04277
:101D30000BD0B0F1804F08D06D4EB04205D06D4E43
:101D4000B04202D06C4EB04206D14FF6FD76314023
:101D500044F00106314305E04FF6F576314044F09A
:101D60000106314302830184F0BD70B505460C467F
:101D70005D4885420ED05D4885420BD0B5F1804F5D
:101D800008D05B48854205D05A48854202D05A485F
:101D9000854200D100E000BF208850B92389A28885
:101DA00061882846FFF7ABFFE1882846FFF79EFFD2
:101DB00025E0208804280AD12389A2886188284642
:101DC000FFF753FFE1882846FFF742FF17E020881E
:101DD00008280AD12389A28861882846FFF7FBFEDC
:101DE000E1882846FFF7EEFE09E02389A288618892
:101DF0002846FFF7A6FEE1882846FFF795FE70BD4E
:101E00002DE9F04105460C4600260127608808B9F7
:101E1000022600E00026A088012801D1022700E068
:101E200001272088A0B92389A28861882846FFF766
:101E300066FFE1882846FFF759FF23893A46314675
:101E40002846FFF712FFE1882846FFF701FF13E05D
:101E50002389A28861882846FFF707FFE188284682
:101E6000FFF7F6FE23893A4631462846FFF747FF3B
:101E7000E1882846FFF73AFFBDE8F0810A884B88E1
:101E80001A438B881A43CB881A430B891A434B8910
:101E90001A438B891A43A0F8442070474FF6FF710C
:101EA000818000210180C180418001727047002142
:101EB000018041808180C180018141818181C18116
:101EC0007047002101804180012181800021C18073
:101ED000018170470021018041808180C1800181A2
:101EE0004181818170470000002C01400034014095
:101EF0000004004000080040000C004021B10288AE
:101F000042F00102028004E002884FF6FE731A409C
:101F10000280704731B1B0F8442042F40042A0F88A
:101F2000442005E0B0F84420C2F30E02A0F844209B
:101F300070471AB183890B43838102E083898B4305
:101F4000838170478182704741EA0203A0F84830DC
:101F500070471AB183890B43838102E083898B43E5
:101F60008381704701894FF6F872114001817047F3
:101F70000A46002101894FF68F73194011430181F0
:101F8000704730B504460D4629462046FFF7F0FF5E
:101F9000208940F00700208130BD2DE9F041044642
:101FA0000D4616461F46602D06D13B46012231469E
:101FB0002046FFF75AFE05E03B4601223146204607
:101FC000FFF79DFE29462046FFF7D2FF208940F00B
:101FD00007002081BDE8F08130B50C460021018961
:101FE000C9B24FF6FF7505EA03251543254329437A
:101FF000018130BD2DE9F04105460E461746984651
:10200000002443463A4631462846FFF7E5FF2C892F
:102010004FF6F870044044F007044FF68F70044008
:1020200044F070042C81BDE8F081F0B504460D4603
:1020300016461F463B46324629462046FFF7CCFF50
:10204000208940F480402081F0BD01858282704764
:102050000A46002101884FF68F7319401143018011
:102060007047F0B50C4615461E460021002200239D
:102070000189028B038C4FF6F877394021434FF6E4
:10208000FC473A4040F201173A434FF6DD773B40B8
:102090004FF6FF7707EA06172F433B430181028380
:1020A0000384F0BD0A460021018B4FF68F7319405F
:1020B0001143018370470A460021018B48F6FF73E4
:1020C00019404FF6FF7303EA022319430183704757
:1020D0000A460021818B4FF68F731940114381838B
:1020E00070470A460021818B48F6FF7319404FF66E
:1020F000FF7303EA022319438183704721B10288E9
:1021000042F08002028004E002884FF67F731A409A
:102110000280704721B1828842F00402828004E08C
:1021200082884FF6FB731A408280704721B1828803
:1021300042F00802828004E082884FF6F7731A406A
:102140008280704721B1828842F00102828004E0DF
:1021500082884FF6FE731A40828070470A4600213B
:10216000018B4FF6F77319401143018370470A46FC
:102170000021018B4FF2FF7319404FF6FF7303EA02
:1021800002231943018370470A460021818B4FF6D1
:10219000F77319401143818370470A460021818BF0
:1021A0004FF2FF7319404FF6FF7303EA02231943FE
:1021B000818370470A460021018B4FF6FB7319405B
:1021C0001143018370470A460021018B4FF6FF330C
:1021D00019404FF6FF7303EA022319430183704746
:1021E0000A460021818B4FF6FB731940114381830E
:1021F00070470A460021818B4FF6FF3319404FF696
:10220000FF7303EA02231943818370470A460021C2
:10221000018B4FF67F7319401143018370470A46C3
:102220000021018BC1F30E014FF6FF7303EA022375
:102230001943018370470A460021818B4FF67F7353
:1022400019401143818370470A460021818BC1F3F5
:102250000E014FF6FF7303EA02231943818370478F
:102260000A460021018C4FF6FD7319401143018489
:1022700070470A460021018C4FF6F773194011434D
:10228000018470470A460021018C4FF6DF73194024
:102290004FF6FF7303EA02131943018470470A469D
:1022A0000021018C4FF67F7319404FF6FF7303EA4C
:1022B00002131943018470470A460021018C4FF62E
:1022C000FF5319404FF6FF7303EA022319430184B9
:1022D00070470A460021018C4FF2FF7319404FF6F8
:1022E000FF7303EA02231943018470470A46002161
:1022F000018C4DF6FF7319404FF6FF7303EA02336A
:1023000019430184704730B5002301248C40A3B2E7
:10231000048C9C430484048C02FA01F5ADB22C4376
:10232000048430BD30B5002304248C40A3B2048C57
:102330009C430484048C02FA01F5ADB22C4304845E
:1023400030BD70B503460020002418461830012522
:102350008D40ACB21D8CA5431D8409B1082909D15B
:1023600000EB6100056825F0700505600568154300
:1023700005600EE00D1FC5F34E052844056825F4E1
:10238000E045056005684FF6FF7606EA022635430C
:10239000056070BD21B1028842F00202028004E0B3
:1023A00002884FF6FD731A400280704721B10288FF
:1023B00042F00402028004E002884FF6FB731A40E8
:1023C0000280704721B1828842F08002828004E05E
:1023D00082884FF67F731A408280704702884FF6DA
:1023E000F7731A40028002880A430280704782888D
:1023F0004FF68F731A40828082880A43828070472A
:1024000002894FF6F8731A40028102890A43028159
:10241000704702894FF67F731A40028102890A438E
:10242000028170478184704781857047818670473B
:102430000187704781877047A0F840107047028875
:102440004FF6FF431A40028002880A430280704719
:102450000146888E70470146088F70470146888F75
:1024600070470146B1F8400070470146888C7047BC
:102470000146088D704702460020138A0B400BB1BD
:10248000012000E000207047CA430282704730B547
:102490000246002000230024158A05EA01039589DD
:1024A00005EA010413B10CB1012000E0002030BDA9
:1024B000CA4302827047000010B50446FB488442BC
:1024C00009D101218803FFF79FF800214FF48040D4
:1024D000FFF79AF832E0F648844209D10121480416
:1024E000FFF79FF800214FF40030FFF79AF825E03E
:1024F000F048844209D101218804FFF792F80021B5
:102500004FF48020FFF78DF818E0EB48844209D1A2
:102510000121C804FFF785F800214FF40020FFF7E0
:1025200080F80BE0E548844208D101210805FFF757
:1025300078F800214FF48010FFF773F810BD2DE9F3
:10254000F04786B005460E460024A24600BFA146CD
:102550000027B08900B100BF2F462C8A4CF6FF70CF
:102560000440F08804432C82AC894EF6F3100440FA
:10257000B08831890843718908430443AC81AC8A2F
:102580004FF6FF400440B0890443AC8201A8FEF737
:10259000B4FFC648874202D1DDF810A001E0DDF8A3
:1025A0000CA0A88900F4004040B10AEBCA0000EB7F
:1025B0000A1031684900B0FBF1F807E00AEBCA00E5
:1025C00000EB0A1031688900B0FBF1F86420B8FB19
:1025D000F0F004012009642101FB1089A88900F4AE
:1025E000004040B1322000EBC900B0FBF1F000F038
:1025F0000700044308E0322000EB09106421B0FB1F
:10260000F1F000F00F0004432C8106B0BDE8F08724
:102610004FF41651016000218180C18001810C219D
:10262000418100218181704710B502460020108A47
:102630004FF2FF0318400B884C8823438C882343B8
:10264000CC8823431843108210BD002101804180B3
:102650008180C180704721B1828942F40052828119
:1026600004E082894DF6FF731A4082817047F0B50D
:102670000346002400260025002040F66A17B942D0
:1026800000D100BF1846C1F3421401F01F06012714
:1026900007FA06F5012C01D10C3004E0022C01D11F
:1026A000103000E014301AB107682F43076002E0D1
:1026B0000768AF430760F0BD1AB1838A0B4383827A
:1026C00002E0838A8B4383827047028A4FF6F0735D
:1026D0001A400282028A0A430282704782894FF2BC
:1026E000FF731A40828182890A438281704721B137
:1026F000828942F00202828104E082894FF6FD73F2
:102700001A4082817047028A4FF6DF731A400282B4
:10271000028A0A430282704721B1028A42F480424F
:10272000028204E0028A4BF6FF731A40028270476D
:10273000C1F308028280704701468888C0F3080010
:102740007047818941F0010181817047028BD2B2CB
:102750000283028B42EA012202837047028B02F459
:102760007F420283028B0A430283704721B1828A2F
:1027700042F02002828204E0828A4FF6DF731A4020
:102780008282704721B1828A42F01002828204E084
:10279000828A4FF6EF731A408282704721B1828A93
:1027A00042F00802828204E0828A4FF6F7731A40F0
:1027B0008282704721B1828942F40042828103E023
:1027C0008289C2F30E028281704721B1828A42F46B
:1027D0000062828204E0828A4FF2FF731A40828292
:1027E0007047828A4FF6FB731A408282828A0A43BC
:1027F0008282704721B1828A42F00202828204E022
:10280000828A4FF6FD731A4082827047024600208A
:10281000B1F5007F00D100BF13880B400BB1012040
:1028200000E00020704701F40072B2F5007F00D193
:1028300000BFCA430280704770B5024600240023DF
:102840000025002040F66A16B14200D100BFC1F356
:10285000421501F01F03012606FA03F3012D02D1F0
:102860009689334006E0022D02D1168A334001E0FA
:10287000968A33400C12012606FA04F41688344076
:1028800013B10CB1012000E0002070BD10B5002292
:10289000002340F66A14A14200D100BF0A120124AD
:1028A0009440A3B2DC43048010BD00000038014016
:1028B0000044004000480040004C004000500040F0
:1028C000F8B500250024F748007810B9F64802F062
:1028D00008FDF548C08800F5FA6086B24FF4C8716B
:1028E00096FBF1F201FB126161B1642196FBF1F2FA
:1028F00001FB126151B1F11706EB91718910A6EB42
:10290000810119B90120E949087002E00020E74976
:102910000870E448007808287EDAE248007821460A
:10292000621CD4B2C9060090080E02233222002194
:1029300002F0CDF8DB4800782146621CD4B2C9060B
:102940000090080E02233022002102F0C0F8D64881
:10295000C0880A2190FBF1F03030C7B2D14800782E
:102960002146621CD4B2C9060090080E02233A46E2
:10297000002102F0ACF8CC48C0880A2190FBF1F2AB
:1029800001FB12003030C7B2C64800782146621CF5
:10299000D4B2C9060090080E02233A46002102F084
:1029A00096F800202146621CD4B2C9060090080E99
:1029B00002232D22002102F08AF8BB4800790A2167
:1029C00090FBF1F03030C7B2B6480078401EC0B27C
:1029D0002146621CD4B2C9060090080E02233A4672
:1029E000002102F074F8B04800790A2190FBF1F25E
:1029F00001FB12003030C7B2AA480078401EC0B2B6
:102A00002146621CD4B2C9060090080E02233A4641
:102A1000002102F05CF800E043E100202146621C46
:102A2000D4B2C9060090080E02232D22002102F024
:102A30004EF89D48C0780A2190FBF1F03030C7B2C3
:102A400098480078801EC0B22146621CD4B2C906E4
:102A50000090080E02233A46002102F038F892480E
:102A6000C0780A2190FBF1F201FB12003030C7B2AE
:102A70008C480078801EC0B22146621CD4B2C906C0
:102A80000090080E02233A46002102F020F8854902
:102A90000978C91ECBB2582101EB0511C8B200223A
:102AA000114602F0B2F880484079082861D2DFE888
:102AB00000F06004111E2B3846537A490978C91E6C
:102AC000CBB2682101EB0511C8B20122002102F04E
:102AD0009CF84EE073490978C91ECBB2682101EB1E
:102AE0000511C8B20222002102F08FF841E06D49C1
:102AF0000978C91ECBB2682101EB0511C8B20322C7
:102B0000002102F082F834E066490978C91ECBB290
:102B1000682101EB0511C8B20422002102F075F80A
:102B200027E060490978C91ECBB2691DCAB2682185
:102B300001EB0511C8B2002102F067F819E059490C
:102B40000978C91ECBB2682101EB0511C8B2062273
:102B5000002102F05AF80CE052490978C91ECBB2A4
:102B6000682101EB0511C8B20722002102F04DF8DF
:102B700000BF00BF00244C4880780A2190FBF1F090
:102B80003030C7B247480078001FC0B22246641CEC
:102B90000090D00002233A46194601F098FF4248BF
:102BA00080780A2190FBF1F201FB12003030C7B2AD
:102BB0003C480078001FC0B22246641C0090D00040
:102BC00002233A46194601F082FF00202246641C87
:102BD0000090D00002233A22194601F078FF3248D3
:102BE00040780A2190FBF1F03030C7B22D480078D0
:102BF000401FC0B22246641C0090D00002233A4617
:102C0000194601F064FF284840780A2190FBF1F250
:102C100001FB12003030C7B222480078401FC0B21A
:102C20002246641C0090D00002233A46194601F067
:102C30004EFF00202246641CD1060090080E02239D
:102C40003A22194601F043FF174800780A2190FB09
:102C5000F1F03030C7B213480078801FC0B222466E
:102C6000641CD1060090080E02233A46194601F072
:102C70002EFF0D4800780A2190FBF1F201FB1200B3
:102C80003030C7B207480078801FC0B22146621CAE
:102C9000D4B2C9060090080E02233A46194601F044
:102CA00016FFF8BD28000020DA08002029000020C7
:102CB00038B5002403F029FDFA480068A0B3F948AC
:102CC0000068F9490988884205DAF6480068F7493A
:102CD0000988884229DCF6480078012825D100209F
:102CE0002146621CD4B2C9060090080E022320229D
:102CF000062101F0ECFE00202146621CD4B2C90678
:102D00000090080E02232022062101F0E0FE0020A0
:102D10002146621CD4B2C9060090080E022320226C
:102D2000062101F0D4FE46E0FFE7DE4800684FF4DC
:102D30007A7190FBF1F201FB1200642190FBF1F03B
:102D40003030C5B200202146621CD4B2C9060090C2
:102D5000080E02232A46062101F0B9FED148006878
:102D6000642190FBF1F201FB12000A2190FBF1F0CB
:102D70003030C5B200202146621CD4B2C906009092
:102D8000080E02232A46062101F0A1FEC54800686C
:102D90000A2190FBF1F201FB12003030C5B2002095
:102DA0002146621CD4B2C9060090080E02232A46AE
:102DB000062101F08CFE0624BE48006870B3BD48B1
:102DC0000068BD490988884228DCB9480078012894
:102DD00024D100202146621CD4B2C9060090080EFE
:102DE00002232022062101F072FE00202146621CEF
:102DF000D4B2C9060090080E02232022062101F059
:102E000066FE00202146621CD4B2C9060090080E5E
:102E100002232022062101F05AFE45E0A548006861
:102E20004FF47A7190FBF1F201FB1200642190FBE8
:102E3000F1F03030C5B200202146621CD4B2C90680
:102E40000090080E02232A46062101F040FE994810
:102E50000068642190FBF1F201FB12000A2190FB53
:102E6000F1F03030C5B200202146621CD4B2C90650
:102E70000090080E02232A46062101F028FE8D4804
:102E800000680A2190FBF1F201FB12003030C5B25C
:102E900000202146621CD4B2C9060090080E02230D
:102EA0002A46062101F013FE38BD38B50A2402F087
:102EB000DDFB824908800846B0F900008049098896
:102EC000884206DD7D48B0F900007E4909888842C5
:102ED00034DB77480078012830D100202146621C7D
:102EE000D4B2C9060090080E02232022194601F030
:102EF000EEFD00202146621CD4B2C9060090080EE7
:102F000002232022194601F0E2FD00202146621C26
:102F1000D4B2C9060090080E02232022194601F0FF
:102F2000D6FD00202146621CD4B2C9060090080ECE
:102F300002232022194601F0CAFD4EE05F48B0F995
:102F40000000642190FBF1F03030C5B20020214632
:102F5000621CD4B2C9060090080E02232A46194604
:102F600001F0B5FD5548B0F90000642190FBF1F285
:102F700001FB12000A2190FBF1F03030C5B20020B5
:102F80002146621CD4B2C9060090080E02232A46CC
:102F9000194601F09CFD00202146621CD4B2C906EE
:102FA0000090080E02232E22194601F090FD43489E
:102FB000B0F900000A2190FBF1F201FB1200303061
:102FC000C5B200202146621CD4B2C9060090080E8A
:102FD00002232A46194601F07AFD38BD0EB53A485B
:102FE0000088ADF8000031480088ADF802002E4896
:102FF0000088ADF8040030480088ADF8060030487D
:103000000088ADF808002F480088ADF80A000622B5
:1030100069462E48FDF73CFD322001F0F0FE0EBD62
:1030200000B585B0062269462848FDF720FDBDF8A9
:10303000000025490880BDF802001C490880BDF841
:10304000040019490880BDF806001B490880BDF836
:1030500008001B490880BDF80A001A49088005B01D
:1030600000BD1CB50522694618482038FDF7FFFC55
:1030700000208DF8050016A1684603F0F5FD68B93B
:10308000052213A111482038FDF702FD322001F07E
:10309000B6FEFFF7A3FF322001F0B1FEFFF7C0FF3D
:1030A0001CBD00005C0000204C0000204A000020F5
:1030B00054000020600000204E0000204800002046
:1030C00052000020500000204600002020F00008A0
:1030D000464459445A00000038B50B240A23FD4ADF
:1030E000FD49FE4802F0B9FCFB480068FC49086055
:1030F000F9480068FB490860F8480068FA49086028
:103100000021F848006803F075FF05D2F548006813
:1031100080F00040F34908600021F348006803F0A4
:1031200069FF05D2F048006880F00040EE49086071
:10313000EC48006803F018FF80B2BE2806DAEA48BF
:10314000006803F011FF80B2BE2803DB0120E749CD
:10315000087008E00020E54908700520E44908707F
:103160000020E44908700021DD48006803F04CFFAE
:1031700028D2E149DA48006803F01FFE05464FF007
:10318000814103F041FF1DD8DC480078012819D1A6
:103190000020DA490870DA4800884EF6602188423B
:1031A00004DAD7480088401CD5490880D5480088F3
:1031B000D3490988884205D0D1480088D149088080
:1031C000FFF70CFF0021C648006803F013FF13D27D
:1031D000C348006880F00040C1490860C649C04843
:1031E000006803F0EAFD05464FF0814103F00CFF53
:1031F00002D80120C1490870C148008842F20F710D
:10320000884274DDBE480088491C90FBF1F03030E4
:10321000C5B200202146621C94B2C9060090080E77
:1032200002232A46062101F052FCB548008842F2EA
:10323000107190FBF1F201FB12004FF47A7190FBD8
:10324000F1F03030C5B200202146621C94B2C906AC
:103250000090080E02232A46062101F038FCA848F7
:1032600000884FF47A7190FBF1F201FB12006421A7
:1032700090FBF1F03030C5B200202146621C94B2C0
:10328000C9060090080E02232A46062101F01FFC01
:103290009B480088642190FBF1F201FB12000A2197
:1032A00090FBF1F03030C5B200202146621C94B290
:1032B000C9060090080E02232A46062101F007FCE9
:1032C0008F4800880A2190FBF1F201FB1200303098
:1032D000C5B200202146621C94B2C9060090080EB7
:1032E00002232A46062101F0F2FB8BE1FFE7844826
:1032F0000088B0F57A7F6CDB00202146621C94B216
:10330000C9060090080E02232022062101F0DFFBEF
:103310007B48008842F2107190FBF1F201FB120031
:103320004FF47A7190FBF1F03030C5B200202146A5
:10333000621C94B2C9060090080E02232A46062198
:1033400001F0C5FB6E4800884FF47A7190FBF1F2F2
:1033500001FB1200642190FBF1F03030C5B2002077
:103360002146621C94B2C9060090080E02232A4628
:10337000062101F0ACFB62480088642190FBF1F269
:1033800001FB12000A2190FBF1F03030C5B20020A1
:103390002146621C94B2C9060090080E02232A46F8
:1033A000062101F094FB564800880A2190FBF1F2B7
:1033B00001FB12003030C5B200202146621C94B2DD
:1033C000C9060090080E02232A46062101F07FFB61
:1033D00018E14B48008863285EDD00202146621C0E
:1033E00094B2C9060090080E02232022062101F0A3
:1033F0006EFB00202146621C94B2C9060090080EA4
:1034000002232022062101F062FB3D4800884FF490
:103410007A7190FBF1F201FB1200642190FBF1F054
:103420003030C5B200202146621C94B2C90600901B
:10343000080E02232A46062101F049FB3048008885
:10344000642190FBF1F201FB12000A2190FBF1F0E4
:103450003030C5B200202146621C94B2C9060090EB
:10346000080E02232A46062101F031FB2448008879
:103470000A2190FBF1F201FB12003030C5B20020AE
:103480002146621C94B2C9060090080E02232A4607
:10349000062101F01CFBB5E01948008809286CDD05
:1034A00000202146621C94B2C9060090080E022337
:1034B0002022062101F00BFB00202146621C94B261
:1034C000C9060090080E02232022062101F0FFFA0F
:1034D0000B4819E034000020300000202C000020B0
:1034E000380000203C000020400000205700002051
:1034F0005800002059000020000020414400002016
:1035000046000020640000200088642190FBF1F256
:1035100001FB12000A2190FBF1F03030C5B200200F
:103520002146621C94B2C9060090080E02232A4666
:10353000062101F0CCFAF84800880A2190FBF1F24C
:1035400001FB12003030C5B200202146621C94B24B
:10355000C9060090080E02232A46062101F0B7FA98
:1035600000202146621C94B2C9060090080E022376
:103570002022062101F0ABFA44E000202146621C23
:1035800094B2C9060090080E02232022062101F001
:103590009EFA00202146621C94B2C9060090080ED3
:1035A00002232022062101F092FADB4800880A213A
:1035B00090FBF1F201FB12003030C5B20020214631
:1035C000621C94B2C9060090080E02232A46062106
:1035D00001F07DFA00202146621C94B2C9060090D9
:1035E000080E02232022062101F071FA0020214654
:1035F000621C94B2C9060090080E02232022062104
:1036000001F065FA38BD38B5C4480078082803D001
:10361000C2480078092879D1C1480088642190FB0C
:10362000F1F03030C4B2BD480078C01FC0B20223F0
:10363000224604210090302001F049FAB848008861
:10364000642190FBF1F201FB12000A2190FBF1F0E2
:103650003030C4B2B1480078C01FC0B20223224645
:1036600004210090382001F032FAAD4800880A2188
:1036700090FBF1F201FB12003030C4B2A748007891
:10368000C01FC0B20223224604210090402001F056
:103690001EFAA4480088642190FBF1F03030C4B2D7
:1036A0009E4800780838C0B20223224606210090C6
:1036B000302001F00CFA9B480088642190FBF1F265
:1036C00001FB12000A2190FBF1F03030C4B29348A4
:1036D00000780838C0B20223224606210090382024
:1036E00001F0F5F98F4800880A2190FBF1F201FB07
:1036F00012003030C4B2894800780838C0B20223C2
:10370000224606210090402001F0E1F9834800782C
:103710000A283CD184480088642190FBF1F03030C5
:10372000C4B27E4800780938C0B202232246042180
:103730000090302001F0CBF97B480088642190FB99
:10374000F1F201FB12000A2190FBF1F03030C4B21B
:10375000724800780938C0B2022322460421009042
:10376000382001F0B4F9704800880A2190FBF1F28A
:1037700001FB12003030C4B2684800780938C0B28A
:103780000223224604210090402001F0A0F9634862
:1037900000780B2803D0614800780C287ED163485C
:1037A0000088642190FBF1F03030C4B25B480078AF
:1037B0000A38C0B20223224604210090302001F0D2
:1037C00086F95A480088642190FBF1F201FB12004F
:1037D0000A2190FBF1F03030C4B2504800780A382A
:1037E000C0B20223224604210090382001F06FF974
:1037F0004A4800780A38C0B202232E2204210090E1
:10380000402001F064F9494800880A2190FBF1F258
:1038100001FB12003030C4B2404800780A38C0B210
:103820000223224604210090482001F050F940482C
:103830000088642190FBF1F03030C4B23748007842
:103840000B38C0B20223224606210090302001F03E
:103850003EF937480088642190FBF1F201FB120029
:103860000A2190FBF1F03030C4B22C4800780B38BC
:10387000C0B20223224606210090382001F027F929
:10388000264800780B38C0B202232E220621009071
:10389000402001F01CF92648008800E011E00A21D0
:1038A00090FBF1F201FB12003030C4B21B480078EB
:1038B0000B38C0B20223224606210090482001F0B6
:1038C00006F938BD38B50025012001F026FB054674
:1038D000012D73D111480078401C1049087008462A
:1038E00000780C2851DD0020087001201149087073
:1038F00001F0D2F800240AE004F11001CAB2210755
:10390000080E0123042101F080F9601CC4B2022CCE
:10391000F2DB00241DE0000046000020280000200B
:103920004A0000204C0000204E00002052000020E1
:10393000500000205A00002004F11201CAB23021C8
:1039400001EB0411C8B20123042101F05EF9601CEF
:10395000C4B2022CF0DB00240CE004F11401CAB262
:103960005F2101EB0411C8B20123042101F04DF9DC
:10397000601CC4B2022CF0DB0221702001F0CAF9F5
:10398000322001F03CFAFFF729FBFE4800780828B6
:1039900041D101F081F800240CE004F11601CAB213
:1039A000202101EB0411C8B20023194601F02DF9C2
:1039B000601CC4B2042CF0DB00240BE09AE004F19C
:1039C0001A01CAB22107080E0023042101F01DF9D3
:1039D000601CC4B2022CF2DB00240AE004F11C01DA
:1039E000CAB22107080E0023062101F00EF9601C5F
:1039F000C4B2022CF2DB002002233A220421009000
:103A0000222001F064F8002002233A2206210090CF
:103A1000222001F05CF8DB4800780A2825D1002438
:103A20000CE004F11E01CAB2202101EB0411C8B25E
:103A30000023194601F0E9F8601CC4B2042CF0DB45
:103A400000240AE004F11A01CAB22107080E00237B
:103A5000042101F0DAF8601CC4B2022CF2DB02236C
:103A6000C9A20621002001F084F8C64800780B287E
:103A70003ED100240CE004F12201CAB2202101EB66
:103A80000411C8B20023194601F0BFF8601CC4B28B
:103A9000042CF0DB00240AE004F11A01CAB2210769
:103AA000080E0023042101F0B0F8601CC4B2022CFF
:103AB000F2DB00240AE004F11C01CAB22107080E5F
:103AC0000023062101F0A1F8601CC4B2022CF2DB35
:103AD000002002233A2204210090222000F0F7FF68
:103AE000002002233A2206210090222000F0EFFF5E
:103AF000FFF789FD022D7DD1A248007801280DD164
:103B0000A648C088401CA549C8800846C0886428CB
:103B100001D10020C880A14801F060FB99480078DD
:103B200002283CD19D480079401C9C4908710846F8
:103B300000790D2801D101200871984800790428E6
:103B40000BD096480079062807D0944800790928B8
:103B500003D0924800790B2807D19048C0781E28DE
:103B60001ADD01208D49C87016E08C4800790228C2
:103B700012D18B480078012807D18848C0781D28C9
:103B80000ADD01208549C87006E08448C0781C28F9
:103B900002DD01208149C870804801F01FFB79488F
:103BA000007803284CD17D48C078401C7B49C87000
:103BB00008460079012817D008460079032813D059
:103BC0000846007905280FD00846007907280BD051
:103BD00008460079082807D0084600790A2803D04B
:103BE000084600790C2809D16C48C078202824D1D7
:103BF000012000E0B8E06949C8701EE0674800791C
:103C0000022813D166480078012807D16348C0789C
:103C10001E2812D101206149C8700EE05F48C078AB
:103C20001D280AD101205D49C87006E05B48C078B4
:103C30001F2802D101205949C870584801F0CEFA16
:103C40005048007804280DD154484079401C53490D
:103C5000487108464079082801D1012048714F4831
:103C600001F0BCFA4748007805280DD14B48807810
:103C7000401C4A49887008468078182801D10020E5
:103C80008870464801F0AAFA3E48007806280DD10F
:103C900042484078401C41494870084640783C28DA
:103CA00001D1002048703D4801F098FA354800786D
:103CB00007280DD139480078401C3849087008465B
:103CC00000783C2801D100200870344801F086FAC1
:103CD0002C48007808280BD13248008832490988DE
:103CE000401A012804DD30480088401C2E49088015
:103CF00024480078092809D12A480088B0F5967F21
:103D000004DA28480088401C264908801D480078AD
:103D10000A2808D125480088C82804DA23480088E2
:103D2000401C22490880174800780B280BD12048F6
:103D3000008820490988401A012804DD1D480088B0
:103D4000401C1C4908800F4800780C280AD11848EC
:103D5000008840F2E731884204DA15480088401CA8
:103D600013490880FFF74FFC032D7DD105480078EB
:103D7000012828D10948C08810B964200749C880A3
:103D8000064819E0280000202020202020202020A4
:103D9000202020202020202000000000DA08002021
:103DA000290000204C0000204A0000204E00002086
:103DB0005000002052000020C088401EFE49C880EC
:103DC000084601F00BFAFD48007802283DD1FA4878
:103DD0000079012802D10D20F7490871F6480079D1
:103DE000401EF54908710846007904280BD00846A2
:103DF0000079062807D008460079092803D008462C
:103E000000790B2807D1EC48C0781E281ADD012064
:103E1000E949C87016E0E8480079022812D1E8485C
:103E20000078012807D1E448C0781D280ADD012068
:103E3000E149C87006E0E048C0781C2802DD012096
:103E4000DD49C870DC4801F0C9F9DC480078032876
:103E500048D1D948C078401ED749C8700846007973
:103E6000012819D0084600E0CEE00079032813D0DD
:103E70000846007905280FD00846007907280BD09E
:103E800008460079082807D0084600790A2803D098
:103E9000084600790C2806D1C748C078F8B91F2019
:103EA000C549C8701BE0C4480079022811D1C44834
:103EB0000078012806D1C048C07880B91D20BE49CD
:103EC000C8700CE0BC48C07848B91C20BA49C8701A
:103ED00005E0B948C07810B91E20B749C870B64887
:103EE00001F07CF9B548007804280ED1B248407939
:103EF000012802D10820B0494871AF484079401EDE
:103F0000AD494871084601F069F9AC4800780528C8
:103F10000DD1A948807810B91820A7498870A64803
:103F20008078401EA4498870084601F057F9A348DC
:103F3000007806280DD1A048407810B93C209E4951
:103F400048709D484078401E9B494870084601F0E3
:103F500045F99A48007807280DD19748007810B99C
:103F60003C209549087094480078401E924908709A
:103F7000084601F033F991480078082808D19148A3
:103F80000088002804DD8F480088401E8D49088085
:103F90008A48007809280BD18B480088894909880C
:103FA000401A012804DD88480088401E86490880A0
:103FB000824800780A2808D184480088002804DD57
:103FC00082480088401E814908807C4800780B2880
:103FD00008D17F480088002804DD7D480088401E05
:103FE0007B490880754800780C280BD179480088F7
:103FF00077490988401A012804DD76480088401E68
:1040000074490880FFF7FFFA042D04D1002072499B
:104010000880FEF7E3FF38BD2DE9FE4F002400269F
:10402000002002906D48006800287DD0142000F028
:10403000E6FE6BA16E4802F017FE002837D068A19B
:104040006B4802F011FE044603E0641C0A2000F0F5
:10405000D6FE20783028F8DB20783928F5DC0025DA
:104060000CE0207802A94855681CC5B2641C207871
:104070000D2800D108E00A2000F0C1FE2078302889
:1040800002DB20783928ECDD00BF002002A948556A
:1040900002A802F0FBFD0646002E08DBB6F5967F6F
:1040A00005DC48490E80FFF7AEFAFEF797FF51A1F5
:1040B0004F4802F0D9FD002839D04EA14C4802F0FB
:1040C000D3FD044603E0641C0A2000F098FE20782B
:1040D0003028F8DB20783928F5DC00250CE0207842
:1040E00002A94855681CC5B2641C20780D2800D16F
:1040F00008E00A2000F083FE2078302802DB2078D8
:104100003928ECDD00BF002002A9485502A802F0C2
:10411000BDFD0646002E0ADBB6F5967F07DC2A4970
:104120000E80FFF770FA00E023E1FEF757FF35A19C
:104130002F4802F099FDA0B332A12D4802F094FD62
:10414000044603E0641C0A2000F059FE20783A2857
:10415000F8D1641C00250CE0207802A94855681CA1
:10416000C5B2641C20780D2800D108E00A2000F0B8
:1041700046FE2078302802DB20783928ECDD00BFAD
:10418000002002A9485502A802F080FD0646002E34
:1041900007DBC82E05DC0D490E80FFF734FAFEF769
:1041A0001DFF1BA1124802F05FFD002879D018A165
:1041B0000F4802F059FD31E0DA0800202800002005
:1041C000290000204A0000204C0000204E00002062
:1041D000520000205000002046000020E40800208B
:1041E00073657448656172744D696E3A0000000031
:1041F0005C0D002073657448656172744D61783A96
:104200000000000073657453706F324D696E3A00A0
:1042100073657454656D704D696E3A00044603E031
:10422000641C0A2000F0EBFD20783028F8DB2078B1
:104230003928F5DC00250CE0207802A94855681CD7
:10424000C5B2641C20782E2800D108E00A2000F0B6
:10425000D6FD2078302802DB20783928ECDD00BF3D
:1042600020782E2800D1641C2078302805DB2078A7
:10427000392802DC207802A94855681CC5B2002004
:1042800002A9485502A802F001FD0646002E08DBEF
:10429000B6F57A7F05DAFE490E80FFF7B4F9FEF72E
:1042A0009DFEFCA1FE4802F0DFFCE8B3F9A1FC484A
:1042B00002F0DAFC044603E0641C0A2000F09FFDD3
:1042C00020783028F8DB20783928F5DC00250CE050
:1042D000207802A94855681CC5B2641C20782E2895
:1042E00000D108E00A2000F08AFD2078302802DBA7
:1042F00020783928ECDD00BF20782E2800D1641CFE
:104300002078302805DB2078392802DC207802A9C3
:104310004855681CC5B2002002A9485502A802F001
:10432000B5FC0646002E00E009E008DBB6F57A7F12
:1043300005DADC490E80FFF766F9FEF74FFEDAA1D9
:10434000D74802F091FC68B10120DA49086050209A
:1043500000F055FD0020D849C1F8A401D7490880D4
:10436000FEF73CFEC821CE4802F073FC0020D44981
:104370000860D448007801285DD10020D149087038
:10438000D148B0F9000002F0C8FD8246CF4902F0E2
:1043900014FD814602F01BFECDE90001CC48026805
:1043A000CC480168CCA003F067F9C4480188D6A0C6
:1043B00003F062F9D748007810B9D7A003F05CF990
:1043C000D7480078012836D10020D5490870C82088
:1043D00000F015FDD3480188D3A003F04DF9D7486C
:1043E0000188D7A003F048F9DA480188DAA003F081
:1043F00043F9A748008802F099FD8246B34902F0CC
:10440000DCFC814602F0E3FD07463A460B46D7A0A6
:1044100003F032F9A348008802F088FD8246AB49D8
:1044200002F0CBFC814602F0D2FD07463A460B462D
:10443000D3A003F021F9BDE8FE8F00F0A3FC4FF4F8
:10444000A060FBF783FF00F019FA00F09BFA00F080
:1044500031FDC82000F0D3FCFEF703FE00F01CFB8A
:1044600001F0E5F8CB4800F0E5FF642000F0C7FC60
:1044700000240AE004F10801CAB22107080E002353
:10448000022100F0C2FB601CC4B2082CF2DB4FF426
:104490007A7000F0B4FC00F0FFFABE4800F021FF93
:1044A00000F0FAFA00240AE004F11001CAB2210770
:1044B000080E0123042100F0A8FB601CC4B2022CEA
:1044C000F2DB00240CE004F11201CAB2302101EB4E
:1044D0000411C8B20123042100F097FB601CC4B290
:1044E000022CF0DB00240CE004F11401CAB25F21BD
:1044F00001EB0411C8B20123042100F086FB601C0B
:10450000C4B2022CF0DB0221702000F003FC01F0A9
:1045100017F94FF4165001F004FB01F018FA02F0FD
:10452000A3F840F2CF21632002F072F879E09A48B4
:10453000007808B9012000E0002097490870FFF7D3
:10454000C1F9FEF7BDF995480078002864D1FEF75F
:10455000ACFCFEF7C1FDFEF7ABFB6E48007800280F
:104560005AD18F480078002856D101208C49087014
:1045700000F092FA00240CE004F14001CAB23021AC
:1045800001EB0411C8B20023022100F03EFB601CC5
:10459000C4B2032CF0DBFFF73FFD4FF47A7000F05C
:1045A0002EFC4FF47A7000F02AFC00F075FA00241B
:1045B0000AE004F11001CAB22107080E0123042108
:1045C00000F023FB601CC4B2022CF2DB00240CE0E0
:1045D00004F11201CAB2302101EB0411C8B2012367
:1045E000042100F012FB601CC4B2022CF0DB00249A
:1045F0000CE004F11401CAB25F2101EB0411C8B24E
:104600000123042100F001FB601CC4B2022CF0DB8A
:104610000221702000F07EFBFFF7FEFC0A2000F074
:10462000EEFB84E710B501218807FDF730FF002875
:104630002CD001218807FDF73BFF5A480088401C19
:104640005849088008460088B0F5487F10DB0020F4
:10465000088001201B4908705348007840B12D485C
:104660000078002804DD2B480078401E2949087096
:104670004E480088401C4D49088008460088642840
:1046800004DB002008802348007891E0D1E000009E
:104690005200002073657454656D704D61783A0066
:1046A0005C0D0020500000207374657073436C65CE
:1046B00061720000A4812142008021424600002056
:1046C000E40800205600002048000020000020419F
:1046D000600000205C0000202448656172747261F3
:1046E00074653A2564232C2453706F323A25642371
:1046F0002C2454656D70657261747572653A253449
:104700002E3166232C0000002453746570733A2503
:10471000642300005800002066616C6C00000000FB
:104720005A0000204A0000202473657448656172B5
:10473000744D696E3A2564232C0000004C00002063
:104740002473657448656172744D61783A256423F9
:104750002C0000004E0000202473657453706F32EB
:104760004D696E3A2564232C0000000024736574A3
:1047700054656D704D696E3A25342E3166232C00D8
:104780002473657454656D704D61783A25342E310B
:1047900066232C00DA0800205400002028000020A6
:1047A000590000206600002057000020680000200B
:1047B00018B901201F4908603BE01F48006858B144
:1047C0001D4800681D49098888421CDA1A4800689B
:1047D0001B490988884216DD1A48006828B1194823
:1047E00000681949098888420DDD1848B0F90000B1
:1047F00017490988884206DA1448B0F900001549BB
:10480000098888420CDC0B480068C0431249C1F893
:10481000A4011248007840F001001049087008E037
:104820000E48007800F0FE000C4908700020014995
:10483000086010BDA48121425C0000204C000020D3
:104840004A000020600000204E00002048000020A8
:10485000500000205200002000802142550000201E
:10486000704700BFFEE700BFFEE700BFFEE700BFE6
:10487000FEE77047704770477047000000B585B08D
:1048800001214805FCF7B3FE01210820FCF7A2FE38
:10489000C020ADF8000003208DF802001C208DF828
:1048A00003006946F748FCF7D7F9F748FCF722FB05
:1048B0000020ADF808004BF6FF70ADF80A0030207C
:1048C000ADF80C004FF48060ADF80E000001ADF8BB
:1048D0001000EE4801900121EB48FCF7A2FB01A972
:1048E000E948FCF720FB05B000BD70B504460D4655
:1048F00000BF4FF40031E448FCF7BAFC0028F8D1BF
:104900000121E148FCF7B1FB00BFE149DE48FCF7BB
:104910008DFC0028F9D000227821DB48FCF7FBFB56
:1049200000BFDC49D848FCF781FC0028F9D02146BB
:10493000D548FCF7EAFB00BFD649891CD248FCF7F2
:1049400075FC0028F8D02946CF48FCF7DEFB00BFF5
:10495000D049891CCC48FCF769FC0028F8D001211B
:10496000C948FCF78EFB70BD10B5044621460020F7
:10497000FFF7BBFF10BD10B5044621464020FFF7EE
:10498000B4FF10BD10B5642000F039FAAE20FFF777
:10499000EBFF2020FFF7E8FF1020FFF7E5FFB02036
:1049A000FFF7E2FFC820FFF7DFFF0020FFF7DCFF83
:1049B0001020FFF7D9FF4020FFF7D6FF8120FFF737
:1049C000D3FFFF20FFF7D0FFA120FFF7CDFFA620E8
:1049D000FFF7CAFFA820FFF7C7FF3F20FFF7C4FF7C
:1049E000A420FFF7C1FFD320FFF7BEFF0020FFF791
:1049F000BBFFD520FFF7B8FFF020FFF7B5FFD920A8
:104A0000FFF7B2FF2220FFF7AFFFDA20FFF7ACFF7E
:104A10001220FFF7A9FFDB20FFF7A6FF2020FFF7FA
:104A2000A3FF8D20FFF7A0FF1420FFF79DFFAF200D
:104A3000FFF79AFF10BD70B504460D4605F1B001B1
:104A4000C8B2FFF791FF102141EA1410FFF78CFF65
:104A500004F00F0141F00100FFF786FF70BD70B553
:104A60000646002415E004F1B001C8B2FFF77CFF50
:104A70000020FFF779FF1020FFF776FF002504E004
:104A80003046FFF778FF681CC5B2802DF8DB601C4C
:104A9000C4B2082CE7DB70BD10B50020FFF7DFFFC4
:104AA00010BD10B58D20FFF75FFF1420FFF75CFFEE
:104AB000AF20FFF759FF10BD10B58D20FFF754FF51
:104AC0001020FFF751FFAE20FFF74EFF10BD2DE97C
:104AD000F04707460E4690469946DDF820A0002490
:104AE0000025A8F12000C4B2B9F1020F3FD1782F00
:104AF00002DD0027701CC6B231463846FFF79BFF27
:104B0000002513E0BAF1010F08D105EB0411624A48
:104B1000515CC943C8B2FFF72EFF05E005EB041155
:104B20005D4A505CFFF727FF681CC5B2082DE9DB22
:104B3000701CC1B23846FFF77EFF002515E0BAF1C0
:104B4000010F09D105EB04110831534A515CC943E7
:104B5000C8B2FFF710FF06E005EB041108314E4A1A
:104B6000505CFFF708FF681CC5B2082DE7DBBDE805
:104B7000F0872DE9F04706460F4690469A460025F5
:104B80000024A146BAF1010F03D0BAF1020F39D1C6
:104B900000E037E031E018F809002038C5B2782E7F
:104BA00002DD0026781CC7B239463046FFF743FFC6
:104BB000002407E004EB0511374A505CFFF7DBFEE9
:104BC000601CC4B2082CF5DB781CC1B23046FFF77C
:104BD00032FF002408E004EB051108312E4A505C36
:104BE000FFF7C9FE601CC4B2082CF4DB06F1080014
:104BF000C6B209F1010000F0FF0918F80900002809
:104C0000C9D100BF00BFBDE8F0872DE9F04781465C
:104C10000F4690461E4600254FEA4814394648463E
:104C2000FFF709FF00BF0FE0012E06D11B49095D08
:104C3000C943C8B2FFF79FFE03E01849085DFFF7BC
:104C40009AFE641C681CC5B2102DEDDB781CC1B245
:104C50004846FFF7F0FE00250FE0012E06D10F4970
:104C6000095DC943C8B2FFF786FE03E00B49085D42
:104C7000FFF781FE641C681CC5B2102DEDDBBDE89A
:104C8000F0870000000C014000540040801A06002C
:104C900001000300820007004A7F00086A0000202C
:104CA0002DE9F05F06460F4690461C46DDF828A029
:104CB0004FF0000BE11704EB5171C910A4EBC101D7
:104CC00031B92046E11704EB5171C1F3C70506E085
:104CD0002046E11704EB5171C910491CCDB23D4685
:104CE00014E029463046FFF7A6FEB1460AE05946D1
:104CF0000BF1010B1AF80100FFF73DFE09F101006D
:104D000000F0FF09C145F2DB681CC5B2A542E8DB33
:104D1000BDE8F09F70B586B006460D460024182207
:104D200012A1684601F07CFF29463046FFF783FE5A
:104D300000BF05E01DF80400FFF71DFE601CC4B2B3
:104D40000C2CF7DB681CC1B23046FFF774FE002460
:104D500007E004F10C011DF80100FFF70CFE601CD8
:104D6000C4B20C2CF5DB06B070BD0000102810C0DA
:104D70002010101020700000000000070810101014
:104D80001008040010B56FF00400FBF72EFB42483A
:104D900000684249B0FBF1F04149087008460078CC
:104DA00000EB4001C1EBC0104FF6FF7101EAC000FB
:104DB0003C49088010BD0146394A12784A434FF0F9
:104DC000E0235A6100229A611A46126942F00102F8
:104DD0001A6100BF4FF0E022106900F001021AB121
:104DE00000F48032002AF5D04FF0E022126922F060
:104DF00001024FF0E0231A6100229A6170470146D8
:104E0000284A12884A434FF0E0235A6100229A61EF
:104E10001A46126942F001021A6100BF4FF0E02207
:104E20001069214A128B92B1204A1268521C1F4B02
:104E30001A601A46126847F230539A4207D9002284
:104E40001A4B1A601A4A1268521C194B1A6000F069
:104E500001021AB100F48032002ADFD0144A12682D
:104E6000B2F5966FDAD84FF0E022126922F0010213
:104E70004FF0E0231A6100229A61704730B5044672
:104E8000002505E04FF47A70FFF7B9FF681CC5B242
:104E9000A542F7D330BD00000000002000127A00C8
:104EA000CC080020CE08002040090020D0080020B7
:104EB000D408002008B501210C20FCF78BFB012150
:104EC0005848FBF79AFF4FF47040ADF800004820B7
:104ED0008DF8030069465448FBF7BEFE4FF480701E
:104EE000ADF8000048208DF8030069464F48FBF7F5
:104EF000B3FE4FF40070ADF8000010208DF80300F1
:104F000003208DF8020069464748FBF7A5FE4FF4E1
:104F100000714548FBF74FFF08BD10B5044674B15A
:104F20004FF480514048FBF72AFF40B14FF4004155
:104F30003D48FBF724FF10B101203D4908703C4873
:104F4000007800284BD04FF480513748FBF717FF0B
:104F5000B8B14FF400513448FBF711FF88B14FF45A
:104F600080413148FBF70BFF58B14FF400412E4808
:104F7000FBF705FF28B14FF480712C48FBF7FFFECB
:104F800068BB4120FFF73BFF0020294908704FF420
:104F900080512548FBF7F3FE08B9012010BD4FF4FE
:104FA00000512148FBF7EBFE08B90220F6E74FF469
:104FB00080411D48FBF7E3FE08B90320EEE74FF4FC
:104FC00000411948FBF7DBFE08B90420E6E74FF47F
:104FD00080711648FBF7D3FE10BB0520DEE74FF4C7
:104FE00080511148FBF7CBFE012819D141030E482F
:104FF000FBF7C5FE012813D181030B48FBF7BFFE69
:1050000001280DD1C1030848FBF7B9FE012807D1DB
:1050100001020648FBF7B3FE012801D104490870DC
:105020000020BBE700023000000C014000080140F6
:10503000D808002008B54FF48040ADF800001020DB
:105040008DF8030003208DF802006946F848FBF74D
:1050500003FE08BD08B54FF48040ADF800004820BD
:105060008DF803006946F248FBF7F6FD08BD08B568
:1050700001211020FCF7AEFA4FF46040ADF80000BB
:1050800010208DF8030003208DF802006946E848DF
:10509000FBF7E2FD4FF46041E548FBF78CFE08BDED
:1050A00070B504460025FFF7C5FF00BF20E04FF4B0
:1050B0000051DF48FBF77FFE04F0010028B14FF4F8
:1050C0008041DB48FBF775FE04E04FF48041D8488F
:1050D000FBF771FE0220FFF76EFE4FF40051D4483B
:1050E000FBF767FE0220FFF766FE6410681CC5B27E
:1050F000082DDCDB70BD70B505460C464FF4004151
:10510000CB48FBF758FE4FF40051C948FBF753FE5C
:105110000520FFF750FE4FF40041C548FBF749FE5C
:105120000520FFF748FE2846FFF7BAFF2046FFF7A5
:10513000B7FF4FF40041BE48FBF73DFE4FF400516E
:10514000BB48FBF738FE70BD70B50646002500244D
:105150004FF40041B648FBF72EFE4FF40051B4481F
:10516000FBF729FE0520FFF726FE4FF40041B0486B
:10517000FBF71FFE0520FFF71EFE3046FFF790FFEE
:10518000FFF768FF00BF1BE04FF40051A848FBF792
:1051900012FE0220FFF70FFE64104FF48041A44876
:1051A000FBF7EDFD012801D144F080044FF40051DC
:1051B0009F48FBF7FEFD0220FFF7FDFD681CC5B20E
:1051C000082DE1DB4FF400519948FBF7F4FD4FF453
:1051D00000419748FBF7EFFD204670BD70B50446CF
:1051E00000218E20FFF787FF20780A2190FBF1F243
:1051F00001FB120120780A2290FBF2F001EB001073
:10520000C5B229468020FFF776FF60780A2190FB1F
:10521000F1F201FB120160780A2290FBF2F001EB3F
:105220000010C5B229468220FFF765FFA0780A2149
:1052300090FBF1F201FB1201A0780A2290FBF2F040
:1052400001EB0010C5B229468420FFF754FFE07837
:105250000A2190FBF1F201FB1201E0780A2290FB97
:10526000F2F001EB0010C5B229468620FFF743FF9C
:1052700020790A2190FBF1F201FB120120790A2228
:1052800090FBF2F001EB0010C5B229468820FFF731
:1052900032FF60790A2190FBF1F201FB1201607983
:1052A0000A2290FBF2F001EB0010C5B229468A20D9
:1052B000FFF721FFE0880A2190FBF1F201FB1201C8
:1052C000E0880A2290FBF2F001EB0010C5B22946FB
:1052D0008C20FFF710FF80218E20FFF70CFF0020AD
:1052E00070BD2DE9F04104468120FFF72DFF0546F2
:1052F000C01705EB10700011A5EB00178120FFF718
:1053000023FF0646C01706EB1070001100EB80006B
:1053100007EB400020708320FFF716FF0546C017FB
:1053200005EB10700011A5EB00178320FFF70CFFB1
:105330000646C01706EB1070001100EB800007EB6B
:10534000400060708520FFF7FFFE0546C01705EBA3
:1053500010700011A5EB00178520FFF7F5FE06463B
:10536000C01706EB1070001100EB800007EB400047
:10537000A0708720FFF7E8FE0546C01705EB107008
:105380000011A5EB00178720FFF7DEFE0646C017C9
:1053900006EB1070001100EB800007EB4000E0709E
:1053A0008920FFF7D1FE0546C01705EB10700011EC
:1053B000A5EB00178920FFF7C7FE0646C01706EBCE
:1053C0001070001100EB800007EB400020718B2073
:1053D000FFF7BAFE0546C01705EB10700011A5EBEC
:1053E00000178B20FFF7B0FE0646C01706EB1070C3
:1053F000001100EB800007EB400060718D20FFF78B
:10540000A3FE0546C01705EB10700011A5EB0017B1
:105410008D20FFF799FE0646C01706EB10700011AD
:1054200000EB800007EB4000E0800020BDE8F08149
:10543000001001402DE9F0410646FFF718FEC1209B
:10544000FFF782FE0446C01704EB10700011A4EBB6
:105450000017C120FFF778FE0546C01705EB107056
:10546000001100EB800007EB4000012802D1002072
:10547000BDE8F08100218E20FFF73DFE0121C02014
:10548000FFF739FE80218E20FFF735FE3046FFF70B
:10549000A5FE0020ECE7000010B59648006820F457
:1054A0007040944908600846006840F44050086025
:1054B00000209149086040F2EE20FFF77CFC0120BB
:1054C0008E49C1F8AC010F20FFF775FC10BD10B577
:1054D00000248848006820F4704086490860084627
:1054E000006840F40040086004E0601CC4B2012081
:1054F000FFF761FC80488038006808B1C82CF4DBF5
:10550000C82C01DB012010BD002404E0601CC4B2E3
:105510000120FFF750FC78488038006808B9F02C6B
:10552000F4DBF02C01DB0120EDE70020EBE710B508
:105530007048006820F470406E49086008460068B2
:1055400040F44050086000206B4908600220FFF7DB
:1055500032FC01206949C1F8AC016648006820F4BA
:105560007040644908600846006840F400400860E4
:105570000C20FFF720FC60488038006808B1012447
:1055800000E000243220FFF716FC204610BD70B565
:105590000026012508E0FFF7CAFF0446E00140EAC3
:1055A0006600C6B2681CC5B2082DF4DD304670BD79
:1055B00070B504464F48006820F470404D490860BB
:1055C0000846006840F440500860012520E004F0DF
:1055D000010664106EB10020474908600220FFF701
:1055E000EAFB01204549C1F8AC013C20FFF7E3FB91
:1055F0000CE00020404908603C20FFF7DCFB012064
:105600003E49C1F8AC010220FFF7D5FB681CC5B2CA
:10561000082DDCDD70BD10B5FFF73EFFFFF757FF2B
:10562000CC20FFF7C5FF4420FFF7C2FF10BD08B52F
:1056300001210420FBF7CEFF4FF40060ADF800001D
:1056400010208DF8030003208DF8020069462948D8
:10565000001FFBF701FB4FF400612648001FFBF71A
:10566000A8FBFFF719FFFFF732FF08BD2DE9F84F40
:10567000FFF7D1FFFFF710FFFFF729FFCC20FFF75F
:1056800097FFBE20FFF794FFFFF781FF8346FFF7E8
:105690007EFF0446072C08DDE043C4B26FEA0B002E
:1056A00000F0FF0B4FF0000A01E04FF0010AA146A5
:1056B0004FEA09200FFA80F909EB0B000FFA80F985
:1056C000484601F02AFC009001F081FC07460022C8
:1056D0000B4B01F0B0FB054601F05AFC0FFA80F9C4
:1056E000BAF1000F02D04846BDE8F88FC9F10000BA
:1056F00000B2F9E704080140AC0121420000214258
:105700000000E43F08B58020ADF8000003208DF8CC
:10571000020010208DF8030069467E48FBF79CFAD2
:1057200008BD08B58020ADF8000003208DF8020008
:1057300048208DF8030069467648FBF78DFA08BDCE
:1057400008B501210420FBF745FFC020ADF800009B
:1057500010208DF8030003208DF8020069466D4883
:10576000FBF77AFAC0216B48FBF723FB08BD10B5A5
:10577000FFF7C8FF0120684908606849C1F898012F
:105780000520FFF718FB0020634908600520FFF79C
:1057900012FB00206149C1F8980110BD10B5FFF758
:1057A000B1FF00205C49091F08605C49C1F89C01F9
:1057B0000520FFF700FB01205749091F08605749E2
:1057C000C1F89C010520FFF7F6FA10BD10B50020C6
:1057D0005149091F0860FFF795FF00204F49C1F8A4
:1057E0009C010220FFF7E7FA01204B49091F0860DE
:1057F0000520FFF7E0FA00204849C1F8980110BDE4
:1058000010B500204449091F0860FFF77BFF012005
:105810004249C1F89C010220FFF7CDFA01203E4920
:10582000091F08600220FFF7C6FA00203B49C1F8B3
:10583000980110BD10B50024FFF773FF0120364911
:105840000860FFF7B8FA01203449C1F89801FFF762
:10585000B2FA07E0601CC4B2FA2C03DDFFF79EFF2A
:10586000012010BD2C48803800680028F2D12A4958
:10587000091F086000BFF4E770B504460025FFF774
:1058800041FF00202449091F086000BF14E0E0091F
:10589000214908606006040E01202049C1F89801E2
:1058A0000220FFF788FA00201B49091F0860022028
:1058B000FFF781FA681CC5B2082DE8DB70BD70B532
:1058C000054600260024FFF72CFF00BF17E000204C
:1058D0001149091F08600220FFF76DFA01200F49E6
:1058E000C1F898016006040E0B488038006808B1C2
:1058F000601CC4B20120FFF75EFA701CC6B2082E0D
:10590000E5DB15B9FFF77CFF01E0FFF75FFF2046FD
:1059100070BD0000000801409C01214200002142AE
:1059200070B505460C46FFF722FFA620FFF7A4FF3F
:10593000FFF780FF2846FFF79FFFFFF77BFF20461A
:10594000FFF79AFFFFF776FFFFF728FF70BD10B54E
:105950000B213120FFF7E4FF0B212C20FFF7E0FFA4
:1059600008212D20FFF7DCFF80212E20FFF7D8FF34
:1059700000211E20FFF7D4FF00211F20FFF7D0FFDA
:1059800005212020FFF7CCFF10BD70B5044600258F
:10599000FFF7EDFEA620FFF76FFFFFF74BFF054671
:1059A0002046FFF769FFFFF745FF0546FFF7DFFEDB
:1059B000A720FFF761FFFFF73DFF05460020FFF737
:1059C0007EFF0546FFF7EAFE284670BD2DE9FC4143
:1059D00005460E461746FFF7CAFEA620FFF74CFF06
:1059E000FFF728FF3220FFF747FFFFF723FFFFF7FE
:1059F000BEFEA720FFF740FFFFF71CFF00240EE0CC
:105A0000052C05D10020FFF75AFF0DF8040004E033
:105A10000120FFF754FF0DF80400601CC4B2062CEF
:105A2000EEDBFFF7BBFE9DF800009DF8011000EBD8
:105A3000012000B228809DF802009DF8031000EBC1
:105A4000012000B230809DF804009DF8051000EBA5
:105A5000012000B23880BDE8FC812DE9FE430446F8
:105A60000D4616461F460020206028603060002F3B
:105A700045D0804626E06A4601A902A8FFF7A6FFA6
:105A8000BDF9080001F049FA8146216801F00BF9DF
:105A90002060BDF9040001F040FA8146296801F058
:105AA00002F92860BDF9000001F037FA814631683B
:105AB00001F0F9F830600520FFF7A1F908F10100C5
:105AC00000F0FF08B845D6DB384601F02FFA8146D2
:105AD0004946206801F071F92060384601F026FA45
