:020000040800F2
:1000000088190020C9010008C70F0008950D0008D5
:10001000C50F0008CF0200085D10000800000000B6
:10002000000000000000000000000000F70F0008C2
:10003000D102000800000000C90F0008F90F0008F5
:10004000E3010008E3010008E3010008E301000800
:10005000E3010008E3010008E3010008E3010008F0
:10006000E3010008E3010008E3010008E3010008E0
:10007000E3010008E3010008E3010008E3010008D0
:10008000E3010008E3010008E3010008E3010008C0
:10009000E3010008E3010008E3010008E3010008B0
:1000A000E3010008E3010008E3010008E3010008A0
:1000B000E3010008E3010008E3010008E301000890
:1000C000E3010008E3010008E3010008CD0F000888
:1000D000E3010008E3010008E3010008E301000870
:1000E000E3010008E3010008E301000800F002F862
:1000F00000F05AF80AA090E8000C82448344AAF168
:100100000107DA4501D100F04FF8AFF2090EBAE865
:100110000F0013F0010F18BFFB1A43F0010318473B
:1001200000110000201100000A444FF0000C10F8EC
:10013000013B13F0070408BF10F8014B1D1108BF65
:1001400010F8015B641E05D010F8016B641E01F805
:10015000016BF9D113F0080F1EBF10F8014BAD1C55
:100160000C1B09D16D1E58BF01F801CBFAD505E073
:1001700014F8016B01F8016B6D1EF9D59142D6D3CD
:10018000704700000023002400250026103A28BFF5
:1001900078C1FBD8520728BF30C148BF0B607047F9
:1001A0001FB51FBD10B510BD00F058F81146FFF780
:1001B000F7FF00F0B1FF00F076F803B4FFF7F2FFAD
:1001C00003BC00F07DF8000009488047094800475B
:1001D000FEE7FEE7FEE7FEE7FEE7FEE7FEE7FEE7F7
:1001E000FEE7FEE704480549054A064B7047000054
:1001F0005B100008ED00000888130020881900201B
:1002000088150020881500204FF0000200B5134625
:1002100094469646203922BFA0E80C50A0E80C5026
:10022000B1F12001BFF4F7AF090728BFA0E80C50D7
:1002300048BF0CC05DF804EB890028BF40F8042BD0
:1002400008BF704748BF20F8022B11F0804F18BF3D
:1002500000F8012B7047704770477047754600F0F3
:100260002BF8AE4605006946534620F00700854648
:1002700018B020B5FFF7B6FFBDE820404FF00006EC
:100280004FF000074FF000084FF0000B21F007017E
:10029000AC46ACE8C009ACE8C009ACE8C009ACE8C1
:1002A000C0098D46704710B50446AFF30080204664
:1002B000BDE81040FFF781BF0048704728130020B9
:1002C00001491820ABBEFEE7260002007047FEE79A
:1002D000704772B6FEE7000010B590F821100024B8
:1002E000022903D00421816301243DE001680A68EA
:1002F00022F00E020A6001680A6822F001020A6018
:100300001A4A0168914201D1012121E0174A1432B1
:10031000914201D110211BE0144A2832914201D1AF
:10032000891515E0114A3C32914201D189140FE040
:100330000E4A5032914202D14FF4803108E00B4A0C
:100340006432914202D14FF4801101E04FF080718C
:10035000064A083A5160012180F82110002180F8F6
:100360002010416B01B18847204610BD08000240B3
:1003700070B5044600F004F90546601C02D004483C
:100380000078044400F0FCF8401BA042FAD370BD92
:10039000C01200202DE9F84FDFF8B8910024A9F130
:1003A000040B23460F2709F1040AABF1040EC9E040
:1003B0000125A5402A40AA427DD1674ED1F804C04C
:1003C000ACEB0608B44532D014DCBCF1030F3AD0D4
:1003D00009DCBCF1000F2AD0BCF1010F1CD0BCF12C
:1003E000020F31D11DE0BCF1110F17D0BCF1120F7B
:1003F0002AD119E0B8F5881F19D006DCB8F5803F7E
:1004000015D0B8F5801F1FD111E0B8F5001F0ED030
:10041000B8F5041F18D10AE0CB6815E0CB681B1DA6
:1004200012E0CB6808330FE0CB680C330CE08B682C
:100430002BB1012B4FF0080303D0456104E00423E6
:1004400002E0056100E00023FF2A01D8064601E032
:1004500000F104064FEA840501D9A5F12005D6F87C
:10046000008007FA05FC28EA0C0803FA05F548EABB
:100470000508C6F800804D68ED0062D5374DAE69BD
:1004800046F00106AE61AD6924F0030605F00105F2
:100490000095334D06EB050CDCF80850A607360F27
:1004A00007FA06F825EA0805DFF8B880404503D1C9
:1004B0004FF0000817E044E0DFF8AC80404502D17F
:1004C0004FF001080FE0DFF8A480404502D14FF063
:1004D000020808E0DFF89880404502D14FF0030899
:1004E00001E04FF0040808FA06F848EA0508CCF8DD
:1004F00008804D68D9F80060ED024D4601D51643DD
:1005000000E096432E604D68DAF80060AD02554673
:1005100001D5164300E096432E604D68DBF800607D
:10052000AD035D4601D5164300E096432E604D684D
:10053000DEF80060ED03754601D5164300E09643F2
:100540002E60641C0D682A46E5407FF431AFBDE89B
:10055000F88F000008040140000011100010024054
:100560000000014000080140000C01400010014063
:10057000001401400AB1016170470904FBE7000063
:100580000148806870470000C0120020024881685E
:100590000278114481607047C0120020074810B5EE
:1005A000016841F010010160032000F075F80F2090
:1005B00000F006F800F024F8002010BD00200240F2
:1005C00070B50D4D04464FF47A712878B1FBF0F008
:1005D0000A490968B1FBF0F000F0C8FB48B9102CDB
:1005E00007D200222146501E00F036F800206C6031
:1005F00070BD012070BD0000C0120020CC12002090
:100600000C4808B5816941F001018161816901F0FF
:1006100001010091C16941F08051C161C06900F0E0
:10062000805000900448416821F0E06141F0007181
:10063000416008BD0010024000000140002809DBB5
:1006400000F01F02012191404009800000F1E020EC
:10065000C0F8001170470000F0B40E4B1B680C4648
:10066000C3F30223C3F10705042D00D90425191D86
:10067000072901D2002300E0DB1E012606FA05F15E
:10068000491E214099409E40761E16403143F0BCE1
:1006900000F0E5BC0CED00E0064900F00702086838
:1006A0004FF6FF03184040EA0220034A1043086057
:1006B000704700000CED00E00000FA052DE9F0475E
:1006C0000F46050061D0434E306800F00700B84285
:1006D00009D2306820F0070038433060306800F0FD
:1006E0000700B84251D128683B4C810712D540071A
:1006F00003D5606840F4E06060602878000703D5A7
:10070000606840F4605060606068A96820F0F000A4
:10071000084360602878C00728D06868012810D096
:100720002168022810D0890700292EDA616821F09B
:10073000030101436160FFF723FF804641F28839DE
:100740000DE021688903EFE78901EDE7FFF718FF66
:10075000A0EB0801494502D90320BDE8F087606895
:10076000696800F00C00B0EB810FEFD1306800F049
:100770000700B8420BD9306820F0070038433060DA
:10078000306800F00700B84201D00120E5E7287882
:10079000400705D56068E96820F4E06008436060C0
:1007A0002878000706D56068296920F4605040EA7F
:1007B000C100606000F018F86168084AC1F30311D5
:1007C000515CC8400649086006480068FFF7F8FE1B
:1007D0000020C2E700200240001002401012000872
:1007E000CC120020C41200200E4A51680E4801F0BD
:1007F0000C03042B11D0082B0FD10C48C1F38343F9
:10080000C903C05C0AD55168084AC1F34041921E31
:10081000515C054A5043B0FBF1F07047044948432E
:10082000704700000010024000127A000012000819
:1008300000093D002DE9F84F040070D02078C04D2C
:10084000C00749D06868C0F38100012807D06868F4
:10085000C0F38100022809D16868C00306D5286862
:10086000800339D560680028E7D035E06068B0F5CE
:10087000803F0BD010B1B0F5A02F11D0286820F424
:1008800080302860286820F4802002E0286840F446
:1008900080302860606890B1FFF772FE06460AE07B
:1008A000286840F480202860F0E700BFFFF768FE6A
:1008B000801B642873D828688003F7D50CE0FFF705
:1008C0005FFE064605E000BFFFF75AFE801B642866
:1008D000F0D828688003F7D420789A4E80074FF02C
:1008E00001094FF0000839D5686810F00C0F07D0E7
:1008F0006868C0F38100022809D16868C00306D483
:100900002868800714D52069012808D110E02069E3
:10091000B0B1C6F80090FFF733FE074605E00AE1E4
:10092000FFF72EFEC01B0228C4D828688007F7D521
:100930002868616920F0F80040EAC10028600DE0F5
:10094000C6F80080FFF71CFE074604E0FFF718FE1C
:10095000C01B022823D828688007F7D42078000716
:100960002CD57948A169D9B1C0F80090FFF708FEED
:10097000074604E0FFF704FEC01B02280FD8686A90
:100980008007F7D571484FF4FA510068B0FBF1F0D9
:10099000009000BF0098411E0091FAD20EE080E066
:1009A000C0F80080FFF7ECFD074604E0FFF7E8FD24
:1009B000C01B022875D8686A8007F7D420784007E2
:1009C00060D5E8690027C00008D4E86940F080508D
:1009D000E861E869012700F0805000905C480168F8
:1009E000C90513D40168834641F480710160FFF7A3
:1009F000C7FD824606E000BFFFF7C2FDA0EB0A007C
:100A000064284ED8DBF80000C005F5D5E068012861
:100A10000AD008B1052813D0286A20F00100286206
:100A2000286A20F0040002E0286A40F001002862F1
:100A3000E06841F2883B98B1FFF7A2FD82460BE0E7
:100A4000286A40F004002862EEE700BFFFF798FD37
:100A5000A0EB0A0159455AD8286A8007F6D50CE060
:100A6000FFF78EFD824605E0FFF78AFDA0EB0A0145
:100A700059454CD8286A8007F6D41FB1E86920F0A0
:100A80008050E861E06988B36968C1F38101022997
:100A900044D00228C6F8608004D0FFF771FD0446F8
:100AA00038E034E0FFF76CFD074604E0FFF768FD2F
:100AB000C01B02282BD828688001F7D4206AB0F523
:100AC000803F05D16868A16820F400300843686061
:100AD000D4E908010843696821F474110843686087
:100AE000C6F86090FFF74CFD044606E025E000BF25
:100AF000FFF746FD001B022809D828688001F7D5BA
:100B00001BE000BFFFF73CFD001B022802D90320B9
:100B1000BDE8F88F28688001F4D40EE00128F7D0F2
:100B20006868226A00F48031914204D1616A00F45D
:100B30007010884201D00120EAE70020E8E70000B9
:100B4000001002400000424280044242CC120020C9
:100B5000007000407047000038B5044600684268E5
:100B60008168C9434B0606D5CB0704D1D3435B0646
:100B700001D4216C05E08B0708D4D3431B0605D4B0
:100B8000616C01B02046BDE8304008478B0601D5B6
:100B90004B0646D4D3439B0643D44B060AD494F861
:100BA0005130032B3ED0636D43F004036365C3688B
:100BB00083680093890609D4616D41F00101616584
:100BC00081680091016821F040010160606D00289A
:100BD00027D02068416821F0E0014160012084F8BD
:100BE0005100900722D02068416821F00301416044
:100BF000104DE06C40B14563E06CFFF76DFB18B140
:100C0000606D40F040006065A06C002809D045632D
:100C1000A06CFFF761FB002803D0606D40F040003E
:100C2000606538BDC1688068009038BD2046FFF718
:100C300091FF38BDD90F000870B5040009D0606A73
:100C4000002540B125616561A56294F8510040B16D
:100C50000CE0012070BD6068B0F5827FF4D0E561E2
:100C6000F2E784F85050204600F040F8022084F863
:100C700051002068016821F040010160A0882189AD
:100C800000F4827001F404410843A18901F4006179
:100C90000843217C01F002010843217D01F001019C
:100CA0000843218B01F400710843217F01F03801D2
:100CB000084394F8201001F080010843218D01F4CD
:100CC0000051084321680860A069042101EA10402E
:100CD000216848602068C16921F40061C1616565CF
:100CE000012084F85100002070BD000030B585B0AF
:100CF00000240094019402940394006818498842E7
:100D00002BD11848816941F480518161816901F4D6
:100D100080510491816941F0040181618069124D23
:100D200000F004000490A020009002200190032015
:100D3000039069462846FFF72DFB4020CDE90004CB
:100D4000694628460294FFF725FB0022114623201E
:100D5000FFF782FC2320FFF771FC05B030BD0000D7
:100D600000300140001002400008014010B5401E54
:100D7000B0F1807F01D3012010BD4FF0E02460610D
:100D80000F21601700F06BF90020A061072020619F
:100D9000002010BDFEE730B50021A023F022084658
:100DA00000F08DF92C2000F095F800240025002299
:100DB0001146104600F0DAF96D1C142DF7DB641CA7
:100DC000A02CF3DB30BD000010B500F05FF811205F
:100DD00000F080F8C02000F07DF8F12000F068F805
:100DE000002000F065F8C32000F074F8022000F045
:100DF0005FF8C42000F06EF8072000F059F8D0200A
:100E000000F068F81D2000F053F8B52000F062F8FB
:100E1000002000F04DF8382000F05CF83A2000F097
:100E200059F8022000F044F8362000F053F8002072
:100E300000F03EF8B02000F04DF89F2000F038F8A8
:100E4000202000F047F8F12000F044F8152000F0D1
:100E50002FF8152000F02CF8152000F029F81520A7
:100E600000F026F8B12000F035F8002000F020F85E
:100E7000292000F02FF804490120C1F89801BDE8AD
:100E80001040FFF788BF00000080214210B50748DE
:100E90004FF4807404606420FFF76AFA0348001F6F
:100EA0000460BDE810403220FFF762BA140C014024
:100EB000064900B54FF400730B6001460122044857
:100EC00000F092F80148001F036000BD140C0140BF
:100ED00000300140064900B54FF400730B60014635
:100EE0000022044800F080F80148001F036000BDA4
:100EF000140C01400030014070B586B000241C483D
:100F00000094019402940394816941F0100181617D
:100F1000816901F010010491816941F02001816132
:100F2000816901F020010491816941F0040181612E
:100F3000816901F004010491816941F00801816136
:100F400080690C4E00F008004FF470750490002288
:100F500029463046FFF70EFB01200095CDE901043C
:100F60000320039069463046FFF714FA06B070BDBF
:100F700000100240000C0140114810B50F490160FB
:100F80004FF48271416000214FF40062C0E9021207
:100F900002220261012242615202C0E9062101627D
:100FA000416281620721C162FFF746FE002803D03B
:100FB000BDE81040FFF78DB910BD000000300140C2
:100FC000D0120020FEE7FEE7704700000148FFF75F
:100FD000C3BD0000D012002010B5406A0021C187B7
:100FE000C186FFF7B7FD10BDD20342EAC111C1604F
:100FF000C068C0B270477047FFF7C8BA30B58FB04D
:1010000028216846FFF700F914210AA8FFF7FCF829
:1010100001210804CDE90010002402940225049166
:10102000CDE907504FF4E01009906846FFF702FC45
:1010300008B172B6FEE70F20CDE90A054FF48060D3
:10104000CDE90C4002210AA80E94FFF737FB0028D7
:1010500001D072B6FEE70FB030BD7047FEE709075A
:10106000090E002804DB00F1E02080F8001470472E
:1010700000F00F0000F1E02080F8141D7047000020
:1010800070B504460021A023F022084600F017F8AE
:101090002C20FFF71FFF00265FF0000514F8010B5E
:1010A00014F8011B14F8012B00F077F86D1CADB299
:1010B0000A2DF3D3761CB6B2A02EEDD370BDF0B5D9
:1010C00005460320521E92FBF0F0284487B2C81850
:1010D000401E86B20C462A20FFF7FCFE280AFFF7C6
:1010E000E7FEE8B2FFF7E4FE380AFFF7E1FEF8B2E8
:1010F000FFF7DEFE2B20FFF7EDFE200AFFF7D8FEFC
:10110000E0B2FFF7D5FE300AFFF7D2FEF0B2BDE83D
:10111000F040FFF7CDBE0000FFF740FAFFF76EFF8B
:10112000FFF7EAFEFFF728FFFFF74EFE4FF47A7451
:101130000348FFF7A5FF2046FFF71AF9F8E700007C
:101140000000002010B50C4600F04CF86006BDE829
:101150001040000E00F02BB810B50C46FFF7F2FF60
:101160002007BDE81040000E00F021B830B514464D
:101170000D46FFF7F1FFE80140EA5400BDE83040BA
:10118000C0B200F014B810B51446FFF7EFFFA00688
:10119000BDE81040000E00F00AB810B51446FFF785
:1011A000F2FF6007BDE81040000EAFF3008001467B
:1011B00000200A0600D5E0204906090E0A0601D5DE
:1011C0001C30C0B2490601D5C01CC0B2FFF770BECA
:1011D00010B50446FFF7EBFFE006BDE81040000E37
:1011E000FFF7E5BF30B50C460546FFF7F1FFA80154
:1011F00040EA9400BDE83040C0B2FFF7D8BF01021A
:1012000002030405060708090A0B0C0D0E0F101047
:1012100000000000000000000102030406070809A6
:101220004012000800000020D01200002801000831
:1012300000160008D0120020B80600008401000843
:1012400001FF01FF01FF01C9337F8092060A1103EC
:101250001E227F9A020FD91E22FF1E0707FFFFFEE4
:101260000A09111E19053B0FC71E09123C19051B5F
:101270001FE71E3B1FFF2309111E1AF7191A3F1EF5
:101280001966B91E39142A0F37D91E394B2A7F1413
:101290000A1B871E0D1883F878011E0E1781F1F8BE
:1012A00001FC1E2B80E31E19A30A127F1E0B158C56
:1012B000031E1112FEFF1FE01E03FC031E15C07F5C
:1012C00080FE12FF2D3FC03F811ED978791E0E137C
:1012D0007FC1FC03F81E127F10087F807FE1FE07AC
:1012E000F81983195DD91E0E16807F803FF01E0805
:1012F0000A143F80FF801FF8FF0FF01E13C0FF2B62
:1013000007F01E119A0177691E13E1FF2603E07FA3
:101310009FE0FB07FE1E141FE3FE3B01C01EAB1F38
:10132000F81E19C212FE240FF3FC1CC03FFF1E1A48
:101330003F5EE91E13FFFC12031C3FFFC01E190491
:10134000D91E1C07FFF8781C1FFF80B3A9B5491EE2
:101350001403FFF00B1A03F81E2D07F00FFFEF091F
:10136000101E1A01900C1007F0071E39D23A031E06
:101370000B140FFE1E29962A0F962A3F1E99B43988
:101380001E2A1FD60A10E0D2211A7F4919511D804A
:101390000FE0FF9C09111E1A014F0F12F01FC1FF31
:1013A000FFFC1E38080FFFF3FFFE1FC77309101E56
:1013B000280A7FFFE1FFFF9FDFFF9F9709111E10A3
:1013C00009807FFF3FBFFE0FFF09111E1B3FFE0379
:1013D0001E3F9FFC03FFBE89EE591E1A1FEE2EFE14
:1013E0007F9FF001DCF91E130FE01C01FC7F061A41
:1013F0007C1EE1291E193015780F0780121CFB1F77
:10140000FE1E520402FF0201FF01B0827EC2032AC7
:101410001C1A1A0E0412605206B33F80271F3FFFAA
:10142000C07E3F18087FF003FEFFFFFC09A91E1BCA
:101430003FBF1E1A7F151BF8FF01291EB2C01E7F79
:10144000FFFFDF7E303B7FFC1E2A1F06993C291ED2
:10145000133FC01A7E5809101E190F0C16DF7E1F8D
:101460001E1C0FFE071E12E0EF7E787FF8FE011EA5
:101470001B07BE1E2A0F140B1077F01E1B033E5ACB
:101480002A07146A071EB2FE391E199C591EA9D0DC
:10149000212A181E29BA191E2996A5DFFFFFF87AFE
:1014A0003C1E49B4191EA2FC2A7E1E1AFF14091301
:1014B0001E2BFFBE1E12C0127F09131E0A1AFE1E2B
:1014C0009A7F1E31D9963A3F1E1914112B0FF01E28
:1014D0002CC1F81F08712A1F783A7F1EA00AF1FF5D
:1014E000FFFE1FC3FE7FE02A07B42950114A1F1ECA
:1014F000A4FFFF808A021E2AF91E3AC07F91891E2E
:1015000019B4191E9A7FB3116B0C3F1E3A3F1E2966
:10151000D8A12B0FBF1E14C1FC3F3D7FFF80FC41B3
:10152000A91E7BFFF71E0A18C01E1A80ADF91E9A6D
:101530001F1EECFFFFFC1E180CDFF01F7E1FDDFCE2
:101540003FBCFFFE1E1B3FBF9B991E1BC3FC1E1A08
:10155000FD172B7FF01EAC8007F01EEB87FE1E9957
:10156000F12C3F87FF1E5DFFFFBF771EAAF11E1DF6
:101570008FFF807E8C15DFFF77F012FC291E9AF812
:101580001E3D9FDFC0FE1E2A271E127FC91E4C3F34
:10159000DFFF1E1B07F7CD127FA40FF0104C7FFF5B
:1015A0008F1E3AFE1EB5FF07FFF01A7F100E14FCC7
:1015B0003FFFFFCF1E48097E03CFFC1F9FF80F1E81
:1015C000B57E03FFE010087E3C038FF80F1E3B073B
:1015D000FC1EB53E03FFC01B1E1C882206000C1417
:1015E00003F807F3FFFFFE1C03FF802BE0077102E7
:1015F000FF0C01FF01FF01193201821013127A0062
:04000005080000ED02
:00000001FF
