:020000040800F2
:1000000010280020290A00083102000833020008E5
:10001000370200083B0200083F0200080000000011
:100020000000000000000000000000004302000883
:1000300045020008000000004702000849020008CD
:100040003F0A00083F0A00083F0A00083F0A00086C
:100050003F0A00083F0A00083F0A00083F0A00085C
:100060003F0A00083F0A00083F0A00083F0A00084C
:100070003F0A00083F0A00083F0A00083F0A00083C
:100080003F0A00083F0A00083F0A00083F0A00082C
:100090003F0A00083F0A00083F0A00083F0A00081C
:1000A0003F0A00083F0A00083F0A00083F0A00080C
:1000B0003F0A00083F0A00083F0A00083F0A0008FC
:1000C0003F0A00083F0A00083F0A00083F0A0008EC
:1000D0003F0A00083F0A00083F0A00083F0A0008DC
:1000E0003F0A00083F0A00083F0A000800F002F833
:1000F00000F05AF80AA090E8000C82448344AAF168
:100100000107DA4501D100F04FF8AFF2090EBAE865
:100110000F0013F0010F18BFFB1A43F0010318473B
:100120004C1500006C1500000A444FF0000C10F84C
:10013000013B13F0070408BF10F8014B1D1108BF65
:1001400010F8015B641E05D010F8016B641E01F805
:10015000016BF9D113F0080F1EBF10F8014BAD1C55
:100160000C1B09D16D1E58BF01F801CBFAD505E073
:1001700014F8016B01F8016B6D1EF9D59142D6D3CD
:10018000704700000023002400250026103A28BFF5
:1001900078C1FBD8520728BF30C148BF0B607047F9
:1001A0001FB51FBD10B510BD01F025FA1146FFF7B0
:1001B000F7FF00F009F801F043FA03B4FFF7F2FF8C
:1001C00003BC01F04BFA000000F0AFF8482001F04A
:1001D000B9F900F020FA55221146104600F068FBEC
:1001E0004FF47A7001F0C8F900F0FCF90F221146C3
:1001F000104600F05DFB4FF47A7001F0BDF900F09D
:10020000F1F9094800F074FB4FF47A7001F0B4F989
:1002100000F0E8F9054800F06BFB4FF47A7001F04C
:10022000ABF900BFFEE7000000000020C012002074
:10023000704700BFFEE700BFFEE700BFFEE700BF5C
:10024000FEE7704770477047704700000CB500200C
:10025000019000906C48006840F480306A49086062
:1002600000BF6948006800F4003000900198401C0D
:100270000190009818B90198B0F5A06FF1D16248CB
:10028000006800F4003010B10120009001E000206F
:1002900000900098012843D15C48006840F01000AD
:1002A0005A4908600846006820F0030008600846C4
:1002B000006840F0020008605348406852494860B6
:1002C0000846406848600846406840F480604860DE
:1002D0000846406820F47C1048600846406840F4B6
:1002E000E81048600846006840F08070086000BF71
:1002F0004548006800F000700028F9D04248406886
:1003000020F00300404948600846406840F0020081
:10031000486000BF3C48406800F00C000828F9D154
:100320000CBD10B5FFF792FF10BD10B53648006840
:1003300040F00100344908600846406834490840EC
:100340003149486008460068324908402E49086033
:100350000846006820F4802008600846406820F4C1
:10036000FE0048604FF41F008860FFF7DAFF4FF08F
:1003700000602949086010BD10B50021002000224E
:10038000214B5B6803F00C0121B1042906D0082938
:1003900028D107E0214B224C236027E01F4B204C43
:1003A000236023E0184B5B6803F47010164B5B6806
:1003B00003F48032022303EB904022B9194B4343EC
:1003C000174C23600DE0104B5B6803F4003323B13E
:1003D000144B4343124C236003E0104B4343104C37
:1003E000236003E00D4B0E4C236000BF00BF064BA3
:1003F0005B68C3F303130C4CE15C094B1B68CB40F7
:10040000074C236010BD0000001002400020024095
:100410000000FFF8FFFFF6FE08ED00E000127A0092
:100420008025002000093D008425002010B50446E9
:100430004FF40070FC49086000222146FB4800F0A0
:100440007DFA4FF40070F849091F086010BD10B51F
:1004500004464FF40070F449086001222146F34835
:1004600000F06CFA4FF40070EF49091F086010BDEE
:1004700010B52C20FFF7DAFF10BD08B501210820C8
:1004800000F076FE4FF47070ADF8000003208DF898
:10049000020010208DF803006946E348143800F08C
:1004A000ABFB08BD10B54FF48070DF4908606420D5
:1004B00001F062F84FF48070DB49091F08603220B8
:1004C00001F05AF810BD70B50446002504F0800014
:1004D00008B1E02500E000256006040E04F080006D
:1004E00010B105F11C00C5B26006040E04F08000D6
:1004F00008B1E81CC5B22846FFF7A9FF70BD10B5CA
:1005000004462046FFF7DFFFE106080EFFF7DBFF9A
:1005100010BD70B504460D462046FFF7F0FFA1015F
:1005200041EAA501C8B2FFF7CEFF70BD70B5054620
:100530000C4621462846FFF7ECFF6106080EFFF740
:10054000C2FF70BD70B505460C4621462846FFF730
:10055000EDFF2107080EFFF7B6FF70BD70B5064628
:100560000C46154621463046FFF7ECFFE10141EA13
:100570006501C8B2FFF7A7FF70BD2DE9F04704463B
:100580000D4616461F46701E032190FBF1F02044D5
:100590001FFA80F8E819401E1FFA80F92A20FFF799
:1005A00045FF200AFFF753FFE0B2FFF750FF4FEA85
:1005B0001820FFF74CFF08F0FF00FFF748FF2B2043
:1005C000FFF734FF280AFFF742FFE8B2FFF73FFFCB
:1005D0004FEA1920FFF73BFF09F0FF00FFF737FF55
:1005E000BDE8F08770B5A023F02200210846FFF790
:1005F000C4FFFFF73DFF00240AE0002505E00022CC
:1006000011461046FFF7AAFF6D1C142DF7DB641C82
:10061000A02CF2DB70BD10B500F0B7F9FFF72DFF8D
:10062000FFF740FF1120FFF701FFC020FFF7FEFE9C
:10063000F120FFF70CFF0020FFF709FFC320FFF7B1
:10064000F5FE0220FFF703FFC420FFF7EFFE0720AF
:10065000FFF7FDFED020FFF7E9FE1D20FFF7F7FEB4
:10066000B520FFF7E3FE0020FFF7F1FE3820FFF78B
:10067000DDFE3A20FFF7DAFE0220FFF7E8FE362023
:10068000FFF7D4FE0020FFF7E2FEB020FFF7CEFE1A
:100690009F20FFF7DCFE2020FFF7C8FEF120FFF7C8
:1006A000C5FE1520FFF7D3FE1520FFF7D0FE15205D
:1006B000FFF7CDFE1520FFF7CAFEB120FFF7B6FE0B
:1006C0000020FFF7C4FE2920FFF7B0FE01205849A3
:1006D0000860FFF787FF10BD10B504462046FFF7FE
:1006E000F2FEE106080EFFF7EEFEA107080EFFF787
:1006F000EAFE10BD70B505460C4621462846FFF7B8
:1007000021FFE107080EFFF7DEFE70BD70B505465C
:100710000E461446224631462846FFF71FFFA10623
:10072000080EFFF7D0FE70BD70B505460E461446A4
:10073000224631462846FFF7E9FF6107080EFFF71A
:10074000C2FE70BD2DE9F04105460E4617461C4617
:100750003A4631462846FFF7E7FF2046FFF7B3FE4B
:10076000BDE8F0812DE9F04105460E4617461C46CE
:100770003A4631462846FFF7D7FF2046FFF7BFFE2F
:10078000BDE8F0812DE9F04105460E4617461C46AE
:100790003A4631462846FFF7C7FF2046FFF79CFF41
:1007A000BDE8F0812DE9F04105460E4617461C468E
:1007B000DDF818803A4631462846FFF7B5FF414636
:1007C0002046FFF7A6FEBDE8F0812DE9F04705467B
:1007D0000E4617461C46DDE908893A46314628464A
:1007E000FFF7A2FF4A4641462046FFF79DFFBDE8BE
:1007F000F08770B5044604F0C00504F0C000C028BE
:1008000001D145F02005182000EA6400054304F0FA
:100810003000302801D145F00405C4F381000543C0
:100820002846FFF714FE70BD140C01400030014053
:100830009881214270B506460C4615463046FFF7B2
:10084000D8FFB10141EAA401C8B2FFF7D2FF2101EC
:1008500041EA2511C8B2FFF7CCFFA906080EFFF741
:10086000C8FF70BD2DE9F0470446A023F022002107
:100870000846FFF782FEFFF7FBFD002514E0002687
:100880000EE02778641C94F80080641C94F80090B3
:10089000641C4A4641463846FFF746FF701C86B244
:1008A0000A2EEEDB681C85B2A02DE8DBBDE8F087E0
:1008B0002DE9F04106460F469046A023F022002184
:1008C0000846FFF75AFEFFF7D3FD00240CE0002591
:1008D00006E0424639463046FFF726FF681C85B2DF
:1008E0000A2DF6DB601C84B2A02CF0DBBDE8F081A1
:1008F0002DE9F0470446A023F02200210846FFF727
:100900003CFEFFF7B5FD002514E000260EE0277839
:10091000641C94F80080641C94F80090641C4A469F
:1009200041463846FFF786FF701CC6B2142EEEDB38
:10093000681CC5B2A02DE8DBBDE8F087034600BF08
:10094000188900F002000028FAD0D00340EAC11054
:10095000988100BF188900F001000028FAD098891A
:10096000C0B2704702884FF6C7731A40028001294F
:1009700002D10288028003E0028842F02002028055
:10098000028842F040020280704700B587B0012122
:10099000052000F0EDFBA020ADF8040003208DF849
:1009A000060018208DF8070001A91D4800F024F961
:1009B0004020ADF8040048208DF8070003208DF892
:1009C000060001A9164800F017F90121080300F0FC
:1009D000CFFB0020ADF808004FF48270ADF80A009C
:1009E0004FF40060ADF80C000220ADF80E000120BD
:1009F000ADF810004002ADF812000020ADF8140070
:100A0000ADF816000720ADF8180002A9054800F05F
:100A100039FC0121034800F0DAFC07B000BD0000FA
:100A2000000801400030014008480047FEE7FEE7AB
:100A3000FEE7FEE7FEE7FEE7FEE7FEE7FEE7FEE78E
:100A400003480449024A044B70470000ED000008C7
:100A500010260020102800201026002031490143D4
:100A6000314A1160704770B5002100230F22C4780D
:100A700004B32D4C246804F4E064C4F5E064210A56
:100A8000C1F10403CA40447804FA03F184781440A5
:100A900021430901254C0678A155047804F01F056F
:100AA0000124AC4005786D11AD0005F1E025C5F8D5
:100AB000004109E0047804F01F050124AC401C4DFE
:100AC0000678761145F8264070BD1A4A0A4002435E
:100AD000154B1B1F1A60704739B1134A121D12685B
:100AE0000243114B1B1D1A6006E00F4A121D1268CB
:100AF00082430D4B1B1D1A607047042808D14FF02C
:100B0000E021096941F004014FF0E022116107E0A2
:100B10004FF0E021096921F004014FF0E02211615A
:100B2000704700000000FA050CED00E000E400E072
:100B300080E100E080FFFF1F10B50446CC488442EE
:100B400008D10121042000F02DFB0021042000F039
:100B500029FB46E0C748844208D10121082000F063
:100B600021FB0021082000F01DFB3AE0C24884422E
:100B700008D10121102000F015FB0021102000F009
:100B800011FB2EE0BD48844208D10121202000F055
:100B900009FB0021202000F005FB22E0B848844238
:100BA00008D10121402000F0FDFA0021402000F092
:100BB000F9FA16E0B348844208D10121802000F000
:100BC000F1FA0021802000F0EDFA0AE0AE488442FC
:100BD00007D10121801500F0E5FA0021A01500F0F1
:100BE000E1FA10BD10B50121084600F0DBFA002142
:100BF000012000F0D7FA10BD2DE9F0410246002592
:100C00000026002000230024002791F803C00CF0E8
:100C10000F0591F803C00CF0100CBCF1000F03D0CD
:100C200091F802C04CEA050591F800C0BCF1000F34
:100C300031D0146800202BE04FF0010C0CFA00F3C7
:100C4000B1F800C00CEA03069E4220D183004FF0A9
:100C50000F0C0CFA03F7BC4305FA03FC4CEA04043E
:100C600091F803C0BCF1280F06D14FF0010C0CFA2B
:100C700000FCC2F814C00AE091F803C0BCF1480FB0
:100C800005D14FF0010C0CFA00FCC2F810C0401C5A
:100C90000828D1D31460B1F800C0BCF1FF0F34DDD7
:100CA000546800202EE000F1080C4FF0010808FA0B
:100CB0000CF3B1F800C00CEA03069E4221D1830078
:100CC0004FF00F0C0CFA03F7BC4305FA03FC4CEA97
:100CD000040491F803C0BCF1280F05D100F1080C01
:100CE00008FA0CF8C2F8148091F803C0BCF1480F60
:100CF00007D100F1080C4FF0010808FA0CF8C2F80F
:100D00001080401C0828CED35460BDE8F0814FF617
:100D1000FF710180022181700421C1707047024679
:100D2000002093680B400BB1012000E000207047C9
:100D30000146886880B2704702460020D3680B40A5
:100D40000BB1012000E0002070470146C86880B266
:100D5000704701617047416170470AB1016100E06D
:100D600041617047C16070474FF480320A4382612D
:100D70008161826182698269704702460020434B2B
:100D800018684FF68073184040EA021008433F4B42
:100D9000186070473E49C8617047F0B50A460023A5
:100DA00000240021002500F00046B6F1004F02D1DA
:100DB000364EF16901E0354E7168C0F3034583B2E8
:100DC00000F44016B6F5401F08D121F070612F4E97
:100DD000766826F070662D4F7E6012E000F4801673
:100DE000B6F5801F06D1032606FA05F4A14341F0AB
:100DF000706106E0460D360103FA06F6B14341F094
:100E0000706122B1460D360103FA06F6314300F057
:100E10000046B6F1004F02D11C4EF16101E01B4EBD
:100E20007160F0BD30B500228B071C0F0F2303FA51
:100E300004F2164B08338C1053F824309343134CB0
:100E400008348D1044F8253023468C1053F8243094
:100E50008C07240F00FA04F423430C4C08348D1043
:100E600044F8253030BD0A49DC3108607047000085
:100E700000080140000C0140001001400014014036
:100E800000180140001C014000200140000001400A
:100E900000002042DF48006840F00100DD490860A2
:100EA00008464068DC490840DA494860084600685E
:100EB000DA490840D74908600846006820F48020D5
:100EC00008600846406820F4FE0048604FF41F00A8
:100ED00088607047CF49096821F48031CD4A11609C
:100EE0001146096821F480211160B0F5803F03D0DC
:100EF000B0F5802F0ED106E0C649096841F4803173
:100F0000C44A116007E0C349096841F4A021C14AFD
:100F1000116000E000BF00BF704710B5014600221D
:100F2000002300204A11012A02D1BA4C236806E0AE
:100F3000022A02D1B74C236A01E0B64C636A01F081
:100F40001F02012494401C400CB1012000E000204D
:100F500010BD38B5002000900024002500BF3120CE
:100F6000FFF7DBFF05460098401C00900098B0F5A5
:100F7000A06F01D0002DF2D03120FFF7CEFF08B1D5
:100F8000012400E00024204638BD01460020A14A8B
:100F9000106820F0F80040EAC10010607047A049D6
:100FA00008607047024600209A4B586820F47C1075
:100FB00042EA01031843974B586070479849086606
:100FC000704701460020934A506820F00300084310
:100FD000506070478F48406800F00C007047014631
:100FE00000208C4A506820F0F000084350607047A1
:100FF00001460020874A506820F4E06008435060B2
:10100000704701460020834A506820F4605040EA4F
:10101000C1005060704729B17E4A527A02437D4B2D
:101020005A7204E07B4A527A82437A4B5A72704772
:101030007B49D8310860704701460020754A5068E6
:1010400020F440400843506070470021714A20322C
:101050001170704A82F82010012802D004280AD1A9
:1010600004E001216B4A2032117005E00521694A34
:101070002032117000E000BF00BF7047694908606E
:1010800070476449096A0143624A116270476549C1
:1010900044390860704730B5002100220024002345
:1010A0005C4D6D6805F00C0121B1042905D00829BB
:1010B00023D105E05C4D056022E05B4D05601FE03B
:1010C000544D6D6805F47012524D6D6805F480340E
:1010D000022505EB92421CB9544D554305600BE0C7
:1010E0004C4D6D6805F400351DB1504D55430560FC
:1010F00002E04D4D5543056002E04B4D056000BFD9
:1011000000BF444D6D6805F0F0010909484D6B5C66
:101110000568DD4045603F4D6D6805F4E061090AF2
:10112000434D6B5C4568DD4085603A4D6D6805F464
:101130006051C90A3E4D6B5C4568DD40C560354D68
:101140006D6805F44041890B3A4D6B5CC568B5FB91
:10115000F3F5056130BD29B12E4A526902432D4B8A
:101160005A6104E02B4A526982432A4B5A61704704
:1011700029B1284A92690243264B9A6104E0254A24
:1011800092698243234B9A61704729B1214AD269FF
:101190000243204BDA6104E01E4AD26982431D4BB0
:1011A000DA61704729B11B4AD2680243194BDA60F1
:1011B00004E0184AD2688243164BDA60704729B1BE
:1011C000144A12690243134B1A6104E0114A12696E
:1011D0008243104B1A6170471249403908607047CA
:1011E0000F49C86470470B49C87170470948406A85
:1011F00040F0807007494862704701460020054A68
:1012000092680A400AB1012000E0002070470149BD
:1012100088727047001002400000FFF8FFFFF6FEE2
:10122000000042428004424200127A0000093D0060
:1012300094250020A425002010B50446BE48844211
:1012400008D101218014FFF7ADFF0021A014FFF7A2
:10125000A9FF16E0B948844208D101210014FFF724
:10126000AEFF00212014FFF7AAFF0AE0B448844231
:1012700007D10121C013FFF7A2FF0021E013FFF700
:101280009EFF10BD10B50022028802F441520B8867
:101290004C8823438C882343CC8823430C892343E5
:1012A0004C8923438C892343CC8923431A430280EE
:1012B000838B4FF2FF74234083830B8A038210BD1C
:1012C0002DE9F04F85B005460C464FF00009022786
:1012D0004FF000084FF0010B0026B246A88B4FF2EA
:1012E00040010840A88302202884B5F81C90A0681B
:1012F000022801D100BF38E0A08810B94FF0010BDF
:1013000001E04FF0020B8D48854200D100E000BFA4
:101310006846FFF7C0FEDDF800A0E088B0F5007F6A
:101320000AD14FEA1A2000EB80004000A168B0FB10
:10133000F1F0401D86B20BE04FEA4B10BAFBF0F023
:1013400000EB80004000A168B0FBF1F0401D86B2C8
:101350000A20B6FBF0F606F00108A6EB0800C0F381
:101360004F074FF6FF7000EA0828022F01DBFF2F1E
:1013700002DD02274FF00008E08840EA0800384309
:101380002884A088A18908436188084321880843EC
:1013900040F4006040EA0909A5F81C9005B0BDE8DA
:1013A000F08F0021018041808180C18001814181D5
:1013B0008181C18107210182704700210180418024
:1013C0008180C1800221816000218181704721B12B
:1013D000028842F04002028004E002884FF6BF73A8
:1013E0001A400280704721B1828B42F4806282836E
:1013F00004E0828B4FF6FF331A408283704730B58A
:10140000002400230C110125A540ABB21AB1858838
:101410001D43858002E085889D43858030BD1AB1DB
:1014200083880B43838002E083888B4383807047EB
:10143000818170470146888970474FF6FF6291426B
:1014400004D0028842F48072028004E002884FF6E1
:10145000FF631A400280704721B1828842F0040283
:10146000828004E082884FF6FB731A4082807047C6
:1014700002884FF2FF731A40028002880A430280FA
:101480007047018841F480510180704721B1028882
:1014900042F40052028004E002884DF6FF731A40C5
:1014A0000280704702460020012901D0108B00E025
:1014B000908A70470146088A7047B1F5804F04D181
:1014C000028842F48042028004E002884BF6FF73F7
:1014D0001A40028070470246002013890B400BB16E
:1014E000012000E000207047CA4302817047F0B538
:1014F0000246002000240023002501F00F070126EA
:10150000BE40B4B20B1101269E40B3B2968806EAE3
:1015100003051689264016B10DB1012000E0002018
:10152000F0BD10B5002201F00F040123A3409AB2D0
:10153000D343038110BD000000300140003800405B
:10154000003C004010B504466FF00400FFF7D5FAE8
:10155000E11704EB5171C1F3C701234A1170104622
:10156000007800EB4001C1EBC0104FF6FF7101EABB
:10157000C0001E49088010BD01461C4A12884A431B
:101580004FF0E0235A6100229A6101221A6100BFE4
:101590004FF0E022106900F001021AB100F480322D
:1015A000002AF5D000224FF0E0231A619A617047BB
:1015B00001460D4A12784A434FF0E0235A61002257
:1015C0009A6101221A6100BF4FF0E022106900F019
:1015D00001021AB100F48032002AF5D000224FF047
:1015E000E0231A619A617047A8250020AA250020EF
:1015F000704770477047754600F02CF8AE460500FE
:101600006946534620F00700854618B020B5FFF71D
:1016100017FABDE820404FF000064FF000074FF0EA
:1016200000084FF0000B21F00701AC46ACE8C00900
:10163000ACE8C009ACE8C009ACE8C0098D46704709
:1016400010B50446AFF300802046BDE81040FEF719
:10165000B4BD000000487047AC25002001491820A7
:10166000ABBEFEE726000200704700008C160008A3
:1016700000000020AC25000028010008181D00080B
:10168000AC250020640200008401000801FF01FF76
:1016900001FF01F7C403FFC06A0E16113B03800867
:1016A000AAC11F6A1F1E4B800F1EAAC31E4A3F0DF0
:1016B000191E2A1F0AB503FFCFE01E7FE07FFFFF40
:1016C000572CFF807F17AD03FFDFF01E5AF01E2B53
:1016D00081FF17B503FFFFF8EBFFF81EA2FC2C01FA
:1016E000FFFE1E1B3FF31E2935191EAAFE1E5AFFC0
:1016F0001E3A80351978AAFF5A3901291E4A7F1EE1
:101700002BCFFFDA6996891E2953AC03FFC71E7AD7
:101710003F1E2A3F53D91E7A1F1E4A1F1EAAC37896
:101720005E0FFF7FC0011E19359C03FFC1B4116B12
:1017300007FE1E2C0FFFC01E2AC0D9818B03FC1E82
:1017400059019AE0F16AF81EFC07FFBF1E116AF00A
:101750001E4B03FEC0B91E4D607FCFF91E0A11FC5F
:101760001E11691E0B1B01F01E0A1AC01E21091052
:101770001E0A1B3C1E0A1B7E1E0A1AFF1E5C01FF6E
:10178000801E0B108FFFF08C01FFE01E4910B10C82
:101790001903FFF01E0C1B07FFF81E0A1BFC5A0A58
:1017A00019FE1E0C1901FFFF1E11091C1E0A1A7FCB
:1017B0005A119A3F96CD1FFFFFFD1E6A1FD20A12D3
:1017C000871E5B0FF01E0B11801F1E0A1B071E0BCE
:1017D0001A03E01E0B1A01C01E19D409461E0C285C
:1017E000FCFFF01E1A071E5AF11EDD0FFFFFF81E48
:1017F0006CE07FDF1E11131FFCD91E0A1BFC1E0AA2
:101800001AFF1E0A3C0F1E0A29FF1EBAF81E0A1AEA
:10181000FE1E1A1F1E12E0491E1A0C1EBC7FF8780D
:101820001E116A7F1E3A3C1EDA7E1E5AE61E3A7E62
:101830001E9B7FC01E196B5AEF1E4AFE1E99B61AD8
:101840003F1E3BFF801E3AFF1ECAFC1E0D1801FF03
:10185000FFC01E7D03FFFFE01EDA7F1E1AF81E1276
:10186000F04A031E1DFFFF3FFCC391AF7FF807FF47
:10187000FFF81EBAFF1E4D0FFF7FFC1E2901CB3F54
:10188000FE1E1A1F1209171E1CF03FFE1E6A071EBD
:10189000BA1F1E1CFFF07F6F1A3FF4591E19C2A910
:1018A0001EAEFFFC0FFF9F1E9AC01E1BF3FFB61A51
:1018B000DF1E1940E91E2C01FFE71E190111491E08
:1018C000EA0F1E2BF0033C112A7F60E91E3FE3FF65
:1018D000E001FF8F3C19561984BBFF801E12C029FE
:1018E00032111A1FBC29DB991E1C03FFC11E1932BD
:1018F00012FE1C1FF81F19191EA11C03FFC013158F
:10190000780FFFFC1C0FF00FEAAA031E2501FFC091
:101910007F15300FFFF81A071C2911B2FE343FC0A3
:101920003E1407FFF04A03AC1946A13C07803C1E59
:101930001954498ED37FF8E2183A1F6101FF01FF65
:1019400001FF01FF01FF01FF01FF01FF01FF018D09
:10195000337F8092060A11031E227F9A020FD91E3E
:1019600022FF1E0707FFFFFE0A09111E19053B0F84
:10197000C71E09123C19051B1FE71E3B1FFF230949
:10198000111E1AF7191A3F1E1966B91E39142A0FAB
:1019900037D91E394B2A7F140A1B871E0D1883F86E
:1019A00078011E0E1781F1F801FC1E2B80E31E1931
:1019B000A30A127F1E0B158C031E1112FEFF1FE0DF
:1019C0001E03FC031E15C07F80FE12FF2D3FC03F8B
:1019D000811ED978791E0E137FC1FC03F81E127F79
:1019E00010087F807FE1FE07F81983195DD91E0E6C
:1019F00016807F803FF01E080A143F80FF801FF88A
:101A0000FF0FF01E13C0FF2B07F01E119A0177691C
:101A10001E13E1FF2603E07F9FE0FB07FE1E141F5D
:101A2000E3FE3B01C01EAB1FF81E19C212FE240FBD
:101A3000F3FC1CC03FFF1E1A3F5EE91E13FFFC12A1
:101A4000031C3FFFC01E1904D91E1C07FFF8781C99
:101A50001FFF80B3A9B5491E1403FFF00B1A03F84A
:101A60001E2D07F00FFFEF09101E1A01900C100732
:101A7000F0071E39D23A031E0B140FFE1E29962AB8
:101A80000F962A3F1E99B4391E2A1FD60A10E0D29B
:101A9000211A7F4919511D800FE0FF9C09111E1A60
:101AA000014F0F12F01FC1FFFFFC1E38080FFFF39C
:101AB000FFFE1FC77309101E280A7FFFE1FFFF9F6B
:101AC000DFFF9F9709111E1009807FFF3FBFFE0FA8
:101AD000FF09111E1B3FFE031E3F9FFC03FFBE8933
:101AE000EE591E1A1FEE2EFE7F9FF001DCF91E1329
:101AF0000FE01C01FC7F061A7C1EE1291E1930151F
:101B0000780F0780121CFB1FFE1E520402FF020109
:101B1000FF01B0827EC2032A1C1A1A0E0412605200
:101B200006B33F80271F3FFFC07E3F18087FF003AA
:101B3000FEFFFFFC09A91E1B3FBF1E1A7F151BF8E5
:101B4000FF01291EB2C01E7FFFFFDF7E303B7FFCFE
:101B50001E2A1F06993C291E133FC01A7E580910E1
:101B60001E190F0C16DF7E1F1E1C0FFE071E12E033
:101B7000EF7E787FF8FE011E1B07BE1E2A0F140B96
:101B80001077F01E1B033E5A2A07146A071EB2FE86
:101B9000391E199C591EA9D0212A181E29BA191EAE
:101BA0002996A5DFFFFFF87A3C1E49B4191EA2FC56
:101BB0002A7E1E1AFF1409131E2BFFBE1E12C0120E
:101BC0007F09131E0A1AFE1E9A7F1E31D9963A3FCC
:101BD0001E1914112B0FF01E2CC1F81F08712A1F9B
:101BE000783A7F1EA00AF1FFFFFE1FC3FE7FE02AA6
:101BF00007B42950114A1F1EA4FFFF808A021E2A23
:101C0000F91E3AC07F91891E19B4191E9A7FB3112B
:101C10006B0C3F1E3A3F1E29D8A12B0FBF1E14C1CB
:101C2000FC3F3D7FFF80FC41A91E7BFFF71E0A1889
:101C3000C01E1A80ADF91E9A1F1EECFFFFFC1E1875
:101C40000CDFF01F7E1FDDFC3FBCFFFE1E1B3FBFF5
:101C50009B991E1BC3FC1E1AFD172B7FF01EAC8028
:101C600007F01EEB87FE1E99F12C3F87FF1E5DFFDC
:101C7000FFBF771EAAF11E1D8FFF807E8C15DFFF30
:101C800077F012FC291E9AF81E3D9FDFC0FE1E2A27
:101C9000271E127FC91E4C3FDFFF1E1B07F7CD1208
:101CA0007FA40FF0104C7FFF8F1E3AFE1EB5FF077A
:101CB000FFF01A7F100E14FC3FFFFFCF1E48097E75
:101CC00003CFFC1F9FF80F1EB57E03FFE010087EB8
:101CD0003C038FF80F1E3B07FC1EB53E03FFC01BE5
:101CE0001E1C882206000C1403F807F3FFFFFE1CDD
:101CF00003FF802BE0077102FF0C01FF01FF011AB7
:101D000084A24A04680901020304060708090C6951
:081D1000104502040608000062
:04000005080000ED02
:00000001FF
