:020000040800F2
:10000000000500204501000865070008B504000848
:100010006107000895030008A30D00080000000018
:10002000000000000000000000000000450B000878
:10003000990300080000000067070008590C000839
:100040005F0100085F0100085F0100085F01000810
:100050005F0100085F0100085F0100085F01000800
:100060005F0100085F0100085F0100085F010008F0
:100070005F0100085F0100085F0100085F010008E0
:100080005F0100085F0100085F0100085F010008D0
:100090005F0100085F0100085F0100085F010008C0
:1000A0005F0100085F0100085F0100085F010008B0
:1000B0005F0100085F0100085F0100085F010008A0
:1000C0005F0100085F0100085F0100085F01000890
:1000D0005F010008BD0C00085F0100085F01000817
:1000E0005F0100085F0100085F0100085F01000870
:1000F0005F0100085F0100085F0100085F01000860
:100100005F0100085F0100085F0100085F0100084F
:100110005F0100085F0100085F0100085F0100083F
:100120005F0100085F0100085F0100085F0100082F
:10013000DFF80CD000F01CF900480047A10E0008C1
:10014000000500200648804706480047FEE7FEE716
:10015000FEE7FEE7FEE7FEE7FEE7FEE7FEE7FEE777
:100160005D0C000831010008F0B480EA0102D40FF0
:100170004200B2EB410F02D20246084611464A0045
:1001800042D0C30DDDB2C1F3C752AD1A202D35DA0E
:10019000C1F3160141F4000204B15242C5F1200638
:1001A00002FA06F12A411044B3EBD05F23D0C4B168
:1001B000012DA0EBC35009DCF0BC4FF0004202EA75
:1001C000C352DBB200F5000000F0A4B8400000F11B
:1001D000807000EBC350A0F1807040EAD1704900FC
:1001E00009E0490841EAC071A0EBC35000F50000E6
:1001F000400800EBC350F0BC00F083B8614201221C
:1002000002EB4101001BF6E7F0BC704781F00041B2
:10021000AAE780F00040A7E780EA010210B502F0EB
:100220000043400022D04A001FD0010E01EB1261B2
:10023000C0F35600C2F3560240F4000042F400023C
:10024000A0FB022000047F39140400D0401C50EAB7
:10025000124001D44000491EC2B20C0604EBD0107B
:10026000401C4008802A02D003E0002010BD20F08E
:100270000100002900DA0020184310BD30B480EAE4
:10028000010202F0004530F0004221F0004013D09E
:1002900090B1C30DD40DC2F31601C0F31600E41AD9
:1002A00041F4000140F400027D34914201D3641C0A
:1002B00000E04900002C02DA30BC002070474FF407
:1002C00000000023914201D3891A034340084FEAFA
:1002D0004101F7D151B1914202D14FF0004105E007
:1002E00002D24FF0010101E06FF0010103EBC450B5
:1002F000284430BC00F005B896230022114600F0D7
:1003000009B80029A8BF7047401C490008BF20F069
:100310000100704710B4B0FA80FC00FA0CF050EA0B
:10032000010404BF10BC704749B1CCF1200421FA8C
:1003300004F411FA0CF118BF012121430843A3EB87
:100340000C01CB1D4FEA00614FEA102042BF002094
:1003500010BC704700EBC35010440029A4BF10BC70
:100360007047401C490008BF20F0010010BC7047D6
:10037000064C074D06E0E06840F0010394E80700F2
:1003800098471034AC42F6D3FFF7D6FE040F0008AE
:10039000240F000800BFFEE770472DE9F041024638
:1003A00000250026002000230024002791F803C028
:1003B0000CF00F0591F803C00CF0100CBCF1000F0D
:1003C00003D091F802C04CEA050591F800C0BCF1D9
:1003D000000F31D0146800202BE04FF0010C0CFA14
:1003E00000F3B1F800C00CEA03069E4220D183005E
:1003F0004FF00F0C0CFA03F7BC4305FA03FC4CEA70
:10040000040491F803C0BCF1280F06D14FF0010C91
:100410000CFA00FCC2F814C00AE091F803C0BCF169
:10042000480F05D14FF0010C0CFA00FCC2F810C0C7
:10043000401C0828D1D31460B1F800C0BCF1FF0FF4
:1004400034DD546800202EE000F1080C4FF0010864
:1004500008FA0CF3B1F800C00CEA03069E4221D161
:1004600083004FF00F0C0CFA03F7BC4305FA03FCB2
:100470004CEA040491F803C0BCF1280F05D100F147
:10048000080C08FA0CF8C2F8148091F803C0BCF10B
:10049000480F07D100F1080C4FF0010808FA0CF8DA
:1004A000C2F81080401C0828CED35460BDE8F0810B
:1004B0000161704700BFFEE710B500200F490860DA
:1004C0000F48006820F070400D4908600846006839
:1004D00040F04050086000200A49C1F89C01022009
:1004E00000F0B8FC012005490860022000F0B2FCD1
:1004F00000200449C1F8980110BD000098812142F4
:10050000000C01400080214208B50121082000F0C4
:100510002BF9C020ADF8000010208DF80300032057
:100520008DF8020069460448FFF737FFC0210248F2
:10053000FFF7BEFF08BD0000000C014010B5002011
:100540000F4908600F48006820F070400D490860AE
:100550000846006840F04050086001200A49C1F890
:100560009C01022000F076FC012005490860022071
:1005700000F070FC00200449C1F8980110BD000093
:1005800098812142000C01400080214270B505464F
:1005900000241748006820F070401549086008469C
:1005A000006840F000400860002616E00020114975
:1005B0000860022000F04EFC01200F49C1F89801AC
:1005C0006006040E0B487C38006808B1601CC4B299
:1005D000012000F03FFC701CC6B2082EE6DB15B906
:1005E000FFF7ACFF01E0FFF767FF204670BD00009A
:1005F000000C0140988121420080214270B50446E0
:100600001548006820F070401349086008460068EB
:1006100040F040500860002010490860002517E0B5
:10062000E0090E49091D08606006040E022000F072
:1006300011FC01200A49C1F89801022000F00AFCCF
:10064000002006490860022000F004FC681CC5B2C6
:10065000082DE5DB70BD0000000C014098812142AF
:100660000080214210B50F48006820F070400D490D
:1006700008600846006840F04050086001200A49C0
:1006800008600A49C1F89801042000F0E3FB00204B
:1006900005490860042000F0DDFB00200349C1F893
:1006A000980110BD000C01409C8121420080214234
:1006B00010B50F48006820F070400D4908600846EA
:1006C000006840F04050086000200A4908600A496C
:1006D000C1F89C01042000F0BDFB01200549086021
:1006E0000549C1F89C01042000F0B4FB10BD0000D6
:1006F000000C0140988121420080214210B5002465
:100700001448006820F070401249086008460068EC
:1007100040F00040086001200F49086000F09AFB9B
:1007200001200E49C1F8980100F094FB07E0601C1D
:10073000C4B2FA2C03DDFFF7BBFF012010BD064851
:10074000803800680028F2D10349091F086000BF03
:10075000F4E70000000C01409C812142008021420E
:1007600000BFFEE77047704729B1064A926902430D
:10077000044B9A6104E0034A92698243014B9A61F7
:10078000704700000010024010B5002407480078B0
:1007900008B1012010BD42F2B11000F09BF90446EF
:1007A00014B10120014908702046F3E7240000201D
:1007B00030B502460B46FF20002113E0545C604038
:1007C00000240BE000F0800525B1312585EA4005C5
:1007D000E8B201E04506280E651CECB2082CF1DBFE
:1007E0004C1CE1B29942E9DB30BD38B501226946C3
:1007F0004EF2B84000F01EF904460CB9002038BD96
:10080000BDF80000C0F30A0008B90020F7E7012096
:10081000F5E7000070B504460848007808B10020EC
:1008200070BD43F2466000F055F90546002C02DD2C
:10083000204600F0E9FA2846F2E7000024000020F4
:100840002DE9F04F85B006460F46904699460025A3
:100850000020029003900490FFF7C7FF18B9002012
:1008600005B0BDE8F08F00206E4908804880888080
:10087000FFF7F8FEC420FFF7C1FEFFF73FFFEC20B3
:10088000FFF7BCFEFFF73AFF0520FFF7B7FEFFF7C3
:1008900035FF05460DB10020E2E70025012000F0FC
:1008A000B3FAFFF7DFFEC520FFF7A8FEFFF726FF2C
:1008B0000120FFF76BFE8DF808000120FFF766FEB0
:1008C0008DF809000120FFF761FE8DF80A00012074
:1008D000FFF75CFE8DF80B000120FFF757FE8DF847
:1008E0000C000120FFF752FE8DF80D000120FFF7EC
:1008F0004DFE8DF80E000120FFF748FE8DF80F0029
:100900000020FFF743FE8DF81000FFF7D1FEAA4646
:1009100000200190002458E0082C3DD2DFE804F0CC
:1009200004053C12133C272800BF02A8005D0CB947
:10093000012100E000213B4A505402A8005D01A9BA
:1009400008553FE000BF02A8015D032C01D1012240
:1009500000E000223348001D8154032094FBF0F195
:1009600000FB114001A902AA125D0A542AE000BF4F
:1009700002A8015D062C01D1012200E000222948D5
:10098000801C8154032094FBF0F100FB114001A96D
:1009900002AA125D0A5415E0022101A8FFF708FF20
:1009A000824602A8005D50450BD0022C01D145F0D3
:1009B0000105052C01D145F00205082C01D145F0B7
:1009C000040500BF00BF601CC4B2092CA4DB1DB12C
:1009D00089F80050002043E7124800883080114910
:1009E0008888FFF789FC10490090FFF715FC8346C3
:1009F0004FF08F41FFF742FC04460C49FFF7B4FB70
:100A0000386008494888FFF777FC83460849FFF7B4
:100A100003FC04464FF08F41FFF730FCC8F800009C
:100A200001201DE72600002000002F43000034C2F3
:100A30000000C8422DE9F84304460E4617464FF021
:100A40000008C14600200090FFF70CFEC420FFF70D
:100A5000D5FDFFF753FE2012FFF7D0FDFFF74EFE46
:100A6000E0B2FFF7CBFDFFF749FE8046FFF720FE1F
:100A7000B8F1000F02D00020BDE8F883384600F03E
:100A8000C3F9FFF7EFFDC520FFF7B8FDFFF736FE0E
:100A90000120FFF77BFD8DF800000120FFF776FDB8
:100AA0008DF801000020FFF771FD8146FFF700FE81
:100AB0009DF801009DF8001040EA012030800221DD
:100AC0006846FFF775FE0546A94501D10120D3E729
:100AD0000020D1E770B504460025FFF7C3FDC42010
:100AE000FFF78CFDFFF70AFE2012FFF787FDFFF7E7
:100AF00005FEE0B2FFF782FDFFF700FE0546FFF7B7
:100B0000D7FD0DB1002070BD0120FCE770B5044693
:100B100043F68670FFF7DEFF05464DB10020084919
:100B20000870002C02DD204600F06EF9012070BD37
:100B3000002C02DD204600F067F90020F7E70000F6
:100B400024000020704710B500F002F810BD00002E
:100B50000CB50020019000903348006840F48030CC
:100B60003149086000BF3048006800F40030009050
:100B70000198401C0190009818B90198B0F5A06F39
:100B8000F1D12948006800F4003010B10120009034
:100B900001E0002000900098012843D1234800681C
:100BA00040F01000214908600846006820F003006A
:100BB00008600846006840F0020008601A48406873
:100BC000194948600846406848600846406840F453
:100BD000806048600846406820F47C104860084601
:100BE000406840F4E81048600846006840F08070B3
:100BF000086000BF0C48006800F000700028F9D0C1
:100C00000948406820F003000749486008464068EA
:100C100040F00200486000BF0348406800F00C004C
:100C20000828F9D10CBD000000100240002002404D
:100C3000042808D14FF0E021096941F004014FF088
:100C4000E022116107E04FF0E021096921F0040181
:100C50004FF0E022116170477047000010B5134853
:100C6000006840F0010011490860084640681049DA
:100C700008400E494860084600680E4908400B4984
:100C800008600846006820F4802008600846406834
:100C900020F4FE0048604FF41F008860FFF753FF08
:100CA0004FF000600449086010BD000000100240D1
:100CB0000000FFF8FFFFF6FE08ED00E010B540F27F
:100CC00025511D4800F03EF810B31B4800F064F8B1
:100CD000C4B21A48008800F40040C8B91748008818
:100CE00000F4804060B10A2C03D000201349088032
:100CF00020E01248008840F400401049088019E0C4
:100D00000D2C06D10D48008840F480400B49088026
:100D100010E00A480088C0F30D0009490C54074848
:100D20000088401C0549088008460088C72801DD66
:100D30000020088010BD0000003801403400002071
:100D40003800002070B50246002400230025002052
:100D500040F66A16B14200D100BFC1F3421501F05E
:100D60001F03012606FA03F3012D02D196893340B1
:100D700006E0022D02D1168A334001E0968A334004
:100D80000C12012606FA04F41688344013B10CB193
:100D9000012000E0002070BD01468888C0F30800F3
:100DA000704700BFFEE702E008C8121F08C1002A12
:100DB000FAD170477047002001E001C1121F002ADC
:100DC000FBD1704710B56FF00400FFF731FF0A4800
:100DD00000680A49B0FBF1F009490870084600783C
:100DE00000EB4001C1EBC0104FF6FF7101EAC000FB
:100DF0000449088010BD00001000002000127A0095
:100E00002C0000202E0000200146114A12884A437F
:100E10004FF0E0235A6100229A611A46126942F0AB
:100E200001021A6100BF4FF0E022106900F00102D8
:100E30001AB100F48032002AF5D04FF0E022126996
:100E400022F001024FF0E0231A6100229A617047FC
:100E50002E0000200146114A12784A434FF0E02349
:100E60005A6100229A611A46126942F001021A611F
:100E700000BF4FF0E022106900F001021AB100F447
:100E80008032002AF5D04FF0E022126922F00102F0
:100E90004FF0E0231A6100229A6170472C00002075
:100EA000FFF790FFFFF730FB4FF41670FFF72EFEB1
:100EB0001420FFF7AFFCFFF767FC19E04FF47A70DE
:100EC000FFF7A2FF4FF47A70FFF79EFF4FF47A709E
:100ED000FFF79AFF4FF47A70FFF796FF4FF47A709E
:100EE000FFF792FF034B044A04490548FFF7A8FCAB
:100EF000E4E700000C0000200800002004000020AF
:100F000000000020240F000800000020380000002E
:100F1000A60D00085C0F000838000020C80400007F
:100F2000B60D0008000000000000000000000000F6
:100F30000000000000A24A040000000000000000C1
:100F40000102030406070809000000000000000079
:0C0F500000000000000000000000000095
:0400000508000145A9
:00000001FF
