:020000040800F2
:1000000088190020C90100085D080008610800087F
:1000100065080008690800086D0800080000000075
:10002000000000000000000000000000710800084F
:100030007308000800000000750800087708000831
:10004000E3010008E3010008E3010008E301000800
:10005000E3010008E3010008E3010008E3010008F0
:10006000E3010008E3010008E3010008E3010008E0
:10007000E3010008E3010008E3010008E3010008D0
:10008000E3010008E3010008E3010008E3010008C0
:10009000E3010008E3010008E3010008E3010008B0
:1000A000E3010008E3010008E3010008E3010008A0
:1000B000E3010008E3010008E3010008E301000890
:1000C000E3010008E3010008E3010008E301000880
:1000D000E3010008E3010008E3010008E301000870
:1000E000E3010008E3010008E301000800F002F862
:1000F00000F05AF80AA090E8000C82448344AAF168
:100100000107DA4501D100F04FF8AFF2090EBAE865
:100110000F0013F0010F18BFFB1A43F0010318473B
:10012000843F0000A43F00000A444FF0000C10F888
:10013000013B13F0070408BF10F8014B1D1108BF65
:1001400010F8015B641E05D010F8016B641E01F805
:10015000016BF9D113F0080F1EBF10F8014BAD1C55
:100160000C1B09D16D1E58BF01F801CBFAD505E073
:1001700014F8016B01F8016B6D1EF9D59142D6D3CD
:10018000704700000023002400250026103A28BFF5
:1001900078C1FBD8520728BF30C148BF0B607047F9
:1001A0001FB51FBD10B510BD03F006FE1146FFF7C9
:1001B000F7FF00F05CFA03F024FE03B4FFF7F2FF50
:1001C00003BC03F02BFE00000948804709480047A4
:1001D000FEE7FEE7FEE7FEE7FEE7FEE7FEE7FEE7F7
:1001E000FEE7FEE704480549054A064B7047000054
:1001F000C13C0008ED000008881300208819002089
:10020000881500208815002010B500224FF4807159
:10021000F94802F072FF642002F039F8012211025D
:10022000F54802F06AFF322002F031F810BD72B6D4
:1002300000BFFEE7FEB506460C46154600200290BC
:10024000E80340EAC41080B201906420012302AAAE
:1002500001A90090304600F05FFD08B1FFF7E7FF0D
:100260009DF80800FEBD10B5044600224FF4007151
:10027000E14802F042FF00222146E048FFF7DAFFA2
:1002800001225102DC4802F038FF10BD10B50446CF
:1002900000224FF40071D84802F02FFF01222146BE
:1002A000D648FFF7C7FF01225102D34802F025FFCD
:1002B00010BD10B52C20FFF7D6FF10BD2DE9F0477B
:1002C00004460D4616461F46701E032190FBF1F0B2
:1002D00020441FFA80F8E819401E1FFA80F92A20EE
:1002E000FFF7C1FF200AFFF7D1FFE0B2FFF7CEFF13
:1002F0004FEA1820FFF7CAFF08F0FF00FFF7C6FF1C
:100300002B20FFF7B0FF280AFFF7C0FFE8B2FFF786
:10031000BDFF4FEA1920FFF7B9FF09F0FF00FFF713
:10032000B5FFBDE8F08770B50446002504F08000F5
:1003300008B1E02500E000256006040E04F080000E
:1003400010B105F11C00C5B26006040E04F0800077
:1003500008B1E81CC5B22846FFF798FF70BD10B57C
:1003600004462046FFF7DFFFE106080EFFF7DBFF3C
:1003700010BD70B504460D462046FFF7F0FFA10101
:1003800041EAA501C8B2FFF7CEFF70BD70B50546C2
:100390000C4621462846FFF7ECFF6106080EFFF7E2
:1003A000C2FF70BD70B505460C4621462846FFF7D2
:1003B000EDFF2107080EFFF7B6FF70BD70B50646CA
:1003C0000C46154621463046FFF7ECFFE10141EAB5
:1003D0006501C8B2FFF7A7FF70BD70B50025A02367
:1003E000F02200210846FFF769FFFFF762FF0024B3
:1003F0000AE0002505E0002211461046FFF7DEFF67
:100400006D1C142DF7DB641CA02CF2DB70BD10B545
:10041000FFF7FAFE1120FFF726FFC020FFF723FFAA
:10042000F120FFF733FF0020FFF730FFC320FFF775
:100430001AFF0220FFF72AFFC420FFF714FF07204E
:10044000FFF724FFD020FFF70EFF1D20FFF71EFF50
:10045000B520FFF708FF0020FFF718FF3820FFF74F
:1004600002FF3A20FFF7FFFE0220FFF70FFF3620C2
:10047000FFF7F9FE0020FFF709FFB020FFF7F3FEBA
:100480009F20FFF703FF2020FFF7EDFEF120FFF78D
:10049000EAFE1520FFF7FAFE1520FFF7F7FE1520FC
:1004A000FFF7F4FE1520FFF7F1FEB120FFF7DBFEAA
:1004B0000020FFF7EBFE2920FFF7D5FE01224021A7
:1004C0004D4802F01AFEFFF788FF10BD70B50546D3
:1004D0000E461446224631462846FFF76FFFA10616
:1004E000080EFFF720FF70BD70B505460E46144696
:1004F000224631462846FFF7E9FF6107080EFFF75D
:1005000012FF70BD2DE9F0470446A023F022002120
:100510000846FFF7D3FEFFF7CCFE002514E00026C7
:100520000EE02778641C94F80080641C94F8009016
:10053000641C4A4641463846FFF7D6FF701C86B217
:100540000A2EEEDB681C85B2A02DE8DBBDE8F08743
:1005500010B504462046FFF7E6FEE106080EFFF759
:10056000E2FEA107080EFFF7DEFE10BD2DE9F04701
:100570008046894614460027302C07DB392C05DCE1
:10058000A4F130001E4901EB00171FE0412C07DBEE
:100590005A2C05DCA4F141001A4901EB001715E0C3
:1005A000202C12D11023082249464046FFF786FE30
:1005B000FFF77FFE002504E00020FFF7C9FF681C5D
:1005C000C5B2102DF8DBBDE8F087FCE78FB1102332
:1005D000082249464046FFF771FEFFF76AFE0025F4
:1005E00005E07E5D3046FFF7B3FF681CC5B2102DF5
:1005F000F7DB00BFE7E70000000C0140D01200204D
:100600002A3E0008DA3E000800B58FB0282105A870
:1006100003F0A8FB1421684603F0A4FB0120059019
:1006200000040690002007900120099002200C9001
:10063000C1030D914FF4E0110E9105A801F02FFFB9
:1006400008B1FFF7F4FD0F20009002200190002078
:1006500002904FF4806003900020049002216846CD
:1006600002F07EF908B1FFF7E2FD0FB000BD01F026
:10067000C8FDFFF7C9FF00F011F800F079F8FFF7A7
:10068000C6FE302200210846FFF770FF02E0024854
:10069000FFF738FFFBE700000000002000B585B041
:1006A0000020019002900390049000BF2D488069C3
:1006B00040F010002B4988610846806900F0100066
:1006C000009000BF00BF00BF0846806940F02000D6
:1006D00088610846806900F02000009000BF00BFDC
:1006E00000BF0846806940F00400886108468069C0
:1006F00000F00400009000BF00BF00BF0846806902
:1007000040F0080088610846806900F00800009009
:1007100000BF00BF00224FF40051134802F0EDFC6F
:1007200001224FF47071114802F0E7FC4FF40050C1
:10073000019001200290002003900220049001A962
:10074000094802F0C3FA4FF4707001900120029042
:10075000002003900120049001A9044802F0B6FA99
:1007600005B000BD0010024000100140000C014027
:1007700010B53648364908604FF482704860002151
:10078000334881604FF40061C160022101610121A1
:100790004161490281610021C1610162416281625E
:1007A0000721C16200F097F808B1FFF740FD10BDC6
:1007B00010B586B004460020029003900490059086
:1007C0002249206888422ED100BF2248806940F427
:1007D0008050204988610846806900F4805001906B
:1007E00000BF00BF00BF0846806940F00400886178
:1007F0000846806900F00400019000BF00BFA020FF
:100800000290022003900320059002A9124802F0F2
:100810005DFA40200290002003900120049002A97C
:100820000D4802F053FA06B010BD10B50446074952
:100830002068884209D10748806920F48050054922
:100840008861E021044802F0C0FB10BD0030014087
:10085000D0120020001002400008014000BFFEE757
:1008600000BFFEE700BFFEE700BFFEE700BFFEE7F8
:1008700070477047704710B501F0E4FC10BD0000F0
:1008800008B500BF1148806940F001000F49886138
:100890000846806900F00100009000BF00BF00BF63
:1008A0000846C06940F08050C8610846C06900F041
:1008B0008050009000BF00BF00BF0549486820F08D
:1008C000E06040F00070486000BF08BD00100240CA
:1008D00000000140704710B504460CB9012010BD5E
:1008E000606A38B96068B0F5827F00D105E0002108
:1008F000E16102E00021216161610021A16294F8BF
:10090000510028B9002084F850002046FFF750FF1E
:10091000022084F851002068006820F0400021681F
:100920000860A08800F48270218901F40441084322
:10093000A18901F400610843217C01F00201084310
:10094000217D01F001010843218B01F4007108436E
:10095000217F01F0380108432021095D01F0800169
:100960000843218D01F400510843216808600421E7
:10097000A06901EA1040216848602068C06920F43D
:1009800000602168C86100206065012084F8510082
:100990000020A4E7704710B504460CB9012010BD33
:1009A000022084F851002068006820F0400021688F
:1009B00008602046FFF739FF0020606584F8510089
:1009C00000BF84F8500000BF00BFE8E72DE9F84FF2
:1009D00004460D4690461E46DDF8289001F03AFC8C
:1009E000A0EB0900371A01F035FC8246FC4800688C
:1009F000C0F3CB307843009045E0701C002842D013
:100A000001F028FCA0EB0A00B84200D2A7BB206886
:100A1000406820F0E000216848606068B0F5827F9F
:100A20000DD1A068B0F5004F03D0A068B0F5806F7D
:100A300005D12068006820F0400021680860A06AA5
:100A4000B0F5005F0DD100BF2068006820F40050B1
:100A5000216808602068006840F400502168086040
:100A600000BF012084F8510000BF002084F850002E
:100A700000BF0320BDE8F88FFFE7009800B900270A
:100A80000098401E0090206880682840A84201D14C
:100A9000012000E000204045AFD10020EAE7F8B592
:100AA00004460E4615463346012202212046009593
:100AB000FFF78CFF28B1606D40F0200060650320D7
:100AC000F8BD33460022802120460095FFF77EFFC7
:100AD00028B1606D40F0200060650320F0E7002041
:100AE000EEE72DE9F84304460F4616461D4601F091
:100AF000B1FB8046B14694F85100012802D0022093
:100B0000BDE8F88307B10EB90120F9E700BF94F8FA
:100B10005000012801D10220F2E7012084F85000A2
:100B200000BF032084F85100002060652763A6867B
:100B3000E686A063A087E08760642064A068B0F5C3
:100B4000004F0BD12068006820F040002168086049
:100B50002068006840F480402168086020680068D0
:100B600000F04000402805D02068006840F04000B8
:100B700021680860E068B0F5006F37D1606810B197
:100B8000B9F1010F09D1206B00882168C860206B82
:100B9000801C2063E08E401EE08623E02068806891
:100BA00000F0020002280AD1206B00882168C8608A
:100BB000206B801C2063E08E401EE08612E001F076
:100BC00049FBA0EB0800A84201D3681C00B94DB94D
:100BD000012084F8510000BF002084F8500000BFBD
:100BE00003208DE7E08E0028D8D136E0606810B190
:100BF000B9F1010F09D1206B007821680873206BCF
:100C0000401C2063E08E401EE08623E02068806860
:100C100000F0020002280AD1206B007821680873D6
:100C2000206B401C2063E08E401EE08612E001F045
:100C300011FBA0EB0800A84201D3681C00B94DB914
:100C4000012084F8510000BF002084F8500000BF4C
:100C5000032055E7E08E0028D8D142462946204699
:100C6000FFF71DFF08B120206065A06850B900BFE4
:100C7000002000902068C068009020688068009084
:100C800000BF00BF012084F8510000BF002084F89D
:100C9000500000BF606D08B1012031E700202FE750
:100CA000F8B504460E4615466068B0F5827F0DD152
:100CB000A068B0F5004F03D0A068B0F5806F05D1F3
:100CC0002068006820F04000216808606068B0F586
:100CD000827F11D1A068B0F5806F0DD1334600221C
:100CE000012120460095FFF771FE98B1606D40F03C
:100CF000200060650320F8BD334600228021204695
:100D00000095FFF763FE28B1606D40F0200060653C
:100D10000320F0E70020EEE72DE9FE4F04460F46E2
:100D200090461D460C9E0120019001F093FA8146E9
:100D300094F851B060680290AA46BBF1010F0BD045
:100D40000298B0F5827F04D1A06810B9BBF1040FFE
:100D500002D00220BDE8FE8F1FB1B8F1000F00D015
:100D60000DB90120F6E700BF94F85000012801D129
:100D70000220EFE7012084F8500000BF94F85100F2
:100D8000042802D0052084F8510000206065C4F8D2
:100D90003880E587A5872763E586A586206460649B
:100DA0002068006800F04000402805D020680068F6
:100DB00040F0400021680860E068B0F5006F54D151
:100DC000606810B1BAF1010F09D1206B0088216869
:100DD000C860206B801C2063E08E401EE0863DE0F2
:100DE000CC1200202068806800F00200022810D198
:100DF000E08E70B1019801280BD1206B008821682A
:100E0000C860206B801C2063E08E401EE0860020BE
:100E100001902068806800F0010068B1E08F58B14F
:100E20002068C068A16B0880A06B801CA063E08F65
:100E3000401EE0870120019001F00CFAA0EB0900B0
:100E4000B0420BD3701C48B1012084F8510000BFA0
:100E5000002084F8500000BF03207BE7E08E0028CC
:100E6000C0D1E08F0028BDD152E0606810B1BAF166
:100E7000010F09D1206B007821680873206B401C9A
:100E80002063E08E401EE0863CE02068806800F031
:100E90000200022810D1E08E70B1019801280BD118
:100EA000206B007821680873206B401C2063E08E63
:100EB000401EE086002001902068806800F001005C
:100EC00068B1E08F58B12068C068A16B0870A06B52
:100ED000401CA063E08F401EE0870120019001F0DC
:100EE000B9F9A0EB0900B04201D3701C00B94EB9AA
:100EF000012084F8510000BF002084F8500000BF9A
:100F0000032027E7E08E0028BFD1E08F0028BCD166
:100F10004A4631462046FFF7C2FD40B120206065B9
:100F200000BF002084F8500000BF012012E7A06835
:100F300050B900BF002000902068C0680090206871
:100F40008068009000BF00BF012084F8510000BFFE
:100F5000002084F8500000BF606D08B10120F9E660
:100F60000020F7E62DE9F8430446884616461D465C
:100F700094F85100012802D00220BDE8F88360688F
:100F8000B0F5827F0CD1A06850B9042084F85100DC
:100F900033464246414620460095FFF7BDFEECE74A
:100FA00001F058F90746B8F1000F00D00EB9012042
:100FB000E3E700BF94F85000012801D10220DCE7EC
:100FC000012084F8500000BF042084F85100002064
:100FD0006065C4F83880A687E6872063A086E0862F
:100FE00020646064A068B0F5004F0BD120680068F1
:100FF00020F04000216808602068006820F48040EC
:10100000216808602068006800F04000402805D092
:101010002068006840F0400021680860E06830BB4C
:1010200021E02068806800F0010050B12068007B5A
:10103000A16B0870A06B401CA063E08F401EE0878E
:1010400011E001F007F9C01BA84201D3681C00B9E8
:101050004DB9012084F8510000BF002084F85000F1
:1010600000BF032089E7E08F0028DAD125E021E0E6
:101070002068806800F0010050B12068C068A16B52
:101080000880A06B801CA063E08F401EE08711E009
:1010900001F0E0F8C01BA84201D3681C00B94DB9AB
:1010A000012084F8510000BF002084F8500000BFE8
:1010B000032062E7E08F0028DAD13A46294620462D
:1010C000FFF7EEFD08B120206065012084F8510093
:1010D00000BF002084F8500000BF606D08B10120FF
:1010E0004BE7002049E7704770477CB50446F74856
:1010F00000681821B0FBF1F04FF47A71B0FBF1F009
:1011000064214843019001F0A5F8054600BF01980D
:1011100020B9606D40F02000606508E00198401E35
:1011200001902068806800F002000028EFD000BF26
:101130002068406820F0A000216848602A466421A9
:101140002046FFF7ACFC18B1606D40F020006065F0
:10115000A06850B900BF002000902068C0680090CF
:1011600020688068009000BF00BF012084F8510013
:10117000606D18B12046FFF7B7FF02E02046FFF789
:10118000B2FF7CBD10B50446206B0078216808735F
:10119000206B401C2063E08E401EE086E08E10B97C
:1011A0002046FFF7A2FF10BD10B50446206B008853
:1011B0002168C860206B801C2063E08E401EE086A2
:1011C000E08E10B92046FFF790FF10BD10B5034622
:1011D00001B10AB9012010BD93F85100012801D0D6
:1011E0000220F8E700BF93F85000012801D1022047
:1011F000F1E7012083F8500000BF032083F851007D
:101200000020586519639A86DA8698639887D8878C
:101210001864D86810B1AE48586401E0AD4858640D
:101220009868B0F5004F0BD11868006820F04000B6
:101230001C6820601868006840F480401C682060CA
:101240001868006800F04000402805D01868006861
:1012500040F040001C68206000BF002083F8500070
:1012600000BF1868406840F0A0001C686060002063
:10127000B1E7704738B504462068406820F0600048
:101280002168486000F0E6FF05462A4664212046B2
:10129000FFF706FD18B1606D40F020006065A068A2
:1012A00050B900BF002000902068C06800902068FE
:1012B0008068009000BF00BF012084F85100606D7D
:1012C00018B92046FFF7D5FF02E02046FFF70CFFD4
:1012D00038BD10B504462068007BA16B0870A06B78
:1012E000401CA063E08F401EE087E08F10B92046CD
:1012F000FFF7C0FF10BD10B504462068C068A16BA1
:101300000880A06B801CA063E08F401EE087E08F08
:1013100010B92046FFF7AEFF10BD70477CB50446FC
:101320006A4800681821B0FBF1F04FF47A71B0FB05
:10133000F1F064214843019000F08CFF05462068DD
:10134000406820F020002168486000BF019820B963
:10135000606D40F02000606508E00198401E01903B
:101360002068806800F002000028EFD000BF2A4605
:1013700064212046FFF793FB18B1606D40F0200018
:101380006065A06850B900BF002000902068C06868
:10139000009020688068009000BF00BF606D88B931
:1013A00094F85100042806D1012084F85100204609
:1013B000FFF75FFF0CE0012084F851002046FFF7A3
:1013C000ACFF05E0012084F851002046FFF78CFEB9
:1013D0007CBD10B50446206B007821680873206B33
:1013E000401C2063E08E401EE086E08E50B92068ED
:1013F000406820F0800021684860E08F10B92046E6
:10140000FFF78CFF10BD10B504462068007BA16B70
:101410000870A06B401CA063E08F401EE087E08F47
:1014200050B92068406820F0600021684860E08E74
:1014300010B92046FFF772FF10BD10B50446206BAF
:1014400000882168C860206B801C2063E08E401EED
:10145000E086E08E50B92068406820F08000216866
:101460004860E08F10B92046FFF758FF10BD10B557
:1014700004462068C068A16B0880A06B801CA06334
:10148000E08F401EE087E08F50B92068406820F070
:10149000400021684860E08E10B92046FFF73EFF0B
:1014A00010BDF0B5044694F851506668012D08D07F
:1014B000B6F5827F03D1A06808B9042D01D00220BF
:1014C000F0BD09B102B13BB90120F9E7CC1200200F
:1014D000A91100088511000800BF94F850000128E8
:1014E00001D10220ECE7012084F8500000BF94F8FD
:1014F0005100042802D0052084F8510000206065C6
:101500002163A386E386A263A387E387E06820B113
:10151000F8482064F848606403E0F8482064F8481C
:1015200060642068006800F04000402805D0206812
:10153000006840F040002768386000BF002084F851
:10154000500000BF2068406840F0E00027687860E5
:101550000020B5E770B504460E46154694F85100D4
:10156000012801D0022070BDA06868B96068B0F59C
:10157000827F09D1042084F851002B46324631463F
:101580002046FFF78EFFEEE706B10DB90120EAE72E
:1015900000BF94F85000012801D10220E3E70120A8
:1015A00084F8500000BF042084F8510000206065DA
:1015B000A663A587E5872063A086E0866064E0686F
:1015C00010B1D048206401E0CF482064A068B0F595
:1015D000004F0BD12068006820F0400021680860AF
:1015E0002068006820F48040216808602068006856
:1015F00000F04000402805D02068006840F040001E
:101600002168086000BF002084F8500000BF2068F7
:10161000406840F06000216848600020A3E770B592
:1016200005466C6A2068406820F003002168486025
:10163000606D40F010006065012084F85100204684
:10164000FFF752FD70BDF8B505466C6A00F002FE6A
:1016500006462868006800F0200020282DD0206869
:10166000406820F02000216848602068406820F031
:10167000020021684860324664212046FFF70FFAD5
:1016800018B1606D40F020006065A06850B900BFDF
:10169000002000902068C06800902068806800905A
:1016A00000BF00BF0020E086012084F85100606D7B
:1016B00018B12046FFF718FDF8BD2046FFF713FDCF
:1016C00000BFF9E7704770B50446656A2846FFF722
:1016D000F9FF70BD2DE9F04104460E46154694F819
:1016E0005100012802D00220BDE8F08106B10DB9F9
:1016F0000120F9E700BF94F85000012801D1022031
:10170000F2E7012084F8500000BF032084F8510064
:10171000002060652663A586E586A063606420647A
:10172000A087E087A068B0F5004F0BD12068006863
:1017300020F04000216808602068006840F4804084
:10174000216808607148A16CC8627148A16C886208
:101750007048A16C08630020A16C4863E38E276881
:1017600007F10C02216BA06C01F0C1FD50B1606D5E
:1017700040F01000606500BF002084F8500000BFFA
:101780000120B1E72068006800F04000402805D043
:101790002068006840F040002168086000BF002019
:1017A00084F8500000BF2068406840F020002168A5
:1017B00048602068406840F00200216848600020CE
:1017C00092E770B505466C6A00F044FD064628684D
:1017D000006800F0200020282BD02068406820F00E
:1017E000200021684860A06850B96068B0F5827F29
:1017F00006D12068406820F003002168486005E0B9
:101800002068406820F00100216848603246642169
:101810002046FFF745FA08B1202060650020E087E8
:10182000012084F85100606D18B12046FFF75CFC80
:1018300070BD2046FFF71DFD00BFF9E7704770B58A
:101840000446656A2846FFF7F9FF70BD70B5054686
:101850006C6A00F0FFFC06462868006800F0200073
:10186000202821D02068406820F0200021684860AE
:10187000324664212046FFF712F918B1606D40F03E
:10188000200060652068406820F0030021684860FF
:101890000020E086E087012084F85100606D18B1D7
:1018A0002046FFF721FC70BD2046FFF736FD00BF44
:1018B000F9E7704770B50446656A2846FFF7F9FFF7
:1018C00070BD2DE9F04704460E4617461D4694F8B4
:1018D0005180D4F80490B8F1010F1DD0B9F5827F82
:1018E00004D1A06810B9B8F1040F15D00220BDE8EA
:1018F000F08700006F1400083B140008071400086C
:10190000D3130008F7120008D3120008C716000806
:10191000471600081F1600080EB107B10DB90120C7
:10192000E5E700BF94F85000012801D10220DEE76E
:10193000012084F8500000BF94F85100042802D020
:10194000052084F85100002060652663A586E586A1
:10195000A763A587E5872064606494F85100042894
:1019600006D1FE48E16CC862FD48E16C886205E082
:10197000FC48E16CC862FC48E16C8862FB48E16CA1
:1019800008630020E16C4863E38FD4F800C00CF1D9
:101990000C01A26BE06C01F0AAFC50B1606D40F04C
:1019A0001000606500BF002084F8500000BF0120D7
:1019B0009DE72068406840F00100216848600020F1
:1019C000A16CC862A16C8862A16C0863A16C4863B9
:1019D000E38ED4F800C00CF10C02216BA06C01F076
:1019E00086FC50B1606D40F01000606500BF0020C3
:1019F00084F8500000BF012079E72068006800F0FB
:101A00004000402805D02068006840F04000216870
:101A1000086000BF002084F8500000BF20684068C4
:101A200040F02000216848602068406840F00200D3
:101A30002168486000205AE72DE9F04104460E462F
:101A4000154694F85100012802D00220BDE8F0812B
:101A5000A06868B96068B0F5827F09D1042084F875
:101A600051002B46324631462046FFF72AFFEDE76C
:101A700006B10DB90120E9E700BF94F85000012834
:101A800001D10220E2E7012084F8500000BF0420C9
:101A900084F8510000206065A663A587E58720646F
:101AA0006064A086E086A068B0F5004F0BD1206886
:101AB000006820F04000216808602068006820F479
:101AC000804021680860A548E16CC862A448E16CC8
:101AD0008862A648E16C08630020E16C4863E38FEC
:101AE000276807F10C01A26BE06C01F000FC50B11B
:101AF000606D40F01000606500BF002084F8500069
:101B000000BF0120A2E72068006800F040004028E4
:101B100005D02068006840F040002168086000BFE0
:101B2000002084F8500000BF2068406840F020008A
:101B3000216848602068406840F0010021684860E2
:101B4000002083E70CB5002101918949096818221A
:101B5000B1FBF2F14FF47A72B1FBF2F1642251431E
:101B6000009100BF009921B9416D41F040014165EC
:101B700008E00099491E00910168896801F002019E
:101B80000029EFD000BF0168096821F04001026818
:101B900011600168496821F0E00102685160016844
:101BA000C968019100BF072180F851100CBD016880
:101BB000496821F08001026851600168096821F0DC
:101BC000400102681160072180F8511070473EB54E
:101BD00004460025664800681821B0FBF1F04FF478
:101BE0007A71B0FBF1F064214843019001980290B2
:101BF0002068406820F02000216848602068406824
:101C000000F0800098B15B48606400BF029820B982
:101C1000606D40F04000606506E00298401E029052
:101C200094F851000728F1D100BF01980290206874
:101C3000406800F0400098B14F48206400BF02980F
:101C400020B9606D40F04000606506E00298401EDB
:101C5000029094F851000728F1D100BF019802903A
:101C60002068406800F0020010B3A06C00B30020B0
:101C7000A16C4863A06C01F088FB08B1402060654E
:101C80002068406820F002002168486000BF029888
:101C900020B9606D40F04000606508E00298401E89
:101CA00002902068806800F002000028EFD000BF9A
:101CB0002068406800F00100B0B1E06CA0B10020E5
:101CC000E16C4863E06C01F060FB08B140206065A6
:101CD0002068006820F040002168086020684068A3
:101CE00020F00100216848600020E087E086606DF8
:101CF000402801D1012501E00020606500BF0020DF
:101D000000902068C068009020688068009000BF44
:101D100000BF012084F8510028463EBD7047F8B549
:101D200005466C6A2068006820F040002168086061
:101D30000020E16C48632068406820F001002168C1
:101D4000486000F087FA0646324664212046FEF7D6
:101D5000A6FEA0B1606D40F040000FE03F18000803
:101D6000C3170008B51800084D1800081F16000812
:101D7000CC120020AF1B0008451B00086065A06C5A
:101D800018B1A06C406B00B1F8BD0020E087E08680
:101D9000606D402801D00020606500BF00200090E9
:101DA0002068C068009020688068009000BF00BF75
:101DB000012084F851002046FFF7B0FF00BFE3E7A1
:101DC0007CB505466C6A0020A16C4863F648006843
:101DD0001821B0FBF1F04FF47A71B0FBF1F06421FF
:101DE000484301902068406820F002002168486064
:101DF00000BF019820B9606D40F04000606508E0C8
:101E00000198401E01902068806800F002000028C0
:101E1000EFD000BFE06C18B1E06C406B00B17CBD4E
:101E20000020E087E086606D402801D000206065DA
:101E300000BF002000902068C06800902068806883
:101E4000009000BF00BF012084F851002046FFF73A
:101E500065FF00BFE3E7FEB5044600250126D24832
:101E600000681821B0FBF1F04FF47A71B0FBF1F08B
:101E7000642148430190019802902068406820F056
:101E80002000216848602068406800F0800098B118
:101E9000C648606400BF029820B9606D40F0400001
:101EA000606506E00298401E029094F851000728F1
:101EB000F1D100BF019802902068406800F0400016
:101EC00098B1BB48206400BF029820B9606D40F013
:101ED0004000606506E00298401E029094F85100B0
:101EE0000728F1D100BF01980290A06C58B120687A
:101EF000406800F0020018B1AE48A16C486302E0EF
:101F00000020A16C4863E06C58B12068406800F084
:101F1000010018B1A848E16C486302E00020E16CC0
:101F200048632068406800F0020060B1A06C50B1C6
:101F3000A06C01F055FA28B10020A16C4863402044
:101F4000606500E000262068406800F0010060B194
:101F5000E06C50B1E06C01F043FA28B10020E16C74
:101F600048634020606500E00026012E1AD1002061
:101F7000E087E086606D402801D1012501E0002066
:101F8000606500BF002000902068C0680090206855
:101F90008068009000BF00BF012084F851002046F7
:101FA000FFF7BCFE2846FEBD014600BF91F8500079
:101FB000012801D102207047012081F8500000BFA4
:101FC0000868406820F003000A68506000BF0020E5
:101FD00081F8500000BF00BFEDE7014600BF91F857
:101FE0005000012801D102207047012081F85000E3
:101FF00000BF0868406840F003000A68506000BFF6
:10200000002081F8500000BF00BFEDE770B5044626
:102010000025A06C40B1A06C01F0B7F920B1606D53
:1020200040F0100060650125E06C40B1E06C01F00B
:10203000ACF920B1606D40F01000606501252068AA
:10204000406820F0030021684860012084F85100B6
:10205000284670BD70B505466C6A0020E087E086B2
:102060002046FFF741F870BDF8B504462068466881
:1020700020688568C5F3801048B905F0010030B1CB
:10208000C6F3801018B12046216C8847F8BDC5F30F
:10209000400030B1C6F3C01018B12046616C8847CB
:1020A000F4E7C5F3401018B9C5F38010002871D0CB
:1020B000C6F3401000286DD0C5F38010F0B194F83D
:1020C000510003280ED0606D40F00400606500BF31
:1020D000002000902068C068009020688068009010
:1020E00000BF0BE000BF002000902068C068009097
:1020F00020688068009000BF00BFC7E7C5F34010AC
:1021000088B1606D40F00100606500BF0020009064
:102110002068806800902068006820F040002168F6
:10212000086000BF00BF606D70B32068406820F099
:10213000E00021684860012084F8510006F00200A8
:1021400010B906F0010000B32068406820F00300D9
:1021500021684860E06C50B11848E16C4863E06C5D
:1021600001F03EF918B1606D40F040006065A06C70
:1021700050B11248A16C4863A06C01F031F918B15C
:10218000606D40F04000606502E02046FEF7ACFF65
:102190007CE7FFE700BF79E7014691F851007047FF
:1021A0000146486D70470000CC120020AF1B0008AC
:1021B000451B0008C11D00081F1D00085520000810
:1021C000704770B50446644800784FF47A71B1FBEB
:1021D000F0F062490968B1FBF0F5284601F097FC80
:1021E00008B1012070BD102C07D200222146501EDC
:1021F00001F000FC5A48046001E00120F2E70020F1
:10220000F0E710B55748006840F0100055490860E5
:10221000032001F0DDFB0F20FFF7D3FFFEF730FBBB
:10222000002010BD704710B54FF0FF304E490861D7
:1022300000200861401EC8600020C860FFF7F2FF60
:10224000002010BD494800684349097808444749BF
:10225000086070474548006870474148006870470B
:1022600070B5044600253C480078A0420AD03A48A0
:10227000067804703A480068FFF7A3FF05460DB1E1
:1022800035480670284670BD33480078704770B5F1
:102290000446FFF7DFFF06462546681C10B12E48AE
:1022A0000078054400BFFFF7D5FF801BA842FAD392
:1022B00070BD4FF0E020006920F002004FF0E021F7
:1022C000086170474FF0E020006940F002004FF0D5
:1022D000E021086170472648704726480068000CD6
:1022E000704724480068C0F30B007047224800681C
:1022F00070472148001D006870471F48083000687B
:1023000070471C48406840F001001A494860704717
:102310001848406820F00100164948607047154889
:10232000406840F002001349486070471148406817
:1023300020F002000F49486070470E48406840F0A6
:1023400004000C49486070470A48406820F00400C7
:102350000849486070470000C8120020CC120020D5
:10236000C41200200020024000100240C0120020D1
:10237000000A0101002004E0E8F7FF1F10B5FFF795
:1023800069FF0446F748006840F00100F54908601D
:1023900006E0FFF75FFF001B022801D9032010BDF4
:1023A000F048006800F002000028F2D0ED48006814
:1023B00020F0F80040F08000EA490860FFF74AFF8B
:1023C00004460020E749486008E0FFF743FF001B90
:1023D00041F28831884201D90320E0E7E1484068B2
:1023E00000F00C000028F0D1DF48E0490860E04828
:1023F0000068FFF7E6FE08B10120D0E7FFF72AFFEB
:102400000446D848006820F08070D649086006E08D
:10241000FFF720FF001B022801D90320BFE7D148A6
:10242000006800F000700028F2D1CE494860FFF744
:1024300011FF0446CB48006820F41020C949086009
:1024400006E0FFF707FF001B642801D90320A6E779
:10245000C448006800F400300028F2D1C148006888
:1024600020F48020BF4908600846406A40F0807030
:1024700048620020886000BF91E708B5BB49096841
:10248000C9084FF47A72B1FBF2F14143009100BFE9
:1024900000BF00994A1E00920029F9D108BDF8B585
:1024A00004460CB90120F8BD207800F00100002896
:1024B00078D0AC48406800F00C0004280CD0A94843
:1024C000406800F00C00082811D1A648406800F4CC
:1024D0008030B0F5803F0AD1A248006800F4003097
:1024E00000285FD0606800285CD10120DBE700BFD6
:1024F0006068B0F5803F06D19A48006840F48030AB
:102500009849086028E0606858B99648006820F447
:102510008030944908600846006820F480200860F4
:102520001AE06068B0F5A02F0BD18E48006840F427
:1025300080208C4908600846006840F480300860BC
:102540000AE08848006820F4803086490860084620
:10255000006820F48020086000BF606888B1FFF741
:1025600079FE054606E0FFF775FE401B642801D999
:10257000032098E77B48006800F400300028F2D080
:1025800010E0FFF767FE054606E0FFF763FE401B1D
:10259000642801D9032086E77248006800F40030FF
:1025A0000028F2D1207800F00200022857D16D48AF
:1025B000406800F00C0050B16A48406800F00C0020
:1025C000082818D16748406800F4803098B96548F9
:1025D000006800F0020020B12069012801D001202C
:1025E00061E76048006820F0F800616940EAC100D6
:1025F0005C49086033E02069E8B101205D4908606A
:10260000FFF728FE054606E0FFF724FE401B0228E0
:1026100001D9032047E75348006800F00200002872
:10262000F2D05048006820F0F800616940EAC1002B
:102630004C49086013E000204E490860FFF70AFE8D
:10264000054606E0FFF706FE401B022801D90320DD
:1026500029E74448006800F002000028F2D1207801
:1026600000F0080008282DD1A069B8B10120424926
:102670000860FFF7EFFD054606E0FFF7EBFD401BA6
:10268000022801D903200EE73648406A00F0020014
:102690000028F2D00120FFF7F0FE13E000203649B9
:1026A0000860FFF7D7FD054606E0FFF7D3FD401BA6
:1026B000022801D90320F6E62A48406A00F0020009
:1026C0000028F2D1207800F00400042879D10027F6
:1026D0002448C06900F0805070B900BF2148C0692B
:1026E00040F080501F49C8610846C06900F0805022
:1026F000009000BF00BF01272048006800F48070F0
:10270000B0B91E48006840F480701C490860FFF7AB
:10271000A1FD054606E0FFF79DFD401B642801D999
:102720000320C0E61548006800F480700028F2D04D
:1027300000BFE068012806D10A48006A40F00100A5
:102740000849086236E0E068D0B90648006A20F01F
:102750000100044908620846006A20F0040008628B
:1027600028E000000010024000127A00CC12002085
:10277000C412002000004242800442420070004027
:10278000E06805280BD1F648006A40F00400F449DF
:1027900008620846006A40F0010008620AE0F0485A
:1027A000006A20F00100EE4908620846006A20F045
:1027B0000400086200BFE068A0B1FFF74BFD0546CA
:1027C00009E02BE0FFF746FD401B41F288318842CB
:1027D00001D9032067E6E248006A00F00200002801
:1027E000F0D012E0FFF736FD054608E0FFF732FDB6
:1027F000401B41F28831884201D9032053E6D84872
:10280000006A00F002000028F0D1012F05D1D44861
:10281000C06920F08050D249C86100BFE069C8B3E8
:10282000CF48406800F00C00082857D0E069022823
:102830003FD10020CB490866FFF70CFD054606E0B6
:10284000FFF708FD401B022801D903202BE6C448EE
:10285000006800F000700028F2D1206AB0F5803FD7
:1028600007D1BF48406820F40030A1680843BC4944
:102870004860D4E908010843B949496821F4741152
:102880000843B74948600120B6490866FFF7E2FCF3
:10289000054607E034E0FFF7DDFC401B022801D9C4
:1028A000032000E6AE48006800F000700028F2D077
:1028B00026E00020AB490866FFF7CCFC054606E0A1
:1028C000FFF7C8FC401B022801D90320EBE5A44810
:1028D000006800F000700028F2D111E0E0690128E2
:1028E00000D1E0E59E48466806F48031206A8142C6
:1028F00004D106F47011606A814201D00120D2E552
:102900000020D0E570B50021002200240023002023
:10291000934D696801F00C05F5B1042D02D0082D26
:1029200019D101E0904819E0904DC1F38346AB5DA9
:1029300001F4803555B18A4D6D68C5F340458C4E24
:10294000725D894D5D43B5FBF2F402E0894D03FBF6
:1029500005F4204602E000BF834800BF00BF70BD01
:1029600070B504460D460CB9012070BD8248006860
:1029700000F00700A8420ED27F48006820F0070050
:1029800028437D4908600846006800F00700A84217
:1029900001D00120E9E7207800F0020002281DD1D3
:1029A000207800F00400042805D16D48406840F408
:1029B000E0606B494860207800F00800082805D1E5
:1029C0006748406840F46050654948606448406822
:1029D00020F0F000A168084361494860207800F0C9
:1029E000010078B36068012806D15D48006800F4F2
:1029F000003090B90120B8E76068022806D1584835
:102A0000006800F0007040B90120AEE7544800684B
:102A100000F0020008B90120A7E75148406820F003
:102A20000300616808434E494860FFF713FC0646FF
:102A300009E0FFF70FFC801B41F28831884202D980
:102A4000032092E707E04648406800F00C00616808
:102A5000B0EB810FEDD14848006800F00700A842B4
:102A60000ED94548006820F0070028434249086015
:102A70000846006800F00700A84201D0012074E772
:102A8000207800F00400042807D13548406820F47D
:102A9000E060E168084332494860207800F00800AF
:102AA000082808D12E48406820F46050216940EA87
:102AB000C1002B494860FFF725FF29494968C1F348
:102AC00003112E4A515CC8402D4908602D4800680A
:102AD000FFF777FB002048E770B586B005460C4647
:102AE0001646002002900390049005900220039067
:102AF00003200590002004904FF48070029000BFE6
:102B00001748806940F004001549886108468069CB
:102B100000F00400019000BF00BF02A91A4800F0B5
:102B2000D5F80F48406820F0E06020430C49486029
:102B300006B070BD01200B49C864704700200949E8
:102B4000C86470470E480068704700B5FFF7FAFF89
:102B500003494968C1F302210C4A515CC84000BDD9
:102B6000001002400000424200127A007A40000841
:102B70008A40000800093D00002002408C40000807
:102B8000CC120020C4120020000801409C40000824
:102B900000B5FFF7D7FF4A494968C1F3C221494A46
:102BA000515CC84000BD0F2101604549096801F42E
:102BB0008021B1F5802F03D14FF4A02141600CE0BA
:102BC0003F49096801F48031B1F5803F03D14FF4EA
:102BD0008031416001E0002141603949496801F4D8
:102BE000003181603649096801F0010111B101210C
:102BF000016101E00021016131490968C1F3C401AB
:102C000041612F49096A01F00401042902D105211B
:102C1000C16009E02A49096A01F0010111B10121ED
:102C2000C16001E00021C1602549496A01F001014C
:102C300011B10121816101E0002181612049096810
:102C400001F08071B1F1807F02D10221C16101E008
:102C50000121C1611A49496801F4803202621849B0
:102C6000496801F47012426270470F220260144AF0
:102C7000526802F003024260114A526802F0F00208
:102C800082600F4A526802F4E062C2600C4A5268E5
:102C900002F46052D20802610B4A126802F0070285
:102CA0000A607047704710B50548806800F08000E2
:102CB000802804D1FFF7F6FF80200149887210BDFB
:102CC000001002409C400008002002402DE9F84717
:102CD0000346002294466EE14FF0010808FA02F420
:102CE000D1F8008008EA0400A0427DD1DFF878A482
:102CF000D1F80480A8EB0A09D0453AD014DCB8F129
:102D0000030F50D009DCB8F1000F31D0B8F1010F3A
:102D10001CD0B8F1020F49D120E0B8F1110F18D042
:102D2000B8F1120F42D11EE0B9F5881F25D006DC9C
:102D3000B9F5803F20D0B9F5801F37D11AE0B9F539
:102D4000001F18D0B9F5041F30D117E0D1F80CC01E
:102D50002DE0D1F80C8008F1040C28E0D1F80C80AB
:102D600008F1080C23E0D1F80C8008F10C0C1EE0EF
:102D700000BF00BF00BF00BF00BF00BFD1F8088088
:102D8000B8F1000F02D14FF0040C0BE0D1F808802D
:102D9000B8F1010F03D14FF0080C1C6102E04FF0B5
:102DA000080C5C6103E04FF0000C00E000BF00BFC6
:102DB000FF2801D8984601E003F104084646FF28A1
:102DC00002D84FEA820803E0A2F108084FEA880817
:102DD0004746D6F800804FF00F0909FA07F928EAAC
:102DE00009080CFA07F900E088E048EA0908C6F883
:102DF0000080D1F8048008F08058B8F1805F7DD160
:102E000000BFDFF86883D8F8188048F00108DFF8C1
:102E10005C93C9F81880C846D8F8188008F00108F3
:102E2000CDF8008000BF00BF4FEAB9384FEA9209E1
:102E300058F829504FEA82784FEA18794FF00F0876
:102E400008FA09F825EA0805DFF82483434502D18A
:102E50004FF0000816E0DFF81C83434502D14FF025
:102E600001080FE0DFF81083434502D14FF002085C
:102E700008E0DFF80883434502D14FF0030801E082
:102E80004FF004084FEA82794FEA197908FA09F8F5
:102E900048EA0505DFF8E8824FEA920948F8295028
:102EA000D1F8048008F48018B8F5801F0AD1DFF843
:102EB000D482D8F8008048EA0008DFF8C892C9F840
:102EC000008009E0DFF8BC82D8F8008028EA00081A
:102ED000DFF8B092C9F80080D1F8048008F4001837
:102EE000B8F5001F10D1DFF89C8208F10408D8F86B
:102EF000008048EA0008DFF88C9200E05AE009F10F
:102F00000409C9F800800DE0DFF8788208F10408B0
:102F1000D8F8008028EA0008DFF8689209F104096F
:102F2000C9F80080D1F8048008F40038B8F5003FF3
:102F30000ED1DFF85082A8F10408D8F8008048EAE2
:102F40000008DFF84092A9F10409C9F800800DE0FB
:102F5000DFF83082A8F10408D8F8008028EA0008D9
:102F6000DFF82092A9F10409C9F80080D1F80480A3
:102F700008F48038B8F5803F0ED1DFF80882A8F158
:102F80000808D8F8008048EA0008DFF8F891A9F1AD
:102F90000809C9F800800DE0DFF8E881A8F1080809
:102FA000D8F8008028EA0008DFF8D891A9F10809CC
:102FB000C9F80080521CD1F8008028FA02F8B8F154
:102FC000000F7FF489AEBDE8F8872DE9F041024695
:102FD0000B46002082E00127874007EA0301002911
:102FE0007BD0674F4FEA900C57F82C4087074FEA89
:102FF000177C0F2707FA0CF73C405D4FBA4201D10E
:1030000000270FE05B4FBA4201D101270AE05A4F77
:10301000BA4201D1022705E0584FBA4201D1032735
:1030200000E004274FEA807C4FEA1C7C07FA0CF78B
:10303000A74233D1534F083F3F688F43DFF844C165
:10304000ACF1080CCCF800700CF104073F688F431A
:103050000CF1040CCCF800704A4F3F1D3F688F43C1
:10306000DFF820C10CF1040CCCF80070454F3F682C
:103070008F43DFF810C1CCF8007087074FEA177C48
:103080000F2707FA0CF43E4F4FEA900C57F82CC06C
:103090002CEA040C4FEA900847F828C0FF2901D811
:1030A000174600E0171D3D46FF2901D8870002E0C2
:1030B000A0F10807BF003E462F684FF00F0C0CFA36
:1030C00006FC27EA0C074FF0040C0CFA06FC47EA52
:1030D0000C072F60D7688F43D760401C23FA00F796
:1030E000002F7FF478AFBDE8F081024693680B4073
:1030F0000BB1012000E0002070470AB1016101E03E
:103100000B040361704710B5C26821EA020302EAAA
:10311000010443EA0443036110BD08B502464FF4BD
:103120008030009000980843009000989061916171
:103130000098906190690090906900F4803008B127
:10314000002008BD0120FCE7704710B504460D487B
:103150000C300068204028B10A480C30046020463A
:10316000FFF7F2FF10BD0000000011100010024038
:1031700000080140000C0140001001400014014013
:1031800008000140080401400146002209B901205D
:103190007047F94B0868C01A1423B0FBF3F08000A5
:1031A0000864F5480838C863022081F821000868DF
:1031B000026843F6F0708243D1E901031843CB68FB
:1031C00018430B6918434B6918438B691843CB6943
:1031D000184302430868026000208863012081F8D8
:1031E0002100002081F8200000BFD1E7014609B985
:1031F000012070470868006820F001000A6810602C
:1032000000200A6810600A6850600A6890600A68C6
:10321000D060D94A0868801A1422B0FBF2F080000E
:103220000864D5480838C86391F8402001209040D0
:10323000CA6B506000208862C86208634863886374
:1032400081F8210000BF81F8200000BF00BFD0E757
:1032500030B590F840500124AC40C56B6C600468F8
:1032600063604468102C04D10468A2600468E160C3
:1032700003E00468A1600468E26030BD2DE9F0411C
:1032800004460D4616461F464FF0000800BF94F84E
:103290002000012802D10220BDE8F081012084F83D
:1032A000200000BF94F82100012817D1022084F8E3
:1032B00021000020A0632068006820F00100216840
:1032C00008603B46324629462046FFF7C1FF20688A
:1032D000006840F001002168086006E000BF00209F
:1032E00084F8200000BF4FF002084046D4E72DE9E3
:1032F000F04104460D4616461F464FF0000800BF39
:1033000094F82000012802D10220BDE8F0810120BC
:1033100084F8200000BF94F8210001282CD102205D
:1033200084F821000020A0632068006820F00100DC
:10333000216808603B46324629462046FFF788FF51
:10334000E06A30B12068006840F00E002168086033
:103350000BE02068006820F0040021680860206805
:10336000006840F00A00216808602068006840F0AA
:1033700001002168086006E000BF002084F82000FA
:1033800000BF4FF002084046BFE70146002291F817
:103390002100022808D00420886300BF002081F8A3
:1033A000200000BF012070470868006820F00E0070
:1033B0000B6818600868006820F001000B6818604E
:1033C00091F8403001209840CB6B5860012081F883
:1033D000210000BF002081F8200000BF1046E2E776
:1033E00070B50446002594F82100022803D004207B
:1033F000A063012548E02068006820F00E002168E5
:1034000008602068006820F00100216808605A49BF
:103410002068884201D1012026E0574914312068F4
:10342000884201D110201FE053492831206888428A
:1034300001D1801518E050493C312068884201D103
:10344000801411E04C4950312068884202D14FF479
:10345000803009E0484964312068884202D14FF445
:10346000801001E04FF08070434908394860012026
:1034700084F8210000BF002084F8200000BF606BAA
:1034800010B12046616B8847284670BD2DE9F04198
:1034900004460E4615464FF0000894F82100022815
:1034A00009D00420A06300BF002084F8200000BFE2
:1034B0000120BDE8F0812068006800F0200020B104
:1034C0004FF48070A0630120F3E77EBB2A49206897
:1034D000884201D1022027E0274914312068884220
:1034E00001D1202020E0244928312068884201D1E0
:1034F000401519E020493C312068884202D14FF440
:10350000005011E01C4950312068884202D14FF42C
:10351000003009E0184964312068884202D14FF434
:10352000001001E04FF00070074631E0FFE712495C
:103530002068884201D1042029E00F491431206815
:10354000884201D1402022E00B492831206888427E
:1035500001D100151BE008493C312068884202D1A6
:103560004FF4804013E0044950312068884205D16F
:103570004FF480200BE0000008000240FA49206868
:10358000884202D14FF4800001E04FF0806007468E
:10359000FEF760FE80465DE0F3486C380068F24A52
:1035A000643A2168914201D1082126E0EE4A503A5E
:1035B0002168914201D180211FE0EB4A3C3A216809
:1035C000914201D1C91418E0E74A283A2168914292
:1035D00002D14FF4004110E0E34A143A21689142CD
:1035E00002D14FF4002108E0DF4A2168914202D164
:1035F0004FF4000101E04FF00061084098B194F8E9
:10360000401001208840E16B4860A06B40F0010051
:10361000A063012084F8210000BF002084F820006E
:1036200000BF012045E7681CA0B12DB1FEF712FED6
:10363000A0EB0800A8420DD9A06B40F02000A063C9
:10364000012084F8210000BF002084F8200000BF82
:1036500001202EE7C4486C380068384000289BD011
:10366000A6BBC14964392068884201D1022026E006
:10367000BD4950392068884201D120201FE0BA4955
:103680003C392068884201D1401518E0B6492839F4
:103690002068884202D14FF4005010E0B24914393A
:1036A0002068884202D14FF4003008E0AE4920681B
:1036B000884202D14FF4001001E04FF00070AA4997
:1036C0006C394860012084F8210031E0FFE7A64909
:1036D00064392068884201D1042026E0A24950398B
:1036E0002068884201D140201FE09F493C39206872
:1036F000884201D1001518E09B492839206888428A
:1037000002D14FF4804010E0974914392068884274
:1037100002D14FF4802008E093492068884202D10A
:103720004FF4800001E04FF080608F496C394860B1
:1037300000BF002084F8200000BF00BFB9E670B5CC
:103740000446E06B05682068066894F84010042081
:1037500088402840002846D006F00400002842D0C7
:103760002068006800F0200028B92068006820F078
:103770000400216808607C4964392068884201D1CE
:10378000042026E0784950392068884201D1402041
:103790001FE075493C392068884201D1001518E0C6
:1037A000714928392068884202D14FF4804010E0E6
:1037B0006D4914392068884202D14FF4802008E016
:1037C00069492068884202D14FF4800001E04FF03F
:1037D000806065496C394860E06A00287AD02046EC
:1037E000E16A884776E094F840100220884028403B
:1037F000A8B306F0020090B32068006800F0200033
:1038000040B92068006820F00A00216808600120A3
:1038100084F82100544964392068884201D102208B
:1038200027E0514950392068884201D1202020E00A
:103830004D493C392068884201D1401519E04A4978
:1038400028392068884202D14FF4005011E04649DF
:1038500014392068884203D14FF4003009E016E0A3
:1038600041492068884202D14FF4001001E04FF036
:1038700000703D496C39486000BF002084F820008A
:1038800000BFA06A30B32046A16A884722E094F8BE
:103890004010082088402840E0B106F00800C8B178
:1038A0002068006820F00E002168086094F840103D
:1038B00001208840E16B48600120A06384F821006A
:1038C00000BF002084F8200000BF206B10B120460C
:1038D000216B884770BD10B50346002400BF93F8E4
:1038E0002000012801D1022010BD012083F8200012
:1038F00000BF93F82100012812D131B1012906D06F
:10390000022906D0032908D105E09A6207E0DA62AD
:1039100005E01A6303E05A6301E0012400BF00E000
:10392000012400BF002083F8200000BF2046DBE711
:103930000246002300BF92F82000012801D1022096
:103940007047012082F8200000BF92F82100012872
:103950001ED1052919D2DFE801F003090C0F12006E
:103960000020906213E000006C0002400020D06252
:103970000DE0002010630AE00020506307E0002003
:103980009062D0621063506301E0012300BF00E049
:10399000012300BF002082F8200000BF1846CFE7B7
:1039A000014691F8210070470146886B704700007E
:1039B00010B5002804DB0A07130EBC4A135406E0B6
:1039C0000A07140EBA4A00F00F031B1FD45410BD8F
:1039D00000BF00F00702B64B0C3B19684FF6FF031F
:1039E0001940B44B0B4343EA0221B14B0C3B196025
:1039F00000BF70472DE9F05F80460D461646002750
:103A000000F04EF9074639462A46334601F00700D2
:103A1000C0F1070ABAF1040F02D94FF0040A01E01D
:103A2000C0F1070AD14600F1040ABAF1070F02D229
:103A30004FF0000A01E0A0F1030AD4464FF0010A5A
:103A40000AFA09FAAAF1010A0AEA020A0AFA0CFABF
:103A50004FF0010B0BFA0CFBABF1010B0BEA030B64
:103A60004AEA0B0421464046FFF7A2FFBDE8F09F5B
:103A700001460846002809DB00F01F0301229A4096
:103A800043099B0003F1E023C3F8002100BF704706
:103A900010B501460846002817DB00F01F0301227D
:103AA0009A40854B440943F8242000BF00BF00BF63
:103AB000BFF34F8F00BF00BF00BF00BF00BF00BFFC
:103AC000BFF36F8F00BF00BF00BF00BF10BD00BFBE
:103AD00000BF00BF00BF00BFBFF34F8F00BF00BFDC
:103AE00000BF73480C38006800F4E0607149084377
:103AF000001D6F490C39086000BF00BF00BFBFF355
:103B00004F8F00BF00BF00BF00BF00BFFDE770B513
:103B100004462546681EB0F1807F01D301200FE0E6
:103B2000681E4FF0E02148610F214FF0FF30FFF792
:103B30003FFF00204FF0E02188610720086100204E
:103B400070BD10B500F0ACF810BD2DE9F04304468F
:103B50002046002803DB554F3F5C3F0907E0544FE8
:103B600000F00F0CACF1040C17F80C703F093D4647
:103B70000E4606F00700C0F10708B8F1040F02D99D
:103B80004FF0040801E0C0F10708C44600F1040842
:103B9000B8F1070F02D24FF0000801E0A0F10308CE
:103BA000474625FA07F84FF0010909FA0CF9A9F17F
:103BB000010908EA0908C2F800804FF0010808FA74
:103BC00007F8A8F1010808EA0508C3F8008000BF5B
:103BD000BDE8F08310B501460846002808DB00F078
:103BE0001F0301229A40344B8033440943F82420B8
:103BF00000BF10BD10B50146084600280EDB2E4A56
:103C00008032430952F8232000F01F040123A3400F
:103C10001A400AB1012202E0002200E00022104610
:103C200010BD10B501460846002807DB00F01F0351
:103C300001229A40214B440943F8242000BF10BDC3
:103C400010B50146084600280EDB1C4A80324309A5
:103C500052F8232000F01F040123A3401A400AB1A8
:103C6000012202E0002200E00022104610BD0428DC
:103C700008D14FF0E021096941F004014FF0E02242
:103C8000116107E04FF0E021096921F004014FF0D4
:103C9000E02211617047704710B5FFF7FCFF10BDBF
:103CA00003480C380068C0F30220704700E400E0CD
:103CB00018ED00E00000FA0580E100E080E200E09D
:103CC000704710B5002100200022214B5B6803F0F3
:103CD0000C0121B1042906D0082928D107E01D4B89
:103CE0001D4C236027E01B4B1B4C236023E0184B2B
:103CF0005B6803F47010164B5B6803F48032022398
:103D000003EB904022B9154B4343134C23600DE065
:103D10000F4B5B6803F4003323B1104B43430E4C4D
:103D2000236003E00B4B43430B4C236003E0094B40
:103D3000094C236000BF00BF054B5B68C3F303134E
:103D4000074CE15C044B1B68CB40034C236010BD67
:103D50000010024000127A00CC12002000093D0041
:103D60008C4000084FF0000200B51346944696467A
:103D7000203922BFA0E80C50A0E80C50B1F120017E
:103D8000BFF4F7AF090728BFA0E80C5048BF0CC02C
:103D90005DF804EB890028BF40F8042B08BF70478A
:103DA00048BF20F8022B11F0804F18BF00F8012BFC
:103DB0007047704770477047754600F02BF8AE4665
:103DC00005006946534620F00700854618B020B527
:103DD000FCF708FABDE820404FF000064FF000075E
:103DE0004FF000084FF0000B21F00701AC46ACE8A3
:103DF000C009ACE8C009ACE8C009ACE8C0098D4610
:103E0000704710B50446AFF300802046BDE810406F
:103E1000FCF7D3B900487047281300200149182047
:103E2000ABBEFEE72600020070470000003C664281
:103E3000425A4242663C00000000000000186848F8
:103E400008080808087E000000000000003C6642E8
:103E500006040810207E000000000000007C04081A
:103E600018040646443C000000000000000C181036
:103E70002064447C0404000000000000007C4040FA
:103E80007C040242643C0000000000000008103086
:103E90003C664242663C000000000000007E420496
:103EA000040C08081030000000000000003C6642CE
:103EB00064384642463C000000000000003C664278
:103EC00042663C08081000000000000000000000EE
:103ED000000000001818000000000000001818384A
:103EE0002C24247C4242000000000000007C46425A
:103EF00044784642467C000000000000003C6642D8
:103F000040404042663C000000000000007C444607
:103F100046464646447C000000000000007E4040CB
:103F2000407C4040407E000000000000007E404099
:103F3000407C40404040000000000000003C6640E3
:103F4000404E4242663C00000000000000464646EB
:103F5000467E46464646000000000000007C1818D9
:103F600018181818187C0000000000000004040451
:103F700004040444443800000000000000424444AB
:103F800048784844444200000000000000202020FF
:103F900020202020203E0000000000000066666A0D
:103FA0005A5A424242420000000000000066665633
:103FB00056564A4A4646000000000000003C64464F
:103FC00046464646643C000000000000007C424239
:103FD000427C40404040000000000000003C66423F
:103FE00042424242663C0C0600000000007C464211
:103FF000467C48444442000000000000003C64420B
:10400000601C0642663C000000000000007E1010AC
:10401000101010101010000000000000004646466E
:1040200046464646643C00000000000000424264F0
:10403000242424381818000000000000009BDA5ADD
:104040005A5A6A6666640000000000000042242C90
:1040500018181824644200000000000000C2462422
:104060002C1818101010000000000000007E040C36
:1040700008101020607E00000000020304050607FF
:1040800008090A0B0C0D0E0F1010010200000000B1
:1040900000000000010203040607080900000000F8
:1040A00001020304C440000800000020D0120000F8
:1040B0002801000888430008D0120020B80600003C
:1040C0008401000801FF01FF01FF01F7C403FFC0E5
:1040D0006A0E16113B038008AAC11F6A1F1E4B807F
:1040E0000F1EAAC31E4A3F0D191E2A1F0AB503FF41
:1040F000CFE01E7FE07FFFFF572CFF807F17AD03CF
:10410000FFDFF01E5AF01E2B81FF17B503FFFFF8EB
:10411000EBFFF81EA2FC2C01FFFE1E1B3FF31E2925
:1041200035191EAAFE1E5AFF1E3A80351978AAFFBD
:104130005A3901291E4A7F1E2BCFFFDA6996891E44
:104140002953AC03FFC71E7A3F1E2A3F53D91E7A5C
:104150001F1E4A1F1EAAC3785E0FFF7FC0011E19D3
:10416000359C03FFC1B4116B07FE1E2C0FFFC01E50
:104170002AC0D9818B03FC1E59019AE0F16AF81E0E
:10418000FC07FFBF1E116AF01E4B03FEC0B91E4D97
:10419000607FCFF91E0A11FC1E11691E0B1B01F076
:1041A0001E0A1AC01E2109101E0A1B3C1E0A1B7E75
:1041B0001E0A1AFF1E5C01FF801E0B108FFFF08C81
:1041C00001FFE01E4910B10C1903FFF01E0C1B0784
:1041D000FFF81E0A1BFC5A0A19FE1E0C1901FFFFEC
:1041E0001E11091C1E0A1A7F5A119A3F96CD1FFFF5
:1041F000FFFD1E6A1FD20A12871E5B0FF01E0B11F5
:10420000801F1E0A1B071E0B1A03E01E0B1A01C09B
:104210001E19D409461E0C28FCFFF01E1A071E5A50
:10422000F11EDD0FFFFFF81E6CE07FDF1E11131F74
:10423000FCD91E0A1BFC1E0A1AFF1E0A3C0F1E0A8E
:1042400029FF1EBAF81E0A1AFE1E1A1F1E12E04986
:104250001E1A0C1EBC7FF8781E116A7F1E3A3C1E87
:10426000DA7E1E5AE61E3A7E1E9B7FC01E196B5ACE
:10427000EF1E4AFE1E99B61A3F1E3BFF801E3AFFF4
:104280001ECAFC1E0D1801FFFFC01E7D03FFFFE0CC
:104290001EDA7F1E1AF81E12F04A031E1DFFFF3F92
:1042A000FCC391AF7FF807FFFFF81EBAFF1E4D0F4A
:1042B000FF7FFC1E2901CB3FFE1E1A1F1209171E8D
:1042C0001CF03FFE1E6A071EBA1F1E1CFFF07F6F08
:1042D0001A3FF4591E19C2A91EAEFFFC0FFF9F1E04
:1042E0009AC01E1BF3FFB61ADF1E1940E91E2C01EF
:1042F000FFE71E190111491EEA0F1E2BF0033C11A6
:104300002A7F60E91E3FE3FFE001FF8F3C19561949
:1043100084BBFF801E12C02932111A1FBC29DB99F1
:104320001E1C03FFC11E193212FE1C1FF81F191993
:104330001EA11C03FFC01315780FFFFC1C0FF00F0C
:10434000EAAA031E2501FFC07F15300FFFF81A07E8
:104350001C2911B2FE343FC03E1407FFF04A03ACE3
:104360001946A13C07803C1E1954498ED37FF8E2C0
:10437000183A1F6101FF01FF01FF01FF01FF01C7A3
:084380003210420113127A0011
:04000005080000ED02
:00000001FF
