:020000040800F2
:10000000904D00202D0C0008390200083B0200082A
:100010003F020008430200084702000800000000F9
:100020000000000000000000000000004B0200087B
:100030004D020008000000004F02000851020008B5
:10004000430C0008430C0008430C0008430C000854
:10005000430C0008430C0008430C0008430C000844
:10006000430C0008430C0008430C0008430C000834
:10007000430C0008430C0008430C0008430C000824
:10008000430C0008430C0008430C0008430C000814
:10009000430C0008430C0008430C0008430C000804
:1000A000430C0008430C0008430C0008430C0008F4
:1000B000430C0008430C0008430C0008430C0008E4
:1000C000430C0008430C0008430C0008430C0008D4
:1000D000430C0008430C0008430C0008430C0008C4
:1000E000430C0008430C0008430C000800F002F821
:1000F00000F05AF80AA090E8000C82448344AAF168
:100100000107DA4501D100F04FF8AFF2090EBAE865
:100110000F0013F0010F18BFFB1A43F0010318473B
:10012000B03B0000D03B00000A444FF0000C10F838
:10013000013B13F0070408BF10F8014B1D1108BF65
:1001400010F8015B641E05D010F8016B641E01F805
:10015000016BF9D113F0080F1EBF10F8014BAD1C55
:100160000C1B09D16D1E58BF01F801CBFAD505E073
:1001700014F8016B01F8016B6D1EF9D59142D6D3CD
:10018000704700000023002400250026103A28BFF5
:1001900078C1FBD8520728BF30C148BF0B607047F9
:1001A0001FB51FBD10B510BD01F03AFB1146FFF79A
:1001B000F7FF00F009F801F058FB03B4FFF7F2FF76
:1001C00003BC01F05BFB0000002400F0B2F8482003
:1001D00001F0BAFA00F023FA164800F047FB4FF49A
:1001E0007A7001F0CBFA24E020220021084600F0CA
:1001F000A9FB04F13000C2B20021084600F0A2FBC6
:100200004FF47A7001F0BAFA601CC4B2092C00DD18
:10021000002420220021084600F094FB04F1300065
:10022000C2B20021084600F02AFC4FF47A7001F0B7
:10023000A5FAD9E740380020704700BFFEE700BFAD
:10024000FEE700BFFEE700BFFEE77047704770475C
:10025000704700000CB50020019000906C480068C9
:1002600040F480306A49086000BF6948006800F4C3
:10027000003000900198401C0190009818B9019836
:10028000B0F5A06FF1D16248006800F4003010B101
:100290000120009001E0002000900098012843D147
:1002A0005C48006840F010005A4908600846006841
:1002B00020F0030008600846006840F00200086073
:1002C00053484068524948600846406848600846BC
:1002D000406840F4806048600846406820F47C1024
:1002E00048600846406840F4E810486008460068E6
:1002F00040F08070086000BF4548006800F0007062
:100300000028F9D04248406820F003004049486086
:100310000846406840F00200486000BF3C48406822
:1003200000F00C000828F9D10CBD10B5FFF792FFC2
:1003300010BD10B53648006840F00100344908602F
:10034000084640683449084031494860084600681A
:10035000324908402E4908600846006820F4802091
:1003600008600846406820F4FE0048604FF41F0013
:100370008860FFF7DAFF4FF000602949086010BD80
:1003800010B5002100200022214B5B6803F00C0116
:1003900021B1042906D0082928D107E0214B224C9D
:1003A000236027E01F4B204C236023E0184B5B6841
:1003B00003F47010164B5B6803F48032022303EBE6
:1003C000904022B9194B4343174C23600DE0104B6A
:1003D0005B6803F4003323B1144B4343124C236096
:1003E00003E0104B4343104C236003E00D4B0E4CD5
:1003F000236000BF00BF064B5B68C3F303130C4CC4
:10040000E15C094B1B68CB40074C236010BD00002A
:1004100000100240002002400000FFF8FFFFF6FE3F
:1004200008ED00E000127A00004B002000093D00BA
:10043000044B002010B504464FF40070FC490860DE
:1004400000222146FB4800F07BFB4FF40070F84986
:10045000091F086010BD10B504464FF40070F44940
:10046000086001222146F34800F06AFB4FF4007057
:10047000EF49091F086010BD10B52C20FFF7DAFF07
:1004800010BD08B50121082000F074FF4FF4707012
:10049000ADF8000003208DF8020010208DF8030055
:1004A0006946E348143800F0A9FC08BD10B54FF4C4
:1004B0008070DF490860642001F060F94FF48070BB
:1004C000DB49091F0860322001F058F910BD70B5F2
:1004D0000446002504F0800008B1E02500E0002576
:1004E0006006040E04F0800010B105F11C00C5B2D6
:1004F0006006040E04F0800008B1E81CC5B228466E
:10050000FFF7A9FF70BD10B504462046FFF7DFFFD7
:10051000E106080EFFF7DBFF10BD70B504460D467F
:100520002046FFF7F0FFA10141EAA501C8B2FFF79D
:10053000CEFF70BD70B505460C4621462846FFF734
:10054000ECFF6106080EFFF7C2FF70BD70B50546EF
:100550000C4621462846FFF7EDFF2107080EFFF75E
:10056000B6FF70BD70B506460C46154621463046AE
:10057000FFF7ECFFE10141EA6501C8B2FFF7A7FF11
:1005800070BD2DE9F04704460D4616461F46701E05
:10059000032190FBF1F020441FFA80F8E819401E77
:1005A0001FFA80F92A20FFF745FF200AFFF753FFC3
:1005B000E0B2FFF750FF4FEA1820FFF74CFF08F0BA
:1005C000FF00FFF748FF2B20FFF734FF280AFFF753
:1005D00042FFE8B2FFF73FFF4FEA1920FFF73BFF6A
:1005E00009F0FF00FFF737FFBDE8F08770B5A023E3
:1005F000F02200210846FFF7C4FFFFF73DFF00246B
:100600000AE0002505E0002211461046FFF7AAFF88
:100610006D1C142DF7DB641CA02CF2DB70BD10B533
:1006200000F0B5FAFFF72DFFFFF740FF1120FFF7AD
:1006300001FFC020FFF7FEFEF120FFF70CFF0020B6
:10064000FFF709FFC320FFF7F5FE0220FFF703FFC6
:10065000C420FFF7EFFE0720FFF7FDFED020FFF7D5
:10066000E9FE1D20FFF7F7FEB520FFF7E3FE0020AF
:10067000FFF7F1FE3820FFF7DDFE3A20FFF7DAFE44
:100680000220FFF7E8FE3620FFF7D4FE0020FFF738
:10069000E2FEB020FFF7CEFE9F20FFF7DCFE202019
:1006A000FFF7C8FEF120FFF7C5FE1520FFF7D3FEC8
:1006B0001520FFF7D0FE1520FFF7CDFE1520FFF720
:1006C000CAFEB120FFF7B6FE0020FFF7C4FE2920C6
:1006D000FFF7B0FE012058490860FFF787FF10BD03
:1006E00010B504462046FFF7F2FEE106080EFFF7BC
:1006F000EEFEA107080EFFF7EAFE10BD70B5054635
:100700000C4621462846FFF721FFE107080EFFF7B8
:10071000DEFE70BD70B505460E46144622463146D3
:100720002846FFF71FFFA106080EFFF7D0FE70BD99
:1007300070B505460E461446224631462846FFF758
:10074000E9FF6107080EFFF7C2FE70BD2DE9F04119
:1007500005460E4617461C463A4631462846FFF7E0
:10076000E7FF2046FFF7B3FEBDE8F0812DE9F04139
:1007700005460E4617461C463A4631462846FFF7C0
:10078000D7FF2046FFF7BFFEBDE8F0812DE9F0411D
:1007900005460E4617461C463A4631462846FFF7A0
:1007A000C7FF2046FFF79CFFBDE8F0812DE9F0412F
:1007B00005460E4617461C46DDF818803A46314677
:1007C0002846FFF7B5FF41462046FFF7A6FEBDE8E5
:1007D000F0812DE9F04705460E4617461C46DDE937
:1007E00008893A4631462846FFF7A2FF4A46414665
:1007F0002046FFF79DFFBDE8F08770B5044604F082
:10080000C00504F0C000C02801D145F02005182023
:1008100000EA6400054304F03000302801D145F0BF
:100820000405C4F3810005432846FFF714FE70BD9C
:10083000140C0140003001409881214270B50646F9
:100840000C4615463046FFF7D8FFB10141EAA40136
:10085000C8B2FFF7D2FF210141EA2511C8B2FFF764
:10086000CCFFA906080EFFF7C8FF70BD2DE9F047C1
:100870000446A023F02200210846FFF782FEFFF77E
:10088000FBFD002514E000260EE02778641C94F898
:100890000080641C94F80090641C4A464146384627
:1008A000FFF746FF701C86B20A2EEEDB681C85B28D
:1008B000A02DE8DBBDE8F0872DE9F04106460F46A4
:1008C0009046A023F02200210846FFF75AFEFFF7CA
:1008D000D3FD00240CE0002506E0424639463046B0
:1008E000FFF726FF681C85B20A2DF6DB601C84B278
:1008F000A02CF0DBBDE8F0812DE9F0470446A023F1
:10090000F02200210846FFF73CFEFFF7B5FD002569
:1009100014E000260EE02778641C94F80080641C24
:1009200094F80090641C4A4641463846FFF786FF1B
:10093000701CC6B2142EEEDB681CC5B2A02DE8DB1D
:10094000BDE8F0872DE9F047804689461446002728
:10095000302C07DB392C05DCA4F13000754901EBA4
:1009600000171FE0412C07DB5A2C05DCA4F14100E5
:10097000714901EB001715E0202C12D11023082239
:1009800049464046FFF7FDFDFFF776FD002504E0F0
:100990000020FFF7A5FE681CC5B2102DF8DBBDE8EE
:1009A000F087FCE78FB11023082249464046FFF745
:1009B000E8FDFFF761FD002505E07E5D3046FFF7AD
:1009C0008FFE681CC5B2102DF7DB00BFE7E770B5DE
:1009D00005460E46144615E0E82D03DD002506F118
:1009E000100086B2902E04DD002005460646FFF773
:1009F000FDFD227831462846FFF7A4FF05F10800E7
:100A000085B2641C20780028E6D170BD2DE9F0473E
:100A10000646894690461D464FF0000A00242AE00B
:100A2000281B411E0A2000F0B9FFB8FBF0F00A2194
:100A3000B0FBF1F201FB1207BAF1000F0ED1681EF4
:100A4000A0420BDD47B9082101FB046188B22022D6
:100A50004946FFF777FF0CE04FF0010A07F130013C
:100A6000CAB2082101FB046188B24946FFF76AFF58
:100A700000BF601CC4B2AC42D2DBBDE8F0872DE9F8
:100A8000F74F074615460026302D09DB392D07DCC8
:100A9000A5F13000C0EB0010284901EB001620E062
:100AA000412D07DB5A2D05DCA5F14100224901EB60
:100AB000001616E0202D13D120231022384601996C
:100AC000FFF75FFDFFF7D8FC002405E00021084692
:100AD000FFF714FE601CC4B2202CF7DBBDE8FE8FCC
:100AE000FCE726B33C231E2238460199FFF749FD57
:100AF000FFF7C2FC002418E016F82480012000EB68
:100B0000840016F80090022000EB840016F800A084
:100B1000032000EB840016F800B05B4652464946BD
:100B20004046FFF723FE601CC4B23C2CE4DB00BF50
:100B3000D4E70000A02F000850300008F031000872
:100B4000034600BF188900F002000028FAD0D00345
:100B500040EAC110988100BF188900F00100002808
:100B6000FAD09889C0B2704702884FF6C7731A400E
:100B70000280012902D10288028003E0028842F04B
:100B800020020280028842F040020280704700B5D5
:100B900087B00121052000F0EDFBA020ADF8040096
:100BA00003208DF8060018208DF8070001A91D48C4
:100BB00000F024F94020ADF8040048208DF807002B
:100BC00003208DF8060001A9164800F017F901214D
:100BD000080300F0CFFB0020ADF808004FF482704E
:100BE000ADF80A004FF40060ADF80C000220ADF83B
:100BF0000E000120ADF810004002ADF812000020F8
:100C0000ADF81400ADF816000720ADF8180002A9E1
:100C1000054800F039FC0121034800F0DAFC07B078
:100C200000BD0000000801400030014008480047B6
:100C3000FEE7FEE7FEE7FEE7FEE7FEE7FEE7FEE78C
:100C4000FEE7FEE703480449024A044B70470000F0
:100C5000ED000008904B0020904D0020904B0020AC
:100C600031490143314A1160704770B500210023BA
:100C70000F22C47804B32D4C246804F4E064C4F556
:100C8000E064210AC1F10403CA40447804FA03F184
:100C90008478144021430901254C0678A155047835
:100CA00004F01F050124AC4005786D11AD0005F17D
:100CB000E025C5F8004109E0047804F01F0501248F
:100CC000AC401C4D0678761145F8264070BD1A4A96
:100CD0000A400243154B1B1F1A60704739B1134A73
:100CE000121D12680243114B1B1D1A6006E00F4AC9
:100CF000121D126882430D4B1B1D1A607047042899
:100D000008D14FF0E021096941F004014FF0E022E1
:100D1000116107E04FF0E021096921F004014FF073
:100D2000E0221161704700000000FA050CED00E0C0
:100D300000E400E080E100E080FFFF1F10B5044602
:100D4000CC48844208D10121042000F02DFB002171
:100D5000042000F029FB46E0C748844208D1012165
:100D6000082000F021FB0021082000F01DFB3AE0E4
:100D7000C248844208D10121102000F015FB002157
:100D8000102000F011FB2EE0BD48844208D1012163
:100D9000202000F009FB0021202000F005FB22E0CC
:100DA000B848844208D10121402000F0FDFA00211A
:100DB000402000F0F9FA16E0B348844208D101213E
:100DC000802000F0F1FA0021802000F0EDFA0AE026
:100DD000AE48844207D10121801500F0E5FA0021D8
:100DE000A01500F0E1FA10BD10B50121084600F091
:100DF000DBFA0021012000F0D7FA10BD2DE9F04107
:100E0000024600250026002000230024002791F838
:100E100003C00CF00F0591F803C00CF0100CBCF1EE
:100E2000000F03D091F802C04CEA050591F800C00C
:100E3000BCF1000F31D0146800202BE04FF0010C02
:100E40000CFA00F3B1F800C00CEA03069E4220D170
:100E500083004FF00F0C0CFA03F7BC4305FA03FCB8
:100E60004CEA040491F803C0BCF1280F06D14FF0FE
:100E7000010C0CFA00FCC2F814C00AE091F803C09F
:100E8000BCF1480F05D14FF0010C0CFA00FCC2F880
:100E900010C0401C0828D1D31460B1F800C0BCF1C8
:100EA000FF0F34DD546800202EE000F1080C4FF0F5
:100EB000010808FA0CF3B1F800C00CEA03069E42E0
:100EC00021D183004FF00F0C0CFA03F7BC4305FA55
:100ED00003FC4CEA040491F803C0BCF1280F05D1CF
:100EE00000F1080C08FA0CF8C2F8148091F803C05D
:100EF000BCF1480F07D100F1080C4FF0010808FAC7
:100F00000CF8C2F81080401C0828CED35460BDE80D
:100F1000F0814FF6FF710180022181700421C170C0
:100F200070470246002093680B400BB1012000E09F
:100F3000002070470146886880B270470246002052
:100F4000D3680B400BB1012000E000207047014640
:100F5000C86880B2704701617047416170470AB14B
:100F6000016100E041617047C16070474FF4803219
:100F70000A438261816182618269826970470246A7
:100F80000020434B18684FF68073184040EA021067
:100F900008433F4B186070473E49C8617047F0B541
:100FA0000A46002300240021002500F00046B6F187
:100FB000004F02D1364EF16901E0354E7168C0F341
:100FC000034583B200F44016B6F5401F08D121F066
:100FD00070612F4E766826F070662D4F7E6012E0AD
:100FE00000F48016B6F5801F06D1032606FA05F434
:100FF000A14341F0706106E0460D360103FA06F6A2
:10100000B14341F0706122B1460D360103FA06F694
:10101000314300F00046B6F1004F02D11C4EF161A1
:1010200001E01B4E7160F0BD30B500228B071C0F34
:101030000F2303FA04F2164B08338C1053F82430B4
:101040009343134C08348D1044F8253023468C10FC
:1010500053F824308C07240F00FA04F423430C4C7B
:1010600008348D1044F8253030BD0A49DC31086061
:101070007047000000080140000C014000100140D2
:101080000014014000180140001C014000200140F4
:101090000000014000002042DF48006840F00100ED
:1010A000DD49086008464068DC490840DA49486084
:1010B00008460068DA490840D749086008460068D1
:1010C00020F4802008600846406820F4FE00486054
:1010D0004FF41F0088607047CF49096821F48031C0
:1010E000CD4A11601146096821F480211160B0F5E4
:1010F000803F03D0B0F5802F0ED106E0C6490968C5
:1011000041F48031C44A116007E0C349096841F4E1
:10111000A021C14A116000E000BF00BF704710B5B8
:1011200001460022002300204A11012A02D1BA4CB4
:10113000236806E0022A02D1B74C236A01E0B64CCC
:10114000636A01F01F02012494401C400CB101208D
:1011500000E0002010BD38B50020009000240025DC
:1011600000BF3120FFF7DBFF05460098401C0090D0
:101170000098B0F5A06F01D0002DF2D03120FFF71C
:10118000CEFF08B1012400E00024204638BD01460E
:101190000020A14A106820F0F80040EAC100106069
:1011A0007047A04908607047024600209A4B586873
:1011B00020F47C1042EA01031843974B58607047B3
:1011C00098490866704701460020934A506820F00D
:1011D00003000843506070478F48406800F00C00DF
:1011E0007047014600208C4A506820F0F000084308
:1011F0005060704701460020874A506820F4E06044
:1012000008435060704701460020834A506820F42C
:10121000605040EAC1005060704729B17E4A527A5E
:1012200002437D4B5A7204E07B4A527A82437A4BE6
:101230005A7270477B49D8310860704701460020D8
:10124000754A506820F440400843506070470021C0
:10125000714A20321170704A82F82010012802D0A1
:1012600004280AD104E001216B4A2032117005E004
:101270000521694A2032117000E000BF00BF7047AD
:101280006949086070476449096A0143624A11620A
:101290007047654944390860704730B50021002225
:1012A000002400235C4D6D6805F00C0121B1042978
:1012B00005D0082923D105E05C4D056022E05B4D97
:1012C00005601FE0544D6D6805F47012524D6D6855
:1012D00005F48034022505EB92421CB9544D554368
:1012E00005600BE04C4D6D6805F400351DB1504DA7
:1012F0005543056002E04D4D5543056002E04B4DFE
:10130000056000BF00BF444D6D6805F0F00109099C
:10131000484D6B5C0568DD4045603F4D6D6805F4E8
:10132000E061090A434D6B5C4568DD4085603A4DDC
:101330006D6805F46051C90A3E4D6B5C4568DD403F
:10134000C560354D6D6805F44041890B3A4D6B5CC5
:10135000C568B5FBF3F5056130BD29B12E4A526968
:1013600002432D4B5A6104E02B4A526982432A4BB7
:101370005A61704729B1284A92690243264B9A6103
:1013800004E0254A92698243234B9A61704729B150
:10139000214AD2690243204BDA6104E01E4AD26935
:1013A00082431D4BDA61704729B11B4AD268024360
:1013B000194BDA6004E0184AD2688243164BDA60AF
:1013C000704729B1144A12690243134B1A6104E0B1
:1013D000114A12698243104B1A6170471249403911
:1013E000086070470F49C86470470B49C87170475F
:1013F0000948406A40F080700749486270470146DA
:101400000020054A92680A400AB1012000E000204D
:101410007047014988727047001002400000FFF8D1
:10142000FFFFF6FE000042428004424200127A00B2
:1014300000093D00144B0020244B002010B5044649
:10144000BE48844208D101218014FFF7ADFF00217E
:10145000A014FFF7A9FF16E0B948844208D1012182
:101460000014FFF7AEFF00212014FFF7AAFF0AE0E7
:10147000B448844207D10121C013FFF7A2FF002125
:10148000E013FFF79EFF10BD10B50022028802F4A2
:1014900041520B884C8823438C882343CC882343B8
:1014A0000C8923434C8923438C892343CC892343D0
:1014B0001A430280838B4FF2FF74234083830B8A8D
:1014C000038210BD2DE9F04F85B005460C464FF064
:1014D000000902274FF000084FF0010B0026B2462A
:1014E000A88B4FF240010840A88302202884B5F859
:1014F0001C90A068022801D100BF38E0A08810B974
:101500004FF0010B01E04FF0020B8D48854200D1F6
:1015100000E000BF6846FFF7C0FEDDF800A0E088ED
:10152000B0F5007F0AD14FEA1A2000EB800040009E
:10153000A168B0FBF1F0401D86B20BE04FEA4B1002
:10154000BAFBF0F000EB80004000A168B0FBF1F0C6
:10155000401D86B20A20B6FBF0F606F00108A6EBA5
:101560000800C0F34F074FF6FF7000EA0828022F6B
:1015700001DBFF2F02DD02274FF00008E08840EA80
:10158000080038432884A088A1890843618808435B
:101590002188084340F4006040EA0909A5F81C903E
:1015A00005B0BDE8F08F0021018041808180C180BD
:1015B000018141818181C181072101827047002120
:1015C000018041808180C180022181600021818170
:1015D000704721B1028842F04002028004E0028894
:1015E0004FF6BF731A400280704721B1828B42F4DC
:1015F0008062828304E0828B4FF6FF331A4082833D
:10160000704730B5002400230C110125A540ABB272
:101610001AB185881D43858002E085889D438580B9
:1016200030BD1AB183880B43838002E083888B43EB
:1016300083807047818170470146888970474FF6E3
:10164000FF62914204D0028842F48072028004E07A
:1016500002884FF6FF631A400280704721B18288EA
:1016600042F00402828004E082884FF6FB731A4045
:101670008280704702884FF2FF731A40028002880E
:101680000A4302807047018841F48051018070470D
:1016900021B1028842F40052028004E002884DF633
:1016A000FF731A400280704702460020012901D0D2
:1016B000108B00E0908A70470146088A7047B1F5A8
:1016C000804F04D1028842F48042028004E0028804
:1016D0004BF6FF731A4002807047024600201389C0
:1016E0000B400BB1012000E000207047CA4302818B
:1016F0007047F0B50246002000240023002501F0C9
:101700000F070126BE40B4B20B1101269E40B3B2B2
:10171000968806EA03051689264016B10DB1012008
:1017200000E00020F0BD10B5002201F00F040123FD
:10173000A3409AB2D343038110BD000000300140A2
:1017400000380040003C004010B504466FF0040033
:10175000FFF7D5FAE11704EB5171C1F3C701234A32
:1017600011701046007800EB4001C1EBC0104FF63D
:10177000FF7101EAC0001E49088010BD01461C4AE5
:1017800012884A434FF0E0235A6100229A610122F5
:101790001A6100BF4FF0E022106900F001021AB197
:1017A00000F48032002AF5D000224FF0E0231A61C5
:1017B0009A61704701460D4A12784A434FF0E02380
:1017C0005A6100229A6101221A6100BF4FF0E022A3
:1017D000106900F001021AB100F48032002AF5D03D
:1017E00000224FF0E0231A619A617047284B0020D5
:1017F0002A4B002070477047704710B500F008F87A
:10180000006810BD10B5044600F002F8046010BD79
:10181000004870472C4B0020004870472C4B00209C
:101820007546FFF7F9FFAE4605006946534620F0BE
:101830000700854618B020B5FFF704FABDE8204040
:101840004FF000064FF000074FF000084FF0000B7C
:1018500021F00701AC46ACE8C009ACE8C009ACE82F
:10186000C009ACE8C0098D46704710B50446AFF317
:1018700000802046BDE81040FEF79FBC01491820BB
:10188000ABBEFEE7260002007047490050EAC120C7
:1018900018BF04204A0D18BF40F0010040F2FF724B
:1018A000B2EB515F08BF40F00200012808BF0520DD
:1018B00070472DE9F0414F1E00EBC7010446D1E906
:1018C000000115461E4637F006020DD02A46334663
:1018D00000F0DEFF7F1E04EBC703D3E9002300F016
:1018E0006FFD37F00602F1D1022F25D0042F13D05F
:1018F000062F18BFBDE8F0812A46334600F0C8FF26
:10190000D4E90A2300F05CFD2A46334600F0C0FF0C
:10191000D4E9082300F054FD2A46334600F0B8FF0E
:10192000D4E9062300F04CFD2A46334600F0B0FF10
:10193000D4E9042300F044FD2A46334600F0A8FF12
:10194000D4E9022300F03CFD2A46334600F0A0FF14
:10195000D4E90023BDE8F04100F032BD0022134677
:101960001046014900F0E8BD0000F03F00F028BD3E
:10197000002213461046114600F0DEBD40F201324F
:1019800000204FF0E04101F0C5BA0000024A0020FB
:10199000110701F0BFBA000001FDFFFF2DE9F04D76
:1019A0001D460C4698B0174621F0004123F0004335
:1019B000002814BF4FF0010C4FF0000C0CEB440C4E
:1019C000FE4A0CEB02064FEA620C66452BD33E0042
:1019D00018BF012606EB45061644F94A964222D363
:1019E000F84A53EA070C02D0944205D148B918B01E
:1019F00000201146BDE8F08D002808BF4FF0000C14
:101A000001D04FF0010C0CEB440212F5001F0AD874
:101A1000002F14BF4FF0010C4FF0000C0CEB4502EF
:101A200012F5001F07D918B03A462B462146BDE8EB
:101A3000F04DFFF79BBF0022DFF88CA3002CB8BF4E
:101A4000534526DADFF884C36345A8BF022220DAB3
:101A5000DFF870C39C451CDCDFF874C30CEB235C1F
:101A6000BCF1140F08DDCCF1340627FA06FC0CFAA1
:101A700006F6BE420DD108E05FB9CCF1140623FA98
:101A800006FC0CFA06F69E4203D10CF00102C2F1EC
:101A9000020251EA000C19D1002D17DA002C18BFF0
:101AA000022A01D0012A07D00220FFF7ABFE18B0AE
:101AB000BDE8F04DFFF752BF0220FFF7A3FEFFF78E
:101AC0004DFF18B081F00041BDE8F08DB7F1000C7A
:101AD0006CD1534525D104F1804212F5801201BF2B
:101AE00000280020B74918B008BFBDE8F08DB54800
:101AF000884207DC002DA1BF6046294618B0BDE82A
:101B0000F08D07E0281E05DA80F0004118B060462D
:101B1000BDE8F08DAF497944D1E9000118B0BDE8C6
:101B2000F08DDFF8A0C2634525D1002D1FDA19B171
:101B3000514512D1D8B909E0002840F0EC82A24A00
:101B4000214618B062F31E01BDE8F08D0020214649
:101B500018B060F31E01BDE8F08D08DA18B0234616
:101B6000BDE8F04D02460020614600F0E5BC18B02B
:101B70002146BDE8F08D514518DAB5F1804F0DD002
:101B8000A5F1005CBCF1FF5C10D1B4F1000C0DDBE1
:101B900018B06146BDE8F04D00F0ECBB234618B02C
:101BA0000246BDE8F04D194600F072BE060024F072
:101BB000004C3BD1D9B1514533D1002C06DD002D6D
:101BC000A1BF0020514618B0BDE8F08D002C01DD0A
:101BD000002D1BDB002C13DA002D11DB012A4FF046
:101BE000000014BF78497C4918B0BDE8F08D022A86
:101BF00018BF002C0AD0012A08D1002C06DA0AE00E
:101C0000002CB8BF002D11DA012A04D0002018B032
:101C10000146BDE8F08D18B000204FF00041BDE84E
:101C2000F08DA1F14050B0F17F601AD0012000EB9F
:101C3000E47050EA020421D0624C521E4FF0000BB7
:101C4000104304BF4FF0000B644C654883427CDDB9
:101C5000644A654893421FDD884217DB002D25DB6F
:101C600037E0002C00DA4AB1022A0CBF01204FF005
:101C7000FF3018B0BDE8F04D00F0B6BD0120FFF711
:101C8000C1FD18B0BDE8F04DFFF772BE4D4A8A4263
:101C900002DC002D0ADC1CE0814202DA002D18DA99
:101CA00004E0484B994220DD002D12DD0220FFF7B1
:101CB000A9FDFFF763FE05460E460022534658462F
:101CC000214600F0E5FD18B066F31E012846BDE888
:101CD000F08D0220FFF796FDFFF758FE0A462146D9
:101CE00018B062F31E01BDE8F08D00223046614657
:101CF00000F0F4FF80460E466FF0010201F00AF991
:101D00004FF05532394B00F0F7FE4246334600F0B3
:101D1000BFFD0022364B00F0EFFE824642463346BE
:101D200004911046194600F0B3FD5246049B00F0A2
:101D3000AFFD8A4600904FF0C0422E4B40463146E0
:101D400000F0A6FD2C4A2B4B00E027E0CDE9060170
:101D50005146009800F09CFD82460191274A284B8D
:101D60004046314600F094FD5246019B00F0B6FF1C
:101D700082460B4602460591DDE9060100F020FB94
:101D8000DDE9062300268846304600F0A7FF5246CC
:101D9000059B00F0B1FE024600F07EB90020B1F5CF
:101DA000801F07DA35223046614601F0B3F8064657
:101DB0006FF0340000EB215024E00000FFFF1F0013
:101DC000FFFF0F000000F03F0000F07F00004043E5
:101DD00001FCFFFFAE2100000000F0FF0000F0BF9B
:101DE0000000E0410000F043FFFFEF3F5555D53FB5
:101DF0000000E03F4715F73FFE822B6544DF5DF8AA
:101E00000BAE543EA0F2FF300190C1F3130040F03E
:101E10007F6141F040510291FE498842D8BF0020C5
:101E200004DDFD498142C8BF012001DD0D9008E0BD
:101E300000200D900198401C01900298A0F58010A0
:101E400002900299F54878440B910D9900EBC1007E
:101E5000D0E900230F9330460A920B9900F03EFF21
:101E6000CDE90601DDE90A2130460F9B00F0A8FA12
:101E700002460B460020EA4900F05EFB059102464F
:101E80000B460090DDE9060100F002FD1490E548E4
:101E90008A464FF0000878440299006812904FF08B
:101EA000005040EA61010D980F9B01EB804000F566
:101EB000002109910A9A129800F010FF32460B9BFC
:101EC00000F01AFE4246534600F0E2FC064602913C
:101ED00040465146099B129A00F0DAFCDDE90623E0
:101EE00000F00AFE3246029B00F0F8FE059B009AC5
:101EF00000F0CEFC0091149A049053461046194607
:101F000000F0C6FC06460246C7480B460291062171
:101F10007844FFF7CEFCCDE90510029B324610460F
:101F2000194600F0B5FCDDE9053200F0B1FC059181
:101F30000646534640461946149A00F041FA009B63
:101F4000049A00F0A5FC3246059B00F039FACDE971
:101F50000510424653461046194600F099FC0022EF
:101F6000B24B02910A9000F02BFADDE9053200F045
:101F700027FA0E464246AD4B404600F0AFFE029BAC
:101F80000A9A00F0ABFEDDE9053200F0B5FD4246ED
:101F900002910A9033461046514600F079FCCDE993
:101FA00006015346149A02990A9800F071FC8A4679
:101FB0000290334642460099049800F069FC53466B
:101FC000029A00F0FDF982460B4602460591DDE9D2
:101FD000060100F0F5F9DDE90623002088460646F3
:101FE00000F07CFE5246059B00F086FD824609917A
:101FF0004FF060428E4B3046414600F049FC049061
:1020000006918C4A8A4B5046099900F041FC824661
:102010000291894A894B3046414600F039FC5246CC
:10202000029B00F0CDF9864B7B440D9A03EBC20373
:10203000D3E9002300F0C4F90E900791019800F055
:10204000D3FB0591DDE9061382460E9A049800F051
:10205000B7F97C4A7A440D9B02EBC303D3E9002312
:102060000093029200F0ACF95246059B00F0A8F9EB
:102070000026884652463046059B00F02FFE009B06
:10208000029A00F02BFE069B049A00F027FE079BA5
:102090000E9A00F031FD024600200B4602903846B1
:1020A000294600F0F5FB824601912B463846194639
:1020B000029A00F013FE3246434600F0E9FB524616
:1020C000019B00F07DF907468A4632464346294681
:1020D000029800F0DDFB05460E463A46534600F0F6
:1020E0006FF9594A8846914221DBA8EB020353EA73
:1020F000000210D12A46334600F0F0FDCDE904017C
:10210000524A534B3846514600F05AF9DDE9042350
:1021100000F0BCFC21D20220FFF774FBFFF72EFC7D
:102120000A46214618B062F31E01BDE8F08D494B06
:1021300028F000429A4210D3474A08EB020353EAC0
:1021400000027FF4C6AD2A46334600F0C7FD3A468A
:10215000534600F09BFC7FF6BCAD0022019228F0B4
:1021600000403E493E4A01EB2051824223DA481C9E
:102170004FF4801121FA00F040443A4AC0F30A516A
:102180007A44394BA1F2FF31CB4020EA0303C0F37C
:10219000130040F48010C1F11401C840126801908E
:1021A000B8F1000FBCBF404201902846314600F014
:1021B00095FD05460E462A4633463846514600F000
:1021C000FFF84FF000084246284B4046059100F0CA
:1021D0005FFBCDE90601264A264B4046059900F0F3
:1021E00057FB009102902A4633464046059900F07D
:1021F00075FD3A46534600F07FFC1F4A1F4B00F026
:1022000047FB009B029A00F0DBF80746884602462F
:102210000B4635E08E9803007AB60B00F61D0000E1
:102220000000F03F2E1E00005C1D00000000084072
:1022300009C7EE3FFD033ADCF5015B14E02F3EBE1B
:10224000341C0000F81B000000009040FE822B654B
:102250004715973C00CC904000346F3F01FCFFFFD6
:102260000000E03F441B0000FFFF0F00432EE63F4D
:10227000396CA80C615C20BEEF39FAFE422EE63FB5
:10228000DDE9060100F09CF8DDE9062305460E466F
:1022900000F024FD3A46434600F02EFC0F462A4645
:1022A000334600901046194600F0F2FA8246024684
:1022B0002E4888460B4605217844FFF7FAFA524625
:1022C000434600F0E5FA2A46334600F015FC804606
:1022D0008A463B4628463146009A00F0D9FA3B46EA
:1022E000009A00F06DF80691009000224FF08043B4
:1022F0004046514600F0F2FC0F460C9042465346D1
:102300002846314600F0C4FA3B460C9A00F014F916
:10231000069B009A00F0E2FC2A46334600F0DEFC01
:102320000022134B00F0E8FB054601980E4601EB36
:1023300000510815002810DC28463146019A00F0AB
:10234000E9FDFFF7A2FA042808BFFFF71FFB2846A4
:102350003146019A00F0DEFD05460B4618B02A46CC
:1023600058462146BDE8F04D00F092BAE41900004D
:102370000000F03F2DE9F04106460F4600F0C8FB93
:10238000041E0D4618BF0120284320F00040C0F174
:102390007F6000F1E040C00F0ED0301C18BF01205C
:1023A000384320F00040C0F17F6000F1E040C00FF2
:1023B00004BF0120FFF726FA20462946BDE8F08138
:1023C00010B591EA030F48BF83F0004300F18E84FB
:1023D000841A71EB030C05D2121943EB0C03001B9A
:1023E00061EB0C01DFF824E14FEA1154A4EB135C1C
:1023F0001EEA430F18BF9EEA445F73D023EA0E0320
:10240000DCF1200E21EA045143F4801332D322FA86
:102410000CFE10EB0E0023FA0CFE41EB0E01CCF18A
:10242000200E03FA0EFE10EB0E0051F10001B1F583
:10243000801FCCF1200E32D201EB045112FA0EF2C1
:10244000BDE8104058BF7047401C38BF5FEA4202E9
:1024500018BF7047002814BF20F0010041F10001AF
:102460004FEA410313F5001F38BF7047A1F1C04187
:1024700000F006BB012A43EB0302ACF1200CDCF1B7
:102480001F0E32BF4FF0000E23FA0CF310EB0300C7
:1024900041EB0451B4EB115FD0D0A1EB045101F535
:1024A000801149085FEA300001EB04510ED350F16E
:1024B000000038BF12FA0EFE08D1BDE81040C9E78F
:1024C000401C38BF5FEA4202CAD1C3E7BDE81040F2
:1024D0004FEA410313F5001F38BF7047A1F1C04117
:1024E00000F0CEBA9EEA445F08D011EA5E0FBDE864
:1024F000104004BF01F0004100207047BDE81040CB
:1025000070B500F06FFA00BF64FBBE3E0000E0FF54
:1025100002494FF0000000F0CBBC00BF0000F87F84
:10252000491058BFC1F140415B1058BFC3F140434F
:102530008B42EFF3008070472DE9C04130B4DFF8E3
:10254000A0C23CEA111418BF3CEA131400F0EC805E
:1025500081EA03051CEA111444EAD57418BF1CEA89
:10256000131500F0C780A4EB05044FF0004545EAC1
:10257000C12145EAC32341EA505143EA525304F1D1
:102580007F74994204F500344FEAC0204FEAC2221A
:1025900008BF904200F09C804FEA13650FF240168E
:1025A000765D4FEA134506FB05F7C7F1807706FB1A
:1025B00007F74FEAD737A7FB03687642C8F580389C
:1025C000A7FB06CE38BFA8F1010807FB08E64FF0CD
:1025D000000EA6FB028CE6FB03CEDCF1000CCEF174
:1025E000004E38BFAEF1010EA6FB0C584FF00007AD
:1025F0004FF00005E6FB0E87A1FB08C6A0FB07CE47
:1026000016EB0E0645F10005E1FB076515F1E04EFE
:102610007EBFA4F580345FEA46066D4116F180075F
:1026200045F100054FEA17274FEA066647EA0567B6
:10263000A6F1DE46B6F1805F4FEA15251FD9384670
:1026400024F0010C05EBC471BCF1FE6F01EB0C1121
:1026500002D8F0BCBDE8008124425CBF01F5801EB9
:102660009EEAC47F02D4F0BCBDE80081244238D485
:10267000F0BCA1F1C041BDE8004100F001BA4FEA51
:10268000D22242EA43524FEAD323A7FB02864FEA03
:10269000D02040EA415007FB03661EEA0E0F4FEAC6
:1026A000D12105FB026658BFA6EB0056B6EB0056DB
:1026B0004FEA520E4EEAC37E18EB0E0E56EB530E47
:1026C000BDD518EB02085E417F1C55F10005B6E749
:1026D0004FF480154FF000074FF000064FF0000850
:1026E000ADE7F0BC4FF0000001F1C04101F0004146
:1026F000BDE8008111EA0C1F0CEA131500D00CE0B4
:1027000013EA0C1F00F025804FF00000F0BC81EAB6
:10271000030101F00041BDE80081F0BCBDE80041CB
:1027200081EA030100F0ACB9F0BCBDE8004170B52E
:1027300000F058F9097EFC3E00F007B881EA030179
:102740004FF0000001F00041704781EA030100F002
:1027500097B9F0BCBDE800414FF000002149704737
:10276000FFFDFBF9F7F5F4F2F0EEEDEBE9E8E6E456
:10277000E3E1E0DEDDDBDAD8D7D5D4D3D1D0CFCDDD
:10278000CCCBCAC8C7C6C5C4C2C1C0BFBEBDBCBB16
:10279000BAB9B8B7B6B5B4B3B2B1B0AFAEADACAB11
:1027A000AAA9A8A8A7A6A5A4A3A3A2A1A09F9F9EEB
:1027B0009D9C9C9B9A99999897979695959493939D
:1027C000929191908F8F8E8E8D8C8C8B8B8A898934
:1027D00088888787868585848483838282818180B7
:1027E0000000FF070000F87F10F0004248BF4042A1
:1027F000B0FA80F310FA03F10AD0C3F11D0303F518
:1028000080634FEA415002EB035202EBD121704743
:102810004FF000007047000051EA030C17D41CF57C
:10282000801F58BFBCF5801F00F10680994218BF79
:10283000704708BF9042704707D711F5801F58BFF7
:1028400013F5801F19D499427047894270471CF5CF
:10285000801F08D5BCF5801FF7D58B4218BF704785
:1028600008BF824270474FF4001C1CEB410F38BF79
:102870001CEB430F01D28B42704770B500F0B2F8E9
:10288000922449004FF000514FF08053FFF748BEAB
:10289000DFF848C170B51CEA111E1EBF1CEA1315F3
:1028A0009EEA0C0F95EA0C0F00F06F8081EA03049A
:1028B00023EA4C134EEAD47E21EA4C1141F48011F4
:1028C00043F48013AE44A1FB024CA0FB0365AEF1C0
:1028D0007F7E361955EB0C05A1FB034C4CF1000330
:1028E000A0FB021C16EB0C06654153F100030942E4
:1028F00018BF46F0010613F4007F0BD14FEA0331F5
:102900004FEA0530340341EA155140EA16506FF0A2
:1029100003020AE04FEAC3214FEAC520F40241EA6C
:10292000555140EA56506FF0020202EB2E4201EB85
:10293000025585EACE710AD05FEA440C18BF24F034
:10294000004450F1000041F1000120EAD47040F24F
:10295000FE7C624500D270BDA84214BF4FF0804497
:102960004FF04044002E08BF0024BEF1806FA8BF86
:10297000A1F1C041BDE8704080F282804FF00000BC
:1029800001F1C04101F0004170479EEA0C0F0CEAD2
:10299000131518BF95EA0C0F06D04FF0000081EA1E
:1029A000030E0EF0004170BD00F01CF88900013EDE
:1029B00000F007B800F009B84FEA430C5FEA5C5C2E
:1029C00008D081EA030100F05BB84FEA410C5FEAEE
:1029D0005C5CF6D14FF00000014970470000FF0732
:1029E0000000F87F0EF1020E2EF0030E5EF8046B6D
:1029F000364205D4012A43EB030515F5001F12D812
:102A0000012841EB010C1CF5001F0CD80ED14FEA38
:102A1000D17C15F5001F0CEB4C0C0CF1020C08BF1F
:102A20004CEBD37C04E04FF0080C01E04FEAD37C80
:102A30000CEB4C0526FA05F606F00706B6F1040C79
:102A400006D20EEB860CBDE870404CF0010C6047DE
:102A5000DFE80CF0090B02024FF000414FF00000DC
:102A6000A1F5002170BD19461046012851EB010463
:102A700018BFD4F5001484BF002001F0004170BDE0
:102A80000808A0F500114FEA3101704753EA010C24
:102A900017D41CF5801F58BFBCF5801F00F10680BD
:102AA0008B4218BF704708BF8242704707D713F5A3
:102AB000801F58BF11F5801F19D48B4270479B426D
:102AC00070471CF5801F08D5BCF5801FF7D59942CB
:102AD00018BF704708BF904270474FF4001C1CEBB2
:102AE000430F38BF1CEB410F01D2994270470FB41E
:102AF0000CBC03BCFFF7C1BE91EA030F10B581F017
:102B000000413FF565AC83F0004300F0EFB80000F2
:102B10002DE9F04101F5801CBCF5001FC0F2C38017
:102B20004FEA115C21EA0C510CF1FD0C41F48011CB
:102B30005FEA5C0C0CF5C07C01D3400049413DA428
:102B4000890241EA905187028E0E0A0CA45D04FBB3
:102B500004F602FB06F6C6F14046A4FB0662F60D3B
:102B600046EA422606FB06F4A4FB01235242C3F1C7
:102B7000404338BF5B1EA6FB02420024E6FB032451
:102B8000D20B42EA4446A6FB0623A1FB02E2A3FBCA
:102B900007E4A4184FF0000252F10002E3FB0142E7
:102BA0006442C2F1404E38BFAEF1010EA6FB0423D1
:102BB0004FF00002E6FB0E32A2FB03464FF000048A
:102BC000B61954F10004E2FB0264A1FB06E6A4FB83
:102BD00007E816EB08064FF0000858F10008E4FB80
:102BE00001687642C8F1405838BFA8F10108A2FB3D
:102BF00006E4A3FB08E52D194FF0000454F100048E
:102C0000E2FB0854A1FB05E6A7FB04E818EB060865
:102C10004FF0000656F10006E1FB048618F120058E
:102C200056F10006A809A8F11B08B10908F03F08F1
:102C3000B8F10A0F40EA86601CD901EB0C51BDE8DF
:102C4000F08100BFFCF5EEE8E2DDD8D3CFCBC7C3FF
:102C5000C0BDB9B6B4B1AEACA9A7A5A3A19F9D9BB9
:102C60009A9896959392908F8D8C8B89888786857C
:102C700084838281A0FB006800FB01F208EB42081C
:102C8000B8EB872807D5341858EB0104D5D5401C7C
:102C900051F10001D1E7341A78EB0104CDD4401E84
:102CA00071F10001C9E75FEA4C0C5FEA9C5C0DD151
:102CB00005D34FF0000001F00041BDE8F081BDE810
:102CC000F04170B5FFF78EFE6DDBFFBEBDE8F04151
:102CD0004FF00000004970470000F87F10B591EAFE
:102CE000030F48BF83F000433FF572AB841A71EBCA
:102CF000030C07D212198CF0004C43EB0C03001BA1
:102D000061EB0C01DFF8A4E14FEA1154A4EB135C72
:102D10001EEA430F18BF9EEA445F00F0B08023EA2A
:102D20006E03524221EA0451C3EB6E0338BF5B1EAF
:102D3000DCF1200E25D322FA0CFE10EB0E0043FA34
:102D40000CFE41EB0E01CCF1200E03FA0EFE10EB4F
:102D50000E0051F10001CCF1200E29D412FA0EF22E
:102D600001EB0451BDE8104058BF7047401C1CBF28
:102D7000B2F1004F704700280CBF491C20F0010041
:102D8000704712EB020E43EB030218BF4FF0010E27
:102D90004EEA4202ACF1200CDCF11E0E54D943FA8B
:102DA0000CFE10EB0E0051F1FF31CCF11E0ED5D50B
:102DB0000EF1010E12FA0EFE404141EB010101EB52
:102DC000445C5FEA5C5C10D910EBDE7001EB0451EF
:102DD00038BFBEF1004FBDE8104018BF7047002853
:102DE0000CBF491C20F00100704730D24FEAD42CB0
:102DF00011F5001124F400641BD0B1FA81F20B3AF2
:102E0000A41AA41ED2F12003914030FA03F319430F
:102E1000904001EBCC71002C01EB0451BDE8104057
:102E2000A8BF704701F1C0414FF0000001F0004120
:102E30007047B0FA80F310FA03F100D110BDE41A24
:102E4000173C4805C90AE4E701EB045110BD4910DD
:102E500001EB0451BDE810404FEA300002E04FF0B2
:102E6000000170474A0008BF0042F8D0B2F5001FC9
:102E700028BF704701F000414FF0000070479EEA04
:102E8000445F07D011EA5E0FBDE8104004BF002187
:102E900000207047BDE8104070B5FFF7A3FD00BFEC
:102EA00040DFF63E83F00041104670470000E0FF2F
:102EB0000CF00F03092B08BF082000F059800A2BE3
:102EC0000BD0082B18BF704708BF1CF0400F0AD06A
:102ED0004FF000004FF0000170471CF0400F18BF8A
:102EE0004FF0004070471CF0100F08D020F07043E6
:102EF00000F07F4242EAD3014FEA4370704700F08E
:102F0000604021F07F4242EA000201F07F4040EA47
:102F1000727070474FF0FF0C4CF4E06C1CEA1153D8
:102F20001CBF9CEA030C9445C2BFDA4201EB02517C
:102F30007047002B0DD0BCF1000F0FD0002A01F01C
:102F40000041A4BF41F0E04141F07F614FF000003B
:102F5000704701F000414FF00000704750EA013324
:102F60004FF09B0C18BF4CF0806C7FF4D1AA7047D7
:102F70001CF4801F11D01CF4E02F03D06FEACC3179
:102F8000490070474FF04050EFF3008222F070424A
:102F900042EA000282F3008870474FF00000704759
:102FA0000000003C6642425A4242663C000000007B
:102FB00000000018684808080808087E00000000A3
:102FC0000000003C664206040810207E000000005D
:102FD0000000007C040818040646443C0000000081
:102FE0000000000C18102064447C04040000000061
:102FF0000000007C40407C040242643C0000000071
:103000000000000810303C664242663C00000000B0
:103010000000007E4204040C08081030000000008C
:103020000000003C664264384642463C0000000016
:103030000000003C664242663C08081000000000A8
:103040000000000000000000000018180000000050
:103050000000001818382C24247C42420000000094
:103060000000007C464244784642467C0000000056
:103070000000003C664240404042663C00000000C8
:103080000000007C444646464646447C0000000062
:103090000000007E4040407C4040407E0000000038
:1030A0000000007E4040407C404040400000000066
:1030B0000000003C6640404E4242663C000000007A
:1030C000000000464646467E464646460000000052
:1030D0000000007C181818181818187C0000000050
:1030E0000000000404040404044444380000000008
:1030F0000000004244444878484444420000000034
:1031000000000020202020202020203E0000000081
:1031100000000066666A5A5A4242424200000000BD
:1031200000000066665656564A4A464600000000B1
:103130000000003C644646464646643C00000000F1
:103140000000007C4242427C4040404000000000C1
:103150000000003C664242424242663C0C060000CF
:103160000000007C4642467C484444420000000087
:103170000000003C6442601C0642663C0000000007
:103180000000007E10101010101010100000000041
:1031900000000046464646464646643C00000000A5
:1031A0000000004242642424243818180000000063
:1031B0000000009BDA5A5A5A6A66666400000000F2
:1031C00000000042242C181818246442000000005B
:1031D000000000C246242C18181010100000000037
:1031E0000000007E040C08101020607E000000002B
:1031F00000000000000000000000000000000000CF
:1032000000000000000000000000000000000000BE
:1032100000000000000000000000000000000000AE
:1032200000000000001FE00000FFFC0001FFFE00A6
:1032300003FFFF0007E01F8007C00F800F8007C05B
:103240000F8007C00F0003C00F0003C00F0003C0B2
:103250000F0003C00F0003C00F0003C00F0783C09F
:103260000F0FC3C00F0FC3C00F0FC3C00F0783C022
:103270000F0003C00F0003C00F0003C00F0003C006
:103280000F0003C00F0003C00F8007C00F8007C0EE
:1032900007C00F8007E01F8003FFFF0001FFFE0053
:1032A000007FF800001FE0000000000000000000A8
:1032B000000000000000000000000000000000000E
:1032C00000000000000000000000000000000000FE
:1032D00000000000000000000000000000000000EE
:1032E00000000000000000000000000000000000DE
:1032F00000000000000000000000000000000000CE
:1033000000000000000000000000000000000000BD
:1033100000000000000FE000001FE000007FE00060
:1033200000FFE00003FBE00007F3E0000FC3E00054
:103330000F83E0000E03E0000C03E0000003E00058
:103340000003E0000003E0000003E0000003E000F1
:103350000003E0000003E0000003E0000003E000E1
:103360000003E0000003E0000003E0000003E000D1
:103370000003E0000003E0000003E0000003E000C1
:103380000003E0000003E0000FFFFFE00FFFFFE09D
:103390000FFFFFE00FFFFFE0000000000000000053
:1033A000000000000000000000000000000000001D
:1033B000000000000000000000000000000000000D
:1033C00000000000000000000000000000000000FD
:1033D00000000000000000000000000000000000ED
:1033E00000000000000000000000000000000000DD
:1033F00000000000000000000000000000000000CD
:1034000000000000001FE000007FF80001FFFE0048
:1034100003FFFF0007E01F8007C00F800F8007C079
:103420000F8007C00F0007C00F0007C0000007C0D3
:10343000000007C00000078000000F8000001F0090
:1034400000001F0000003E0000007C000000F800AB
:103450000001F0000003E0000007C000001F800032
:10346000003F0000007E000000FC000001F80000AA
:1034700003F0000007E000000FFFFFC00FFFFFC0D8
:103480000FFFFFC00FFFFFC00000000000000000A2
:10349000000000000000000000000000000000002C
:1034A000000000000000000000000000000000001C
:1034B000000000000000000000000000000000000C
:1034C00000000000000000000000000000000000FC
:1034D00000000000000000000000000000000000EC
:1034E00000000000000000000000000000000000DC
:1034F000000000000FFFFF800FFFFF800FFFFF8025
:103500000FFFFF8000001F0000007E000000FC0095
:103510000001F8000003F0000007C000000F800069
:10352000001F0000001FE000001FF800001FFE0049
:10353000001FFF0000003F0000000F8000000F8010
:103540000000078000000780000007C0000007C0DF
:10355000100007C00F0007800F0007800F800F804A
:103560000F800F8007E03F0007FFFF0003FFFC0014
:1035700000FFF800003FE000000000000000000035
:10358000000000000000000000000000000000003B
:10359000000000000000000000000000000000002B
:1035A000000000000000000000000000000000001B
:1035B000000000000000000000000000000000000B
:1035C00000000000000000000000000000000000FB
:1035D00000000000000000000000000000000000EB
:1035E000000000000000FC000000F8000001F000F6
:1035F0000003F0000003E0000007C000000FC0005F
:10360000000F8000001F0000003E0000003E000090
:10361000007C000000F8000000F8000001F00F80BE
:1036200003E00F8003E00F8007C00F800F800F8042
:103630000F800F801F000F801F000F801FFFFF8073
:103640001FFFFF801FFFFF801FFFFF8000000F8014
:1036500000000F8000000F8000000F8000000F802E
:1036600000000F8000000F8000000000000000003C
:10367000000000000000000000000000000000004A
:10368000000000000000000000000000000000003A
:10369000000000000000000000000000000000002A
:1036A000000000000000000000000000000000001A
:1036B000000000000000000000000000000000000A
:1036C00000000000000000000000000000000000FA
:1036D0000000000007FFFF0007FFFF0007FFFF00DB
:1036E00007FFFF0007800000078000000780000040
:1036F00007800000078000000780000007800000AE
:103700000780000007FFE00007FFFC0007FFFE0046
:1037100007FFFF0000001F8000000F8000000780EF
:10372000000007C0000007C0000007C0000007C07D
:10373000000007C00F0007C00F8007C00F80078080
:1037400007C00F8007E01F0003FFFF0001FFFE001E
:1037500000FFF800001FE000000000000000000073
:103760000000000000000000000000000000000059
:103770000000000000000000000000000000000049
:103780000000000000000000000000000000000039
:103790000000000000000000000000000000000029
:1037A0000000000000000000000000000000000019
:1037B0000000000000000000000000000000000009
:1037C000000000000001F0000003E0000007C0005E
:1037D0000007C000000F8000000F0000001F000065
:1037E000003E0000003E0000007C000000F80000E9
:1037F00000F8000001F1C00001EFF80003FFFE0037
:1038000007FFFF0007F03F800FC00FC00F8007C009
:103810000F0003C01F0003E01F0003E01F0003E0D0
:103820001F0003E01F0003E00F0003C00F8007C06C
:103830000FC00FC007E01F8003FFFF0001FFFE0065
:10384000007FF800001FE000000000000000000002
:103850000000000000000000000000000000000068
:103860000000000000000000000000000000000058
:103870000000000000000000000000000000000048
:103880000000000000000000000000000000000038
:103890000000000000000000000000000000000028
:1038A0000000000000000000000000000000000018
:1038B000000000000FFFFFE00FFFFFE00FFFFFE041
:1038C0000FFFFFE00F8003E00F8003C00F8007C0F1
:1038D0000F8007C00F800F8000000F8000001F00C6
:1038E00000001F0000001E0000003E0000003E001F
:1038F00000007C0000007C000000F8000000F800E0
:103900000001F0000001F0000001E0000003E00011
:103910000003E0000007C0000007C000000F8000A7
:10392000000F8000001F0000001F0000001F0000AB
:10393000003E0000007E00000000000000000000CB
:103940000000000000000000000000000000000077
:103950000000000000000000000000000000000067
:103960000000000000000000000000000000000057
:103970000000000000000000000000000000000047
:103980000000000000000000000000000000000037
:103990000000000000000000000000000000000027
:1039A00000000000001FE00000FFFC0001FFFE001F
:1039B00003FFFF0007E01F8007C00F800F8007C0D4
:1039C0000F8007C00F8007C00F8007C007800780E7
:1039D00007C00F8003E01F0001FFFE00007FF8001A
:1039E000007FF80001FFFE0003F03F0007C00F80DA
:1039F0000F8007C00F0003C01F0003E01F0003E09B
:103A00001F0003E01F0003E00F0003C00F8007C08A
:103A10000FC00FC007E01F8003FFFF0001FFFE0083
:103A200000FFFC00001FE00000000000000000009C
:103A30000000000000000000000000000000000086
:103A40000000000000000000000000000000000076
:103A50000000000000000000000000000000000066
:103A60000000000000000000000000000000000056
:103A70000000000000000000000000000000000046
:103A80000000000000000000000000000000000036
:103A900000000000001FE000007FFC0001FFFE00AE
:103AA00003FFFF0007E01F800FC00FC00F8007C09B
:103AB0000F0003C01F0003E01F0003E01F0003E02E
:103AC0001F0003E01F0003E00F0003C00F8007C0CA
:103AD0000FC00FC007F03F8003FFFF8001FFFF0012
:103AE000007FFE00000E3E0000007C000000FC0095
:103AF0000000F8000001F0000001F0000003E00009
:103B00000007C0000007C000000F8000001F8000F9
:103B1000001F0000003E0000000000000000000048
:103B20000000000000000000000000000000000095
:103B30000000000000000000000000000000000085
:103B40000000000000000000000000000000000075
:103B50000000000000000000000000000000000065
:103B60000000000000000000000000000000000055
:103B70000000000000000000000000000000000045
:103B80000000000000000000000000000000000035
:103B90000000000000000000000000000000000025
:103BA0000000000000000000000000000000000015
:103BB0000000000000000000000000000000000005
:103BC00000000000000000000000000000000000F5
:103BD00000000000000000000000000000000000E5
:103BE000000000000000000000000000000780004E
:103BF000000FC000001FE000001FE000001FE000F9
:103C0000000FC0000007800000000000000000005E
:103C100000000000000000000000000000000000A4
:103C20000000000000000000000000000000000094
:103C30000000000000000000000000000000000084
:103C4000000000000000F03F000000000000F83F0E
:103C500000000000000000000000004003B8E23F48
:103C6000000000000000000006D0CF43EBFD4C3EFA
:103C7000033333333333E33FFFAB6FDBB66DDB3FEF
:103C80004D268F515555D53F01411DA96074D13F37
:103C900065DBC9934A86CD3FEF4E454A287ECA3F31
:103CA0003E5555555555C53F93BDBE166CC166BFB3
:103CB0002CDE25AF6A56113FF16BD2C541BDBBBEAC
:103CC000D0A4BE726937663E00000000000000000C
:103CD000F03C0008000000202C4B000028010008E8
:103CE000484B00082C4B00206402000084010008AF
:103CF00001FF01FF01FF01F7C403FFC06A0E1611A7
:103D00003B038008AAC11F6A1F1E4B800F1EAAC357
:103D10001E4A3F0D191E2A1F0AB503FFCFE01E7F62
:103D2000E07FFFFF572CFF807F17AD03FFDFF01E02
:103D30005AF01E2B81FF17B503FFFFF8EBFFF81EAB
:103D4000A2FC2C01FFFE1E1B3FF31E2935191EAAE3
:103D5000FE1E5AFF1E3A80351978AAFF5A390129EA
:103D60001E4A7F1E2BCFFFDA6996891E2953AC03AA
:103D7000FFC71E7A3F1E2A3F53D91E7A1F1E4A1FB5
:103D80001EAAC3785E0FFF7FC0011E19359C03FF7A
:103D9000C1B4116B07FE1E2C0FFFC01E2AC0D981B3
:103DA0008B03FC1E59019AE0F16AF81EFC07FFBF65
:103DB0001E116AF01E4B03FEC0B91E4D607FCFF985
:103DC0001E0A11FC1E11691E0B1B01F01E0A1AC0EF
:103DD0001E2109101E0A1B3C1E0A1B7E1E0A1AFF0A
:103DE0001E5C01FF801E0B108FFFF08C01FFE01E98
:103DF0004910B10C1903FFF01E0C1B07FFF81E0A37
:103E00001BFC5A0A19FE1E0C1901FFFF1E11091C8A
:103E10001E0A1A7F5A119A3F96CD1FFFFFFD1E6A98
:103E20001FD20A12871E5B0FF01E0B11801F1E0A85
:103E30001B071E0B1A03E01E0B1A01C01E19D40922
:103E4000461E0C28FCFFF01E1A071E5AF11EDD0F3D
:103E5000FFFFF81E6CE07FDF1E11131FFCD91E0A46
:103E60001BFC1E0A1AFF1E0A3C0F1E0A29FF1EBA5F
:103E7000F81E0A1AFE1E1A1F1E12E0491E1A0C1EF8
:103E8000BC7FF8781E116A7F1E3A3C1EDA7E1E5AED
:103E9000E61E3A7E1E9B7FC01E196B5AEF1E4AFE1D
:103EA0001E99B61A3F1E3BFF801E3AFF1ECAFC1E1B
:103EB0000D1801FFFFC01E7D03FFFFE01EDA7F1E0D
:103EC0001AF81E12F04A031E1DFFFF3FFCC391AFFC
:103ED0007FF807FFFFF81EBAFF1E4D0FFF7FFC1E85
:103EE0002901CB3FFE1E1A1F1209171E1CF03FFEB0
:103EF0001E6A071EBA1F1E1CFFF07F6F1A3FF4597F
:103F00001E19C2A91EAEFFFC0FFF9F1E9AC01E1BEA
:103F1000F3FFB61ADF1E1940E91E2C01FFE71E1938
:103F20000111491EEA0F1E2BF0033C112A7F60E9A4
:103F30001E3FE3FFE001FF8F3C19561984BBFF8051
:103F40001E12C02932111A1FBC29DB991E1C03FF47
:103F5000C11E193212FE1C1FF81F19191EA11C03C5
:103F6000FFC01315780FFFFC1C0FF00FEAAA031E09
:103F70002501FFC07F15300FFFF81A071C2911B269
:103F8000FE343FC03E1407FFF04A03AC1946A13C83
:103F900007803C1E1954498ED37FF8E2183A1F61FE
:103FA00001FF01FF01FF01FF01FF01FF01FF01FF11
:103FB00001FF018D337F8092060A11031E227F9A32
:103FC000020FD91E22FF1E0707FFFFFE0A09111E5E
:103FD00019053B0FC71E09123C19051B1FE71E3BA5
:103FE0001FFF2309111E1AF7191A3F1E1966B91E61
:103FF00039142A0F37D91E394B2A7F140A1B871E02
:104000000D1883F878011E0E1781F1F801FC1E2BA4
:1040100080E31E19A30A127F1E0B158C031E1112BA
:10402000FEFF1FE01E03FC031E15C07F80FE12FF73
:104030002D3FC03F811ED978791E0E137FC1FC032E
:10404000F81E127F10087F807FE1FE07F8198319A0
:104050005DD91E0E16807F803FF01E080A143F8037
:10406000FF801FF8FF0FF01E13C0FF2B07F01E117B
:104070009A0177691E13E1FF2603E07F9FE0FB07AB
:10408000FE1E141FE3FE3B01C01EAB1FF81E19C22B
:1040900012FE240FF3FC1CC03FFF1E1A3F5EE91EF8
:1040A00013FFFC12031C3FFFC01E1904D91E1C077E
:1040B000FFF8781C1FFF80B3A9B5491E1403FFF059
:1040C0000B1A03F81E2D07F00FFFEF09101E1A013F
:1040D000900C1007F0071E39D23A031E0B140FFE86
:1040E0001E29962A0F962A3F1E99B4391E2A1FD6DA
:1040F0000A10E0D2211A7F4919511D800FE0FF9C60
:1041000009111E1A014F0F12F01FC1FFFFFC1E38CC
:10411000080FFFF3FFFE1FC77309101E280A7FFF59
:10412000E1FFFF9FDFFF9F9709111E1009807FFFAE
:104130003FBFFE0FFF09111E1B3FFE031E3F9FFCEA
:1041400003FFBE89EE591E1A1FEE2EFE7F9FF0015F
:10415000DCF91E130FE01C01FC7F061A7C1EE1290E
:104160001E193015780F0780121CFB1FFE1E52040B
:1041700002FF0201FF01B0827EC2032A1C1A1A0E3E
:104180000412605206B33F80271F3FFFC07E3F18D6
:10419000087FF003FEFFFFFC09A91E1B3FBF1E1A8C
:1041A0007F151BF8FF01291EB2C01E7FFFFFDF7EB7
:1041B000303B7FFC1E2A1F06993C291E133FC01A64
:1041C0007E5809101E190F0C16DF7E1F1E1C0FFED5
:1041D000071E12E0EF7E787FF8FE011E1B07BE1E51
:1041E0002A0F140B1077F01E1B033E5A2A07146A7D
:1041F000071EB2FE391E199C591EA9D0212A181E6D
:1042000029BA191E2996A5DFFFFFF87A3C1E49B48A
:10421000191EA2FC2A7E1E1AFF1409131E2BFFBEB4
:104220001E12C0127F09131E0A1AFE1E9A7F1E312B
:10423000D9963A3F1E1914112B0FF01E2CC1F81FEE
:1042400008712A1F783A7F1EA00AF1FFFFFE1FC3E4
:10425000FE7FE02A07B42950114A1F1EA4FFFF80E9
:104260008A021E2AF91E3AC07F91891E19B4191EAE
:104270009A7FB3116B0C3F1E3A3F1E29D8A12B0F1A
:10428000BF1E14C1FC3F3D7FFF80FC41A91E7BFF88
:10429000F71E0A18C01E1A80ADF91E9A1F1EECFFE9
:1042A000FFFC1E180CDFF01F7E1FDDFC3FBCFFFE75
:1042B0001E1B3FBF9B991E1BC3FC1E1AFD172B7FA5
:1042C000F01EAC8007F01EEB87FE1E99F12C3F8795
:1042D000FF1E5DFFFFBF771EAAF11E1D8FFF807EB0
:1042E0008C15DFFF77F012FC291E9AF81E3D9FDF28
:1042F000C0FE1E2A271E127FC91E4C3FDFFF1E1B59
:1043000007F7CD127FA40FF0104C7FFF8F1E3AFEEF
:104310001EB5FF07FFF01A7F100E14FC3FFFFFCF02
:104320001E48097E03CFFC1F9FF80F1EB57E03FFBA
:10433000E010087E3C038FF80F1E3B07FC1EB53EC5
:1043400003FFC01B1E1C882206000C1403F807F391
:10435000FFFFFE1C03FF802BE0077102FF0C01FF33
:1043600001FF01B10B1701FF011AE01E011A0AFD3E
:10437000201E09711E0A1BF81E190B710B10031E5B
:104380001E7421C69E0B1004A01E6C2329513C0AEA
:1043900011401E6AE91E1109111E0B1A22091E89FD
:1043A0005A09121E9C21C95ECAE91E2182100911F8
:1043B000D2991E9944891E011109FD1E09FD1E99FD
:1043C0001E12880A1B041E091A3C8489268C0A10B6
:1043D000C41E74F929440B1101483C891E0A1A5065
:1043E0001E110A1BE01E0A11381E83C95F0A1064E1
:1043F0001EB10A1AA41E0B1B01183C8109FD1E09DF
:10440000541E0C19071C781E0C1A08B2481E0B39D2
:1044100022081E0A1B101E190D09181E0B37926068
:10442000D2011309FD1E09FD1E09FD1E09FD1E090D
:104430005C1E0A17FF0102FFE001FF018006190F51
:10444000FFFFFFF85A0804093D1E1A7F650A17800E
:104450001E324009541EED47881C701E5C1F64709C
:104460001EED448824881E6C046C901EFC4820803D
:104470001E0B1A4C801E9A541EFAB81E9A441E092E
:104480001078891E0912966A44960B10478FD26BDA
:104490000444D23240E91E5904093D1E0D187FFF25
:1044A000FFFF1E01131A0F310266F8021C010A1ADF
:1044B0003E1E041B01FFC11503E1E1110218601249
:1044C0000E13391103173878150C1C1D110317082A
:1044D0008C1C08FF891E0A1684960B19E3C11E1254
:1044E000031361110318F886671C011101F8821B80
:1044F0001FC004614B7F80071A015A593C23FFF00B
:104500004A3E7153FFE07BE381782401FFFC523C7B
:104510002A0729312A413C49D22403FFFE527C6CF0
:104520000FFFF878114B08883123E07E4A781E1A75
:10453000C047311A3E1E4AF9471B07C0934934123F
:104540001F1929391E91240F800F49295A1F9E9A3D
:104550001C1E19204A011E1A1E0249AAB91E4A032E
:10456000CA09131E55078003C07A3C1E2BFFFFCAE1
:1045700049988B80071E5AE06699986B07801E4CFD
:1045800001F80FD6B97A691EFD03183FBC1E7A7F69
:104590001EF30878121F3B1FFF791B3C1E1EF27092
:1045A000121E3B3FFFD31B3C3E5A49DDA11A3E1E63
:1045B00039A94E3C3F1E01F9BF413A03A0127C5C71
:1045C0007F03F81E118AE11E430F0F1AF820491EBF
:1045D000133E1E4A01BF412A380C1301F81A7820F5
:1045E0004996A91E1CE0F8605F3AF03E49D2991E38
:1045F000250183F8301B07E01E0A113C1E1C03F83E
:10460000187D12C00A12F01E250303F8080B141FB0
:10461000801E250203F004223FA91E79D22506033D
:10462000F0060A157E1E250403E1C619AF59961A35
:104630001E021182E02D0CE1CFF31B39D24B03C0D7
:104640001E82F0150DF99FF31A010F1A781E19D961
:10465000121F1A3E4B198B491E14FC4FF31A034BC1
:104660001A7C3E1B0FF01E19666B3FFC5A14FF03A9
:10467000F31A07872C3F03F01E1B0FC01A8A0F1E68
:104680001339F34F0FFFFF801FFF1E1AFF84913D68
:104690000CFE78721E2C0FFFE01E1A0725A13D04A8
:1046A0003878021E2C07FF80961A0125A112063BBE
:1046B000FC061E1122FE19D211B37F80051A0201D9
:1046C000FC0C051A0301FC080B1A01031E11041B44
:1046D000C1F830041B604060123019A90119AB1EEB
:1046E00007C3F9970229F8192A0A187F4B12F00C10
:1046F0001701FFE06612F00B1703FF6A1303E00CCB
:104700001907FFFC1E0B170FC01E1307C00C170F55
:10471000803E1E1280121FBA1E4E994A1B0F801C2B
:1047200009181E211A1E3EB1A3020419192A1E23BC
:1047300009141E1955D91EA307FEFA3C1EA30E0626
:10474000FA7C1EA30C03EB79F81E9418018013FF6A
:10475000FE141E1E0F93F00812308AC01E12FF971F
:104760001E1F0F01F818126082E0900B01FFFF80FE
:104770001E3F0F019C301AE020691E2CF80FC01E4E
:10478000930C201AC05C712D03F007E05A7A0C30AC
:104790007D03FFFFFC0C1CE003E0967B010C8AAA62
:1047A000071E1CC001E0D27B019DC63A0603592AB0
:1047B000591E7AF91EA93C1D078001F01E1192F3C3
:1047C000A978691E794D211A20B609181E0A1030E1
:1047D0001E8B0CF01E8A011E3996121F9319F87B4E
:1047E0001801A249D2121E931B9C8B0E07A21DE03A
:1047F00003E01F1E93330C8B07FE1E17F007C00F3C
:10480000803E8A631E8A0165A80801F80FC00FC0A8
:10481000FC1EC117FFFF8007FFFC8AC37899961121
:10482000137FFF9E03FFF80181B48A611E133FFCD2
:104830009E01FFE00180F07A60F0111A07178A7F6D
:104840002D41021D60091C1E019669B41307C00AA0
:10485000100FF0191251130F80133FFCC401FFE039
:104860006B01F81E193812FF6B07FF2E516A031EE9
:10487000221F6EFFFF800FFF10491E72FC1A3E4779
:104880006D1F800FC010498D8A9E1E15F007C01F36
:10489000C27E1A0F7051127C1C03E0031EC23E6AD6
:1048A0001E1E12F81603C003C01EBA1E1E5A07E1D0
:1048B000391EDAE01E4C3C03C0DA1AF01ECC01E0CF
:1048C0003C1E5B78011E0A14E01E4AE0DA09131E42
:1048D0001AF00239DA0A12C01E0C18E380701E4D5D
:1048E00001E78078F81280380E03C3C1E03C1E1E39
:1048F000019E019E0373CA1301C75238121F380F5D
:10490000F003C3E1E03C3E1E01BF81BF83F7AC135F
:1049100003CF7A3C1E1AC71E48093F1E01C381C33C
:10492000833C1E128E521C8A3E1E4E81C181C318CA
:104930001E5A9E1E8A3C5A891E5B079C1E2A7C1E9C
:1049400049966C80C1801E5A1CC31AF81E49D2A910
:104950001E0A1B181E5A805A09131E6A031E0B25B5
:10496000FFFF1E99D21AC0CC09171E1301E08A78E6
:104970001E1C03E01E1E5DC381C3831E12F072F075
:10498000291E2AC01E5CBF81BF1E111AF820691E95
:1049900015E003C01F5F3E019E019E031E6C7E0F4B
:1049A000E01E1C01F0071E867C018001804B3FFF4A
:1049B00026291EAFF81F800FC0FC1E830FFF1AF0C0
:1049C0009AAD800FFFF81E8B03FC1E137FFFAC0710
:1049D000FFF01EA112F0133FFC0C1601FFE01E1A9F
:1049E0000FBF0A117F1A01AD0A1BFF017159E58241
:1049F000407909D91EAA061E2401C3C0120C4B809F
:104A00001F154C18300F091A1F17891E1A3F3E2A0E
:104A1000401E293C19093B1FF01E4AE31E1A71076C
:104A2000391E495859094B01E61EDB60E01E3A1851
:104A30001E1EA6C0F803CC1E2D603C07FF1E127E72
:104A40003A7E0913181F123E1F01A4C1FE07EC1E77
:104A5000116AFF1E490915183F80FF2F01B4C38654
:104A60000E1C1E4BC380964A0109180B1870C0C358
:104A70008001BCC3070C1E6C3801811E4A8081284E
:104A80000A60E1C1800198C3030CF03A811E5B1FEC
:104A9000F01E7E1FF06061801E6B07C11E113AC0C0
:104AA0001E1AC01E114B01801E115BE1FF5A113A04
:104AB000FE5A9CC07FE11E7A611E3A1F09D91E5919
:104AC0008D1A061329091B606081691E0A12C01E17
:104AD0001A801E39D21AE01E4A60D21A81FD1E4089
:104AE00018706001D21D80C3860E1E3C70E0C31595
:104AF000191E4AC1091C70C0C31E15C1FE07EC1562
:104B0000803FC0FF2A7F152D7FF0FF80092A3812D1
:104B1000170180C0F803CC13801F123E4A3F1E3A93
:104B20007E092A18127162808240790909391E842F
:104B3000A24A04680901020304060708090C691067
:084B4000450204060800000014
:04000005080000ED02
:00000001FF
