:020000040800F2
:1000000048190020E9010008C31B00082115000859
:10001000BF1B0008F3130008BD200008000000000B
:10002000000000000000000000000000A51D000806
:10003000F713000800000000491C0008B91E000862
:10004000030200080302000803020008030200087C
:10005000030200080302000803020008030200086C
:10006000030200080302000803020008030200085C
:10007000030200080302000803020008030200084C
:10008000030200080302000803020008030200083C
:10009000030200080302000803020008030200082C
:1000A000030200080302000803020008030200081C
:1000B0001D1F0008030200080302000803020008D5
:1000C00003020008030200080302000803020008FC
:1000D00003020008030200080302000803020008EC
:1000E00003020008030200080302000800F002F8FF
:1000F00000F06AF80AA090E8000C82448344AAF158
:100100000107DA4501D100F05FF8AFF2090EBAE855
:100110000F0013F0010F18BFFB1A43F0010318473B
:100120001C3700003C3700000A444FF0000C10F868
:10013000013B13F0070408BF10F8014B1D1108BF65
:1001400010F8015B641E05D010F8016B641E01F805
:10015000016BF9D113F0080F1EBF10F8014BAD1C55
:100160000C1B09D16D1E58BF01F801CBFAD505E073
:1001700014F8016B01F8016B6D1EF9D59142D6D3CD
:10018000704700000023002400250026103A28BFF5
:1001900078C1FBD8520728BF30C148BF0B607047F9
:1001A000662902F0AF84642900F07A80002070474D
:1001B0001FB500F0E1FB04000020002102F08CF9E3
:1001C000E0601FBD10B510BD00F0D6FC1146FFF772
:1001D000EFFF02F053F800F0F4FC03B4FFF7F2FF76
:1001E00003BC00F037FD000009488047094800477C
:1001F000FEE7FEE7FEE7FEE7FEE7FEE7FEE7FEE7D7
:10020000FEE7FEE704480549054A064B7047000033
:10021000BD1E0008ED00000848130020481900200A
:1002200048150020481500200FB41CB5074B06AA3E
:100230007B4469460090059800F085FB00206946E4
:1002400000F094FB1CBC5DF814FB000039070000B3
:1002500070B5044685690068C10601D5302600E006
:100260002026C00707D070BDD4E901213046904751
:10027000206A401C20626D1EF6D570BD70B5044624
:1002800085690078C00707D170BDD4E9012120201D
:100290009047206A401C20626D1EF6D570BD00009C
:1002A0002DE9F0410646002410687529314616A54F
:1002B00010D0AFF30080002802DA404213A507E017
:1002C00031688A0701D512A502E0490704D511A5B6
:1002D000012401E0AFF3008000210A2206F1240787
:1002E00009E0B0FBF2FCB0FBF2F302FB1C00303083
:1002F00078541846491C0028F3D123462A46304634
:10030000BDE8F04100F0B1B8000000002D00000091
:100310002B000000200000002DE9F0474FF0000AFC
:1003200089460446C0F820A02046E1688847002896
:1003300076D0252806D0D4E901219047206A401CB8
:100340002062F1E7E168204600258847C4F81CA038
:1003500006460027C4F818A02A2E09D0304601F01E
:10036000C3FE38B304EB8708303EC8F8186019E0C4
:1003700059F8041B204604EB87029161E168884725
:10038000012F064618D1E069002820DA25F0200563
:100390001DE0D8F8180000EB800006EB4000303874
:1003A000C8F818002046E1688847064601F09CFE20
:1003B0000028EED1012F0AD02E2E08D12046E16868
:1003C00088477F1C0646022F45F02005C4DBA06944
:1003D000002803DA404245F00105A061E80701D09A
:1003E00025F01005B6B1A6F14100192802D8203633
:1003F00045F400654A463146204625604D46FFF7E4
:10040000CFFE58B1012806D0ED1D25F0070000F100
:10041000080989E704E005F1040985E730468AE721
:10042000206ABDE8F08710B5431C02E010F8011BFC
:1004300071B18107FAD14FF0013202C88C1A8C4396
:1004400014EAC211F9D0C01A0A0603D0C01E10BDAA
:10045000C01A10BD0A0401D0801E10BD0902FCD0D4
:10046000401E10BD7047704770472DE9F0470D469C
:1004700099469246044600F124080168880604D58E
:10048000E06921F01001216000E00120A84201DDB7
:10049000471B00E00027A1697A1902EB0900081A3E
:1004A000A0612078C00602D42046FFF7D1FE0026C6
:1004B00008E0D4E901211AF806009047206A401CA0
:1004C000761C20624E45F4DB2078C0060AD5204613
:1004D000FFF7BEFE06E0D4E9012130209047206AF4
:1004E000401C2062381EA7F10107F4DC07E0D4E9C4
:1004F000012118F805009047206A401C2062281E40
:10050000A5F10105F3DC2046FFF7B8FE20780006D0
:1005100002D50220BDE8F0870120FBE770472DE9F6
:10052000FF4F0C461E464FF0FF378BB0D2E900015B
:10053000DDF860800A908A46C1F30A5505B93D4648
:10054000002108464FF00000BAF1000F00F440000F
:1005500005DA00EB80004FF4400101EA50004FEA59
:100560009059B9F1010F00DDB9460A9850EA4A00E6
:100570000ED044F61050A5F2FF3545432F14B8F1C4
:10058000000F1ED07542291E1EDDC9F100021CE0BD
:10059000B8F1010F4FF0000001D0302103E0F24329
:1005A00005E02154401CB042FBDB30460022002114
:1005B00021540B99C1F80880C1E900200FB0BDE8B3
:1005C000F08FBD1B6D1CDEE74A4600DA694206A8C3
:1005D00000F05CFA06AB93E8070003AB83E8070082
:1005E00050460A9900F03DFB8DE80700A0F5005049
:1005F0001F3800900398002D0ADD42F21F014A4681
:100600000844002303A90390684600F0A6FD09E012
:10061000A0F500504A461F38002303A903906846FE
:1006200000F0B0FD8DE807000004000C03D04FF08F
:10063000FF30410800E01046B8F1000F03D000225F
:10064000009215461EE0751E05D400F099F930326F
:1006500062556D1EF9D5B3460122084302D000222F
:100660007F1C04E02078302801D100227F1E002A60
:10067000099784D01DE0112D07DA00F081F930329E
:1006800062556D1C50EA0102F5D1084302D0009872
:10069000C8B10EE00021681E05E0235C625C635473
:1006A0002254401E491C8142F7DBAB46A81B401E6A
:1006B0000990002004F80B000B98099AC0F80880F4
:1006C000C0E9002B7AE711264FF0000857E72DE923
:1006D000F04F88460446D21D22F0070191B0D1E9BF
:1006E0000001CDE90A0101F0EBFC02460B98C00FB6
:1006F00001D02D2007E02068810701D52B2002E0E2
:10070000202101EAC000032A099001D0072A05DB55
:1007100003464146204600F079F90BE12078800637
:1007200001D5E06900E00620B8F1650F814606D0EA
:10073000B8F1660F18D0B8F1670F70D131E0002022
:10074000B9F1110F009001DB112301E009F1010360
:100750000AAA01A90CA8FFF7E2FEDDE90C70002649
:1007600009F10105834647E001204B4600904FF018
:1007700000470AAA01A90CA8FFF7D1FEDDE90DB0D8
:100780000C995D46002610B909F101000D18B9EB6E
:10079000050003D4C0F1FF3609F10105A5EB0900FE
:1007A0002BE0B9F1010F01DA4FF001090020B9F196
:1007B000110F0090484601DD112300E003460AAA0C
:1007C00001A90CA8FFF7ABFEDDE90C704D46002631
:1007D0008346207800070AD4AB4500DA5D4601A8BD
:1007E000012D04DD411911F8011C302907D04F45B6
:1007F00002DA17F1040F04DA012082460FE06D1EC1
:10080000EEE7002F02DCED1B3E4403E0781CA8421B
:1008100000DD7D1CB81B00F1010A4FF00047207875
:10082000000703D4AA4501DB4FF0FF3A0021B7F1DE
:10083000004F0DF143088DF8431024D002202B23E4
:10084000002F01DA7F422D230A21021EA0F10100B0
:1008500000DC5FB197FBF1FC97FBF1F201FB1C7C24
:1008600017460CF1300C08F801CDEEE7A8F10100B5
:1008700003702188090501D5452100E06521A0F11B
:10088000010800F8011C09980FA9A1EB0807FF1D3A
:1008900000B10120411901EBEA70A1693844081A3E
:1008A000401EA0612078C00602D42046FFF7D0FC8D
:1008B000099828B1D4E901219047206A401C2062A0
:1008C0002078C00622D52046FFF7C2FC1EE0002E8D
:1008D00004DBB34502DD01A8805D00E03020D4E9EF
:1008E00001219047206A401C2062761CAAF1010079
:1008F0005FEA000A0AD100F03FF8C0680168405C76
:10090000D4E901219047206A401C2062281EA5F1ED
:100910000105DCDC07E0D4E9012118F8010B904760
:10092000206A401C2062381EA7F10107F3DC204634
:10093000FFF7A4FC032011B041E6000001694A1C46
:1009400002610878704700B58FB0CDE90131002110
:10095000059105497944CDE9031011466846FFF732
:10096000DBFC0FB000BD0000E5FFFFFF0A6802F8E6
:10097000010B0A6070470000004870470813002010
:1009800030B5B0F10A024FEA900E71F100034EEA61
:10099000817EB0EB0E0061EB91014FEA101E4EEA32
:1009A000017E10EB0E0041EB11114FEA102E4EEAC2
:1009B000016E10EB0E0041EB11214FEA104E4EEA92
:1009C000014E10EB0E0041EB1141401841F10001C6
:1009D0004FEAD00040EA41704FEAD10110EB8005A8
:1009E0004FEA810444EA907444EB01046D1944EB2E
:1009F0000404521BA3414FF0000348BF0A3200D544
:100A000030BD401C41F1000130BD00002DE9F04136
:100A10001F46044603260168072A01F4006004DB30
:100A200008B116A505E016A503E008B115A500E07C
:100A300015A521F010002060A069C01EA0610FB1B3
:100A4000401EA0612046FFF703FC4FB1D4E901210D
:100A500038469047206A401C2062C01C206206E095
:100A6000206AFAE7D4E9012115F8010B9047761EB8
:100A7000F8D22046FFF702FCBDE8F0814E414E005F
:100A80006E616E00494E4600696E66002DE9F047C2
:100A9000814616468AB0354878440DC88DE80D0069
:100AA00032487844801C03AC0DC884E80D0041F640
:100AB0009B300844372190FBF1F290FBF1F5A5F152
:100AC000800501FB12041B3C02D56442012000E0BA
:100AD0000020DFF898A080460027FA44AAF1BE0A59
:100AE0000EE0E0070AD03246684607EB47010123D3
:100AF0000AEB810100F046FB8DE8070064107F1CC3
:100B0000002CEED1194F7F44AE3F19E0E80715D015
:100B100007EB04100DF1180A90E80E008AE80E00A9
:100B2000C068F04201D1981908903246012306A905
:100B300003A800F027FB03AB83E807006D10641CDB
:100B4000002DE3D14FF0010332466946B8F1000FA2
:100B500003A802D000F001FB01E000F013FBC9E99B
:100B60000001C9F808200AB0BDE8F087882D000010
:100B700000487047E81200207546FFF7F9FFAE46BF
:100B800005006946534620F00700854618B020B599
:100B9000FFF738FBBDE820404FF000064FF000079C
:100BA0004FF000084FF0000B21F00701AC46ACE815
:100BB000C009ACE8C009ACE8C009ACE8C0098D4682
:100BC000704710B50446AFF300802046BDE81040E2
:100BD000FFF703BB4FF0013C50F8042B51F8043BE6
:100BE0009A4221D1A2EB0C03934313EACC1317D101
:100BF00050F8042B51F8043B9A4215D1A2EB0C0398
:100C0000934313EACC130BD150F8042B51F8043B57
:100C10009A4209D1A2EB0C03934313EACC13DBD025
:100C20004FF00000704700BFD01A01BAB1FA81F14D
:100C300001F0180122FA01F0CB40C1F12001DBB232
:100C4000C0B2C01A2CFA01F3D11A914311EAC311B0
:100C5000E6D1704701491820ABBEFEE7260002002E
:100C600070475FEA400C08BF91F0000F4FEA8C23F9
:100C70004FEAC12243EA51514FEA1C5018BF00F518
:100C8000F0404FEA300018BF41F000415FEA6C5C71
:100C900000F02980BCF1FF3F08BF40F08040704762
:100CA000130C06BF12044FF0100C4FF0000C130E83
:100CB00004BF12020CF1080C130F04BF12010CF157
:100CC000040C930F04BF92000CF1020CD30F04BF6D
:100CD00052000CF1010C11464FF00002A0F11F0070
:100CE000A0EB0C00704711F0004F08BF704731F0C7
:100CF00000413FF4D5AF0B0C06BF09044FF0100CB8
:100D00004FF0000C0B0E04BF09020CF1080C0B0F86
:100D100004BF09010CF1040C8B0F04BF89000CF116
:100D2000020CCB0F04BF49000CF1010CCCF12003E5
:100D3000A0EB0C0022FA03F302FA0CF241EA0301E1
:100D400000F10100704720F07F4C80EA030023F09F
:100D50007F47ACEB070303F57C5300F0004003F141
:100D6000FF032DE980494FEA154B09B44FEA1443BC
:100D700025EA0B4E24EA03480FF2042606EB13275C
:100D800049083E785FEA320203FB0667C7F50007B1
:100D900007FB06F64FEA54374FEAD64606F102063D
:100DA00007FB066CCCF1005C4FEA1C472CEA074CB1
:100DB00007FB06F40CFB06F504EB15464FEA961606
:100DC00034BF00204FF000404FEAD13706FB07FC4C
:100DD0004FEA1C4C0CFB0BF7D21B03FB0CF761EB2F
:100DE00007010CFB0EF7B0EB074072EB17420CFB50
:100DF00008F734BFA2EB0742B2EB074261EB1741A1
:100E00004FEA0C444FEA910706FB07FC4FEA1C4CE3
:100E10000CFB0BF7B0EBC74072EB573203FB0CF740
:100E200034BFA2EBC742B2EBC74261EB57310CFBB8
:100E30000EF7B0EBC70072EB57720CFB08F734BF2C
:100E4000A2EBC702B2EBC70261EB5771039F4FEAF7
:100E5000816141EA921104EBCC044FEAD1374FEAA9
:100E6000826206FB07FC42EA90124FEA80604FEA7A
:100E70001C4C0CFB0BF7D21B03FB0CF761EB0701BF
:100E80000CFB0EF7B0EB074072EB17420CFB08F7B8
:100E900034BFA2EB0742B2EB074261EB17414FEAC6
:100EA0008C554FEA910704EB9C2406FB07FC4FEAA4
:100EB0001C4C0CFB0BF7B0EBC74072EB573203FB3B
:100EC0000CF734BFA2EBC742B2EBC74261EB57311C
:100ED0000CFB0EF7B0EBC70072EB57720CFB08F778
:100EE00034BFA2EBC702B2EBC70261EB577115EB3F
:100EF0004C254FEA816141EA92114FEA82624FEA42
:100F0000D13742EA901206FB07FC44F100044FEA95
:100F100080604FEA1C4C0CFB0BF7D21B03FB0CF759
:100F200061EB07010CFB0EF7B0EB074072EB1742C9
:100F30000CFB08F734BFA2EB0742B2EB074261EBB0
:100F4000174115EB1C154FEA813141EA92414FEAF6
:100F5000823242EA90424FEA80304FEA0C7644F106
:100F6000000448EA03434EEA0B484FF0000EB2EB90
:100F7000080C71EB030724BF624639464EEB0E0E98
:100F80004FF0000B0018524149414BEB0B0BB2EBF9
:100F9000080C71EB03077BF1000B24BF6246394656
:100FA0004EEB0E0E4FF0000B0018524149414BEB37
:100FB0000B0BB2EB080C71EB03077BF1000B24BFAA
:100FC000624639464EEB0E0E51EA020718BF46F054
:100FD000010616EB0E7655F1000254F1000103D51F
:100FE000BDE88901BDE80088BDE88901BDE8004889
:100FF000B619524141EB0101A3F101037047808012
:101000007F7E7D7C7B7A7978777676757473727162
:1010100071706F6E6E6D6C6C6B6A6A69686867661A
:1010200066656464636362616160605F5F5E5E5DAC
:101030005D5C5C5B5B5A5A59595858575756565520
:1010400055555454535352525251515050504F4F82
:101050004F4E4E4D4D4D4C4C4C4B4B4B4A4A4A49D2
:101060004949484848474747474646464545454415
:101070004444444343434342424242414141002BA2
:101080009C4630D477002BD01CB54FEA370703B409
:101090004FF010004FF01001BAF1000F06D0BCF174
:1010A000000FDCBF40F0080040F008014FF00000E6
:1010B0000FBCBDE810400BF1010BBBF1010F08BFE5
:1010C0005FEA170722BF12F1010211F101014FF08F
:1010D000004143F1000300F0004043EA0000704784
:1010E000F9D35708D0E746EA064613F1400F4FEA16
:1010F00016461FDD13F1200FDFBF16430A460021FD
:1011000020335B42BED0C3F1200746EA064602FA0E
:1011100007F74FEA164646EA0706C3F1200722FA08
:1011200003F201FA07F721FA03F14FF0000342EA54
:101130000702A7E746EA020646EA06464FEA1646CF
:1011400046EA0106BCBF46EA0646360C4FF00003ED
:101150004FF000024FF0000194E72DE9804C9A46D1
:10116000934670B491E8380007C831EA400C48BF94
:1011700034EA430C03D5FFF7E6FDFFF780FFF0BC30
:10118000BDE8008C2DE9804C9A46934670B491E8F6
:10119000380007C810F0804F08BF13F0804F03D10C
:1011A00000F005F8FFF76BFFF0BCBDE8008C20F005
:1011B0007F4780EA030023F07F4C07EB0C03A3F585
:1011C0007C5300F00040A3F1FE0392F0000F00F00A
:1011D000B38095F0000F00F077802DE901494FEAC8
:1011E00011404FEA144621EA004800FB06FC24EABD
:1011F000064708FB06F607FB08F800FB07F718EBA5
:1012000006484CEB164C4FEA124B18EB07484FEAD6
:1012100015464CEB174022EA0B4E0BFB06FC25EA69
:1012200006470EFB06F607FB0EFE0BFB07F71EEB51
:10123000064E4CEB164C4FF000061EEB074E4CEBE7
:10124000174B18EB0B0840F1000018EB0E0B58EB96
:10125000000840F100008F1A4FF000013CBFC94365
:10126000661B14BFB5EB040C00213CBFC943F61B41
:101270004FEA17444EEA8E0E27EA04454FEA1C4710
:1012800004FB07622CEA074C05FB07F70CFB05F68D
:1012900004FB0CFC16EB074642EB174216EB0C4620
:1012A00042EB1C421BEB060658EB0202414146EAA8
:1012B0009E0601D5BDE80189B619524141EB0101F5
:1012C000A3F10103BDE801894FEA14454FEA114734
:1012D00024EA054621EA074C05FB07F406FB07F75D
:1012E0000CFB06F105FB0CFC11EB074144EB17442A
:1012F0004FEA124711EB0C4144EB1C4422EA074C25
:1013000005FB07F206FB07F70CFB06F605FB0CFCDA
:1013100016EB074642EB174216EB0C4642EB1C4518
:101320006A1854F1000148BF7047B619524141EBA9
:101330000101A3F10103704795F0000F37D04FEA88
:1013400011424FEA144721EA024624EA074C02FB05
:1013500007F106FB07F70CFB06F402FB0CFC14EB91
:10136000074441EB17414FEA154714EB0C4441EB9E
:101370001C4125EA074C02FB07F506FB07F70CFBAF
:1013800006F602FB0CFC16EB074645EB174516EB81
:101390000C4645EB1C42121951F1000148BF704741
:1013A000B619524141EB0101A3F1010370474FEA25
:1013B00014454FEA114724EA054621EA074C05FB8C
:1013C00007F106FB07F70CFB06F24FF0000605FBE2
:1013D0000CFC12EB074241EB174112EB0C4251EBB4
:1013E0001C4148BF7047921841EB0101A3F1010372
:1013F000704700BFFEE770472DE9F0410246002527
:101400000026002000230024002791F803C00CF0E0
:101410000F0591F803C00CF0100CBCF1000F03D0C5
:1014200091F802C04CEA050591F800C0BCF1000F2C
:1014300031D0146800202BE04FF0010C0CFA00F3BF
:10144000B1F800C00CEA03069E4220D183004FF0A1
:101450000F0C0CFA03F7BC4305FA03FC4CEA040436
:1014600091F803C0BCF1280F06D14FF0010C0CFA23
:1014700000FCC2F814C00AE091F803C0BCF1480FA8
:1014800005D14FF0010C0CFA00FCC2F810C0401C52
:101490000828D1D31460B1F800C0BCF1FF0F34DDCF
:1014A000546800202EE000F1080C4FF0010808FA03
:1014B0000CF3B1F800C00CEA03069E4221D1830070
:1014C0004FF00F0C0CFA03F7BC4305FA03FC4CEA8F
:1014D000040491F803C0BCF1280F05D100F1080CF9
:1014E00008FA0CF8C2F8148091F803C0BCF1480F58
:1014F00007D100F1080C4FF0010808FA0CF8C2F807
:101500001080401C0828CED35460BDE8F08102460C
:10151000002093680B400BB1012000E000207047D1
:1015200000BFFEE702460748805C084040B1012941
:1015300004D00448805C8843024B985401207047D3
:101540000020FCE70000002010B5044634B9022159
:101550000848FFF7DCFF012809D110BD012C06D196
:10156000E1020448FFF7D3FF012800D1F5E700208E
:10157000F3E70000000C014008B50121082000F04D
:1015800075FB28208DF8030040F60200ADF800003E
:1015900003208DF8020069460848FFF72DFF282038
:1015A0008DF803008002ADF8000003208DF80200E2
:1015B00069460248FFF720FF08BD0000000C01400B
:1015C00010B50020A349087016E0A348A149097886
:1015D00030F8110000280ADD9F489E49097830F84C
:1015E0001100401E9C499B4A127821F8120099482C
:1015F0000078401C97490870964800780428E4DB7E
:1016000096480078401C95490870084600781428D0
:1016100071DB002008708F49087015E190488D49F2
:101620000978415C8F488B4A127881548948007848
:10163000FFF78AFF8A49874A127888540846854905
:101640000978405C01280AD1874882490978405CC2
:1016500040F0010084497F4A1278885409E08248AA
:101660007C490978405C20F001007F49794A127872
:1016700088547B4877490978405C01280ED1794825
:1016800074490978405C48B9774872490978405CE8
:1016900040F0020174486F4A1278815470486D49D5
:1016A0000978405C78B96F486A490978405C01283C
:1016B00009D16D4867490978405C40F004016A48E7
:1016C000644A12788154694862490978405C98B943
:1016D000634860490978405C01280BD14FF4FA60F7
:1016E0005D495C4A127821F8120001205F49594A8D
:1016F00012788854A3E0ACE05C4856490978405C15
:1017000001282DD1564853490978405C58B9C82062
:101710005149504A127821F81200022053494D4A8B
:10172000127888548BE04C484A49097830F8110007
:10173000002814D164204849464A127821F8120042
:10174000494844490978405C40F020004649414AF4
:1017500012788854042045493E4A127888546EE035
:1017600042483C490978405C02282BD13C48394921
:101770000978405C01280FD13B4836490978405C24
:1017800040F010003849334A127888540320374912
:10179000304A1278885452E02F482E49097830F8A0
:1017A0001100F8B930482B490978405C40F0080036
:1017B0002D49284A1278885400202C49254A12784D
:1017C00088543CE0294823490978405C03280AD121
:1017D000234820490978405C20B9002023491D4A4C
:1017E000127888542BE021481A490978405C042873
:1017F00025D11B4817490978405C28B900201B49AE
:10180000144A127888541AE013481249097830F8BB
:101810001100A0B9642010490E4A127821F8120074
:1018200011480C490978405C40F040000E49094AD3
:101830001278885404200D49064A127888540548C5
:101840000078401C03490870024800780428FFF61D
:10185000E5AE10BD050000201200002004000020AD
:10186000060000200A000020000000200E000020DA
:1018700070B5A023F0220021084600F0C9FC00F05A
:1018800099F900240AE0002505E0002211461046DF
:1018900000F0B4FD6D1C142DF7DB641CA02CF2DBF2
:1018A00070BD000008B50121082000F0DFF94FF4F9
:1018B0007070ADF8000003208DF8020010208DF844
:1018C000030069460148FFF797FD08BD000C014081
:1018D00010B500F0DBF9FFF7E5FF00F05DF811202F
:1018E00000F052F9C02000F04FF9F12000F036F975
:1018F000002000F033F9C32000F046F9022000F088
:101900002DF9C42000F040F9072000F027F9D0207D
:1019100000F03AF91D2000F021F9B52000F034F96B
:10192000002000F01BF9382000F02EF93A2000F0DA
:101930002BF9022000F012F9362000F025F90020E2
:1019400000F00CF9B02000F01FF99F2000F006F91C
:10195000202000F019F9F12000F016F9152000F010
:10196000FDF8152000F0FAF8152000F0F7F8152022
:1019700000F0F4F8B12000F007F9002000F0EEF8D4
:10198000292000F001F9012002490860FFF770FFEB
:1019900010BD00009881214210B54FF480700749B6
:1019A0000860642000F0F0FB4FF480700349091FC9
:1019B0000860322000F0E8FB10BD0000140C01406C
:1019C0002DE9F74F074615460026302D09DB392D46
:1019D00007DCA5F13000C0EB0010284901EB001630
:1019E00024E02E2D01D1264E20E0412D07DB5A2D7B
:1019F00005DCA5F14100234901EB001616E0202D7E
:101A000013D14D231E223846019900F001FC00F04D
:101A1000D1F8002405E00021084600F0E3FC601C3A
:101A2000C4B24D2CF7DBBDE8FE8FFCE726B33C23A8
:101A30001E223846019900F0EBFB00F0BBF80024B1
:101A400018E016F82480012000EB840016F80090BE
:101A5000022000EB840016F800A0032000EB8400B5
:101A600016F800B05B4652464946404600F0F1FC8D
:101A7000601CC4B23C2CE4DB00BFD4E7582D000846
:101A8000B8360008B82B00082DE9FC4705468A4601
:101A900016462027304600F04DFF804642460B4652
:101AA00013A16846FEF7C0FB6846FEF7BCFC07467C
:101AB000002408E004EBC401294488B220225146E6
:101AC000FFF77EFF641C042CF4DB00240CE01DF8FF
:101AD0000420C7F10401214401EBC101294488B26B
:101AE0005146FFF76DFF641CBC42F0DBBDE8FC878C
:101AF00025342E31660000002DE9FC4105460F46D5
:101B000090462026424614A16846FEF78DFB6846A3
:101B1000FEF789FC0646002408E004EBC4012944D2
:101B200088B220223946FFF74BFF641C042CF4DBFB
:101B300000240CE01DF80420C6F10401214401EB4F
:101B4000C101294488B23946FFF73AFF641CB44208
:101B5000F0DBBDE8FC8100002534640010B50446CC
:101B60004FF400700649086001222146054800F044
:101B700005F94FF400700249091F086010BD00000C
:101B8000140C01400030014010B504464FF40070C1
:101B90000649086000222146054800F0EFF84FF49E
:101BA00000700249091F086010BD0000140C0140BC
:101BB0000030014010B52C20FFF7E6FF10BD00BF3C
:101BC000FEE7704770B5002100230F22C47804B3EC
:101BD000154C246804F4E064C4F5E064210AC1F102
:101BE0000403CA40447804FA03F184781440214382
:101BF00009010E4C0678A155047804F01F05012454
:101C0000AC4005786D11AD0005F1E025C5F8004147
:101C100009E0047804F01F050124AC40044D067867
:101C2000761145F8264070BD0CED00E000E400E0C0
:101C300080E100E002490143024A11607047000060
:101C40000000FA050CED00E07047000029B1064ADB
:101C5000D2690243044BDA6104E0034AD269824349
:101C6000014BDA61704700000010024029B1064ABA
:101C700092690243044B9A6104E0034A92698243E9
:101C8000014B9A61704700000010024000B587B018
:101C900001210520FFF7EAFFA020ADF80400032092
:101CA0008DF8060018208DF8070001A91C48FFF7E1
:101CB000A3FB4020ADF8040048208DF80700032066
:101CC0008DF8060001A91648FFF796FB01210803CD
:101CD000FFF7CCFF0020ADF808004FF48270ADF89C
:101CE0000A004FF40060ADF80C000220ADF80E00C1
:101CF0000120ADF810004002ADF812000020ADF850
:101D00001400ADF816000720ADF8180002A9054828
:101D100000F016F80121034800F006F807B000BDF6
:101D2000000801400030014021B1028842F0400229
:101D3000028004E002884FF6BF731A4002807047A9
:101D400010B50022028802F441520B884C882343CC
:101D50008C882343CC8823430C8923434C89234319
:101D60008C892343CC8923431A430280838B4FF20F
:101D7000FF74234083830B8A038210BD034600BF98
:101D8000188900F002000028FAD0D00340EAC11000
:101D9000988100BF188900F001000028FAD09889C6
:101DA000C0B27047704710B500F002F810BD0000D7
:101DB0000CB50020019000903348006840F480305A
:101DC0003149086000BF3048006800F400300090DE
:101DD0000198401C0190009818B90198B0F5A06FC7
:101DE000F1D12948006800F4003010B101200090C2
:101DF00001E0002000900098012843D123480068AA
:101E000040F01000214908600846006820F00300F7
:101E100008600846006840F0020008601A48406800
:101E2000194948600846406848600846406840F4E0
:101E3000806048600846406820F47C10486008468E
:101E4000406840F4E81048600846006840F0807040
:101E5000086000BF0C48006800F000700028F9D04E
:101E60000948406820F00300074948600846406878
:101E700040F00200486000BF0348406800F00C00DA
:101E80000828F9D10CBD00000010024000200240DB
:101E9000042808D14FF0E021096941F004014FF016
:101EA000E022116107E04FF0E021096921F004010F
:101EB0004FF0E022116170477047000010B51348E1
:101EC000006840F001001149086008464068104968
:101ED00008400E494860084600680E4908400B4912
:101EE00008600846006820F48020086008464068C2
:101EF00020F4FE0048604FF41F008860FFF753FF96
:101F00004FF000600449086010BD0000001002405E
:101F10000000FFF8FFFFF6FE08ED00E010B501211C
:101F2000880700F01BF8012805D1FFF749FB0121C4
:101F3000880700F004F810BDCA4302827047CA4304
:101F40000282704721B1028842F00102028004E05F
:101F500002884FF6FE731A400280704730B5024681
:101F6000002000230024158A05EA0103958905EA6B
:101F7000010413B10CB1012000E0002030BD1AB102
:101F800083890B43838102E083898B43838170477C
:101F900001894FF6F87211400181704700220288D2
:101FA0001D4B98420ED01D4B98420BD0B0F1804F84
:101FB00008D01B4B984205D01A4B984202D01A4BBE
:101FC000984204D14FF68F731A404B881A43174B2F
:101FD000984207D0164B984204D04FF6FF431A4060
:101FE000CB881A4302808B8883850B8803850A4B34
:101FF00098420BD0094B984208D00E4B984205D01E
:102000000D4B984202D00D4B984201D10B7A0386BA
:102010000123838270470000002C014000340140FE
:102020000004004000080040000C00400010004088
:1020300000140040004001400044014000480140BD
:102040001FB501210846FFF701FE4FF08040FFF762
:102050009FFF0020ADF80A00ADF8060040F2E7301F
:10206000ADF808004720ADF8040000208DF80C0002
:1020700001A94FF08040FFF791FF01218807FFF78A
:102080005BFF012211469007FFF779FF4FF4A06034
:10209000FFF7D0FD1C208DF8000001208DF8030013
:1020A00002208DF8010001208DF802006846FFF73C
:1020B00089FD01218807FFF745FF1FBD00BFFEE72F
:1020C000490050EAC12018BF04204A0D18BF40F053
:1020D000010040F2FF72B2EB515F08BF40F0020016
:1020E000012808BF0520704730380A2801D2012096
:1020F00070470020704770B506460D4614462946C5
:10210000304600F04FFC01D2284670BD21463046D3
:1021100000F0C7FC01D22046F7E73046F5E703465A
:102120008B4201DA08467047934201DD1046FAE718
:102130001846F8E703468B4201DA08467047934297
:1021400001DD1046FAE71846F8E7000010B504462E
:102150006FF00400FFF79CFEE11704EB5171C1F32F
:10216000C701074A11701046007800EB4001C1EB2F
:10217000C0104FF6FF7101EAC0000249088010BD8F
:10218000E4120020E612002001460D4A12884A435C
:102190004FF0E0235A6100229A6101221A6100BFC8
:1021A0004FF0E022106900F001021AB100F4803211
:1021B000002AF5D000224FF0E0231A619A6170479F
:1021C000E61200202DE9F0470446A023F02200216A
:1021D000084600F01DF8FFF7EDFC002514E000268E
:1021E0000EE02778641C94F80080641C94F800903A
:1021F000641C4A464146384600F01DF9701C86B200
:102200000A2EEEDB681C85B2A02DE8DBBDE8F08766
:102210002DE9F04704460D4616461F46701E032161
:1022200090FBF1F020441FFA80F8E819401E1FFAD5
:1022300080F92A20FFF7A8FC200AFFF78FFCE0B204
:10224000FFF78CFC4FEA1820FFF788FC08F0FF002E
:10225000FFF784FC2B20FFF797FC280AFFF77EFC92
:10226000E8B2FFF77BFC4FEA1920FFF777FC09F093
:10227000FF00FFF773FCBDE8F0870000FFF77CF973
:10228000FFF7DEFEFFF71AFE4820FFF75FFFFFF7BC
:102290001FFB4148FFF796FF4FF47A70FFF774FF7A
:1022A00079E008210020FFF73DF920B94021002006
:1022B000FFF738F9C8B13948006800F03BFB064623
:1022C000374A384B00F050F9044600F01BF9334907
:1022D000086035480078401C40B2334908703348E4
:1022E0000088401C00B23149088008210120FFF716
:1022F00019F920B940210120FFF714F9C8B1274886
:10230000006800F017FB0646254A264B00F028FA25
:10231000044600F0F7F82149086023480078401E81
:1023200040B22149087021480088401E00B21F4970
:1023300008801F4A002119480068FFF7DCFE174992
:1023400008600846032102680E20FFF79DFB642207
:102350000021154890F90000FFF7ECFE12490870C3
:10236000084690F9002032210E20FFF7C5FB40F609
:10237000B83200210D48B0F90000FFF7D0FE0B493C
:1023800008800846B0F9002061210E20FFF7B4FB59
:10239000C820FFF7F9FE84E7240000201C0000207D
:1023A0009A9999999999B93F20000020220000201C
:1023B00000008C4270B505460C462146284600F0C8
:1023C0007EF86106080E00F054F870BD70B5054641
:1023D0000C4621462846FFF7EDFF2107080E00F0C6
:1023E00048F870BD70B505460C4621462846FFF7F3
:1023F000EDFFE107080E00F03CF870BD70B5064631
:102400000C46154621463046FFF7E0FFE10141EA60
:102410006501C8B200F02DF870BD70B505460E46D6
:102420001446224631462846FFF7E8FFA106080E6B
:1024300000F01FF870BD70B505460E4614462246E2
:1024400031462846FFF7E9FF6107080E00F011F852
:1024500070BD2DE9F04105460E4617461C463A462A
:1024600031462846FFF7E7FF204600F01EF8BDE89A
:10247000F08170B50446002504F0800008B1E02525
:1024800000E000256006040E04F0800010B105F1A4
:102490001C00C5B26006040E04F0800008B1E81C00
:1024A000C5B22846FFF75AFB70BD10B5044620465A
:1024B000FFF7DFFFE106080EFFF7DBFF10BD70B589
:1024C00004460D462046FFF7F0FFA10141EAA501B1
:1024D000C8B2FFF7CEFF70BD10B500290AD008784A
:1024E000002807D005487844FEF774FB002801D087
:1024F000002010BD0248784410BD00007613000093
:102500006E13000021F00042A2F16052B2F5801F6C
:1025100001F0004328BFD2F17F6C0BD95FEA001CA9
:1025200043EAC20242EB507018BF704728BF20F048
:1025300001007047B2F5801FBCBF184670474FEAD4
:10254000410C1CF5001F02D2084600F0A5BA70B578
:1025500000F0B2F800000089FFF7F6BF4FF000402E
:10256000A0F580007047000010B591EA030F48BF46
:1025700083F0004300F1FC80841A71EB030C05D258
:10258000121943EB0C03001B61EB0C01DFF824E193
:102590004FEA1154A4EB135C1EEA430F18BF9EEAE6
:1025A000445F73D023EA0E03DCF1200E21EA0451CC
:1025B00043F4801332D322FA0CFE10EB0E0023FA00
:1025C0000CFE41EB0E01CCF1200E03FA0EFE10EBD7
:1025D0000E0051F10001B1F5801FCCF1200E32D276
:1025E00001EB045112FA0EF2BDE8104058BF7047DB
:1025F000401C38BF5FEA420218BF7047002814BF72
:1026000020F0010041F100014FEA410313F5001FE2
:1026100038BF7047A1F1C04100F09CB8012A43EBDC
:102620000302ACF1200CDCF11F0E32BF4FF0000EA4
:1026300023FA0CF310EB030041EB0451B4EB115FF0
:10264000D0D0A1EB045101F5801149085FEA3000B8
:1026500001EB04510ED350F1000038BF12FA0EFE08
:1026600008D1BDE81040C9E7401C38BF5FEA42020C
:10267000CAD1C3E7BDE810404FEA410313F5001F7C
:1026800038BF7047A1F1C04100F064B89EEA445FD2
:1026900008D011EA5E0FBDE8104004BF01F0004110
:1026A00000207047BDE8104070B500F005F800BF8D
:1026B00064FBBE3E0000E0FF0EF1020E2EF0030EA2
:1026C0005EF8046B364205D4012A43EB030515F589
:1026D000001F12D8012841EB010C1CF5001F0CD87B
:1026E0000ED14FEAD17C15F5001F0CEB4C0C0CF110
:1026F000020C08BF4CEBD37C04E04FF0080C01E067
:102700004FEAD37C0CEB4C0526FA05F606F00706DB
:10271000B6F1040C06D20EEB860CBDE870404CF00E
:10272000010C6047DFE80CF0090B02024FF000419A
:102730004FF00000A1F5002170BD19461046012898
:1027400051EB010418BFD4F5001484BF002001F040
:10275000004170BD0808A0F500114FEA3101704733
:1027600010B591EA030F48BF83F000433FF504AF73
:10277000841A71EB030C07D212198CF0004C43EB56
:102780000C03001B61EB0C01DFF8A4E14FEA1154CC
:10279000A4EB135C1EEA430F18BF9EEA445F00F0EF
:1027A000B08023EA6E03524221EA0451C3EB6E0368
:1027B00038BF5B1EDCF1200E25D322FA0CFE10EB95
:1027C0000E0043FA0CFE41EB0E01CCF1200E03FA91
:1027D0000EFE10EB0E0051F10001CCF1200E29D4B9
:1027E00012FA0EF201EB0451BDE8104058BF7047D9
:1027F000401C1CBFB2F1004F704700280CBF491CA1
:1028000020F00100704712EB020E43EB030218BFE9
:102810004FF0010E4EEA4202ACF1200CDCF11E0E2C
:1028200054D943FA0CFE10EB0E0051F1FF31CCF1FC
:102830001E0ED5D50EF1010E12FA0EFE404141EBEF
:10284000010101EB445C5FEA5C5C10D910EBDE70C7
:1028500001EB045138BFBEF1004FBDE8104018BF76
:10286000704700280CBF491C20F00100704730D28F
:102870004FEAD42C11F5001124F400641BD0B1FAF6
:1028800081F20B3AA41AA41ED2F12003914030FA2F
:1028900003F31943904001EBCC71002C01EB045180
:1028A000BDE81040A8BF704701F1C0414FF00000E3
:1028B00001F000417047B0FA80F310FA03F100D143
:1028C00010BDE41A173C4805C90AE4E701EB0451BE
:1028D00010BD491001EB0451BDE810404FEA300033
:1028E00002E04FF0000170474A0008BF0042F8D0F4
:1028F000B2F5001F28BF704701F000414FF0000003
:1029000070479EEA445F07D011EA5E0FBDE81040B1
:1029100004BF002100207047BDE8104070B5FFF7EC
:10292000CBFE00BF40DFF63E83F00041104670470B
:102930000000E0FF43004FEAD30C4FEA3C0C434059
:102940001FBF40070CF1605113F0FE4F70471CF0A1
:10295000006F03D100200CF0004170470CF00043E1
:1029600043EA507010B540EACC0000F04FF800BFC9
:10297000000000924FEA0001FFF7ECBE4FF000416B
:102980004FF00000A1F500217047401058BFC0F182
:102990004040491058BFC1F140418142EFF30080EF
:1029A0007047000050EA010C00F113801CF5000F85
:1029B00058BFBCF5000F01D48842704707D710F507
:1029C000000F58BF11F5000F15D488427047894297
:1029D00070471CF5000F04D5BCF5000FF7D58142F8
:1029E00070474FF0807C1CEB400F38BF1CEB410F51
:1029F00001D28142704710B500F008F892244900D6
:102A00004FF000504FF08051FFF7BFBF0EF1020EA4
:102A10002EF0030E5EF8044B244204D44FEA410228
:102A2000B2F17F4F11D84FEA4003B3F17F4F0CD87A
:102A30000ED14FEAD07CB2F17F4F0CEB4C0C0CF175
:102A4000020C08BF4CEBD17C04E04FF0080C01E015
:102A50004FEAD17C0CEB4C0324FA03F404F0070496
:102A6000B4F1040C06D20EEB840CBDE810404CF01F
:102A7000010C6047DFE80CF0070802024FF000404D
:102A8000A0F5800010BD0846420018BFD2F1807248
:102A900088BF00F0004010BDFF2141EAD050C005C2
:102AA000704751EA000C00F113801CF5000F58BF6D
:102AB000BCF5000F01D48142704707D711F5000F14
:102AC00058BF10F5000F15D48142704789427047F6
:102AD0001CF5000F04D5BCF5000FF7D588427047F0
:102AE0004FF0807C1CEB410F38BF1CEB400F01D234
:102AF0008842704780EA010081EA000180EA010013
:102B0000FFF779BFFDF7E3BD0000003C6642425A83
:102B10004242663C000000000000001868480808B7
:102B20000808087E000000000000003C6642060421
:102B30000810207E000000000000007C040818043B
:102B40000646443C000000000000000C1810206401
:102B5000447C0404000000000000007C40407C0431
:102B60000242643C000000000000000810303C6697
:102B70004242663C000000000000007E4204040C5B
:102B800008081030000000000000003C6642643875
:102B90004642463C000000000000003C664242669F
:102BA0003C080810000000000000000000000000C9
:102BB00000001818000000000000001818382C242D
:102BC000247C4242000000000000007C4642447821
:102BD0004642467C000000000000003C6642404047
:102BE0004042663C000000000000007C444646462F
:102BF0004646447C000000000000007E4040407CCF
:102C00004040407E000000000000007E4040407CCC
:102C100040404040000000000000003C6640404E44
:102C20004242663C00000000000000464646467EE8
:102C300046464646000000000000007C18181818A0
:102C40001818187C000000000000000404040404AC
:102C50000444443800000000000000424444487826
:102C600048444442000000000000002020202020B2
:102C70002020203E0000000000000066666A5A5ACC
:102C8000424242420000000000000066665656566E
:102C90004A4A4646000000000000003C64464646A2
:102CA0004646643C000000000000007C4242427C3A
:102CB00040404040000000000000003C66424242AC
:102CC0004242663C0C0600000000007C4642467C06
:102CD00048444442000000000000003C6442601C84
:102CE0000642663C000000000000007E101010103C
:102CF0001010101000000000000000464646464636
:102D00004646643C00000000000000424264242467
:102D100024381818000000000000009BDA5A5A5AA4
:102D20006A6666640000000000000042242C181847
:102D30001824644200000000000000C246242C1841
:102D400018101010000000000000007E040C081095
:102D50001020607E00000000000000000000000065
:102D60000000000000000000000000000000000063
:102D70000000000000000000000000000000000053
:102D8000000000000000000000000000001FE00044
:102D900000FFFC0001FFFE0003FFFF0007E01F80B3
:102DA00007C00F800F8007C00F8007C00F0003C04F
:102DB0000F0003C00F0003C00F0003C00F0003C0CB
:102DC0000F0003C00F0783C00F0FC3C00F0FC3C096
:102DD0000F0FC3C00F0783C00F0003C00F0003C055
:102DE0000F0003C00F0003C00F0003C00F0003C09B
:102DF0000F8007C00F8007C007C00F8007E01F804B
:102E000003FFFF0001FFFE00007FF800001FE0004D
:102E100000000000000000000000000000000000B2
:102E200000000000000000000000000000000000A2
:102E30000000000000000000000000000000000092
:102E40000000000000000000000000000000000082
:102E50000000000000000000000000000000000072
:102E60000000000000000000000000000000000062
:102E7000000000000000000000000000000FE00063
:102E8000001FE000007FE00000FFE00003FBE00027
:102E900007F3E0000FC3E0000F83E0000E03E00043
:102EA0000C03E0000003E0000003E0000003E0008A
:102EB0000003E0000003E0000003E0000003E00086
:102EC0000003E0000003E0000003E0000003E00076
:102ED0000003E0000003E0000003E0000003E00066
:102EE0000003E0000003E0000003E0000003E00056
:102EF0000FFFFFE00FFFFFE00FFFFFE00FFFFFE01E
:102F000000000000000000000000000000000000C1
:102F100000000000000000000000000000000000B1
:102F200000000000000000000000000000000000A1
:102F30000000000000000000000000000000000091
:102F40000000000000000000000000000000000081
:102F50000000000000000000000000000000000071
:102F6000000000000000000000000000001FE00062
:102F7000007FF80001FFFE0003FFFF0007E01F8055
:102F800007C00F800F8007C00F8007C00F0007C069
:102F90000F0007C0000007C0000007C00000078046
:102FA00000000F8000001F0000001F0000003E0016
:102FB00000007C000000F8000001F0000003E000C9
:102FC0000007C000001F8000003F0000007E0000DE
:102FD00000FC000001F8000003F0000007E0000022
:102FE0000FFFFFC00FFFFFC00FFFFFC00FFFFFC0AD
:102FF00000000000000000000000000000000000D1
:1030000000000000000000000000000000000000C0
:1030100000000000000000000000000000000000B0
:1030200000000000000000000000000000000000A0
:103030000000000000000000000000000000000090
:103040000000000000000000000000000000000080
:103050000000000000000000000000000FFFFF80E3
:103060000FFFFF800FFFFF800FFFFF8000001F009A
:1030700000007E000000FC000001F8000003F000EA
:103080000007C000000F8000001F0000001FE000CC
:10309000001FF800001FFE00001FFF0000003F009F
:1030A00000000F8000000F800000078000000780F4
:1030B000000007C0000007C0100007C00F00078015
:1030C0000F0007800F800F800F800F8007E03F0008
:1030D00007FFFF0003FFFC0000FFF800003FE000D7
:1030E00000000000000000000000000000000000E0
:1030F00000000000000000000000000000000000D0
:1031000000000000000000000000000000000000BF
:1031100000000000000000000000000000000000AF
:10312000000000000000000000000000000000009F
:10313000000000000000000000000000000000008F
:103140000000000000000000000000000000FC0083
:103150000000F8000001F0000003F0000003E000B0
:103160000007C000000FC000000F8000001F00001B
:10317000003E0000003E0000007C000000F800005F
:1031800000F8000001F00F8003E00F8003E00F80E3
:1031900007C00F800F800F800F800F801F000F80EF
:1031A0001F000F801FFFFF801FFFFF801FFFFF809A
:1031B0001FFFFF8000000F8000000F8000000F80C5
:1031C00000000F8000000F8000000F8000000F80C3
:1031D00000000000000000000000000000000000EF
:1031E00000000000000000000000000000000000DF
:1031F00000000000000000000000000000000000CF
:1032000000000000000000000000000000000000BE
:1032100000000000000000000000000000000000AE
:10322000000000000000000000000000000000009E
:1032300000000000000000000000000007FFFF0089
:1032400007FFFF0007FFFF0007FFFF0007800000E8
:103250000780000007800000078000000780000052
:1032600007800000078000000780000007FFE000E3
:1032700007FFFC0007FFFE0007FFFF0000001F80A4
:1032800000000F8000000780000007C0000007C09A
:10329000000007C0000007C0000007C00F0007C003
:1032A0000F8007C00F80078007C00F8007E01F0056
:1032B00003FFFF0001FFFE0000FFF800001FE00019
:1032C00000000000000000000000000000000000FE
:1032D00000000000000000000000000000000000EE
:1032E00000000000000000000000000000000000DE
:1032F00000000000000000000000000000000000CE
:1033000000000000000000000000000000000000BD
:1033100000000000000000000000000000000000AD
:103320000000000000000000000000000001F000AC
:103330000003E0000007C0000007C000000F80008D
:10334000000F0000001F0000003E0000003E0000D3
:10335000007C000000F8000000F8000001F1C0004F
:1033600001EFF80003FFFE0007FFFF0007F03F80BA
:103370000FC00FC00F8007C00F0003C01F0003E085
:103380001F0003E01F0003E01F0003E01F0003E035
:103390000F0003C00F8007C00FC00FC007E01F80E1
:1033A00003FFFF0001FFFE00007FF800001FE000A8
:1033B000000000000000000000000000000000000D
:1033C00000000000000000000000000000000000FD
:1033D00000000000000000000000000000000000ED
:1033E00000000000000000000000000000000000DD
:1033F00000000000000000000000000000000000CD
:1034000000000000000000000000000000000000BC
:103410000000000000000000000000000FFFFFE0BF
:103420000FFFFFE00FFFFFE00FFFFFE00F8003E063
:103430000F8003C00F8007C00F8007C00F800F8070
:1034400000000F8000001F0000001F0000001E0091
:1034500000003E0000003E0000007C0000007C00F8
:103460000000F8000000F8000001F0000001F0008A
:103470000001E0000003E0000003E0000007C000DE
:103480000007C000000F8000000F8000001F000038
:10349000001F0000001F0000003E0000007E000032
:1034A000000000000000000000000000000000001C
:1034B000000000000000000000000000000000000C
:1034C00000000000000000000000000000000000FC
:1034D00000000000000000000000000000000000EC
:1034E00000000000000000000000000000000000DC
:1034F00000000000000000000000000000000000CC
:10350000000000000000000000000000001FE000BC
:1035100000FFFC0001FFFE0003FFFF0007E01F802B
:1035200007C00F800F8007C00F8007C00F8007C043
:103530000F8007C00780078007C00F8003E01F00CF
:1035400001FFFE00007FF800007FF80001FFFE0091
:1035500003F03F0007C00F800F8007C00F0003C0BB
:103560001F0003E01F0003E01F0003E01F0003E053
:103570000F0003C00F8007C00FC00FC007E01F80FF
:1035800003FFFF0001FFFE0000FFFC00001FE00042
:10359000000000000000000000000000000000002B
:1035A000000000000000000000000000000000001B
:1035B000000000000000000000000000000000000B
:1035C00000000000000000000000000000000000FB
:1035D00000000000000000000000000000000000EB
:1035E00000000000000000000000000000000000DB
:1035F000000000000000000000000000001FE000CC
:10360000007FFC0001FFFE0003FFFF0007E01F80BA
:103610000FC00FC00F8007C00F0003C01F0003E0E2
:103620001F0003E01F0003E01F0003E01F0003E092
:103630000F0003C00F8007C00FC00FC007F03F800E
:1036400003FFFF8001FFFF00007FFE00000E3E0031
:1036500000007C000000FC000000F8000001F00009
:103660000001F0000003E0000007C0000007C000F8
:10367000000F8000001F8000001F0000003E0000BF
:10368000000000000000000000000000000000003A
:10369000000000000000000000000000000000002A
:1036A000000000000000000000000000000000001A
:1036B000000000000000000000000000000000000A
:1036C00000000000000000000000000000000000FA
:1036D00000000000000000000000000000000000EA
:1036E00000000000000000000000000000000000DA
:1036F00000000000000000000000000000000000CA
:1037000000000000000000000000000000000000B9
:1037100000000000000000000000000000000000A9
:103720000000000000000000000000000000000099
:103730000000000000000000000000000000000089
:103740000000000000000000000000000000000079
:103750000000000000078000000FC000001FE00014
:10376000001FE000001FE000000FC0000007800005
:103770000000000000000000000000000000000049
:103780000000000000000000000000000000000039
:103790000000000000000000000000000000000029
:1037A000000000000000000002400000000000A037
:1037B0000000000005400000000000C800000000FC
:1037C0000C4000000000409C000000001940000078
:1037D0000020BCBE0000000034400000BFC91B8EAA
:1037E00000000004B5400000504BCFD06607E2CF88
:1037F000010000006C4100003E8251AADFEEA734B8
:1038000001000000D9420000DCB5A0E23A301F9769
:10381000FFFFFFFFB4450000FD25A0C8E9A3C14F8D
:10382000FFFFFFFFFF3F00000000008000000000DE
:10383000FF3F000000000080000000007838000812
:1038400000000020E812000028010008043F0008E2
:10385000E812002060060000840100081C0000003F
:1038600043000000F8FFFFFF0C0000000E00000006
:103870000F0000002E000000011E031D2041021C4D
:10388000010A1A3E1E041B01FFC11503E1E11102EA
:103890001860120E13391103173878150C1C1D11FE
:1038A0000317088C1C08FF891E0A1684960B19E35F
:1038B000C11E12031361110318F886671C01110160
:1038C000F8821B1FC004614B7F80071A015A593CC4
:1038D00023FFF04A3E7153FFE07BE381782401FF30
:1038E000FC523C2A0729312A413C49D22403FFFEDD
:1038F000527C6C0FFFF878114B08883123E07E4A28
:10390000781E1AC047311A3E1E4AF9471B07C0935A
:103910004934121F1929391E91240F800F49295A41
:103920001F9E9A1C1E19204A011E1A1E0249AAB97E
:103930001E4A03CA09131E55078003C07A3C1E2B7A
:10394000FFFFCA49988B80071E5AE06699986B075B
:10395000801E4C01F80FD6B97A691EFD03183FBCD2
:103960001E7A7F1EF30878121F3B1FFF791B3C1E37
:103970001EF270121E3B3FFFD31B3C3E5A49DDA195
:103980001A3E1E39A94E3C3F1E01F9BF413A03A021
:10399000127C5C7F03F81E118AE11E430F0F1AF898
:1039A00020491E133E1E4A01BF412A380C1301F85C
:1039B0001A78204996A91E1CE0F8605F3AF03E494B
:1039C000D2991E250183F8301B07E01E0A113C1E08
:1039D0001C03F8187D12C00A12F01E250303F80814
:1039E0000B141F801E250203F004223FA91E79D26A
:1039F000250603F0060A157E1E250403E1C619AF4D
:103A000059961A1E021182E02D0CE1CFF31B39D218
:103A10004B03C01E82F0150DF99FF31A010F1A789F
:103A20001E19D9121F1A3E4B198B491E14FC4FF355
:103A30001A034B1A7C3E1B0FF01E19666B3FFC5A93
:103A400014FF03F31A07872C3F03F01E1B0FC01A45
:103A50008A0F1E1339F34F0FFFFF801FFF1E1AFF3F
:103A600084913D0CFE78721E2C0FFFE01E1A072574
:103A7000A13D043878021E2C07FF80961A0125A16B
:103A800012063BFC061E1122FE19D211B37F8005DF
:103A90001A0201FC0C051A0301FC080B1A01031E93
:103AA00011041BC1F830041B604060123019A901D9
:103AB00019AB1E07C3F9970229F8192A0A187F4B78
:103AC00012F00C1701FFE06612F00B1703FF6A13E8
:103AD00003E00C1907FFFC1E0B170FC01E1307C0D5
:103AE0000C170F803E1E1280121FBA1E4E994A1BE1
:103AF0000F801C09181E211A1E3EB1A302041919B9
:103B00002A1E2309141E1955D91EA307FEFA3C1EAE
:103B1000A30E06FA7C1EA30C03EB79F81E94180181
:103B20008013FFFE141E1E0F93F00812308AC01E71
:103B300012FF971E1F0F01F818126082E0900B0110
:103B4000FFFF801E3F0F019C301AE020691E2CF8F9
:103B50000FC01E930C201AC05C712D03F007E05AB1
:103B60007A0C307D03FFFFFC0C1CE003E0967B0128
:103B70000C8AAA071E1CC001E0D27B019DC63A0632
:103B800003592A591E7AF91EA93C1D078001F01E0F
:103B90001192F3A978691E794D211A20B609181ED1
:103BA0000A10301E8B0CF01E8A011E3996121F93CC
:103BB00019F87B1801A249D2121E931B9C8B0E0789
:103BC000A21DE003E01F1E93330C8B07FE1E17F0AF
:103BD00007C00F803E8A631E8A0165A80801F80F9E
:103BE000C00FC0FC1EC117FFFF8007FFFC8AC3780F
:103BF000999611137FFF9E03FFF80181B48A611E1D
:103C0000133FFC9E01FFE00180F07A60F0111A077B
:103C1000178A7F2D41021D60091C1E019669B4138D
:103C200007C00A100FF0191251130F80133FFCC484
:103C300001FFE06B01F81E193812FF6B07FF2E51D0
:103C40006A031E221F6EFFFF800FFF10491E72FCC9
:103C50001A3E476D1F800FC010498D8A9E1E15F0B9
:103C600007C01FC27E1A0F7051127C1C03E0031E96
:103C7000C23E6A1E1E12F81603C003C01EBA1E1EE4
:103C80005A07E1391EDAE01E4C3C03C0DA1AF01E76
:103C9000CC01E03C1E5B78011E0A14E01E4AE0DA0B
:103CA00009131E1AF00239DA0A12C01E0C18E3803A
:103CB000701E4D01E78078F81280380E03C3C1E012
:103CC0003C1E1E019E019E0373CA1301C752381287
:103CD0001F380FF003C3E1E03C3E1E01BF81BF83EC
:103CE000F7AC1303CF7A3C1E1AC71E48093F1E01CA
:103CF000C381C3833C1E128E521C8A3E1E4E81C15C
:103D000081C3181E5A9E1E8A3C5A891E5B079C1E40
:103D10002A7C1E49966C80C1801E5A1CC31AF81E4C
:103D200049D2A91E0A1B181E5A805A09131E6A037B
:103D30001E0B25FFFF1E99D21AC0CC09171E1301B6
:103D4000E08A781E1C03E01E1E5DC381C3831E1221
:103D5000F072F0291E2AC01E5CBF81BF1E111AF826
:103D600020691E15E003C01F5F3E019E019E031ED9
:103D70006C7E0FE01E1C01F0071E867C0180018016
:103D80004B3FFF26291EAFF81F800FC0FC1E830F7C
:103D9000FF1AF09AAD800FFFF81E8B03FC1E137FF5
:103DA000FFAC07FFF01EA112F0133FFC0C1601FF41
:103DB000E01E1A0FBF0A117F1A01AD0A1BFF017125
:103DC00059E582407909D91EAA061E2401C3C012F2
:103DD0000C4B801F154C18300F091A1F17891E1A1B
:103DE0003F3E2A401E293C19093B1FF01E4AE31E94
:103DF0001A7107391E495859094B01E61EDB60E06C
:103E00001E3A181E1EA6C0F803CC1E2D603C07FFEC
:103E10001E127E3A7E0913181F123E1F01A4C1FE16
:103E200007EC1E116AFF1E490915183F80FF2F017C
:103E3000B4C3860E1C1E4BC380964A0109180B188A
:103E400070C0C38001BCC3070C1E6C3801811E4AC0
:103E50008081280A60E1C1800198C3030CF03A8197
:103E60001E5B1FF01E7E1FF06061801E6B07C11E6F
:103E7000113AC01E1AC01E114B01801E115BE1FFDA
:103E80005A113AFE5A9CC07FE11E7A611E3A1F0900
:103E9000D91E598D1A061329091B606081691E0AF3
:103EA00012C01E1A801E39D21AE01E4A60D21A8130
:103EB000FD1E4018706001D21D80C3860E1E3C702E
:103EC000E0C315191E4AC1091C70C0C31E15C1FEEE
:103ED00007EC15803FC0FF2A7F152D7FF0FF80097A
:103EE0002A3812170180C0F803CC13801F123E4AF3
:103EF0003F1E3A7E092A18127162808240790909B0
:043F00003C1E000063
:04000005080000ED02
:00000001FF
