:020000040800F2
:10000000C80600209D010008471A0008FD180008D6
:10001000451A000823070008E51E0008000000003C
:10002000000000000000000000000000AD1A000801
:10003000E107000800000000491A0008AF1A000894
:10004000B7010008B7010008B7010008B7010008B0
:10005000B7010008B7010008B7010008B7010008A0
:10006000B7010008B7010008B7010008B701000890
:1000700025070008B7010008B7010008B70100080C
:10008000B7010008B7010008B7010008B701000870
:10009000B7010008B7010008B7010008B701000860
:1000A000B7010008B7010008B7010008B701000850
:1000B000B7010008B7010008B7010008B701000840
:1000C000B7010008B7010008B7010008B701000830
:1000D000B7010008B7010008B7010008251E000895
:1000E000B7010008B7010008B7010008B701000810
:1000F000B7010008B7010008B7010008B701000800
:10010000B7010008B7010008B7010008B7010008EF
:10011000B7010008B7010008B7010008B7010008DF
:10012000B7010008B7010008B7010008B7010008CF
:10013000B7010008B7010008B7010008B7010008BF
:10014000B7010008B7010008B7010008B7010008AF
:10015000B701000831070008B7010008D91E0008E0
:10016000B7010008B7010008B7010008B70100088F
:10017000B7010008B7010008B7010008000000003F
:10018000B7010008B7010008DFF80CD000F048FA0A
:100190000048004711280008C8060020064880478C
:1001A00006480047FEE7FEE7FEE7FEE7FEE7FEE75C
:1001B000FEE7FEE7FEE7FEE7391B000889010008BD
:1001C0002DE9F05F0546002092469B46884606468C
:1001D000814640241BE0284641464746224600F01F
:1001E00057F853465A46C01A914110D31146184643
:1001F000224600F03EF82D1A67EB01084F462246D2
:100200000120002100F035F817EB00094E41201EB7
:10021000A4F10104DFDC484631462A464346BDE8E6
:10022000F09FD2B201E000F8012B491EFBD27047CB
:100230000022F6E710B513460A4604461946FFF7B2
:10024000F0FF204610BD30B50B46014600202022AD
:10025000012409E021FA02F59D4205D303FA02F5D3
:10026000491B04FA02F52844151EA2F10102F1DC33
:1002700030BD202A04DB203A00FA02F1002070474A
:100280009140C2F1200320FA03F3194390407047D4
:10029000202A04DB203A21FA02F00021704721FADB
:1002A00002F3D040C2F12002914008431946704742
:1002B0002DE9FE4F804681EA0300C00F0C460090F6
:1002C00021F0004123F00045B8EB0200A94105D21E
:1002D0004046214690461C460B46024623F000400D
:1002E000104347D0270DC7F30A00C3F30A51029009
:1002F000401A019040286BDAC3F3130040F4801BCE
:100300000098924620B10023D2EB030A63EB0B0B5B
:1003100001985946C0F140025046FFF7AAFF064631
:100320000D4650465946019A00F08CF910EB080032
:100330006141002487EA115284EAE7731A4340D0EE
:10034000009A62B3019A012A4FEA075215DC001B9A
:1003500061EB02014FF0004202EA0752CDE9004290
:10036000001C41F5801132462B4600F08CF903B099
:10037000BDE8F08F40462146F9E7001B61EB020122
:10038000001C41F5801300185B412018A2F50017EE
:1003900047EB030140EAD570B6196D4111E06D08D5
:1003A0004FEA360645EAC0754FEA0752001B61EB7B
:1003B0000201001C41F5801149084FEA3000001984
:1003C000514132462B4603B0BDE8F04F00F04CB926
:1003D0000098012240000023D0EB020263EBE0739F
:1003E000009821464FEAE074B8EB000061EB04018D
:1003F000E9E783F000435BE781F0004158E72DE92E
:10040000FE4F81EA030404F0004421F0004100940F
:100410004FF0000B23F0004350EA01045ED052EA93
:1004200003045BD0C3F30A54C1F30A552C44A4F26D
:10043000F3340194A0FB0254C1F3130141F4801181
:10044000C3F3130343F4801301FB024400FB034E88
:10045000840A970A44EA815447EA8357A4FB076851
:1004600002958D0A05FB07854FEA932C04FB0C547B
:100470002705029D4FEA065847EA1637B5EB0805EF
:100480006EEB070C870E920E47EA811742EA831241
:10049000A7FB0201B6EB0B0164EB00042B0D43EA52
:1004A0000C335E1844EB1C50DA465146E7FB020160
:1004B000C5F313044FEA0B3343EA14534FEA0432F3
:1004C000019C43EA0603A4F10C040294009CCDE9CC
:1004D00000B400F0D8F803B0BDE8F08F002001466A
:1004E000F9E72DE9F04D81EA030404F0004B21F017
:1004F000004514464FF0000A23F0004150EA05027F
:1005000020D054EA01021DD0C5F30A570246C5F3B4
:100510001303C1F31300C1F30A5640F4801543F4EA
:100520008013A7EB0608101BD64608F2FD3873EBC4
:10053000050002D308F1010801E092185B41B8F10F
:10054000000F03DA00200146BDE8F08D00204FF4D3
:100550008011064684460EE0171B73EB050705D392
:10056000121B63EB050306434CEA010C49084FEAF2
:10057000300092185B4150EA0107EDD152EA0300C6
:1005800012D082EA040083EA0501084305D0101B5B
:10059000AB4106D20122002306E000224FF00043C7
:1005A00002E06FF0010253101AEB06004CEB085109
:1005B00010EB0A0041EB0B01BDE8F04D00F054B820
:1005C000C1F30A52C1F3130140F2FF3341F4801129
:1005D0009A4202DA00200146704740F233439A42C1
:1005E000A2F2334202DC5242FFF752BEFFF741BE95
:1005F00030B5041E71F1000404DB4FF000444042AA
:1006000064EB0101141E73F1000405DB1C464FF07E
:100610000043524263EB0403994208BF904230BD4D
:10062000064C074D06E0E06840F0010394E807003F
:1006300098471034AC42F6D3FFF7AAFD4C2A0008C5
:100640006C2A0008202A06DBCB17203A41FA02F078
:1006500043EAE07306E041FA02F3D040C2F120021F
:10066000914008431946704710B5141E73F10004F9
:1006700008DA401C41F1000192185B411A4301D194
:1006800020F0010010BD2DE9F04D92469B4611B1BE
:10069000B1FA81F202E0B0FA80F220329046FFF720
:1006A000E8FD04460F4640EA0A0041EA0B015346C2
:1006B0005A46084313D0114653EA010019D0C8F135
:1006C00040025046FFF7E4FD05460E4650465946A7
:1006D0004246FFF7CEFD084305D0012004E0204646
:1006E0003946BDE8F08D0020054346EAE0762C430C
:1006F00037430A986305E40AA0EB08000022FD0ACC
:1007000044EA47540A3002D500200146E9E70105D2
:1007100010196941DDE9084500196941BDE8F04D4E
:10072000A2E7FEE7014800F0B9B800000802002087
:10073000014800F0B3B800006802002001681823E7
:10074000CAB2103AB2FBF3F2054B6FF30901032A68
:100750009B5CC36500D9091D816508467047000090
:10076000A429000810B5014600208B698A6A4FF061
:10077000C07453B1B3F5005F15D072B1012A0CD02B
:10078000022A0AD0032A09D104E01AB1012A06D0AC
:10079000022A03D1C96AC90100D5012010BDC96A66
:1007A000A142FAD010BD002AF7D0012AF2D0022AC5
:1007B000F3D0032AF3D010BD30B50468256825F4C2
:1007C00080252560046863608368402B036803D03C
:1007D00099600068C26030BD9A600068C16030BD39
:1007E000704770472DE9F0410446876D00F0D8FA54
:1007F000064694F835000025022806D08020606562
:1008000084F834500120BDE8F0812068016821F0AF
:10081000160101602068416921F080014161206C6E
:1008200008B9A06C20B12068016821F008010160BE
:100830002068016821F0010101600CE000F0B0FACD
:10084000801B052807D920206065032084F8350027
:1008500084F83450D7E720680068C007EED194F8D8
:100860005C103F208840B860012084F8350084F88F
:1008700034500020C7E790F83510022903D08021BA
:10088000416501207047052180F835100068016836
:1008900021F0010101600020704700002DE9F843BC
:1008A00004464FF00009CDF8009063484FF416510C
:1008B000A56D0068B0FBF1F72E6894F85C10082075
:1008C00000FA01F131420FD021680A6852070BD5B6
:1008D0000A6822F004020A6094F85C108840A8605C
:1008E000606D40F00100606594F85C104FF0010805
:1008F00008FA01F0304208D021684969090604D598
:10090000A860606D40F00200606594F85C100420FF
:100910008840304208D021680968890704D5A8605A
:10092000606D40F00400606594F85C101020884011
:10093000304218D021680968090714D5A8602068DA
:100940000168490304D50068000308D5A16C07E0DD
:100950000168C90503D4016821F008010160216C18
:1009600009B12046884794F85C1020208840304226
:1009700031D021680968C9062DD5A86094F83500E2
:1009800005282068016806D0490347D500680003A0
:100990001DD4616C1CE021F01601016020684169E2
:1009A00021F080014161206C08B9A06C20B1206861
:1009B000016821F00801016094F85C103F20884034
:1009C000A86084F8358084F83490216D1FE0E16BD5
:1009D00009B120468847606D00282BD0606DC007A4
:1009E00014D0052084F835002068016821F0010149
:1009F00001600098401C0090B84203D8206800684D
:100A0000C007F6D184F8358084F83490E16C002971
:100A100010D001B02046BDE8F04308470168C90581
:100A2000D5D4016821F01001016084F8358084F884
:100A30003490CCE7BDE8F8831C0000202DE9F0419C
:100A4000044600F0ADF906465CB1022084F835009A
:100A5000002584F834502068016821F0010101600C
:100A60000DE00120BDE8F08100F09AF9801B052817
:100A700005D920206065032084F83500F2E720685E
:100A80000068C007F0D12268116820480140D4E90D
:100A900001031843D4E90336334318436369184309
:100AA000A3691843E3691843236A18430843616A3A
:100AB000042903D1D4E90B131943084310602068BB
:100AC0004069666A20F0070130460E43012704287A
:100AD0000CD1A06A0643E06A40B12046FFF742FE0F
:100AE00020B14020606584F83570BAE7206846611F
:100AF0002046FFF723FE94F85C203F21914081605F
:100B0000656584F835700020ACE700003F8010F088
:100B10002DE9F0410446866D90F834000025012847
:100B20000DD0012084F8340094F835700020012F96
:100B300007D084F8340002252846BDE8F081022061
:100B4000FBE7022784F8357060652046FFF734FE26
:100B500094F85C103F208840B0602068016841F044
:100B600016010160206C20B12068016841F0080185
:100B700001602068016841F001010160DCE70000CC
:100B800070B5044600F00CF90546601C02D004481C
:100B90000078044400F004F9401BA042FAD370BD71
:100BA000100000202DE9F84FDFF8BCA1002201253C
:100BB00003264FF00F090AF1040BAAF1040E00BF3F
:100BC0000B6805FA02F42340A34270D10F7907F0B5
:100BD0000307012F01D0022F16D187684FEA420880
:100BE00006FA08FC27EA0C07D1F80CC00CFA08FC3E
:100BF0004CEA070CC0F808C04768A7430C79C4F357
:100C0000001494403C4344600C79E443A4070AD0A8
:100C1000C4684FEA420C06FA0CF7BC438F6807FA27
:100C20000CF72743C7600C7904F00304022C12D19F
:100C3000D40800EB840CDCF820405707FF0E09FABB
:100C400007F824EA0804D1F8108008FA07F848EAFF
:100C50000408CCF8208004684FEA420C06FA0CF72E
:100C6000BC430F7907F0030707FA0CF72743076027
:100C70004C6814F4403F70D03C4C276847F48047E0
:100C80002760246822F0030704F480440094384C61
:100C900007EB040CDCF8084897074FEA177809FAC5
:100CA00008F7BC43334FB84202D1002724E054E098
:100CB000314FB84201D101271EE0304FB84201D177
:100CC000022719E02E4FB84201D1032714E02D4F1F
:100CD000B84201D104270FE02B4FB84201D10527BC
:100CE0000AE02A4FB84201D1062705E0284FB84252
:100CF00001D1072700E0082707FA08F72743CCF8B7
:100D00000878DAF800405746D1F804C09C435FEAFF
:100D1000CC2C00D51C433C60DBF800405F46D1F88A
:100D200004C09C435FEA8C2C00D51C433C60DEF879
:100D300000407746D1F804C09C435FEA8C3C00D564
:100D40001C433C60084F083F3C68D1F804C09C43FA
:100D50005FEACC3C00D51C433C60521C102AFFF4D7
:100D60002FAFBDE8F88F0000083C01404438024036
:100D70000030014000000240000402400008024030
:100D8000000C024000100240001402400018024013
:100D9000001C02400AB1816170470904FBE70000B2
:100DA00001488068704700001000002002488168F8
:100DB0000278114481607047100000200B4810B584
:100DC000016841F400710160016841F480610160D3
:100DD000016841F480710160032000F06FF8002089
:100DE00000F006F800F024F8002010BD003C02409E
:100DF00070B50D4D04464FF47A712878B1FBF0F0D0
:100E00000A490968B1FBF0F000F00CFB48B9102C5E
:100E100007D200222146501E00F030F800206C60FE
:100E200070BD012070BD0000100000201C000020DB
:100E30000A4808B5016841F480410160006800F487
:100E4000804000900548001F016841F0805101601A
:100E5000006800F08050009008BD00004438024057
:100E6000002809DB00F01F020121914040098000A9
:100E700000F1E020C0F8001170470000F0B40E4B04
:100E80001B680C46C3F30223C3F10705042D00D9E8
:100E90000425191D072901D2002300E0DB1E0126CD
:100EA00006FA05F1491E214099409E40761E1640E3
:100EB0003143F0BC01F02AB80CED00E0064900F027
:100EC000070208684FF6FF03184040EA0220034A71
:100ED00010430860704700000CED00E00000FA05C8
:100EE0002DE9F0470E46050065D0DFF81481D8F8EB
:100EF0000000F7B200F00700B04207D288F8007097
:100F0000D8F8000000F00700B04254D128683D4CEA
:100F1000810712D5400703D5206840F4E0502060D7
:100F20002878000703D5206840F4604020602068DE
:100F3000A96820F0F000084320602878C0072DD071
:100F4000304968680839012812D0022813D00328D4
:100F500011D00968890700292DDA216821F00301E1
:100F600001432160FFF71CFF814641F2883A0EE001
:100F700009688903EFE709688901ECE7FFF710FFCB
:100F8000A0EB0901514502D90320BDE8F087206894
:100F9000696800F00C00B0EB810FEFD1D8F80010B9
:100FA000404601F00701B14207D90770006800F020
:100FB0000700B04201D00120E7E72878400705D5B7
:100FC0002068E96820F4E050084320602878000792
:100FD00006D52068296920F4604040EAC1002060FD
:100FE00000F038F82168084AC1F30311515CC84089
:100FF0000649086006480068FFF7FAFE0020C4E7CB
:10100000003C024008380240AC2900081C000020C7
:10101000140000200448054900680968044AC1F327
:101020008221515CC84070471C00002008380240F3
:10103000BC2900080448054900680968044AC1F34E
:101040004231515CC84070471C0000200838024003
:10105000BC290008154810B5006810F00C021448AF
:1010600013D01449042A0FD0082A0ED10F4C241F84
:101070002268236802F03F025B0207D52068C0F3B4
:101080008810A0FB010106E0084610BD2168C1F3ED
:101090008811A1FB00010023FFF792F82168C1F33A
:1010A0000141491C4900B0FBF1F010BD0838024075
:1010B0000024F400001BB7002DE9F84F04006ED0A7
:1010C0002078DFF84C93C007A9F104054AD009F154
:1010D00004000168C1F38101012908D00068C0F350
:1010E000810002280AD1D9F80000400206D52868FC
:1010F000800337D560680028E1D033E06068B0F540
:10110000803F10D0B0F5A02F286810D020F4803098
:101110002860286820F4802028606068A8B1FFF764
:101120003FFE06460DE0286840F48030F4E740F4C6
:1011300080202860F7E700BFFFF732FE801B64289D
:1011400073D828688003F7D50CE0FFF729FE064620
:1011500005E000BFFFF724FE801B6428F0D8286854
:101160008003F7D42078DFF8AC8280074FF0000AC4
:101170003ED5A748001D016811F00C0F08D000688B
:10118000C0F3810002280BD1D9F80000400207D437
:101190002868800716D5E068012800D112E033E105
:1011A000E068B8B10120C8F80000FFF7F9FD064675
:1011B00005E000BFFFF7F4FD801B0228C0D82868B7
:1011C0008007F7D52868216920F0F80040EAC100BF
:1011D00028600DE0C8F800A0FFF7E2FD064604E035
:1011E000FFF7DEFD801B02281FD828688007F7D490
:1011F0002078000722D5864F87486169703771B122
:1012000001210160FFF7CCFD064604E0FFF7C8FDB1
:10121000801B022809D838688007F7D50EE0C0F88F
:1012200000A0FFF7BDFD064605E082E0FFF7B8FD30
:10123000801B02287DD838688007F7D420784007C3
:1012400068D5DFF8CCB100270BF13C0BDBF80000D0
:10125000C0000BD4DBF8001041F08051CBF8001037
:10126000DBF80000012700F0805000906B4E3068E2
:10127000C00510D4306840F480703060FFF790FDF6
:10128000009005E0FFF78CFD0099401A022850D825
:101290003068C005F6D55E4EA0686C3601280FD0C8
:1012A0000528306810D020F001003060306820F050
:1012B00004003060A068B8B1FFF772FD00900FE045
:1012C000306840F00100F4E740F004003060F7E7D8
:1012D000FFF766FD0099411A41F28830814266D8D5
:1012E00030688007F4D50EE0FFF75AFD009007E064
:1012F000FFF756FD0099411A41F28830814256D8D5
:1013000030688007F4D42FB1DBF8001021F0805151
:10131000CBF80010A069C8B33D49091D0968C1F3A5
:10132000810102294AD00228504607D0C8F860003F
:1013300000E03CE0FFF734FD04463BE04746C8F8D8
:101340006000FFF72DFD064605E000BFFFF728FD12
:10135000801B02282BD828688001F7D4D4E9070124
:101360000843A16A2E4A490802EB0141626A41EA38
:101370008211084394F82C1040EA0161C9F800106A
:1013800001203866FFF70CFD044606E03EE000BF92
:10139000FFF706FD001B022809D828688001F7D551
:1013A00034E000BFFFF7FCFC001B022802D9032039
:1013B000BDE8F88F28688001F4D427E00128F7D031
:1013C000D9F80000E26900F4800191421CD1226A40
:1013D00000F03F01914217D147F6C071626A0140A7
:1013E000B1EB821F10D1A26A4FF0FF3300F44031FD
:1013F00003EB5202B1EB024F06D194F82C1000F02F
:101400007060B0EB016F01D00120D1E70020CFE781
:101410000438024000004742800E474200700040FE
:101420000000FFFF10B5401EB0F1807F01D3012006
:1014300010BD4FF0E02460610F21601700F066FDE1
:101440000020A06107202061002010BD7047704778
:10145000F8B5016804460868CA684B6910F00F0FB8
:101460004FF0000559D003F0010602F4907737439E
:1014700065D0C10705D0D10503D5216C41F001012C
:101480002164410705D5D90703D0216C41F0020141
:101490002164810705D5D90703D0216C41F00401EF
:1014A0002164010707D502F02001314303D0216CEC
:1014B00041F008012164216C00293AD0800604D54E
:1014C000900602D5204600F0C7FB20684069216CD9
:1014D000C0F38010090700D460B3204600F087FBFA
:1014E00020684069400621D52068143050E8001F6C
:1014F00021F0400140E80012002AF5D1A06BA8B10C
:101500006C490165A06BFFF7B6F9002811D0A06BFC
:10151000016D01B0BDE8F040084783060FD5930682
:101520000DD52046BDE8F84000F096BB2046FFF7F9
:101530008EFFF8BD2046FFF78AFF2564F8BD266BB5
:101540002023012E79D1C60677D5D60675D5086831
:10155000486800904869400640D5A16B086840681B
:101560000004000CEAD0A28D8242E7D9E085C86968
:10157000B0F5807F2DD020680C3050E8001F21F49A
:10158000807140E80012002AF5D12068143050E83C
:10159000001F21F0010140E80012002AF5D1206867
:1015A000143050E8001F21F0400140E80012002AEA
:1015B000F5D184F83E30256320680C3050E8001FD8
:1015C00021F0100140E80012002AF5D1A06BFFF7CE
:1015D00009F9A08DE18D401A81B229E0A08DE18D3D
:1015E000401A81B2E08D0028A8D00029A6D020683A
:1015F0000C3050E8002F22F4907240E80026002EB4
:10160000F5D12068143050E8002F22F0010240E8A4
:101610000026002EF5D184F83E30256320680C307A
:1016200050E8002F22F0100240E80023002BF5D1F3
:101630002046FFF70BFFF8BDFFE705062BD5150683
:1016400029D594F83D002128F5D1A068B0F5805F38
:1016500001D12069B0B1206A411C21622168007863
:101660004860E08C401E0004000CE084E3D1206858
:10167000C16821F08001C1602068C16841F040016B
:10168000C160D8E7206A0088C0F308004860206A7B
:10169000801C2062E5E74006CDD55006CBD5CA6850
:1016A000204622F04002CA6084F83D3000F024F960
:1016B000C1E70000491B000870B5040004D094F88D
:1016C0003D00002510B106E0012070BD84F83C50BB
:1016D000204600F023F8242084F83D002068C168EB
:1016E00021F40051C160204600F016FB206801691A
:1016F00021F4904101612068416921F02A01416192
:101700002068C16841F40051C1602564202084F83C
:101710003D0084F83E00002070BD00002DE9F0413E
:1017200086B0064614216846FEF782FD4748DFF87A
:1017300018C13168002502220123032407154FF444
:101740004038614539D141491031D1F800C04CF4DD
:10175000802CC1F800C0096801F48021059101685E
:1017600041F0040101600068694600F00400059042
:10177000A0028DE81D00072004903548FFF712FAFB
:10178000354C344820607804C4E90105C4E90357A6
:10179000C0146561C4E90650C4E908852046FFF716
:1017A0004DF908B1FFF71DF8B46300221146272058
:1017B000A663FFF763FB272040E0DFF8A0C0614588
:1017C0003ED122491431D1F800C04CF0200CC1F8B0
:1017D00000C0096801F020010591016841F0400155
:1017E00001600068694600F0400005904FF48440B5
:1017F0008DE81D00082004901948FFF7D3F9164C16
:101800001848603404F1080120604FF020606060E7
:10181000402081E8A1006561A561C4E90758204620
:101820006562FFF70BF908B1FEF7DBFF7463002276
:1018300011464720A663FFF721FB4720FFF710FB67
:1018400006B0BDE8F081000000480040303802409A
:1018500000080240286002400802002000140140F5
:1018600000180240A06402407047000070B50446B2
:1018700090F83D00202836D191B38AB394F83C000B
:10188000012830D0012084F83C002162A284E28447
:1018900000252564212084F83D00636B1348D8633C
:1018A000636B13481864636B1248D864606B13460B
:1018B00005652668606B321DFFF72AF921686FF015
:1018C0004000086084F83C502068143050E8001F45
:1018D00041F0800140E80012002AF5D1002070BDDF
:1018E000FFE70120FBE70220F9E70000A31B000847
:1018F000E51B0008591B000870477047FEE7000011
:10190000114808B5016841F400110160016801F453
:1019100000110091016841F480010160006800221B
:1019200000F48000009011460C20FFF7A7FA0C206D
:10193000FFF796FA002211464520FFF79FFABDE80F
:1019400008404520FFF78CBA3038024070B586B0A9
:1019500014216846FEF76CFC1A480025016841F026
:1019600040010160016801F040010591016841F00A
:1019700001010160016801F001010591016841F078
:1019800004010160016801F004010591016841F062
:101990008001016000680C4E00F080004FF4E054BC
:1019A0000590012221463046FFF7F4F90121CDE9E7
:1019B0000041CDE9021569463046FFF7F3F806B05D
:1019C00070BD000030380240001C02400D4810B5C8
:1019D0000B4901600C49416000214FF48062816035
:1019E000C0E903120C22C0E90521C161FFF764FEC2
:1019F000002803D0BDE81040FEF7F3BE10BD000084
:101A00000048004080010020A08601000C4810B56D
:101A10000A4901604FF4E1314160002181600C22EC
:101A2000C160C0E904128161C161FFF745FE002871
:101A300003D0BDE81040FEF7D4BE10BD0014014035
:101A4000C4010020FEE7FEE77047000030B5144BEC
:101A50001C68656945F0400565611B68DC6844F0F9
:101A60001004DC600F4B1C68256825F0010525601B
:101A70001C682568ED07F7D11D680B4CAC601C682D
:101A8000E06018680161186842601868016841F4F4
:101A9000802101601868016841F00101016030BDDA
:101AA0008001002008020020044800407047FFF732
:101AB0007DB9000030B593B030216846FEF7B8FB21
:101AC00014210CA8FEF7B4FB19480025016841F069
:101AD00080510160006800F0805011901548016845
:101AE00041F4804101600068022400F480401190BC
:101AF00001200090000401908001CDE906400620FD
:101B00000890A820CDE9090404200B906846FFF74F
:101B1000D3FA0CA90F2081E831004FF4A0500F90A8
:101B2000E002109005210CA8FFF7DAF913B030BDE0
:101B300040380240007000400248016841F47001E2
:101B40000160704788ED00E010B5806B0021C18511
:101B5000C184FFF77CFC10BD70B5846B20684069C0
:101B600094F83D10C0F3C0100025212904D118B10C
:101B7000E584204600F062F82068406994F83E1041
:101B8000C0F38010222904D118B1E585204600F069
:101B90002EF8206C40F0100020642046FFF757FC20
:101BA00070BD10B50146806B09680968C90516D477
:101BB0000021C1840168143151E8002F22F0800215
:101BC00041E80023002BF5D101680C3151E8002FCA
:101BD00042F0400241E80023002BF5D110BDFFF791
:101BE0008BFE10BD10B5806BFFF787FE10BD01683E
:101BF0000C3151E8002F22F4907241E80023002BB1
:101C0000F5D10168143151E8002F22F0010241E8BA
:101C10000023002BF5D1016B012909D101680C319A
:101C200051E8002F22F0100241E80023002BF5D1EB
:101C3000202180F83E1000210163704701680C31BB
:101C400051E8002F22F0C00241E80023002BF5D11B
:101C5000202180F83D10704708B590F83E102229E9
:101C600001D0022008BD82684FF480539A4201D10E
:101C7000016921B1816A9A421BD04AB10AE0026827
:101C8000816A5268C2F308020A80816A891C08E0EE
:101C9000026972B10268526802F07F020A70816ABA
:101CA000491C8162C18D491E0904090CC18503D0FC
:101CB00019E002685268F1E70168CA6822F0200260
:101CC000CA600168CA6822F48072CA6001684A6901
:101CD00022F001024A61202180F83E10016B0129A7
:101CE00003D0FFF7C1FD002008BD0021016301689A
:101CF0000C3151E8002F22F0100241E80023002BA4
:101D0000F5D101680A68D20602D50A6849680091CF
:101D1000818DFFF79BFBE6E770B50446006801691B
:101D2000E26821F44051114301612169A068E26930
:101D300008436169114308432168CA6849F20C638A
:101D40009A430243CA6020684169A26921F4407144
:101D50001143416131492068884202D030498842AC
:101D600002D1FFF767F901E0FFF754F9E2690023B8
:101D7000192164253226B2F5004F626828D0A0FBF5
:101D80000101930F9200FEF71BFA0146B0FBF5F03C
:101D90006FF01802504301EB800006EB0010B0FB1F
:101DA000F5F000F0F002B1FBF5F002EB0012B1FB30
:101DB000F5F06FF01803584301EB800006EB0010BC
:101DC000B0FBF5F000F00F0021681044886070BD92
:101DD000A0FB010192185B41FEF7F2F90146B0FB4E
:101DE000F5F00201B1FBF5F06FF01803584301EB79
:101DF000800006EBC000B0FBF5F000F0F80002EB4D
:101E00004002B1FBF5F0584301EB800006EBC00047
:101E1000B0FBF5F000F00700D6E70000001001402D
:101E200000140140264818B400680168890604D5EA
:101E300001684068009018BC704722490968C906CB
:101E4000F9D501684068204A0090106801684FF099
:101E500024030C031D49046824F00104046016D413
:101E600010684468C4F12404A4B20C804360106874
:101E7000016841F4002101601068016841F001012E
:101E80000160122CD7D1124901F1160015E0146837
:101E90006068C0F1240080B2088063600D498B6ADD
:101EA00023F400238B6211680A6842F001020A6081
:101EB0001228C0D1064901F13A0018BC00F0F2BC6A
:101EC000800100200048004008020020000000209F
:101ED00020000020006002400148FFF7B9BA00006E
:101EE000C4010020FEE7000037B514460846064B43
:101EF0006A46214600F0ECF804466946002000F0EE
:101F00007EFC20463EBD0000FF2700080907090EA1
:101F1000002804DB00F1E02080F80014704700F096
:101F20000F0000F1E02080F8141D704702E008C89F
:101F3000121F08C1002AFAD170477047002001E043
:101F400001C1121F002AFBD1704700002DE9FF5F7D
:101F500082B00021DDE90430020DDDF840B003431A
:101F600018D044F61050A2F2FF32424315141198D3
:101F700001281FD0A5EB0B00401C5FEA000A4FF0C0
:101F800000064E4FDFF83891B046504615D5CAF1DD
:101F9000000413E0119801244AA3012801D16FEA3B
:101FA0000B010298119AC0E90031C0E9024206B063
:101FB000BDE8F09FCBF10000DFE704460021404A76
:101FC000491842EB0450CDE9001012E0E00707D0B9
:101FD00032463B4640464946FEF711FA804689465E
:101FE00032463B4610461946FEF709FA06460F46AA
:101FF0006410002CEAD1DDE90401DDE90023BAF127
:10200000000F06DAFEF7FBF942464B46FEF7F7F9FA
:1020100005E0FEF766FA42464B46FEF762FA0446D2
:102020000E460022284BFEF7E3FA03D84FF0FF30AC
:10203000014607E00022254B20463146FEF738F9DD
:10204000FEF7BEFA102409E0002C0ADB0A22002366
:10205000FEF7B6F8039B30321A55641E50EA0102AF
:10206000F2D1641C039AC4F111031444119A012A99
:1020700003D0012208430DD10AE0084304D0002018
:102080004FF0110B119072E7A3EB0B056D1E0DE0E5
:102090005B4504DD4FF0000205F1010504E003DAC1
:1020A0004FF00002A5F10105002AECD00298119929
:1020B000C0E90231C0E9004579E7000000001440A2
:1020C0000000F03F300000000000F0430000E03F5F
:1020D0002DE9FF4F95B09B468946064600250FE245
:1020E000252877D100242746F84A0121059400E0ED
:1020F000044316F8013F203B01FA03F01042F7D1E8
:1021000030782A2811D06FF02F033078A0F13002F8
:10211000092A16D8059A44F0020402EB820203EB66
:1021200042021044761C0590EFE759F8042B059203
:10213000002A03DA504244F40054059044F00204AB
:10214000761C30782E2816D116F8010F44F00404BE
:102150002A280DD06FF02F023078A0F13003092B20
:1021600009D807EB870302EB4303C718761CF3E794
:1021700059F8047B761C30786C280FD006DC4C288C
:1021800017D068280DD06A2814D104E0742810D024
:102190007A280FD10DE044F400140AE044F48014CE
:1021A00001E044F440147278824202D104F58014B4
:1021B000761C761C307866280BD013DC582877D034
:1021C00009DC002875D04528F6D04628F4D04728E9
:1021D0001AD19DE118E0632835D0642879D06528AC
:1021E00012D195E1702873D008DC6728F1D06928F6
:1021F0006FD06E280DD06F2806D1B5E073282CD093
:10220000752875D0782874D05A46179990476D1C58
:1022100075E1C4F30250022809D003280DD0D9F883
:10222000001004280DD00D6009F1040967E1D9F808
:102230000010EA17C1E90052F6E7D9F800100D8046
:10224000F2E70D70F0E719F8041B8DF8001000207C
:102250008DF80100EA46012003E059F804AB4FF085
:10226000FF3061074FF0000102D40DE008F10101D9
:102270008846B9420FDA8045F8DB1AF808100029C1
:10228000F4D108E008F1010188468142FADB1AF82E
:1022900008100029F6D105985B46A0EB08072146F7
:1022A0003846179A00F094FA284400EB080507E036
:1022B0004DE029E10DE01AF8010B5A4617999047B5
:1022C000B8F10108F7D25B4621463846179A13E168
:1022D00042E00A220092C4F302524FF0000A022A9E
:1022E00008D059F804CB032A4FEAEC710AD00DE06C
:1022F00029E02AE009F1070121F00702F2E802C112
:10230000914609E00FFA8CFC4FEAEC71042A03D1E4
:102310004FFA8CFC4FEAEC71002907DA0A460021DB
:10232000DCF1000C61EB02012D2202E0220504D554
:102330002B228DF80420012203E0E20701D02022A5
:10234000F7E7904659E00A2102E010220DE0102143
:102350004FF0000A00910BE010224FF0000A44F009
:1023600004040827009203E008224FF0000A0092BC
:10237000C4F30252022A05D059F804CB0021032AE3
:1023800008D009E009F1070121F00702F2E802C1D3
:10239000914605E01FFA8CFC042A01D10CF0FF0CD9
:1023A0004FF00008220728D5702806D0009B83F044
:1023B000100353EA0A0305D00EE040228DF80420F2
:1023C000012208E05CEA010206D030228DF80420E8
:1023D0008DF8050002229046009B83F0080353EA23
:1023E0000A030AD15CEA010201D1620705D5302255
:1023F0008DF804204FF001087F1E582804D034A027
:1024000003900EA802900DE036A0F9E7534660460F
:10241000009AFDF7D5FE84460398825C0298401E20
:10242000029002705CEA0100F0D1029806A9081A35
:1024300000F1200A600702D524F4803400E001276F
:10244000574502DDA7EB0A0000E0002000EB0A017F
:10245000009005984144401A0590E00306D45B467D
:102460002146179A059800F0B3F90544002706E0C5
:1024700001A85A46C05D179990476D1C7F1C4745BF
:10248000F6DBE0030CD55B462146179A059800F071
:102490009FF9054404E030205A46179990476D1C77
:1024A0000099481E00900029F5DC08E00298029986
:1024B0005A460078491C0291179990476D1CBAF151
:1024C0000001AAF1010AF1DC65E100000928010020
:1024D000303132333435363738396162636465669A
:1024E000000000003031323334353637383941425C
:1024F000434445460000000000F058F90544761CAE
:10250000307800287FF4ECAD19B02846BDE8F08F94
:10251000620700D4062709F1070222F0070CFCE845
:102520000223E14603F000485FEA080C02D00FF2F4
:10253000702C0DE05FEA045C02D50FF2682C07E016
:102540005FEAC47C02D00FF2602C01E0AFF2700CA5
:102550004FF0FF3823F00043CDF850C065280CD071
:1025600006DC452809D046281DD047283DD13DE04E
:10257000662818D067287ED138E00021112F01DBB2
:10258000112000E0781CCDE9000106A90EA8FFF794
:10259000DDFCDDE90F010E9A03910021009207F1A5
:1025A000010A04914DE04FF000400097CDE9011081
:1025B00006A90EA8FFF7CAFCDDE90F0203920E9BE5
:1025C00011990022DDF80CA00093049211B9791C36
:1025D00000EB010AB7EB0A0004D4C0F1FF3007F1A9
:1025E000010A0490AAEB0700019044E0012F00DAF1
:1025F00001270021112F01DD112000E03846CDE92F
:10260000000106A90EA8FFF7A1FCDDE90F010E9A53
:102610000391002104910092BA4621070CD403993A
:10262000514500DA8A46BAF1010F05DD009AAAF198
:102630000101515C302908D0B84202DA10F1040FD0
:1026400006DA0121CDE9011015E0AAF10101E9E75F
:10265000002805DC049901440491AAEB000102E082
:10266000411C514500DD8A460499401A401C0190E6
:102670004FF000400290200704D40198504501DB40
:10268000CDF8048000208DF84F0002980DF14F071F
:10269000B0F1004F25D02B200E9002984FF0020889
:1026A00000280CDA404202902D200E9007E00A210B
:1026B0000298FDF7C8FD3031029007F8011DB8F10E
:1026C0000001A8F10108F2DC02980028EFD1791E80
:1026D0000E980870307800F0200040F0450007F8B0
:1026E000020D12A8C01B00F107081498007800B171
:1026F000012000EB0A01019801EBE07105984144CB
:10270000401A401E0590E00306D45B462146179A06
:10271000059800F05DF805441498007818B15A4601
:10272000179990476D1CE00324D55B462146179A04
:10273000059800F04DF805441CE00498002807DBDC
:10274000DDE90301884203DD0098405C179901E050
:10275000179930205A469047049805F10105401C0E
:1027600004900198401E019004D12E205A461799DA
:1027700090476D1CBAF10001AAF1010ADDDC05E009
:1027800017F8010B5A46179990476D1CB8F10001D4
:10279000A8F10108F4DC5B462146179A0598ABE6E0
:1027A0002D0000002B000000200000002DE9F0416A
:1027B000044600251E461746880404D405E0394621
:1027C0002020B0476D1C641EF9D52846BDE8F08175
:1027D0002DE9F041044600251E469046C80301D568
:1027E000302700E02027880404D505E0414638461C
:1027F000B0476D1C641EF9D52846BDE8F0810A6813
:10280000531C0B6010707047004870472000002078
:102810008AB0FEF7D3FAFFF74DF9FFF797F8FFF705
:102820006FF8FFF7D3F8FFF7F1F800F033F800F096
:1028300093F8FFF7E9FF154C4FF4FA65A060A16823
:102840000DF1180CB1F910008E8ACB7C8A7C8CE8D3
:102850004D00887A0DF1080CB1F90E60B1F90C3019
:10286000CA7A8CE84D00B1F90820B1F90600CDE92B
:102870000002B1F90430B1F90220B1F900100448A6
:1028800000F074F82846FEF77BF9D8E70400002032
:10289000C429000802492422A1F12400FFF7D6B878
:1028A0005A000020F0B5002855D0002953D00278F6
:1028B000437842EA0322C2F30A020A80437884780A
:1028C000DB0843EA4413C3F30A034B808478C578DA
:1028D000A40944EA8504057944EA8524C4F30A047A
:1028E0008C80057946796D0845EAC615C5F30A0559
:1028F000CD804679C6F301168E724679B609CE723E
:102900008679C77946EA07268E81067A477A46EAAB
:102910000726CE81867AC77A46EA07260E82067B8C
:102920008E74467BCE74867BC77B46EA07268E82F2
:10293000067C407CA2F580620A80A3F580634B8010
:10294000A4F5806446EA00208C80A5F58065CD80E2
:10295000A0F580600881F0BD03480068416941F03E
:102960008001416170470000C40100200FB40B4892
:1029700070B5094C05AA251F22600499FFF7B4FA27
:1029800082B22A800020206004490548FEF76EFFCD
:1029900070BC5DF814FB0000080000207E000020E1
:1029A000C4010020000610160006101600000000EA
:1029B00000000000010203040607080900000000EF
:1029C000010203042A2A2A2A2A2A2A2A2A2A0D0A42
:1029D0006368303A25640D0A6368313A25640D0A4C
:1029E0006368323A25640D0A6368333A25640D0A38
:1029F0006368343A25640D0A73313A25640D0A730D
:102A0000323A25640D0A6D6F7573655F783A2564F7
:102A10000D0A6D6F7573655F793A25640D0A7072E2
:102A20006573735F6C3A25640D0A70726573735F2A
:102A3000723A25640D0A6B65793A25640D0A2A2AD3
:102A40002A2A2A2A2A2A2A2A0D0A00006C2A000881
:102A500000000020200000002C1F00088C2A000825
:102A600020000020A80600003C1F00080000000015
:102A70000000000000000000000000000100000055
:0C2A800010000000000000000024F40022
:040000050800018965
:00000001FF
